:100000000C9457010C9488010C9488010C9488017D
:100010000C9488010C9488010C9488010C9488013C
:100020000C9488010C9488010C9488010C9488012C
:100030000C9488010C9419070C9488010C94880185
:100040000C9488010C94CC070C9488010C948801C2
:100050000C9488010C9488010C9488010C940F0670
:100060000C9488010C94E3060C94B9060C94880156
:100070000C9488010C9488010C9488010C948801DC
:100080000C949E070C9488010C9488010C948801B0
:100090000C9483060C9459060C9488010C948801E6
:1000A0000C9488010C9488010C9470070C948801BE
:1000B0000C9488010C9488010C9488010C944207DC
:1000C0000C9488010C9488010C9488010C9488018C
:1000D0000C9488010C9488010C9488010C9488017C
:1000E0000C9488010C94C0020C942B0E0C94970273
:1000F0000C94210E0C94A80D0C94F40D0C94170E76
:100100000C94A2020C94030E0C944D030C9439032E
:100110000C94D60D0C94BC0D0C949D030C94CE0D38
:100120000C94A30D0C94C8020C94EA0D0C94FA07DD
:100130000C940D0E0C9493020C94D2020C949E0D10
:100140000C947C020C94A8020C94B2020C949F02B2
:100150000C94AC020C942A030C9481020C94FD02C2
:100160000C94B20D0C94EA030C94CE020C945B0335
:100170000C94BA020C94C60D0C94E00D0C94350E40
:100180000C94B6020C94C4020C949B0200000A0B5F
:1001900002090C0D0E080703040100000000000016
:1001A000000000000000000000000000000000004F
:1001B000000000000000000012111000000000000C
:1001C000000000000000000000000000000000002F
:1001D000000000002100240027002A002D0030002C
:1001E000330001010000040107010A0100002000A2
:1001F0002300260029002C002F00320000010000FF
:1002000003010601090100002200250028002B003F
:100210002E003100340002010000050108010B012D
:1002200005050505070508080808020202020A0A72
:100230000808040404040101010101010101030390
:10024000030303030303040707070C0C0C0C0C0C3B
:100250000C0C0202020206060606060606060B0B38
:100260000B0B0B0B0B0B0102102020080810204079
:10027000102040800201020108040201010204086A
:1002800010204080804020100804020180040201F8
:100290008040201008040201080402010102040841
:1002A000102040800102040810204080FA07112429
:1002B0001FBECFEFD1E2DEBFCDBF00E00CBF12E02A
:1002C000A0E0B2E0E4E7F6E200E00BBF02C0079076
:1002D0000D92AC3BB107D9F725E0ACEBB2E001C021
:1002E0001D92A230B207E1F711E0C7E5D1E000E0CE
:1002F00006C021970109802FFE010E941A11C63500
:10030000D10780E00807A9F70E94CE080C943813A3
:100310000C940000FC01A089B18982E08C93A48533
:10032000B5851C92A685B78580E18C93108EA48933
:10033000B58986E08C93A289B3898C9180618C9376
:10034000A289B3898C9188608C93A289B3898C919E
:1003500080688C930288F389E02D80818F7D808373
:10036000089590E0FC01EA59FD4F2491805E9D4F75
:10037000FC018491882399F090E0880F991FFC017B
:10038000EE52FE4FA591B491FC01EA5FFD4F8591BD
:1003900094918FB7F894EC91E22BEC938FBF089572
:1003A000CF92DF92EF92FF92DC01A03282E0B80799
:1003B000D4F5A53BB10514F0A4EBB0E04091FC04EA
:1003C00028E830E0241B310947FD3395220F331F05
:1003D000220F331F6901330FEE08FF084091FD041F
:1003E00028E532E0241B310947FD3395220F331FE6
:1003F000220F331F032E000C440B550B2C193D0903
:100400004E095F09B7FF02C0B0E0A0E00E94BD0F37
:1004100024EB30E040E050E00E94930FC20ED31E68
:10042000E41EF51ED601E091FB04E03380F5209137
:10043000FC0488E890E0821B910927FD9395880FC2
:10044000991F880F991FA817B90784F02091FD0400
:1004500088E592E0821B910927FD9395880F991FEB
:10046000880F991FA817B9070CF4CD010297880FC0
:10047000991F4FB7F8942E2F30E0F901EE0FFF1FB0
:10048000E20FF31FE85AFB4F928381834FBFFF9027
:10049000EF90DF90CF900895282F30E0F901E457D6
:1004A000FE4F9491F901EA59FD4F4491205E3D4F72
:1004B000F9012491222309F435C0992311F19150B7
:1004C0009231F8F4E92FF0E08827E659FD4F8F4F7D
:1004D0000C941A119B029F027C02930297028102E4
:1004E000A202A802AC02B202B602BA02C002C40260
:1004F0008102C802CE02D202809180008F77809361
:100500008000E22FF0E0EE0FFF1FEA5FFD4FA591A4
:10051000B4918FB7F894EC91611148C040954E2387
:100520004C938FBF0895809180008F7DE8CF80919C
:100530008000877FE4CF84B58F7784BDE2CF84B518
:100540008F7DFBCF8091B0008F778093B000D9CFA3
:100550008091B0008F7DF9CF809190008F7780934C
:100560009000CFCF809190008F7DF9CF8091900047
:10057000877FF5CF8091A0008F778093A000C1CFB7
:100580008091A0008F7DF9CF8091A000877FF5CF6B
:10059000809120018F7780932001B3CF809120013B
:1005A0008F7DF9CF80912001877FF5CF4E2BB8CF7B
:1005B0003FB7F89480911A0390911B03A0911C03FC
:1005C000B0911D0326B5A89B05C02F3F19F00196D9
:1005D000A11DB11D3FBFBA2FA92F982F8827BC019D
:1005E000CD01620F711D811D911D42E0660F771FC5
:1005F000881F991F4A95D1F70895AF92BF92CF9265
:10060000DF92EF92FF920F931F93CF93DF936C01D2
:100610007B018B01040F151FEB015E01AE18BF08B3
:10062000C017D10759F06991D601ED91FC91019065
:10063000F081E02DC6011995892B79F7C501DF916D
:10064000CF911F910F91FF90EF90DF90CF90BF90CF
:10065000AF900895FC01538D448D252F30E0842FF9
:1006600090E0821B930B541710F0CF9608950197DA
:100670000895FC01918D828D981761F0A28DAE0FC7
:10068000BF2FB11D5D968C91928D9F5F9F73928F4E
:1006900090E008958FEF9FEF0895FC01918D828D7A
:1006A000981731F0828DE80FF11D858D90E0089547
:1006B0008FEF9FEF0895FC01918D228D892F90E09F
:1006C000805C9F4F821B91098F73992708958EE15B
:1006D00093E00E945B0321E0892B09F420E0822F44
:1006E00008958BEB93E00E945B0321E0892B09F4D2
:1006F00020E0822F0895FC01A48DA80FB92FB11D11
:10070000A35ABF4F2C91848D90E001968F73992747
:10071000848FA689B7892C93A089B1898C91837025
:1007200080648C93938D848D981306C00288F3891E
:10073000E02D80818F7D80830895EF92FF920F934B
:100740001F93CF93DF93EC0181E0888F9B8D8C8D7D
:1007500098131AC0E889F989808185FF15C09FB771
:10076000F894EE89FF896083E889F9898081837034
:10077000806480839FBF81E090E0DF91CF911F91E3
:100780000F91FF90EF900895F62E0B8D10E00F5F04
:100790001F4F0F731127E02E8C8D8E110CC00FB6DA
:1007A00007FCFACFE889F989808185FFF5CFCE0172
:1007B0000E947B03F1CFEB8DEC0FFD2FF11DE35A6F
:1007C000FF4FF0829FB7F8940B8FEA89FB898081F5
:1007D0008062CFCFCF93DF93EC01888D8823B9F06F
:1007E000AA89BB89E889F9898C9185FD03C080813C
:1007F00086FD0DC00FB607FCF7CF8C9185FFF2CFB9
:10080000808185FFEDCFCE010E947B03E9CFDF9190
:10081000CF91089580E090E0892B29F00E94710328
:1008200081110E94000080E090E0892B29F00E9455
:10083000670381110E94000080E090E0892B49F05D
:1008400080E090E0892B29F00E94000081110E9435
:10085000000080E090E0892B49F080E090E0892B57
:1008600029F00E94000081110C9400000895AF92BD
:10087000BF92CF92DF92EF92FF920F931F93CF938D
:10088000DF936B017A01EC01C054DD4F28813CE01D
:10089000389F8001399F100D1124A090E804B12CDD
:1008A00027FF1FC0FB011182108288818F5F888320
:1008B00088819801280F311D87FD3A95F6012A1588
:1008C0003B051CF488818C30C4F1808191810496B1
:1008D00080349C4908F473C0F601808191810496AC
:1008E00070C088819801280F311D87FD3A952A151F
:1008F0003B05DCF68881A801480F511D87FD5A95FC
:10090000FA01EE0FFF1FE40FF51FE85AFB4F80813D
:1009100086FFCBCF8881F801E80FF11D87FDFA959E
:10092000CF01EE0FFF1FE80FF91FE85AFB4F808140
:1009300060E08F730E944C02B8CF80819181288142
:10094000A801420F511D27FD5A959A01FA01EE0F99
:10095000FF1FE20FF31FE85AFB4F21813281820F04
:10096000931FF7019183808388819801280F311D9F
:1009700087FD3A95F901EE0FFF1FE20FF31FE85ACA
:10098000FB4F808186FF22C08881080F111D87FDE3
:100990001A95F801EE0FFF1FE00FF11FE85AFB4F09
:1009A000808161E08F73DF91CF911F910F91FF9054
:1009B000EF90DF90CF90BF90AF900C944C0280E40A
:1009C0009CE9F701918380838FEF8883DF91CF913A
:1009D0001F910F91FF90EF90DF90CF90BF90AF905D
:1009E0000895FC0101900020E9F73197AF01481B01
:1009F000590BBC018BEB93E00C94FD028F929F92FC
:100A0000AF92BF920F931F93CF93DF93CDB7DEB713
:100A1000A1970FB6F894DEBF0FBECDBF19A242302A
:100A200008F44AE08E010F5D1F4F842E912CB12CEB
:100A3000A12CA50194010E94C50FE62FB901CA019E
:100A4000EA30F4F4E05DD801EE938D01232B242BE2
:100A5000252B79F790E080E0109719F0CD010E94E6
:100A6000F104A1960FB6F894DEBF0FBECDBFDF91A3
:100A7000CF911F910F91BF90AF909F908F9008954D
:100A8000E95CE1CFCF92DF92EF92FF92CF93DF93B9
:100A90006B017C016DE28BEB93E00E949D03EC0106
:100AA00066277727CB016C197D098E099F094AE0DB
:100AB0000E94FE048C0F9D1FDF91CF91FF90EF905D
:100AC000DF90CF9008950C94F104CF93DF930E94B0
:100AD000F104EC0182E392E00E94F1048C0F9D1F6F
:100AE000DF91CF910895BC01990F880B990B97FD69
:100AF0000C9442054AE00C94FE04CF93DF930E94CD
:100B00007305EC0182E392E00E94F1048C0F9D1FBB
:100B1000DF91CF9108950F931F93CF93DF93EC0153
:100B200088819981009759F02A813B8126173707E0
:100B300030F081E0DF91CF911F910F9108958B01EB
:100B40006F5F7F4F0E944712009759F09983888307
:100B50001B830A832C813D81232B59F7FC011082D2
:100B6000E8CF80E0E7CFCF93DF93EC0188819981D4
:100B7000009711F00E94BE11198218821D821C82FA
:100B80001B821A82DF91CF910895CF92DF92EF926C
:100B9000FF920F931F93CF93DF93CDB7DEB762978A
:100BA0000FB6F894DEBF0FBECDBF8C01CB01F801AC
:100BB0001182108213821282158214824AE09E01F1
:100BC0002F5F3F4F6901B9010E943A0EF601019073
:100BD0000020E9F731977F01EC18FD08B701C80143
:100BE0000E948B05811112C0C8010E94B305629654
:100BF0000FB6F894DEBF0FBECDBFDF91CF911F912E
:100C00000F91FF90EF90DF90CF900895F801F5825B
:100C1000E482B601808191810E943113E8CF1F9256
:100C20000F920FB60F9211242F933F938F939F93A0
:100C3000AF93BF938091160390911703A09118036F
:100C4000B09119033091150323E0230F2D3758F588
:100C50000196A11DB11D2093150380931603909357
:100C60001703A0931803B093190380911A0390916E
:100C70001B03A0911C03B0911D030196A11DB11D82
:100C800080931A0390931B03A0931C03B0931D033E
:100C9000BF91AF919F918F913F912F910F900FBE78
:100CA0000F901F90189526E8230F0296A11DB11DE5
:100CB000D2CF1F920F920FB60F9211240BB60F9244
:100CC0002F933F934F935F936F937F938F939F9354
:100CD000AF93BF93EF93FF938EE193E00E947B036A
:100CE000FF91EF91BF91AF919F918F917F916F9104
:100CF0005F914F913F912F910F900BBE0F900FBEC0
:100D00000F901F9018951F920F920FB60F921124FB
:100D10000BB60F922F938F939F93EF93FF93E091D6
:100D20002E03F0912F038081E0913403F09135037D
:100D300082FD1DC09081809137038F5F8F7320915A
:100D40003803821741F0E0913703F0E0E25EFC4F98
:100D5000958F80933703FF91EF919F918F912F9102
:100D60000F900BBE0F900FBE0F901F9018958081B3
:100D7000F2CF1F920F920FB60F9211240BB60F9263
:100D80002F933F934F935F936F937F938F939F9393
:100D9000AF93BF93EF93FF938BEB93E00E947B03A2
:100DA000FF91EF91BF91AF919F918F917F916F9143
:100DB0005F914F913F912F910F900BBE0F900FBEFF
:100DC0000F901F9018951F920F920FB60F9211243B
:100DD0000BB60F922F938F939F93EF93FF93E09116
:100DE000CB03F091CC038081E091D103F091D20349
:100DF00082FD1DC090818091D4038F5F8F732091FD
:100E0000D503821741F0E091D403F0E0E554FC4FA4
:100E1000958F8093D403FF91EF919F918F912F91A4
:100E20000F900BBE0F900FBE0F901F9018958081F2
:100E3000F2CF1F920F920FB60F9211240BB60F92A2
:100E40002F933F934F935F936F937F938F939F93D2
:100E5000AF93BF93EF93FF93F0E0E0E01995FF911C
:100E6000EF91BF91AF919F918F917F916F915F9122
:100E70004F913F912F910F900BBE0F900FBE0F908F
:100E80001F9018951F920F920FB60F9211240BB658
:100E90000F922F933F934F935F936F937F938F9313
:100EA0009F93AF93BF93EF93FF9348E251E064E2C7
:100EB00071E090E080E00E943704FF91EF91BF91D4
:100EC000AF919F918F917F916F915F914F913F91E2
:100ED0002F910F900BBE0F900FBE0F901F90189583
:100EE0001F920F920FB60F9211240BB60F922F93F1
:100EF0003F934F935F936F937F938F939F93AF93A2
:100F0000BF93EF93FF9348EA50E064EA70E083E018
:100F100090E00E943704FF91EF91BF91AF919F91B4
:100F20008F917F916F915F914F913F912F910F9092
:100F30000BBE0F900FBE0F901F9018951F920F922F
:100F40000FB60F9211240BB60F922F933F934F932E
:100F50005F936F937F938F939F93AF93BF93EF9321
:100F6000FF9348E950E064E970E082E090E00E947D
:100F70003704FF91EF91BF91AF919F918F917F9136
:100F80006F915F914F913F912F910F900BBE0F90FA
:100F90000FBE0F901F9018951F920F920FB60F92D1
:100FA00011240BB60F922F933F934F935F936F9340
:100FB0007F938F939F93AF93BF93EF93FF9348E8F3
:100FC00050E064E870E081E090E00E943704FF9117
:100FD000EF91BF91AF919F918F917F916F915F91B1
:100FE0004F913F912F910F900BBE0F900FBE0F901E
:100FF0001F901895109221031092200348EE53E0A1
:1010000060E070E040932203509323036093240335
:101010007093250384E292E090931F0380931E0354
:101020002DEC30E030932B0320932A032CEC30E09E
:1010300030932D0320932C0328EC30E030932F03C2
:1010400020932E0329EC30E03093310320933003BA
:101050002AEC30E030933303209332032EEC30E05F
:1010600030933503209334031092370310923803E2
:101070001092390310923A031092BE031092BD03EE
:101080004093BF035093C0036093C1037093C203A6
:101090009093BC038093BB0385EC90E09093C803CE
:1010A0008093C70384EC90E09093CA038093C903B4
:1010B00080EC90E09093CC038093CB0381EC90E0A4
:1010C0009093CE038093CD0382EC90E09093D00375
:1010D0008093CF0386EC90E09093D2038093D1036A
:1010E0001092D4031092D5031092D6031092D70316
:1010F0008091E804803308F04DC091E0980F909300
:10110000E8048093FB0490E0FC01EE0FFF1FE80F62
:10111000F91FE85AFB4F88EB9BE092838183E0E75D
:10112000F2E084918093ED04E491E093EE048AE28E
:1011300092E0FC012491E22FF0E0EE0FFF1FEA5F46
:10114000FD4F259134913093F0042093EF04FC017E
:101150002491E22FF0E0EE0FFF1FE451FE4F2591A6
:1011600034913093F2042093F104FC018491E82F30
:10117000F0E0EE0FFF1FEE52FE4F85919491909399
:10118000F4048093F30481E299E09093F604809351
:10119000F50408958FEF8093FB04C1CFCF93DF93C5
:1011A000CDB7DEB72E970FB6F894DEBF0FBECDBF1A
:1011B000789484B5826084BD84B5816084BD85B532
:1011C000826085BD85B5816085BD80916E0081603E
:1011D00080936E00109281008091810082608093E4
:1011E00081008091810081608093810080918000E6
:1011F0008160809380008091B10084608093B10011
:101200008091B00081608093B000809191008260F5
:1012100080939100809191008160809391008091F2
:1012200090008160809390008091A1008260809303
:10123000A1008091A10081608093A1008091A00015
:1012400081608093A00080912101826080932101C0
:101250008091210181608093210180912001816032
:101260008093200180917A00846080937A0080913D
:101270007A00826080937A0080917A008160809306
:101280007A0080917A00806880937A001092C10081
:1012900088E00E94B10187E00E94B10186E00E94CF
:1012A000B1018BEB93E00E948A018EE193E00E94F2
:1012B0008A018091FB04803308F051C08CE00E94C9
:1012C000B1018091FB04282F30E0F901EE0FFF1FE0
:1012D000E20FF31FE85AFB4F9081907C9C60908353
:1012E0001092FC041092FD042CE0622F0E940E115B
:1012F000829FB001112430E020E0AB01420F531F68
:10130000FA01EE0FFF1FE40FF51FE85AFB4F908123
:1013100096FD17C02F5F3F4F2C30310571F781309C
:1013200009F0ECC21092800082E08093810010925C
:10133000850010928400B19A80916F008260809342
:101340006F00E091FB048E2F90E0FC01EE0FFF1F79
:10135000E80FF91FE85AFB4F8081806480830E9468
:10136000D8024B015C0112E3C12ED12CE12CF12CEF
:101370000E94D802681979098A099B09683E73405E
:1013800081059105A8F321E0C21AD108E108F1080E
:1013900038EE830E33E0931EA11CB11CC114D1049E
:1013A000E104F10429F78BE590E00E94D001B4EC50
:1013B0002B2EB2E03B2E2FEF33E03093030220932D
:1013C00002021092010210920002AAE0CA2EA2E0CC
:1013D000DA2E88EF92E09E878D874C0110E0909185
:1013E0007B00977F812F887F892B80937B00812FC3
:1013F0008770806480937C0080917A008064809301
:101400007A0080917A0086FDFCCF6091780080910F
:101410007900F601219131916F01782F620F731FCE
:10142000F401619371934F01809102029091030244
:101430006817790724F47093030260930202809185
:101440000002909101028617970724F4709301021D
:1014500060930002CE0101960E94C50518861F8286
:101460001A8619861C861B86E980FA80E114F1042D
:1014700069F06D807E80B301CE0107960E948B05D6
:10148000811168C2CE0107960E94B305EB84FC84EB
:10149000FFEFEF1AFF0AB701CE0107960E948B05F6
:1014A000882309F45FC22F8138858B859C8565E38D
:1014B00072E0820F931F0E943113FC86EB864B85EE
:1014C0005C856F8178858BEB93E00E94FD028F81B4
:1014D00098850E94BE1189819A810E94BE111F5F6A
:1014E0001B3009F07CCF87EB92E00E94630588E80F
:1014F00092E00E94630580910002909101020E9497
:10150000730588EB92E00E94630587E392E00E94F6
:10151000630580910202909103020E9473058AE3A1
:1015200092E00E9463056091000270910102072E13
:10153000000C880B990B0E94760E6B017C01609168
:10154000020270910302072E000C880B990B0E9477
:10155000760E9B01AC01C701B6010E9463106B01BE
:101560007C012B013C01AC019B010E9409118823E5
:1015700009F4FDC184E492E00E94F10480E592E068
:101580000E946305F2EEEF2EF2E0FF2E8701ED855B
:10159000FE8561917191FE87ED8720910002309167
:1015A00001024091020250910302C901841B950B74
:1015B00097FD03969595879595958795281B390BEB
:1015C000621773070CF467C2CA01880F991F480F8E
:1015D000591F641775070CF45EC221E030E0F80172
:1015E00031832083F801619171918F01CE010196C1
:1015F0000E94C5054D815E8169817A818BEB93E004
:101600000E94FD0289819A810E94BE112EE033E082
:101610008D859E852817390709F0B9CF1092E10210
:101620001092E0021092DF021092DE021092DD02B0
:101630001092DC021092DB021092DA0284E592E052
:101640000E94630504EC12E0F701819191917F0102
:10165000F801819391938F010E947305F8EFEF16C3
:10166000F2E0FF0689F74091E0025091E10280919B
:10167000DC029091DD026091DE027091DF02209128
:10168000DA023091DB02EAEDF2E0A4ECB2E00D9177
:101690001D91012B09F003C24115510509F4019672
:1016A00012910291012B09F0FDC16115710511F430
:1016B0002F5F3F4F2E163F0651F77093DF02609366
:1016C000DE023093DB022093DA025093E102409372
:1016D000E0029093DD028093DC028C01021B130B6D
:1016E0006801012E000CEE08FF08820F931F9093F3
:1016F00012038093110389EB92E00E94650588E54F
:1017000092E00E94630580911103909112030E9460
:101710007D0587EB92E00E946305F7FEC6C1C70115
:10172000B6010E94420587EB92E00E9463058BE6BA
:1017300092E00E94630588E792E00E946305809131
:10174000DC029091DD020E9473058EE792E00E9418
:1017500063058091DA029091DB020E94730584E8B0
:1017600092E00E9463058091E0029091E1020E9464
:1017700073058BE892E00E9463058091DE029091F0
:10178000DF020E94730582E992E00E946305809166
:10179000DC029091DA02890F80931003082E000C6E
:1017A000990B0E947D0510931403009313038DE998
:1017B00092E00E94630580911303909114030E94AC
:1017C000730580911303909114039C0121503109FA
:1017D0002B30310508F06FC186EA92E00E94650562
:1017E0008EE193E00E945B03892B41F08EE193E050
:1017F0000E94390390930F0380930E0380EB92E0D5
:101800000E94630580910E0390910F030E947D0555
:10181000A0901303B090140365010B2C000CEE088C
:10182000FF08A70196012B50310941095109A0EC8D
:10183000BFEF0E94C00F2AEE3FEF4FEF5FEF0E9415
:10184000930F29013A018BE7480E511C611C711C52
:10185000809011039090120396E18916910439F05B
:101860008091100388301CF0C2010E94D001A701B2
:101870009601B7FC2DC12550310941095109A6EF48
:10188000BFEF0E94C00F26E030E040E050E00E9431
:10189000930F89019A0108561F4F2F4F3F4FE4E0E5
:1018A000AE0EB11CF9E0AF16B10410F408E910E077
:1018B00061E087E00E944C0260E086E00E944C02FA
:1018C00026E18216910409F416C10F3F110509F0B3
:1018D0000CC161E088E00E944C0287EB92E00E941C
:1018E0006305C2010E94730587EB92E00E946305C5
:1018F000C8010E947D050E940A045DCD823061F41A
:101900001092900080939100109295001092940094
:1019100088BB8093710015CD833069F41092A000CC
:1019200082E08093A1001092A5001092A40089BBD0
:101930008093720006CD811104CD1092200182E0C7
:101940008093210110922501109224018ABB80937B
:101950007300F7CC7C866B86B7018F8198850E94D7
:10196000311394CDCE0107960E94B305A8CD460150
:101970005701E894B7F82FEF3FEF4FE75FE7C50156
:10198000B4010E94091181110DC02FEF3FEF4FE705
:101990005FE7C501B4010E946F0E18161CF488E4BD
:1019A00092E0EACD2FEF3FEF4FE75FE4C701B601CA
:1019B0000E94041118161CF48CE492E0DDCD2FEF88
:1019C0003FEF4FE75FECC701B6010E946F0E87FD46
:1019D000F3CF20E030E0A901C701B6010E946F0EED
:1019E00087FF0BC06DE28BEB93E00E949D03260105
:1019F000370177FA709477F870942AE037ED43EA6C
:101A00005BE3C301B2010E94F70F2B013C010E946E
:101A1000D5106B017C010E94740E9B01AC01C301C7
:101A2000B2010E94F60F2B013C014AE0C701B6014A
:101A30000E94FE046EE28BEB93E00E949D0320E087
:101A400030E040E251E4C301B2010E94D50E2B0107
:101A50003C010E94D5106B01F12CE12C4AE0C7013A
:101A6000B6010E94FE04C701B6010E94740E9B01DC
:101A7000AC01C301B2010E94F60F20E030E040E269
:101A800051E40E94D50E0E94D51090E080E04AE01B
:101A90000E94FE0473CDF80111821082A3CD4F5F26
:101AA0005F4FFECD6F5F7F4F05CE4AE0C701B601A5
:101AB0000E94FE0438CE853F2FEF920718F089EA86
:101AC00092E08CCE892B09F08BCE8CEA92E086CE08
:101AD0002B5F3F4F4F4F5F4FA6EFBFEF0E94C00FEE
:101AE0002AEF3FEF4FEF5FEFD2CE88E00E94B101C7
:101AF0000115110511F460E0EDCEE4E9F1E0849107
:101B0000EFEFE80FE23108F0B0C0F0E08827E457CB
:101B1000F24F8F4F0C941A119E0DA30DA80DB20D0C
:101B2000BC0D350EC60DCE0DD60DE00DEA0DF40D33
:101B3000030E0D0E350E170E210E2B0E84B5806888
:101B400084BD07BDCACE84B5806284BD08BDC5CE44
:101B500080918000806880938000109389000093BA
:101B60008800BBCE809180008062809380001093BB
:101B70008B0000938A00B1CE8091800088608093B2
:101B8000800010938D0000938C00A7CE8091B00050
:101B900080688093B0000093B3009FCE8091B00026
:101BA00080628093B0000093B40097CE8091900043
:101BB00080688093900010939900009398008DCED8
:101BC0008091900080628093900010939B0000931E
:101BD0009A0083CE8091900088608093900010934B
:101BE0009D0000939C0079CE8091A0008068809336
:101BF000A0008091A0008F7B8093A0001093A9008B
:101C00000093A8006ACE8091A00080628093A0001B
:101C10001093AB000093AA0060CE8091A000886072
:101C20008093A0001093AD000093AC0056CE80913D
:101C300020018068809320011093290100932801DE
:101C40004CCE8091200180628093200110932B0163
:101C500000932A0142CE8091200188608093200168
:101C600010932D0100932C0138CE003811050CF093
:101C700030CE41CFBB274A3031F4992322F4BDE264
:101C8000909581959F4F0C94460EBB27FB015527DD
:101C9000AA27880F991FAA1FA41710F0A41B8395C9
:101CA0005051B9F7A05DAA3308F0A95DA193009740
:101CB00079F7B111B1931192CB010C945F0EDC0155
:101CC000FC01672F71917723E1F7329704C07C9173
:101CD0006D9370836291AE17BF07C8F308950E9499
:101CE000B10E08F481E00895E89409C097FB3EF432
:101CF00090958095709561957F4F8F4F9F4F992359
:101D0000A9F0F92F96E9BB279395F69587957795D6
:101D10006795B795F111F8CFFAF4BB0F11F460FF96
:101D20001BC06F5F7F4F8F4F9F4F16C0882311F0EE
:101D300096E911C0772321F09EE8872F762F05C002
:101D4000662371F096E8862F70E060E02AF09A959D
:101D5000660F771F881FDAF7880F9695879597F992
:101D60000895990F0008550FAA0BE0E8FEEF16162C
:101D70001706E807F907C0F012161306E407F5077F
:101D800098F0621B730B840B950B39F40A2661F0F3
:101D9000232B242B252B21F408950A2609F4A14096
:101DA000A6958FEF811D811D08950E94E80E0C9469
:101DB000590F0E944B0F38F00E94520F20F09523CC
:101DC00011F00C94420F0C94480F11240C948D0FB9
:101DD0000E946A0F70F3959FC1F3950F50E0551F55
:101DE000629FF001729FBB27F00DB11D639FAA2770
:101DF000F00DB11DAA1F649F6627B00DA11D661FBF
:101E0000829F2227B00DA11D621F739FB00DA11DDF
:101E1000621F839FA00D611D221F749F3327A00D99
:101E2000611D231F849F600D211D822F762F6A2F35
:101E300011249F5750409AF0F1F088234AF0EE0F9A
:101E4000FF1FBB1F661F771F881F91505040A9F7C7
:101E50009E3F510580F00C94420F0C948D0F5F3F14
:101E6000E4F3983ED4F3869577956795B795F79503
:101E7000E7959F5FC1F7FE2B880F911D969587957B
:101E800097F9089597F99F6780E870E060E00895FA
:101E90009FEF80EC089500240A9416161706180682
:101EA0000906089500240A9412161306140605065E
:101EB0000895092E0394000C11F4882352F0BB0FEF
:101EC00040F4BF2B11F460FF04C06F5F7F4F8F4F52
:101ED0009F4F089557FD9058440F551F59F05F3F8D
:101EE00071F04795880F97FB991F61F09F3F79F03C
:101EF00087950895121613061406551FF2CF4695BE
:101F0000F1DF08C0161617061806991FF1CF86953F
:101F10007105610508940895E894BB276627772723
:101F2000CB0197F90895052E97FB1EF400940E94AB
:101F3000AA0F57FD07D00E94C50F07FC03D04EF42F
:101F40000C94AA0F50954095309521953F4F4F4FD7
:101F50005F4F089590958095709561957F4F8F4F55
:101F60009F4F08950E94E70FA59F900DB49F900D7D
:101F7000A49F800D911D11240895B7FF0C94B20FFA
:101F80000E94B20F821B930B0895A1E21A2EAA1B86
:101F9000BB1BFD010DC0AA1FBB1FEE1FFF1FA21719
:101FA000B307E407F50720F0A21BB30BE40BF50B16
:101FB000661F771F881F991F1A9469F7609570959F
:101FC000809590959B01AC01BD01CF010895A29F22
:101FD000B001B39FC001A39F700D811D1124911DFD
:101FE000B29F700D811D1124911D08955058BB277B
:101FF000AA270E940E100C94590F0E944B0F38F024
:102000000E94520F20F039F49F3F19F426F40C94EB
:10201000480F0EF4E095E7FB0C94420FE92F0E9465
:102020006A0F58F3BA17620773078407950720F001
:1020300079F4A6F50C948C0F0EF4E0950B2EBA2FC4
:10204000A02D0B01B90190010C01CA01A0011124BE
:10205000FF27591B99F0593F50F4503E68F11A166A
:10206000F040A22F232F342F4427585FF3CF4695FB
:1020700037952795A795F0405395C9F77EF41F161D
:10208000BA0B620B730B840BBAF09150A1F0FF0FE7
:10209000BB1F661F771F881FC2F70EC0BA0F621FD3
:1020A000731F841F48F4879577956795B795F795C3
:1020B0009E3F08F0B0CF9395880F08F09927EE0F58
:1020C0009795879508950E9477100C94590F0E9458
:1020D000520F58F00E944B0F40F029F45F3F29F057
:1020E0000C94420F51110C948D0F0C94480F0E94C8
:1020F0006A0F68F39923B1F3552391F3951B550BA0
:10210000BB27AA2762177307840738F09F5F5F4FCA
:10211000220F331F441FAA1FA9F335D00E2E3AF009
:10212000E0E832D091505040E695001CCAF72BD021
:10213000FE2F29D0660F771F881FBB1F2617370772
:102140004807AB07B0E809F0BB0B802DBF01FF27A4
:1021500093585F4F3AF09E3F510578F00C94420F30
:102160000C948D0F5F3FE4F3983ED4F386957795FA
:102170006795B795F7959F5FC9F7880F911D96955D
:10218000879597F90895E1E0660F771F881FBB1FB9
:10219000621773078407BA0720F0621B730B840B66
:1021A000BA0BEE1F88F7E09508950E94720F88F031
:1021B0009F5798F0B92F9927B751B0F0E1F0660F0B
:1021C000771F881F991F1AF0BA95C9F714C0B1304C
:1021D00091F00E948C0FB1E008950C948C0F672F42
:1021E000782F8827B85F39F0B93FCCF3869577957B
:1021F0006795B395D9F73EF4909580957095619564
:102200007F4F8F4F9F4F08950E94B10E08F48FEFBC
:1022100008950E94B10E880B990B0895991B79E0DF
:1022200004C0991F961708F0961B881F7A95C9F766
:1022300080950895EE0FFF1F881F8BBF0790F691C2
:10224000E02D19940F931F93CF93DF938230910564
:1022500010F482E090E0E0910005F091010530E09B
:1022600020E0B0E0A0E0309799F42115310509F4A1
:102270004AC0281B390B24303105D8F58A819B814F
:102280006115710589F1FB0193838283FE0111C001
:10229000408151810281138148175907E0F04817A6
:1022A000590799F4109761F012960C9312971396B0
:1022B0001C933296CF01DF91CF911F910F9108951A
:1022C0000093000510930105F4CF2115310551F05D
:1022D0004217530738F0A901DB019A01BD01DF0164
:1022E000F801C1CFEF01F9CF90930105809300056C
:1022F000CDCFFE01E20FF31F81939193225031095C
:1023000039832883D7CF2091FE043091FF04232BFB
:1023100041F420910602309107023093FF0420938C
:10232000FE0420910402309105022115310541F48B
:102330002DB73EB74091080250910902241B350B7E
:10234000E091FE04F091FF04E217F307A0F42E1BC6
:102350003F0B2817390778F0AC014E5F5F4F241709
:10236000350748F04E0F5F1F5093FF044093FE0463
:10237000819391939FCFF0E0E0E09CCFCF93DF93E8
:102380000097E9F0FC01329713821282A0910005B8
:10239000B0910105ED0130E020E01097A1F420811B
:1023A0003181820F931F2091FE043091FF04281782
:1023B000390709F061C0F093FF04E093FE04DF9158
:1023C000CF910895EA01CE17DF07E8F54A815B81D6
:1023D0009E0141155105B1F7E901FB83EA8349915B
:1023E0005991C40FD51FEC17FD0761F480819181CD
:1023F0000296840F951FE9019983888382819381D6
:102400009B838A83F0E0E0E012968D919C91139774
:102410000097B9F52D913C911197CD010296820F4D
:10242000931F2091FE043091FF042817390739F6D5
:10243000309751F51092010510920005B093FF04FA
:10244000A093FE04BCCFD383C28340815181840F0B
:10245000951FC817D90761F44E5F5F4F8881998136
:10246000480F591F518340838A819B8193838283C4
:102470002115310509F0B0CFF0930105E093000577
:102480009ECFFD01DC01C0CF13821282D7CF4F92C5
:102490005F926F927F928F929F92AF92BF92CF92F4
:1024A000DF92EF92FF920F931F93CF93DF938C01F4
:1024B000009799F4CB01DF91CF911F910F91FF907D
:1024C000EF90DF90CF90BF90AF909F908F907F90D4
:1024D0006F905F904F900C942211FC01E60FF71F54
:1024E0009C0122503109E217F30708F4AEC0D9016C
:1024F000CD91DC911197C617D70720F1C530D105D2
:1025000078F0CE0104978617970750F0C61BD70BBB
:102510002297C193D1936D937C93CF010E94BE11FA
:10252000C801DF91CF911F910F91FF90EF90DF9045
:10253000CF90BF90AF909F908F907F906F905F9063
:102540004F9008955B01AC1ABD0A4C018C0E9D1E84
:10255000A0910005B0910105512C412CF12CE12CEA
:10256000109731F58091FE049091FF04881599052C
:1025700009F05CC04616570608F058C08091040266
:1025800090910502009741F48DB79EB740910802E3
:1025900050910902841B950BE817F90708F055C004
:1025A000F093FF04E093FE04F90171836083B8CFD8
:1025B0008D919C91119712966C90129713967C9026
:1025C0001397A815B90559F56C0142E0C40ED11C4A
:1025D000CA14DB0420F1AC014A195B09DA01129636
:1025E000159780F06282738251834083D9016D9385
:1025F0007C93E114F10471F0D7011396FC93EE93F0
:1026000012978ECF22968C0F9D1FF90191838083A4
:10261000F301EFCFF0930105E093000581CF481659
:10262000590608F42C017D01D3019ACFCB010E94F9
:1026300022117C01009749F0AE01B8010E942813D5
:10264000C8010E94BE1187016BCF10E000E068CF87
:10265000FB01DC0102C001900D9241505040D8F7BF
:102660000895FB01DC0101900D920020E1F708952F
:04267000F894FFCF0C
:10267400E8034600000002058000F9FF0000D1FFD6
:102684000000F0FFF3FF0000FFFFFFFFEFFF00007B
:10269400000000009D03FD022A03EA035B033903E3
:1026A4004D030D0A002C00772000202020636F6565
:1026B40066205B006E616E00696E66006F76660070
:1026C4005D2020002046200077617463685F747287
:1026D40061636B5F76616C202020006C2C722C6C23
:1026E400622C7262203D20002020206C20002020DB
:1026F400207220002020206C6220002020207262A2
:1027040020002020206C722073756D2000457272A9
:102714006F7220202000203E00203C00207C2000FE
:0C2724005452414646494320202000004A
:00000001FF
