:100000000C9459010C948A010C948A010C948A0175
:100010000C948A010C948A010C948A010C948A0134
:100020000C948A010C948A010C948A010C948A0124
:100030000C948A010C944E080C948A010C948A0149
:100040000C948A010C9401090C948A010C948A0185
:100050000C948A010C948A010C948A010C94440734
:100060000C948A010C9418080C94EE070C948A01E5
:100070000C948A010C948A010C948A010C948A01D4
:100080000C94D3080C948A010C948A010C948A0174
:100090000C94B8070C948E070C948A010C948A0176
:1000A0000C948A010C948A010C94A5080C948A0182
:1000B0000C948A010C948A010C948A010C947708A0
:1000C0000C948A010C948A010C948A010C948A0184
:1000D0000C948A010C948A010C948A010C948A0174
:1000E0000C948A010C949E0F0C94E00F0C945E0308
:1000F0000C9417100C94990F0C94BC020C94D4021D
:100100000C94C2020C94A1020C94A80F0C949502BA
:100110000C9490030C94CC0F0C94A4020C947E02CB
:100120000C94CA020C94C40F0C94C6020C943103B4
:100130000C94AE020C94AA020C9483020C94B802A4
:100140000C94D60F0C94EA0F0C9482030C941A0EA4
:100150000C942F090C94F90F0C940D100C940310AF
:100160000C946E030C94D0020C9499020C941F040E
:100170000C9421100C94B20F0C94D2030C94B40282
:100180000C94BC0F0C945F030C949D020C94590FBB
:1001900000000A0B02090C0D0E0807030401000001
:1001A000000000000000000000000000000000004F
:1001B000000000000000000000000000121110000C
:1001C000000000000000000000000000000000002F
:1001D00000000000000000002100240027002A0089
:1001E0002D003000330001010000040107010A0165
:1001F000000020002300260029002C002F003200E0
:100200000001000003010601090100002200250091
:1002100028002B002E0031003400020100000501EF
:1002200008010B0105050505070508080808020275
:1002300002020A0A08080404040401010101010180
:1002400001010303030303030303040707070C0C63
:100250000C0C0C0C0C0C020202020606060606062A
:1002600006060B0B0B0B0B0B0B0B010210202008CF
:100270000810204010204080020102010804020101
:100280000102040810204080804020100804020170
:1002900080040201804020100804020108040201C9
:1002A0000102040810204080010204081020408050
:1002B0002F0911241FBECFEFD1E2DEBFCDBF00E07A
:1002C0000CBF12E0A0E0B2E0ECE9FAE200E00BBF04
:1002D00002C007900D92AC3CB107D9F725E0ACEC19
:1002E000B2E001C01D92A731B207E1F711E0C9E504
:1002F000D1E000E006C021970109802FFE010E9495
:100300001F13C835D10780E00807A9F70E94030A28
:100310000C944C150C940000FC01A089B18982E07A
:100320008C93A485B5851C92A685B78580E18C93B6
:10033000108EA489B58986E08C93A289B3898C91AB
:1003400080618C93A289B3898C9188608C93A289F7
:10035000B3898C9180688C930288F389E02D808129
:100360008F7D8083089590E0FC01E659FD4F249134
:100370008C5D9D4FFC018491882399F090E0880F5B
:10038000991FFC01EA52FE4FA591B491FC01E65F72
:10039000FD4F859194918FB7F894EC91E22BEC93FB
:1003A0008FBF0895CF92DF92EF92FF92DC01A032CF
:1003B00082E0B807D4F5A53BB10514F0A4EBB0E09A
:1003C0004091110528E830E0241B310947FD3395A1
:1003D000220F331F220F331F6901330FEE08FF086E
:1003E0004091120528E532E0241B310947FD339581
:1003F000220F331F220F331F032E000C440B550B0B
:100400002C193D094E095F09B7FF02C0B0E0A0E01A
:100410000E94AE1124EB30E040E050E00E948411D5
:10042000C20ED31EE41EF51ED601E0911005E03386
:1004300080F52091110588E890E0821B910927FD45
:100440009395880F991F880F991FA817B90784F0F3
:100450002091120588E592E0821B910927FD939572
:10046000880F991F880F991FA817B9070CF4CD01A1
:100470000297880F991F4FB7F8942E2F30E0F9019B
:10048000EE0FFF1FE20FF31FE559FB4F92838183AD
:100490004FBFFF90EF90DF90CF900895282F30E06E
:1004A000F901E057FE4F9491F901E659FD4F44914F
:1004B0002C5D3D4FF9012491222309F435C0992385
:1004C00011F191509231F8F4E92FF0E08827E459C6
:1004D000FD4F8F4F0C941F139D02A1027E029502C7
:1004E00099028302A402AA02AE02B402B802BC02BC
:1004F000C202C6028302CA02D002D40280918000E6
:100500008F7780938000E22FF0E0EE0FFF1FE65F11
:10051000FD4FA591B4918FB7F894EC91611148C04B
:1005200040954E234C938FBF0895809180008F7D1E
:10053000E8CF80918000877FE4CF84B58F7784BD3A
:10054000E2CF84B58F7DFBCF8091B0008F77809311
:10055000B000D9CF8091B0008F7DF9CF809190000D
:100560008F7780939000CFCF809190008F7DF9CFCF
:1005700080919000877FF5CF8091A0008F77809346
:10058000A000C1CF8091A0008F7DF9CF8091A00005
:10059000877FF5CF809120018F7780932001B3CFA3
:1005A000809120018F7DF9CF80912001877FF5CF49
:1005B0004E2BB8CF3FB7F89480912D0390912E0326
:1005C000A0912F03B091300326B5A89B05C02F3F03
:1005D00019F00196A11DB11D3FBFBA2FA92F982F69
:1005E0008827BC01CD01620F711D811D911D42E064
:1005F000660F771F881F991F4A95D1F708958F922C
:100600009F92AF92BF92CF92DF92EF92FF924B01F7
:100610005C010E94DA026B017C010E94DA026C1913
:100620007D098E099F09683E734081059105A8F3F5
:1006300021E0821A9108A108B10888EEC80E83E073
:10064000D81EE11CF11C81149104A104B10429F706
:10065000FF90EF90DF90CF90BF90AF909F908F90E2
:100660000895AF92BF92CF92DF92EF92FF920F93D5
:100670001F93CF93DF936C017B018B01040F151F38
:10068000EB015E01AE18BF08C017D10759F06991A0
:10069000D601ED91FC910190F081E02DC6011995F4
:1006A000892B79F7C501DF91CF911F910F91FF90B1
:1006B000EF90DF90CF90BF90AF9008950895FC0128
:1006C000538D448D252F30E0842F90E0821B930BB7
:1006D000541710F0CF96089501970895FC01918D5D
:1006E000828D981761F0A28DAE0FBF2FB11D5D9660
:1006F0008C91928D9F5F9F73928F90E008958FEF02
:100700009FEF0895FC01918D828D981731F0828DB5
:10071000E80FF11D858D90E008958FEF9FEF08950C
:10072000FC01918D228D892F90E0805C9F4F821B70
:1007300091098F739927089581E393E00E949003B4
:1007400021E0892B09F420E0822F08958EEC93E0BC
:100750000E94900321E0892B09F420E0822F089564
:10076000FC01A48DA80FB92FB11DA35ABF4F2C9126
:10077000848D90E001968F739927848FA689B7891D
:100780002C93A089B1898C91837080648C93938D14
:10079000848D981306C00288F389E02D80818F7DB7
:1007A00080830895EF92FF920F931F93CF93DF936F
:1007B000EC0181E0888F9B8D8C8D98131AC0E8899D
:1007C000F989808185FF15C09FB7F894EE89FF896C
:1007D0006083E889F98980818370806480839FBF0A
:1007E00081E090E0DF91CF911F910F91FF90EF900A
:1007F0000895F62E0B8D10E00F5F1F4F0F7311271A
:10080000E02E8C8D8E110CC00FB607FCFACFE88954
:10081000F989808185FFF5CFCE010E94B003F1CF29
:10082000EB8DEC0FFD2FF11DE35AFF4FF0829FB7C8
:10083000F8940B8FEA89FB8980818062CFCFCF93B8
:10084000DF93EC01888D8823B9F0AA89BB89E889F8
:10085000F9898C9185FD03C0808186FD0DC00FB69E
:1008600007FCF7CF8C9185FFF2CF808185FFEDCF1C
:10087000CE010E94B003E9CFDF91CF91089580E0CF
:1008800090E0892B29F00E94A60381110E940000AC
:1008900080E090E0892B29F00E949C0381110E9446
:1008A000000080E090E0892B49F080E090E0892B07
:1008B00029F00E94000081110E94000080E090E079
:1008C000892B49F080E090E0892B29F00E940000FC
:1008D00081110C9400000895AF92BF92CF92DF92E5
:1008E000EF92FF920F931F93CF93DF936B017A01E7
:1008F000EC01CE52DD4F28813CE0389F8001399FCA
:10090000100D1124A090FB04B12C27FF1FC0FB0188
:100910001182108288818F5F888388819801280FD7
:10092000311D87FD3A95F6012A153B051CF4888197
:100930008C30C4F180819181049680349C4908F404
:1009400073C0F60180819181049670C088819801FE
:10095000280F311D87FD3A952A153B05DCF6888165
:10096000A801480F511D87FD5A95FA01EE0FFF1F90
:10097000E40FF51FE559FB4F808186FFCBCF8881BF
:10098000F801E80FF11D87FDFA95CF01EE0FFF1F6B
:10099000E80FF91FE559FB4F808160E08F730E94DB
:1009A0004E02B8CF808191812881A801420F511D4C
:1009B00027FD5A959A01FA01EE0FFF1FE20FF31F70
:1009C000E559FB4F21813281820F931FF7019183FB
:1009D000808388819801280F311D87FD3A95F901A0
:1009E000EE0FFF1FE20FF31FE559FB4F808186FFDB
:1009F00022C08881080F111D87FD1A95F801EE0F9E
:100A0000FF1FE00FF11FE559FB4F808161E08F73FD
:100A1000DF91CF911F910F91FF90EF90DF90CF90DA
:100A2000BF90AF900C944E0280E49CE9F701918353
:100A300080838FEF8883DF91CF911F910F91FF907B
:100A4000EF90DF90CF90BF90AF900895FC010190A0
:100A50000020E9F73197AF01481B590BBC018EEC20
:100A600093E00C9431038F929F92AF92BF920F93B9
:100A70001F93CF93DF93CDB7DEB7A1970FB6F8944E
:100A8000DEBF0FBECDBF19A2423008F44AE08E018E
:100A90000F5D1F4F842E912CB12CA12CA501940128
:100AA0000E94B611E62FB901CA01EA30F4F4E05D04
:100AB000D801EE938D01232B242B252B79F790E081
:100AC00080E0109719F0CD010E942605A1960FB67F
:100AD000F894DEBF0FBECDBFDF91CF911F910F9174
:100AE000BF90AF909F908F900895E95CE1CFCF9237
:100AF000DF92EF92FF92CF93DF936B017C016DE267
:100B00008EEC93E00E94D203EC0166277727CB019D
:100B10006C197D098E099F094AE00E9433058C0FEC
:100B20009D1FDF91CF91FF90EF90DF90CF900895C0
:100B30000C942605CF93DF930E942605EC0184E3F5
:100B400092E00E9426058C0F9D1FDF91CF910895A2
:100B5000BC01990F880B990B97FD0C9477054AE01F
:100B60000C943305CF93DF930E94A805EC0184E336
:100B700092E00E9426058C0F9D1FDF91CF91089572
:100B800081E393E00E949003892B99F081E393E045
:100B90000E946E032091D0023091D10282179307F8
:100BA00091F490930502809304029093D102809374
:100BB000D00287E392E00E94980580910402909110
:100BC00005020C94B20526E130E030930502209333
:100BD0000402EBCF0F931F936EE170E080E090E092
:100BE0000E94FF02E0910805F09109058081909133
:100BF0000205892B8083E0910405F0910505908121
:100C0000809102058095892380838BE090E0019795
:100C1000F1F7E0910405F0910505808190910205BE
:100C2000892B808383E290E00197F1F7E09104053E
:100C3000F09105059081809102058095892380833C
:100C4000E0910805F0910905908180910205809559
:100C500089238083E0910605F091070580819091BA
:100C600003058923D9F090E080E069E370E00E94F9
:100C70000B13709321036093200382E492E00E949F
:100C8000980580912003909121030E94A8058DE48E
:100C900092E00E949A051F910F9108950E94DA0236
:100CA000AB01BC0180910A0590910B05B0E0A0E07A
:100CB0008855994EAF4FBF4F840F951FA61FB71F82
:100CC00080930C0590930D05A0930E05B0930F052E
:100CD000E0910605F0910705808190910305892335
:100CE00081F40E94DA0200910C0510910D0520910B
:100CF0000E0530910F05061717072807390740F72B
:100D0000B2CF0E94DA0220910A0530910B05620FE2
:100D1000731F811D911D60930C0570930D058093C9
:100D20000E0590930F05E0910605F091070580816F
:100D300090910305892381F00E94DA0200910C054D
:100D400010910D0520910E0530910F05061717071C
:100D50002807390740F787CF0E94DA0220910A0559
:100D600030910B05A9014550510920910C05309196
:100D70000D05FA01E21BF30BCF01860F971F75CF0C
:100D80000F931F93CF93DF93EC0188819981009794
:100D900059F02A813B812617370730F081E0DF9137
:100DA000CF911F910F9108958B016F5F7F4F0E942C
:100DB0005B14009759F0998388831B830A832C81E5
:100DC0003D81232B59F7FC011082E8CF80E0E7CF6B
:100DD000CF93DF93EC0188819981009711F00E94F5
:100DE000D213198218821D821C821B821A82DF9103
:100DF000CF910895CF92DF92EF92FF920F931F93BE
:100E0000CF93DF93CDB7DEB762970FB6F894DEBF0E
:100E10000FBECDBF8C01CB01F8011182108213826D
:100E20001282158214824AE09E012F5F3F4F6901B2
:100E3000B9010E942B10F60101900020E9F73197CB
:100E40007F01EC18FD08B701C8010E94C00681119E
:100E500012C0C8010E94E80662960FB6F894DEBF81
:100E60000FBECDBFDF91CF911F910F91FF90EF90FB
:100E7000DF90CF900895F801F582E482B601808179
:100E800091810E944515E8CF1F920F920FB60F92E5
:100E900011242F933F938F939F93AF93BF93809190
:100EA000290390912A03A0912B03B0912C03309138
:100EB000280323E0230F2D3758F50196A11DB11DFE
:100EC000209328038093290390932A03A0932B0354
:100ED000B0932C0380912D0390912E03A0912F03AA
:100EE000B09130030196A11DB11D80932D03909305
:100EF0002E03A0932F03B0933003BF91AF919F9126
:100F00008F913F912F910F900FBE0F901F901895CA
:100F100026E8230F0296A11DB11DD2CF1F920F927A
:100F20000FB60F9211240BB60F922F933F934F934E
:100F30005F936F937F938F939F93AF93BF93EF9341
:100F4000FF9381E393E00E94B003FF91EF91BF9183
:100F5000AF919F918F917F916F915F914F913F9151
:100F60002F910F900BBE0F900FBE0F901F901895F2
:100F70001F920F920FB60F9211240BB60F922F9360
:100F80008F939F93EF93FF93E0914103F09142037E
:100F90008081E0914703F091480382FD1DC090815C
:100FA00080914A038F5F8F7320914B03821741F02A
:100FB000E0914A03F0E0EF5CFC4F958F80934A0389
:100FC000FF91EF919F918F912F910F900BBE0F90FA
:100FD0000FBE0F901F9018958081F2CF1F920F9235
:100FE0000FB60F9211240BB60F922F933F934F938E
:100FF0005F936F937F938F939F93AF93BF93EF9381
:10100000FF938EEC93E00E94B003FF91EF91BF91AC
:10101000AF919F918F917F916F915F914F913F9190
:101020002F910F900BBE0F900FBE0F901F90189531
:101030001F920F920FB60F9211240BB60F922F939F
:101040008F939F93EF93FF93E091DE03F091DF0383
:101050008081E091E403F091E50382FD1DC0908161
:101060008091E7038F5F8F732091E803821741F02F
:10107000E091E703F0E0E253FC4F958F8093E703A4
:10108000FF91EF919F918F912F910F900BBE0F9039
:101090000FBE0F901F9018958081F2CF1F920F9274
:1010A0000FB60F9211240BB60F922F933F934F93CD
:1010B0005F936F937F938F939F93AF93BF93EF93C0
:1010C000FF93F0E0E0E01995FF91EF91BF91AF91B0
:1010D0009F918F917F916F915F914F913F912F9150
:1010E0000F900BBE0F900FBE0F901F9018951F9280
:1010F0000F920FB60F9211240BB60F922F933F93BE
:101100004F935F936F937F938F939F93AF93BF930F
:10111000EF93FF9348E251E064E271E090E080E0F9
:101120000E946C04FF91EF91BF91AF919F918F91BD
:101130007F916F915F914F913F912F910F900BBED7
:101140000F900FBE0F901F9018951F920F920FB621
:101150000F9211240BB60F922F933F934F935F93EF
:101160006F937F938F939F93AF93BF93EF93FF936F
:1011700048EA50E064EA70E083E090E00E946C048A
:10118000FF91EF91BF91AF919F918F917F916F915F
:101190005F914F913F912F910F900BBE0F900FBE1B
:1011A0000F901F9018951F920F920FB60F92112457
:1011B0000BB60F922F933F934F935F936F937F9351
:1011C0008F939F93AF93BF93EF93FF9348E950E0C2
:1011D00064E970E082E090E00E946C04FF91EF917E
:1011E000BF91AF919F918F917F916F915F914F913F
:1011F0003F912F910F900BBE0F900FBE0F901F903D
:1012000018951F920F920FB60F9211240BB60F92E2
:101210002F933F934F935F936F937F938F939F93FE
:10122000AF93BF93EF93FF9348E850E064E870E01A
:1012300081E090E00E946C04FF91EF91BF91AF912B
:101240009F918F917F916F915F914F913F912F91DE
:101250000F900BBE0F900FBE0F901F90189510921D
:1012600034031092330348EE53E060E070E04093A3
:10127000350350933603609337037093380386E247
:1012800092E090933203809331032DEC30E0309361
:101290003E0320933D032CEC30E030934003209339
:1012A0003F0328EC30E0309342032093410329ECC4
:1012B00030E030934403209343032AEC30E0309332
:1012C0004603209345032EEC30E0309348032093EF
:1012D000470310924A0310924B0310924C03109252
:1012E0004D031092D1031092D0034093D203509338
:1012F000D3036093D4037093D5039093CF0380936B
:10130000CE0385EC90E09093DB038093DA0384ECCA
:1013100090E09093DD038093DC0380EC90E0909369
:10132000DF038093DE0381EC90E09093E1038093F0
:10133000E00382EC90E09093E3038093E20386EC79
:1013400090E09093E5038093E4031092E7031092FA
:10135000E8031092E9031092EA038091FB048033C2
:1013600008F04DC091E0980F9093FB048093100516
:1013700090E0FC01EE0FFF1FE80FF91FE559FB4F4E
:1013800088EB9BE092838183E4E7F2E08491809391
:101390000205E491E09303058EE292E0FC012491C2
:1013A000E22FF0E0EE0FFF1FE65FFD4F2591349135
:1013B0003093050520930405FC012491E22FF0E011
:1013C000EE0FFF1FE051FE4F25913491309307053A
:1013D00020930605FC018491E82FF0E0EE0FFF1F3B
:1013E000EA52FE4F859194919093090580930805E8
:1013F00081E299E090930B0580930A0508958FEFA1
:1014000080931005C1CFCF93DF93CDB7DEB7609740
:101410000FB6F894DEBF0FBECDBF789484B582605E
:1014200084BD84B5816084BD85B5826085BD85B588
:10143000816085BD80916E00816080936E00109206
:101440008100809181008260809381008091810081
:101450008160809381008091800081608093800012
:101460008091B10084608093B1008091B000816070
:101470008093B00080919100826080939100809170
:1014800091008160809391008091900081608093B1
:1014900090008091A10082608093A1008091A100C2
:1014A00081608093A1008091A00081608093A00062
:1014B00080912101826080932101809121018160CE
:1014C000809321018091200181608093200180918F
:1014D0007A00846080937A0080917A0082608093A1
:1014E0007A0080917A00816080937A0080917A00FE
:1014F000806880937A001092C10088E00E94B30156
:1015000087E00E94B30186E00E94B3018BE00E9455
:10151000B30161E08BE00E944E0261E087E00E942F
:101520004E0260E086E00E944E028EEC93E00E9444
:101530008C0181E393E00E948C018091100580333F
:1015400008F051C08CE00E94B30180911005282F53
:1015500030E0F901EE0FFF1FE20FF31FE559FB4FDB
:101560009081907C9C6090831092110510921205DE
:101570002CE0622F0E94FF12829FB001112430E004
:1015800020E0AB01420F531FFA01EE0FFF1FE40FE3
:10159000F51FE559FB4F908196FD17C02F5F3F4F18
:1015A0002C30310571F7813009F049C31092800069
:1015B00082E0809381001092850010928400B19A9D
:1015C00080916F00826080936F00E09110058E2FF4
:1015D00090E0FC01EE0FFF1FE80FF91FE559FB4FEC
:1015E00080818064808362E370E080E090E00E940C
:1015F000FF028BE590E00E94D2011CEE812E99241F
:101600009A94A92CB92C0FEF13E0109303020093C6
:1016100002021092010210920002ACE06A2EA2E0D7
:101620007A2EBAE02B2EB3E03B2E610110E09091B0
:101630007B00977F812F887F892B80937B00812F70
:101640008770806480937C0080917A0080648093AE
:101650007A0080917A0086FDFCCF609178008091BD
:101660007900D3012D913D913D01782F620F731FB9
:10167000F601619371936F018091020290910302D0
:101680006817790724F47093030260930202809133
:101690000002909101028617970724F470930102CB
:1016A00060930002CE0101960E94FA0618861F82FE
:1016B0001A8619861C861B86E980FA80E114F104DB
:1016C00069F04D805E80B201CE0107960E94C0068F
:1016D0008111E1C2CE0107960E94E806EB84FC84EA
:1016E000FFEFEF1AFF0AB701CE0107960E94C0066E
:1016F000882309F4D8C22F8138858B859C8560E5C5
:1017000072E0820F931F0E944515FC86EB864B8585
:101710005C856F8178858EEC93E00E9431038F8128
:1017200098850E94D21389819A810E94D2131F5FEB
:101730001B3009F07CCF8EE392E00E94980583EA8B
:1017400092E00E94980580910002909101020E940F
:10175000A8058FE392E00E94980582E592E00E943E
:10176000980580910202909103020E94A80585E5E8
:1017700092E00E9498056091000270910102072E8C
:10178000000C880B990B0E9467106B017C01609123
:10179000020270910302072E000C880B990B0E9425
:1017A00067109B01AC01C701B6010E9454126B0186
:1017B0007C012B013C01AC019B010E94FA128823A1
:1017C00009F476C28FE592E00E9426058BE692E04E
:1017D0000E949805F4EFEF2EF2E0FF2E8701D10171
:1017E0006D917D911D014091000250910102209167
:1017F000020230910302CA01821B930B97FD0396EC
:101800009595879595958795481B590B641775078E
:101810000CF4E7C2220F331F220F331F6217730726
:101820000CF4DFC281E090E0F80191838083F8013D
:10183000619171918F01CE0101960E94FA064D814E
:101840005E8169817A818EEC93E00E943103898107
:101850009A810E94D213F0E22F16F3E03F0609F0BE
:10186000BECF1092F3021092F2021092F102109287
:10187000F0021092EF021092EE021092ED0210921E
:10188000EC028FE692E00E94980506ED12E0D70187
:101890008D919D917D01F801819391938F010E941B
:1018A000A8058AE093E08E159F0589F74091F20222
:1018B0005091F3028091EE029091EF026091F0025C
:1018C0007091F1022091EC023091ED02ECEEF2E029
:1018D000A6EDB2E00D911D91012B09F086C24115D4
:1018E000510509F4019612910291012B09F080C271
:1018F0006115710511F42F5F3F4F06ED12E00E17D1
:101900001F0741F77093F1026093F0023093ED02EC
:101910002093EC025093F3024093F2029093EF0273
:101920008093EE028C01021B130B6801012E000C48
:10193000EE08FF08820F931F9093240380932303E4
:1019400080E492E00E949A0583E792E00E94980565
:1019500080912303909124030E94B2058EE392E0CC
:101960000E949805F7FE47C2C701B6010E9477059D
:101970008EE392E00E94980586E892E00E94980526
:1019800083E992E00E9498058091EE029091EF0227
:101990000E94A80589E992E00E9498058091EC02D6
:1019A0009091ED020E94A8058FE992E00E949805AF
:1019B0008091F2029091F3020E94A80586EA92E0DB
:1019C0000E9498058091F0029091F1020E94A80572
:1019D0008DEA92E00E9498058091EE029091EC02CF
:1019E000890F80932203082E000C990B0E94B205E8
:1019F0001093FD040093FC0488EB92E00E9498058C
:101A00008091FC049091FD040E94A8058091FC0443
:101A10009091FD049C01215031092B30310508F0D3
:101A2000F0C181EC92E00E949A050E94EA05809143
:101A300020039091210301974E9708F052C088E04F
:101A40000E94B30160E088E00E944E0260E08BE0FB
:101A50000E944E026AEF70E080E090E00E94FF0278
:101A600061E08BE00E944E0280912503882371F192
:101A700060E087E00E944E0261E086E00E944E0234
:101A800061E088E00E944E0268EC70E080E090E047
:101A90000E94FF0260E088E00E944E0260E08BE05E
:101AA0000E944E026AEF70E080E090E00E94FF0228
:101AB00061E08BE00E944E0261E087E00E944E02EE
:101AC00060E086E00E944E02109225030E94EA0523
:101AD00080912003909121038332910514F4892B86
:101AE000A9F70E94C00580910402909105028230FE
:101AF000910520F00397029708F041C088E00E940A
:101B0000B30160E088E00E944E02809125038823A3
:101B100071F160E087E00E944E0261E086E00E9481
:101B20004E0261E088E00E944E026CE271E080E0CB
:101B300090E00E94FF0260E088E00E944E0260E0B8
:101B40008BE00E944E026AEF70E080E090E00E941D
:101B5000FF0261E08BE00E944E0261E087E00E949C
:101B60004E0260E086E00E944E02109225030E9421
:101B7000C00580910402909105020297C1F781E0AF
:101B800080932503E090FC04F090FD0497010F2C56
:101B9000000C440B550B00912303109124038EE598
:101BA00093E08F3F9F4F0CF039C12B503109410911
:101BB0005109A0EEBFEF0E94B1112AEE3FEF4FEFA7
:101BC0005FEF0E948411DA01C90185599F4FAF4F21
:101BD000BF4F6C010631110531F0209122032830EE
:101BE00014F00E94D2019701A6EFBFEF0E942713C5
:101BF0002BE030E040E050E0F7FE04C025EF3FEF7F
:101C00004FEF5FEF0E94841189019A0108581F4F1E
:101C10002F4F3F4F86E0E80EF11C9DE0E916F104DE
:101C200010F408E710E088E00E94B30101151105E7
:101C300009F01FC160E088E00E944E023EC1823080
:101C400061F4109290008093910010929500109290
:101C5000940088BB80937100B8CC833069F41092F3
:101C6000A00082E08093A1001092A5001092A40031
:101C700089BB80937200A9CC8111A7CC109220015E
:101C800082E08093210110922501109224018ABBE9
:101C9000809373009ACC5C864B86B7018F819885C0
:101CA0000E9445151BCDCE0107960E94E8062FCD58
:101CB000D701C601BF778D879E87AF87B88B2FEF7F
:101CC0003FEF4FE75FE7BC01CD010E94FA1281119F
:101CD0000FC02FEF3FEF4FE75FE76D857E858F8564
:101CE00098890E94601018161CF483E692E06CCD6F
:101CF0002FEF3FEF4FE75FE4C701B6010E94F512F7
:101D000018161CF487E692E05FCD2FEF3FEF4FE708
:101D10005FECC701B6010E94601087FDF3CF20E0A1
:101D200030E0A901C701B6010E94601087FF0BC017
:101D30006DE28EEC93E00E94D2032601370177FA20
:101D4000709477F870942AE037ED43EA5BE3C301BF
:101D5000B2010E94E8112B013C010E94C6126B01E6
:101D60007C010E9465109B01AC01C301B2010E947D
:101D7000E7112B013C014AE0C701B6010E9433057F
:101D80006EE28EEC93E00E94D20320E030E040E26D
:101D900051E4C301B2010E94C6102B013C010E9414
:101DA000C6126B01F12CE12C4AE0C701B6010E947A
:101DB0003305C701B6010E9465109B01AC01C30148
:101DC000B2010E94E71120E030E040E251E40E94BD
:101DD000C6100E94C61290E080E04AE00E943305DF
:101DE000F5CCD8011D921C9222CD4F5F5F4F7BCD69
:101DF0006F5F7F4F82CD4AE0C701B6010E94330575
:101E0000B7CD853F1FEF910718F084EC92E00BCE21
:101E1000892B09F00ACE87EC92E005CEEEE5F3E0DF
:101E20003297A4F09E2D8F2DFBE0EF16F10414F0F5
:101E30009AE080E0292F382F263F6FEF360714F401
:101E400026EF3FEF032E000C440B550B2A503109AF
:101E500041095109A2ECBFEF0E94B111A501940103
:101E60000E948411DA01C90186589F4FAF4FBF4FBE
:101E7000B0CEE8E9F1E0E491E150E23108F0DACEE9
:101E8000F0E08827E95BF04F8F4F0C941F13590F38
:101E9000990F9E0FA80FB20F1A0EBC0FC40FCC0FD4
:101EA000D60FE00FEA0FF90F03101A0E0D101710DE
:101EB000211084B5806884BD07BD8EE392E00E9446
:101EC0009805C6010E94A8058EE392E00E9498053D
:101ED000C8010E94B2058091040290910502059705
:101EE000029720F58091260390912703892BF1F426
:101EF00060E088E00E944E0260E08BE00E944E02AB
:101F00006AEF70E080E090E00E94FF0261E08BE009
:101F10000E944E0268E873E180E090E00E94FF02B8
:101F2000A1E0B0E0B0932703A09326030E943F04F2
:101F30006ACB84B5806284BD08BDBFCF809180002C
:101F40008068809380001093890000938800B5CF4B
:101F50008091800080628093800010938B000093BA
:101F60008A00ABCF809180008860809380001093BE
:101F70008D0000938C00A1CF8091B0008068809389
:101F8000B0000093B30099CF8091B000806280933D
:101F9000B0000093B40091CF80919000806880934E
:101FA0009000109399000093980087CF8091900043
:101FB00080628093900010939B0000939A007DCFE5
:101FC0008091900088608093900010939D00009312
:101FD0009C0073CF8091A00080688093A0008091C6
:101FE000A0008F7B8093A0001093A9000093A8000D
:101FF00064CF8091A00080628093A0001093AB001A
:102000000093AA005ACF8091A00088608093A0001E
:102010001093AD000093AC0050CF809120018068F8
:1020200080932001109329010093280146CF8091CD
:10203000200180628093200110932B0100932A01DC
:102040003CCF8091200188608093200110932D0166
:1020500000932C0132CFBB274A3031F4992322F46C
:10206000BDE2909581959F4F0C943710BB27FB01E3
:102070005527AA27880F991FAA1FA41710F0A41B81
:1020800083955051B9F7A05DAA3308F0A95DA193DB
:10209000009779F7B111B1931192CB010C945010C4
:1020A000DC01FC01672F71917723E1F7329704C0BF
:1020B0007C916D9370836291AE17BF07C8F308954A
:1020C0000E94A21008F481E00895E89409C097FBEB
:1020D0003EF490958095709561957F4F8F4F9F4FFF
:1020E0009923A9F0F92F96E9BB279395F695879543
:1020F00077956795B795F111F8CFFAF4BB0F11F406
:1021000060FF1BC06F5F7F4F8F4F9F4F16C08823AC
:1021100011F096E911C0772321F09EE8872F762FE2
:1021200005C0662371F096E8862F70E060E02AF023
:102130009A95660F771F881FDAF7880F969587950F
:1021400097F90895990F0008550FAA0BE0E8FEEFE4
:1021500016161706E807F907C0F012161306E4076B
:10216000F50798F0621B730B840B950B39F40A2664
:1021700061F0232B242B252B21F408950A2609F442
:10218000A140A6958FEF811D811D08950E94D91051
:102190000C944A110E943C1138F00E94431120F027
:1021A000952311F00C9433110C94391111240C94D3
:1021B0007E110E945B1170F3959FC1F3950F50E063
:1021C000551F629FF001729FBB27F00DB11D639FE9
:1021D000AA27F00DB11DAA1F649F6627B00DA11D8F
:1021E000661F829F2227B00DA11D621F739FB00D35
:1021F000A11D621F839FA00D611D221F749F3327A5
:10220000A00D611D231F849F600D211D822F762F3D
:102210006A2F11249F5750409AF0F1F088234AF01A
:10222000EE0FFF1FBB1F661F771F881F9150504086
:10223000A9F79E3F510580F00C9433110C947E1148
:102240005F3FE4F3983ED4F3869577956795B7950D
:10225000F795E7959F5FC1F7FE2B880F911D969527
:10226000879597F9089597F99F6780E870E060E097
:1022700008959FEF80EC089500240A94161617061F
:1022800018060906089500240A9412161306140667
:1022900005060895092E0394000C11F4882352F0CA
:1022A000BB0F40F4BF2B11F460FF04C06F5F7F4F82
:1022B0008F4F9F4F089557FD9058440F551F59F069
:1022C0005F3F71F04795880F97FB991F61F09F3F23
:1022D00079F087950895121613061406551FF2CF4C
:1022E0004695F1DF08C0161617061806991FF1CF9C
:1022F00086957105610508940895E894BB276627C3
:102300007727CB0197F90895052E97FB1EF40094CB
:102310000E949B1157FD07D00E94B61107FC03D005
:102320004EF40C949B1150954095309521953F4F5C
:102330004F4F5F4F089590958095709561957F4FB1
:102340008F4F9F4F08950E94D811A59F900DB49F65
:10235000900DA49F800D911D11240895B7FF0C943A
:10236000A3110E94A311821B930B0895A1E21A2EC0
:10237000AA1BBB1BFD010DC0AA1FBB1FEE1FFF1F29
:10238000A217B307E407F50720F0A21BB30BE40B79
:10239000F50B661F771F881F991F1A9469F76095C0
:1023A0007095809590959B01AC01BD01CF0108957A
:1023B000A29FB001B39FC001A39F700D811D112486
:1023C000911DB29F700D811D1124911D08955058CB
:1023D000BB27AA270E94FF110C944A110E943C11AE
:1023E00038F00E94431120F039F49F3F19F426F48D
:1023F0000C9439110EF4E095E7FB0C943311E92F9E
:102400000E945B1158F3BA17620773078407950798
:1024100020F079F4A6F50C947D110EF4E0950B2EC6
:10242000BA2FA02D0B01B90190010C01CA01A00126
:102430001124FF27591B99F0593F50F4503E68F181
:102440001A16F040A22F232F342F4427585FF3CFC2
:10245000469537952795A795F0405395C9F77EF493
:102460001F16BA0B620B730B840BBAF09150A1F0DC
:10247000FF0FBB1F661F771F881FC2F70EC0BA0F62
:10248000621F731F841F48F4879577956795B795EA
:10249000F7959E3F08F0B0CF9395880F08F09927E5
:1024A000EE0F9795879508950E9468120C944A1133
:1024B0000E94431158F00E943C1140F029F45F3F04
:1024C00029F00C94331151110C947E110C94391194
:1024D0000E945B1168F39923B1F3552391F3951B87
:1024E000550BBB27AA2762177307840738F09F5F35
:1024F0005F4F220F331F441FAA1FA9F335D00E2EA2
:102500003AF0E0E832D091505040E695001CCAF70E
:102510002BD0FE2F29D0660F771F881FBB1F2617D1
:1025200037074807AB07B0E809F0BB0B802DBF01A8
:10253000FF2793585F4F3AF09E3F510578F00C9477
:1025400033110C947E115F3FE4F3983ED4F38695EB
:1025500077956795B795F7959F5FC9F7880F911D98
:102560009695879597F90895E1E0660F771F881F84
:10257000BB1F621773078407BA0720F0621B730B37
:10258000840BBA0BEE1F88F7E09508950E94631143
:1025900088F09F5798F0B92F9927B751B0F0E1F024
:1025A000660F771F881F991F1AF0BA95C9F714C0D4
:1025B000B13091F00E947D11B1E008950C947D112D
:1025C000672F782F8827B85F39F0B93FCCF386950D
:1025D00077956795B395D9F73EF49095809570956A
:1025E00061957F4F8F4F9F4F08950E94A21008F46E
:1025F0008FEF08950E94A210880B990B0895991BE4
:1026000079E004C0991F961708F0961B881F7A95E9
:10261000C9F780950895AA1BBB1B51E107C0AA1FEB
:10262000BB1FA617B70710F0A61BB70B881F991F73
:102630005A95A9F780959095BC01CD010895EE0FAC
:10264000FF1F881F8BBF0790F691E02D19940E9401
:10265000D811332312F48A1B9B0B0C9431130E9464
:10266000D811B7FF0895821B930B08950F931F9302
:10267000CF93DF938230910510F482E090E0E091F7
:102680001505F091160530E020E0B0E0A0E03097AD
:1026900099F42115310509F44AC0281B390B24305F
:1026A0003105D8F58A819B816115710589F1FB019E
:1026B00093838283FE0111C0408151810281138185
:1026C00048175907E0F04817590799F4109761F037
:1026D00012960C93129713961C933296CF01DF91AA
:1026E000CF911F910F910895009315051093160532
:1026F000F4CF2115310551F04217530738F0A901E5
:10270000DB019A01BD01DF01F801C1CFEF01F9CF73
:102710009093160580931505CDCFFE01E20FF31FB0
:10272000819391932250310939832883D7CF209107
:10273000130530911405232B41F4209108023091A8
:10274000090230931405209313052091060230915D
:1027500007022115310541F42DB73EB740910A0219
:1027600050910B02241B350BE0911305F0911405D9
:10277000E217F307A0F42E1B3F0B2817390778F058
:10278000AC014E5F5F4F2417350748F04E0F5F1FB7
:102790005093140540931305819391939FCFF0E0DC
:1027A000E0E09CCFCF93DF930097E9F0FC013297F4
:1027B00013821282A0911505B0911605ED0130E04B
:1027C00020E01097A1F420813181820F931F209186
:1027D0001305309114052817390709F061C0F093EB
:1027E0001405E0931305DF91CF910895EA01CE1708
:1027F000DF07E8F54A815B819E0141155105B1F77C
:10280000E901FB83EA8349915991C40FD51FEC1765
:10281000FD0761F4808191810296840F951FE90183
:1028200099838883828193819B838A83F0E0E0E0AF
:1028300012968D919C9113970097B9F52D913C912B
:102840001197CD010296820F931F209113053091AD
:1028500014052817390739F6309751F510921605E7
:1028600010921505B0931405A0931305BCCFD38324
:10287000C28340815181840F951FC817D90761F425
:102880004E5F5F4F88819981480F591F5183408364
:102890008A819B81938382832115310509F0B0CF12
:1028A000F0931605E09315059ECFFD01DC01C0CF26
:1028B00013821282D7CF4F925F926F927F928F9244
:1028C0009F92AF92BF92CF92DF92EF92FF920F93BF
:1028D0001F93CF93DF938C01009799F4CB01DF9185
:1028E000CF911F910F91FF90EF90DF90CF90BF900D
:1028F000AF909F908F907F906F905F904F900C94CF
:102900003613FC01E60FF71F9C0122503109E21734
:10291000F30708F4AEC0D901CD91DC911197C61729
:10292000D70720F1C530D10578F0CE01049786177E
:10293000970750F0C61BD70B2297C193D1936D9385
:102940007C93CF010E94D213C801DF91CF911F91D8
:102950000F91FF90EF90DF90CF90BF90AF909F903E
:102960008F907F906F905F904F9008955B01AC1AAD
:10297000BD0A4C018C0E9D1EA0911505B091160547
:10298000512C412CF12CE12C109731F5809113053D
:10299000909114058815990509F05CC046165706F4
:1029A00008F058C08091060290910702009741F408
:1029B0008DB79EB740910A0250910B02841B950B74
:1029C000E817F90708F055C0F0931405E0931305D4
:1029D000F90171836083B8CF8D919C911197129604
:1029E0006C90129713967C901397A815B90559F51A
:1029F0006C0142E0C40ED11CCA14DB0420F1AC010E
:102A00004A195B09DA011296159780F06282738287
:102A100051834083D9016D937C93E114F10471F0EB
:102A2000D7011396FC93EE9312978ECF22968C0FBC
:102A30009D1FF90191838083F301EFCFF093160579
:102A4000E093150581CF4816590608F42C017D0145
:102A5000D3019ACFCB010E9436137C01009749F035
:102A6000AE01B8010E943C15C8010E94D213870133
:102A70006BCF10E000E068CFFB01DC0102C00190E9
:102A80000D9241505040D8F70895FB01DC010190B0
:0C2A90000D920020E1F70895F894FFCFAC
:102A9C00E80346001600000017058000FEFFFAFF51
:102AAC00FBFFFCFF0000FAFF0000FEFFFBFFFDFF39
:102ABC00FFFF00000000D20331035F031F049003EB
:102ACC006E0382030D0A00545241464649432020AE
:102ADC00200044697374616E63653A2000636D0075
:102AEC002C00772000202020636F6566205B006E31
:102AFC00616E00696E66006F7666005D20200020B6
:102B0C0046200077617463685F747261636B5F76F3
:102B1C00616C202020006C2C722C6C622C72622058
:102B2C003D20002020206C2000202020722000203E
:102B3C0020206C62200020202072622000202020A7
:102B4C006C722073756D20004572726F722020209C
:0C2B5C0000203E00203C00207C200000F7
:00000001FF
