:100000000C944A010C947B010C947B010C947B01B1
:100010000C947B010C947B010C947B010C947B0170
:100020000C947B010C947B010C947B010C947B0160
:100030000C947B010C947B010C947B010C947B0150
:100040000C947B010C94E7060C947B010C947B01CF
:100050000C947B010C947B010C947B010C94B305F4
:100060000C947B010C9427060C94FD050C947B01E9
:100070000C947B010C947B010C947B010C947B0110
:100080000C94B9060C947B010C947B010C947B01BD
:100090000C947B010C947B010C947B010C947B01F0
:1000A0000C947B010C947B010C948B060C947B01CB
:1000B0000C947B010C947B010C947B010C945D06E9
:1000C0000C947B010C947B010C947B010C947B01C0
:1000D0000C947B010C947B010C947B010C947B01B0
:1000E0000C947B010C944D020C9427030C94AF0AE2
:1000F0000C946B020C94DA0A0C9405030C94900295
:100100000C945F030C94EC0A0C9448020C94B40A0F
:100110000C94AA0A0C94000B0C94AC030C945F0290
:100120000C94410B0C949E020C94C9020C94230B6A
:100130000C94370B0C94F6020C94C80A0C9494029D
:100140000C9486020C947E020C9463020C94E20AD6
:100150000C942D0B0C9474020C94D20A0C94F60A95
:100160000C9419030C946E020C9415070C948C02D9
:100170000C940F0B0C94BE0A0C9467020C94820230
:100180000C9478020C949A020C94190B00000A0B40
:1001900002090C0D0E080703040100000000000016
:1001A000000000000000000000000000000000004F
:1001B000000000000000000012111000000000000C
:1001C000000000000000000000000000000000002F
:1001D000000000002200250028002B002E00310026
:1001E000340002010000050108010B01000021009C
:1001F000240027002A002D003000330001010000F8
:10020000040107010A010505050507050808080896
:10021000020202020A0A080804040404010101019E
:100220000101010103030303030303030407070799
:100230000C0C0C0C0C0C0C0C02020202060606063E
:10024000060606060B0B0B0B0B0B0B0B010210200B
:1002500020080810204010204080020102010804FC
:100260000201010204081020408080402010080490
:1002700002018004020180402010080402010804E9
:10028000020101020408102040800102040810202D
:100290004080150711241FBECFEFD1E2DEBFCDBFD6
:1002A00000E00CBF12E0A0E0B2E0E2E4FCE100E01C
:1002B0000BBF02C007900D92A434B107D9F723E019
:1002C000A4E4B2E001C01D92A43BB207E1F711E043
:1002D000CAE4D1E000E006C021970109802FFE01A9
:1002E0000E94F20BC934D10780E00807A9F70E94E9
:1002F00072070C941F0E0C94000090E0FC01E45B6C
:10030000FD4F24918A5F9D4FFC018491882399F0D1
:1003100090E0880F991FFC01E451FE4FA591B49124
:10032000FC01EE52FE4F859194918FB7F894EC91B9
:10033000E22BEC938FBF0895CF92DF92EF92FF9262
:10034000DC01A03282E0B807D4F5A53BB10514F07A
:10035000A4EBB0E04091AE0328E830E0241B310963
:1003600047FD3395220F331F220F331F6901330FCF
:10037000EE08FF084091AF0328E532E0241B310965
:1003800047FD3395220F331F220F331F032E000C1E
:10039000440B550B2C193D094E095F09B7FF02C0EC
:1003A000B0E0A0E00E94AD0B24EB30E040E050E074
:1003B0000E94830BC20ED31EE41EF51ED601E091EF
:1003C000AD03E03380F52091AE0388E890E0821B16
:1003D000910927FD9395880F991F880F991FA817DA
:1003E000B90784F02091AF0388E592E0821B910960
:1003F00027FD9395880F991F880F991FA817B90794
:100400000CF4CD010297880F991F4FB7F8942E2F47
:1004100030E0F901EE0FFF1FE20FF31FE45EFC4F27
:10042000928381834FBFFF90EF90DF90CF9008952C
:10043000282F30E0F901E457FE4F9491F901E45B75
:10044000FD4F44912A5F3D4FF9012491222309F485
:1004500035C0992311F191509231F8F4E92FF0E071
:100460008827EA5CFD4F8F4F0C94F20B67026B02FA
:1004700048025F0263024D026E02740278027E023D
:10048000820286028C0290024D0294029A029E021F
:10049000809180008F7780938000E22FF0E0EE0F54
:1004A000FF1FEE52FE4FA591B4918FB7F894EC91D7
:1004B000611148C040954E234C938FBF08958091A1
:1004C00080008F7DE8CF80918000877FE4CF84B566
:1004D0008F7784BDE2CF84B58F7DFBCF8091B00054
:1004E0008F778093B000D9CF8091B0008F7DF9CF06
:1004F000809190008F7780939000CFCF8091900073
:100500008F7DF9CF80919000877FF5CF8091A000FB
:100510008F778093A000C1CF8091A0008F7DF9CF0D
:100520008091A000877FF5CF809120018F77809305
:100530002001B3CF809120018F7DF9CF80912001E0
:10054000877FF5CF4E2BB8CF3FB7F89480917B02D1
:1005500090917C02A0917D02B0917E0226B5A89B6D
:1005600005C02F3F19F00196A11DB11D3FBFBA2F45
:10057000A92F982F8827BC01CD01620F711D811D05
:10058000911D42E0660F771F881F991F4A95D1F78A
:100590000895AF92BF92CF92DF92EF92FF920F93A6
:1005A0001F93CF93DF936C017B018B01040F151F09
:1005B000EB015E01AE18BF08C017D10759F0699171
:1005C000D601ED91FC910190F081E02DC6011995C5
:1005D000892B79F7C501DF91CF911F910F91FF9082
:1005E000EF90DF90CF90BF90AF900895FC01538DB6
:1005F000448D252F30E0842F90E0821B930B5417FD
:1006000010F0CF96089501970895FC01918D828D89
:10061000981761F0A28DAE0FBF2FB11D5D968C9122
:10062000928D9F5F9F73928F90E008958FEF9FEF61
:100630000895FC01918D828D981731F0828DE80F1D
:10064000F11D858D90E008958FEF9FEF0895FC01D7
:10065000918D228D892F90E0805C9F4F821B9109A4
:100660008F73992708958FE792E00E94270321E076
:10067000892B09F420E0822F0895FC01A48DA80F96
:10068000B92FB11DA35ABF4F2C91848D90E00196D4
:100690008F739927848FA689B7892C93A089B189F4
:1006A0008C91837080648C93938D848D981306C095
:1006B0000288F389E02D80818F7D80830895EF92F9
:1006C000FF920F931F93CF93DF93EC0181E0888F0C
:1006D0009B8D8C8D98131AC0E889F989808185FFDC
:1006E00015C09FB7F894EE89FF896083E889F9897E
:1006F00080818370806480839FBF81E090E0DF9180
:10070000CF911F910F91FF90EF900895F62E0B8DD2
:1007100010E00F5F1F4F0F731127E02E8C8D8E118D
:100720000CC00FB607FCFACFE889F989808185FFF4
:10073000F5CFCE010E943D03F1CFEB8DEC0FFD2FE5
:10074000F11DE35AFF4FF0829FB7F8940B8FEA89AF
:10075000FB8980818062CFCFCF93DF93EC01888DBE
:100760008823B9F0AA89BB89E889F9898C9185FD2C
:1007700003C0808186FD0DC00FB607FCF7CF8C91BA
:1007800085FFF2CF808185FFEDCFCE010E943D0332
:10079000E9CFDF91CF91089580E090E0892B29F097
:1007A0000E94330381110E94000080E090E0892BB9
:1007B00049F080E090E0892B29F00E94000081112F
:1007C0000E94000080E090E0892B49F080E090E0FA
:1007D000892B29F00E94000081110E94000080E016
:1007E00090E0892B49F080E090E0892B29F00E946D
:1007F000000081110C9400000895AF92BF92CF9237
:10080000DF92EF92FF920F931F93CF93DF936B01D1
:100810007A01EC01CC5BDD4F28813CE0389F800100
:10082000399F100D1124A090AC03B12C27FF1FC0DD
:10083000FB011182108288818F5F888388819801F3
:10084000280F311D87FD3A95F6012A153B051CF44A
:1008500088818C30C4F180819181049680349C49D8
:1008600008F473C0F60180819181049670C088817C
:100870009801280F311D87FD3A952A153B05DCF6B6
:100880008881A801480F511D87FD5A95FA01EE0F86
:10089000FF1FE40FF51FE45EFC4F808186FFCBCF86
:1008A0008881F801E80FF11D87FDFA95CF01EE0F61
:1008B000FF1FE80FF91FE45EFC4F808160E08F733B
:1008C0000E941802B8CF808191812881A801420F2F
:1008D000511D27FD5A959A01FA01EE0FFF1FE20FF5
:1008E000F31FE45EFC4F21813281820F931FF701D9
:1008F0009183808388819801280F311D87FD3A9567
:10090000F901EE0FFF1FE20FF31FE45EFC4F808141
:1009100086FF22C08881080F111D87FD1A95F801F6
:10092000EE0FFF1FE00FF11FE45EFC4F808161E0DE
:100930008F73DF91CF911F910F91FF90EF90DF9018
:10094000CF90BF90AF900C94180280E49CE9F7011F
:10095000918380838FEF8883DF91CF911F910F91D7
:10096000FF90EF90DF90CF90BF90AF900895FC0183
:1009700001900020E9F73197AF01481B590BBC01EA
:100980008FE792E00C94C9028F929F92AF92BF9230
:100990000F931F93CF93DF93CDB7DEB7A1970FB619
:1009A000F894DEBF0FBECDBF19A2423008F44AE072
:1009B0008E010F5D1F4F842E912CB12CA12CA5010F
:1009C00094010E94B50BE62FB901CA01EA30F4F494
:1009D000E05DD801EE938D01232B242B252B79F795
:1009E00090E080E0109719F0CD010E94B704A19625
:1009F0000FB6F894DEBF0FBECDBFDF91CF911F9130
:100A00000F91BF90AF909F908F900895E95CE1CFD8
:100A1000CF92DF92EF92FF92CF93DF936B017C0135
:100A20006DE28FE792E00E945F03EC016627772773
:100A3000CB016C197D098E099F094AE00E94C4040C
:100A40008C0F9D1FDF91CF91FF90EF90DF90CF90A3
:100A5000089597FD0C9408054AE00C94C4040F9384
:100A60001F93CF93DF93EC0188819981009759F010
:100A70002A813B812617370730F081E0DF91CF9143
:100A80001F910F9108958B016F5F7F4F0E942E0D74
:100A9000009759F0998388831B830A832C813D81B9
:100AA000232B59F7FC011082E8CF80E0E7CFCF93EA
:100AB000DF93EC0188819981009711F00E94A50CC9
:100AC000198218821D821C821B821A82DF91CF91AB
:100AD0000895CF92DF92EF92FF920F931F93CF93DF
:100AE000DF93CDB7DEB762970FB6F894DEBF0FBEC7
:100AF000CDBF8C01CB01F8011182108213821282CA
:100B0000158214824AE09E012F5F3F4F6901B901AF
:100B10000E944E0BF60101900020E9F731977F010A
:100B2000EC18FD08B701C8010E942F05811112C001
:100B3000C8010E94570562960FB6F894DEBF0FBE3B
:100B4000CDBFDF91CF911F910F91FF90EF90DF907C
:100B5000CF900895F801F582E482B60180819181F9
:100B60000E94180EE8CF1F920F920FB60F92112419
:100B70002F933F938F939F93AF93BF93809177026F
:100B800090917802A0917902B0917A023091760228
:100B900023E0230F2D3758F50196A11DB11D209399
:100BA00076028093770290937802A0937902B093B3
:100BB0007A0280917B0290917C02A0917D02B0919B
:100BC0007E020196A11DB11D80937B0290937C0251
:100BD000A0937D02B0937E02BF91AF919F918F91C0
:100BE0003F912F910F900FBE0F901F90189526E800
:100BF000230F0296A11DB11DD2CF1F920F920FB6E7
:100C00000F9211240BB60F922F933F934F935F9344
:100C10006F937F938F939F93AF93BF93EF93FF93C4
:100C20008FE792E00E943D03FF91EF91BF91AF915A
:100C30009F918F917F916F915F914F913F912F91F4
:100C40000F900BBE0F900FBE0F901F9018951F9224
:100C50000F920FB60F9211240BB60F922F938F9312
:100C60009F93EF93FF93E0918F02F0919002808128
:100C7000E0919502F091960282FD1DC090818091D5
:100C800098028F5F8F7320919902821741F0E09153
:100C90009802F0E0E158FD4F958F80939802FF9104
:100CA000EF919F918F912F910F900BBE0F900FBEE0
:100CB0000F901F9018958081F2CF1F920F920FB660
:100CC0000F9211240BB60F922F933F934F935F9384
:100CD0006F937F938F939F93AF93BF93EF93FF9304
:100CE00048E251E064E271E090E080E00E94FD03A0
:100CF000FF91EF91BF91AF919F918F917F916F91F4
:100D00005F914F913F912F910F900BBE0F900FBEAF
:100D10000F901F9018951F920F920FB60F921124EB
:100D20000BB60F922F933F934F935F936F937F93E5
:100D30008F939F93AF93BF93EF93FF9348EA50E055
:100D400064EA70E083E090E00E94FD03FF91EF9180
:100D5000BF91AF919F918F917F916F915F914F91D3
:100D60003F912F910F900BBE0F900FBE0F901F90D1
:100D700018951F920F920FB60F9211240BB60F9277
:100D80002F933F934F935F936F937F938F939F9393
:100D9000AF93BF93EF93FF9348E950E064E970E0AD
:100DA00082E090E00E94FD03FF91EF91BF91AF912F
:100DB0009F918F917F916F915F914F913F912F9173
:100DC0000F900BBE0F900FBE0F901F9018951F92A3
:100DD0000F920FB60F9211240BB60F922F933F93E1
:100DE0004F935F936F937F938F939F93AF93BF9333
:100DF000EF93FF9348E850E064E870E081E090E012
:100E00000E94FD03FF91EF91BF91AF919F918F9150
:100E10007F916F915F914F913F912F910F900BBEFA
:100E20000F900FBE0F901F90189510928202109293
:100E3000810288EE93E0A0E0B0E08093830290937B
:100E40008402A0938502B093860284E292E090939C
:100E5000800280937F0285EC90E090938C028093D7
:100E60008B0284EC90E090938E0280938D0280EC54
:100E700090E09093900280938F0281EC90E09093A9
:100E800092028093910282EC90E09093940280937E
:100E9000930286EC90E090939602809395021092D4
:100EA00098021092990210929A0210929B028091DD
:100EB000AC03803398F491E0980F9093AC03809347
:100EC000AD0390E0FC01EE0FFF1FE80FF91FE45E99
:100ED000FC4F88EB9BE09283818308958FEF809392
:100EE000AD030895CF93DF93CDB7DEB72E970FB63E
:100EF000F894DEBF0FBECDBF789484B5826084BD08
:100F000084B5816084BD85B5826085BD85B581600D
:100F100085BD80916E00816080936E00109281008B
:100F20008091810082608093810080918100816046
:100F30008093810080918000816080938000809107
:100F4000B10084608093B1008091B0008160809393
:100F5000B000809191008260809391008091910017
:100F600081608093910080919000816080939000D7
:100F70008091A10082608093A1008091A100816096
:100F80008093A1008091A00081608093A000809157
:100F900021018260809321018091210181608093F1
:100FA00021018091200181608093200180917A004D
:100FB000846080937A0080917A00826080937A00C6
:100FC00080917A00816080937A0080917A008068B5
:100FD00080937A001092C10088E00E947D0187E032
:100FE0000E947D0186E00E947D01E0918F02F091D8
:100FF000900282E08083E0918B02F0918C0210825B
:10100000E0918D02F0918E0280E180831092970230
:10101000E0919302F091940286E08083E091910246
:10102000F0919202808180618083E0919102F09141
:101030009202808188608083E0919102F091920217
:10104000808180688083E0919102F091920280819A
:101050008F7D80838091AD03803308F051C08CE098
:101060000E947D018091AD03282F30E0F901EE0F41
:10107000FF1FE20FF31FE45EFC4F9081907C9C60A9
:1010800090831092AE031092AF032CE0622F0E9467
:10109000E60B829FB001112430E020E0AB01420F4B
:1010A000531FFA01EE0FFF1FE40FF51FE45EFC4F24
:1010B000908196FD17C02F5F3F4F2C30310571F79F
:1010C000813009F0DEC11092800082E080938100BF
:1010D0001092850010928400B19A80916F00826016
:1010E00080936F00E091AD038E2F90E0FC01EE0F36
:1010F000FF1FE80FF91FE45EFC4F8081806480834E
:101100000E94A4022B013C0142E3C42ED12CE12C0D
:10111000F12C0E94A4026419750986099709683E9A
:10112000734081059105A8F321E0C21AD108E108B6
:10113000F10848EE440E43E0541E611C711CC114BA
:10114000D104E104F10429F785E590E00E949C01B7
:1011500088248A9423E0922E3CE3432E512C612C68
:10116000712C90920302809202021092010210925E
:1011700000029AE0292E92E0392E0EE512E01E8739
:101180000D87B12C90917B00977F8B2D887F892BC9
:1011900080937B008B2D8770806480937C0080918E
:1011A0007A00806480937A0080917A0086FDFCCF7B
:1011B0006091780080917900F101219131911F01B6
:1011C000782F620F731FED85FE8561937193FE8703
:1011D000ED8780910202909103026817790724F449
:1011E00070930302609302028091000290910102C9
:1011F0008617970724F47093010260930002CE01D2
:1012000001960E94690518861F821A8619861C8617
:101210001B86E980FA80E114F10469F0CD80DE805C
:10122000B601CE0107960E942F05811156C1CE014D
:1012300007960E945705EB84FC84FFEFEF1AFF0A24
:10124000B701CE0107960E942F05882309F44DC1EE
:101250002F8138858B859C8562E372E0820F931F16
:101260000E94180EFC86EB864B855C856F81788525
:101270008FE792E00E94C9028F8198850E94A50C99
:1012800089819A810E94A50CB3942BE0B2127ACF87
:1012900084E392E00E94B70488E392E00E94B704DE
:1012A0006091000270910102072E000C880B990BCF
:1012B0000E94290585E392E00E94B7048BE392E047
:1012C0000E94B7046091020270910302072E000C85
:1012D000880B990B0E94290585E392E00E94B704D0
:1012E00088E4C82E82E0D82E7601F8012191319150
:1012F0008F01809102029091030206968217930754
:101300000CF0F8C081E090E0F70191838083F70151
:10131000619171917F01CE0101960E9469054D8115
:101320005E8169817A818FE792E00E94C90289819A
:101330009A810E94A50CF2E004371F07B1F6E8E499
:10134000F2E090E080E021913191232B09F4D6C0A6
:1013500030E020E0F60144895589452B41F42F5FA8
:101360003F4FF2E0CF1AD1082B30310599F7821B9D
:10137000930B909375028093740285E392E00E9430
:10138000B7046091740270917502072E000C880BEF
:10139000990B0E9429058EE392E00E94B70481E434
:1013A00092E00E94B704A0907402B090750226E00B
:1013B0002A9D80012B9D100D11249801012E000CF7
:1013C000440B550B245C3F4F4F4F5F4FA4ECBFEFD6
:1013D0000E94B00B28E730E040E050E00E94830B11
:1013E00069017A0183E7C80ED11CE11CF11C980148
:1013F000ACE9BFEF0E94FA0BA3019201B7FE04C053
:1014000024EC3FEF4FEF5FEF0E94830B89019A01BD
:1014100008531F4F2F4F3F4FC6010E949C0161E0B0
:1014200087E00E94180260E086E00E94180288E0CF
:101430000E947D010115110509F066C060E088E099
:101440000E94180284E392E00E94B704B601DD0C0A
:10145000880B990B97FF1AC10E94080584E392E05C
:101460000E94B704B801110F880B990B97FF12C1A6
:101470000E94080581E492E00E94B7040E94CC0318
:1014800070CE823061F4109290008093910010929F
:1014900095001092940088BB8093710023CE833016
:1014A00069F41092A00082E08093A1001092A50040
:1014B0001092A40089BB8093720014CE811112CEC9
:1014C0001092200182E08093210110922501109258
:1014D00024018ABB8093730005CEDC86CB86B701DE
:1014E0008F8198850E94180EA6CECE0107960E9485
:1014F0005705BACEF7011182108209CF01968B30C1
:10150000910509F020CF24CF0F3F110511F461E0C0
:1015100096CFE4E9F1E08491EFEFE80FE23108F0D3
:10152000B0C0F0E08827E856F54F8F4F0C94F20BCF
:10153000AA0AAF0AB40ABE0AC80A410BD20ADA0ADA
:10154000E20AEC0AF60A000B0F0B190B410B230BF6
:101550002D0B370B84B5806884BD07BD73CF84B570
:10156000806284BD08BD6ECF8091800080688093CA
:101570008000109389000093880064CF80918000E0
:1015800080628093800010938B0000938A005ACF72
:101590008091800088608093800010938D0000937C
:1015A0008C0050CF8091B00080688093B000009391
:1015B000B30048CF8091B00080628093B000009368
:1015C000B40040CF80919000806880939000109389
:1015D00099000093980036CF8091900080628093AC
:1015E000900010939B0000939A002CCF8091900064
:1015F00088608093900010939D0000939C0022CF00
:101600008091A00080688093A0008091A0008F7BD3
:101610008093A0001093A9000093A80013CF80919D
:10162000A00080628093A0001093AB000093AA00FA
:1016300009CF8091A00088608093A0001093AD0036
:101640000093AC00FFCE8091200180688093200140
:101650001093290100932801F5CE8091200180622A
:101660008093200110932B0100932A01EBCE8091EF
:10167000200188608093200110932D0100932C019C
:10168000E1CE003811050CF042CFD8CE4AE00E94DE
:10169000C404E4CE4AE00E94C404ECCEBB274A3026
:1016A00031F4992322F4BDE2909581959F4F0C94DB
:1016B0005A0BBB27FB015527AA27880F991FAA1F82
:1016C000A41710F0A41B83955051B9F7A05DAA335D
:1016D00008F0A95DA193009779F7B111B193119228
:1016E000CB010C94730BDC01FC01672F7191772304
:1016F000E1F7329704C07C916D9370836291AE17CD
:10170000BF07C8F30895052E97FB1EF400940E94AE
:101710009A0B57FD07D00E94B50B07FC03D04EF47F
:101720000C949A0B50954095309521953F4F4F4F13
:101730005F4F089590958095709561957F4F8F4F7D
:101740009F4F08950E94D70BA59F900DB49F900DB9
:10175000A49F800D911D11240895B7FF0C94A20B36
:101760000E94A20B821B930B0895A1E21A2EAA1BC2
:10177000BB1BFD010DC0AA1FBB1FEE1FFF1FA21741
:10178000B307E407F50720F0A21BB30BE40BF50B3E
:10179000661F771F881F991F1A9469F760957095C7
:1017A000809590959B01AC01BD01CF010895A29F4A
:1017B000B001B39FC001A39F700D811D1124911D25
:1017C000B29F700D811D1124911D0895991B79E020
:1017D00004C0991F961708F0961B881F7A95C9F7C1
:1017E00080950895EE0FFF1F881F8BBF0790F6911D
:1017F000E02D19940E94D70B332312F48A1B9B0B04
:101800000C94040C0E94D70BB7FF0895821B930B16
:1018100008950F931F93CF93DF938230910510F4B7
:1018200082E090E0E091B203F091B30330E020E079
:10183000B0E0A0E0309799F42115310509F44AC0D1
:10184000281B390B24303105D8F58A819B8161151D
:10185000710589F1FB0193838283FE0111C04081F0
:1018600051810281138148175907E0F04817590741
:1018700099F4109761F012960C93129713961C939B
:101880003296CF01DF91CF911F910F910895009370
:10189000B2031093B303F4CF2115310551F0421771
:1018A000530738F0A901DB019A01BD01DF01F801FE
:1018B000C1CFEF01F9CF9093B3038093B203CDCFA3
:1018C000FE01E20FF31F8193919322503109398376
:1018D0002883D7CF2091B0033091B103232B41F45B
:1018E00020910602309107023093B1032093B00398
:1018F00020910402309105022115310541F42DB7E4
:101900003EB74091080250910902241B350BE0912B
:10191000B003F091B103E217F307A0F42E1B3F0BC5
:101920002817390778F0AC014E5F5F4F2417350751
:1019300048F04E0F5F1F5093B1034093B003819363
:1019400091939FCFF0E0E0E09CCFCF93DF9300979F
:10195000E9F0FC01329713821282A091B203B09198
:10196000B303ED0130E020E01097A1F42081318134
:10197000820F931F2091B0033091B10328173907CC
:1019800009F061C0F093B103E093B003DF91CF9110
:101990000895EA01CE17DF07E8F54A815B819E01D1
:1019A00041155105B1F7E901FB83EA83499159914A
:1019B000C40FD51FEC17FD0761F480819181029659
:1019C000840F951FE90199838883828193819B838A
:1019D0008A83F0E0E0E012968D919C911397009736
:1019E000B9F52D913C911197CD010296820F931F6D
:1019F0002091B0033091B1032817390739F6309799
:101A000051F51092B3031092B203B093B103A093B7
:101A1000B003BCCFD383C28340815181840F951F13
:101A2000C817D90761F44E5F5F4F88819981480FCD
:101A3000591F518340838A819B819383828321151F
:101A4000310509F0B0CFF093B303E093B2039ECF1A
:101A5000FD01DC01C0CF13821282D7CF4F925F927B
:101A60006F927F928F929F92AF92BF92CF92DF92AE
:101A7000EF92FF920F931F93CF93DF938C01009708
:101A800099F4CB01DF91CF911F910F91FF90EF90CF
:101A9000DF90CF90BF90AF909F908F907F906F908E
:101AA0005F904F900C94090CFC01E60FF71F9C010E
:101AB00022503109E217F30708F4AEC0D901CD91E5
:101AC000DC911197C617D70720F1C530D10578F002
:101AD000CE0104978617970750F0C61BD70B2297A5
:101AE000C193D1936D937C93CF010E94A50CC80143
:101AF000DF91CF911F910F91FF90EF90DF90CF90EA
:101B0000BF90AF909F908F907F906F905F904F901D
:101B100008955B01AC1ABD0A4C018C0E9D1EA0916C
:101B2000B203B091B303512C412CF12CE12C10974E
:101B300031F58091B0039091B1038815990509F0B2
:101B40005CC04616570608F058C080910402909178
:101B50000502009741F48DB79EB74091080250915D
:101B60000902841B950BE817F90708F055C0F0939C
:101B7000B103E093B003F90171836083B8CF8D9115
:101B80009C91119712966C90129713967C901397D4
:101B9000A815B90559F56C0142E0C40ED11CCA1450
:101BA000DB0420F1AC014A195B09DA0112961597A2
:101BB00080F06282738251834083D9016D937C935C
:101BC000E114F10471F0D7011396FC93EE93129790
:101BD0008ECF22968C0F9D1FF90191838083F30194
:101BE000EFCFF093B303E093B20381CF48165906C9
:101BF00008F42C017D01D3019ACFCB010E94090C7E
:101C00007C01009749F0AE01B8010E940F0EC80197
:101C10000E94A50C87016BCF10E000E068CFFB01AC
:101C2000DC0102C001900D9241505040D8F7089558
:101C3000FB01DC0101900D920020E1F70895F8947A
:021C4000FFCFD4
:101C4200E80346000000B403800001000100030025
:101C5200020002000300FDFF01000000F8FFFEFF8A
:101C6200000000005F03C902F602AC03270305036C
:101C720019032C0020202000622000772000203E43
:041C8200000D0A0047
:00000001FF
