:100000000C944A010C947B010C947B010C947B01B1
:100010000C947B010C947B010C947B010C947B0170
:100020000C947B010C947B010C947B010C947B0160
:100030000C947B010C947B010C947B010C947B0150
:100040000C947B010C9471070C947B010C947B0144
:100050000C947B010C947B010C947B010C943D0669
:100060000C947B010C94B1060C9487060C947B01D4
:100070000C947B010C947B010C947B010C947B0110
:100080000C9443070C947B010C947B010C947B0132
:100090000C947B010C947B010C947B010C947B01F0
:1000A0000C947B010C947B010C9415070C947B0140
:1000B0000C947B010C947B010C947B010C94E7065F
:1000C0000C947B010C947B010C947B010C947B01C0
:1000D0000C947B010C947B010C947B010C947B01B0
:1000E0000C947B010C94B5030C948F0B0C94680357
:1000F0000C94C60B0C94C9020C9482020C947B0BDA
:100100000C948C020C94BC0B0C94430B0C940E03BB
:100110000C944D0B0C9474020C947E020C9494027B
:100120000C94A80B0C94570B0C94D00B0C947802E5
:100130000C9490020C945F020C944D020C949F0757
:100140000C9463020C9430030C94850B0C946B029A
:100150000C9467020C949A020C94690B0C943E0B5D
:100160000C94610B0C9448020C949E0B0C94DA0ACC
:100170000C94710B0C94FF020C9422030C949E02BD
:100180000C94B20B0C9486020C946E0200000A0BC5
:1001900002090C0D0E080703040100000000000016
:1001A000000000000000000000000000000000004F
:1001B000000000000000000012111000000000000C
:1001C000000000000000000000000000000000002F
:1001D000000000002200250028002B002E00310026
:1001E000340002010000050108010B01000021009C
:1001F000240027002A002D003000330001010000F8
:10020000040107010A010505050507050808080896
:10021000020202020A0A080804040404010101019E
:100220000101010103030303030303030407070799
:100230000C0C0C0C0C0C0C0C02020202060606063E
:10024000060606060B0B0B0B0B0B0B0B010210200B
:1002500020080810204010204080020102010804FC
:100260000201010204081020408080402010080490
:1002700002018004020180402010080402010804E9
:10028000020101020408102040800102040810202D
:1002900040809F0711241FBECFEFD1E2DEBFCDBF4C
:1002A00000E00CBF12E0A0E0B2E0E4E4FDE100E019
:1002B0000BBF02C007900D92AC33B107D9F723E012
:1002C000ACE3B2E001C01D92AC39B207E1F711E036
:1002D000CAE4D1E000E006C021970109802FFE01A9
:1002E0000E94820CC934D10780E00807A9F70E9458
:1002F000FC070C94A00E0C94000090E0FC01E45B61
:10030000FD4F24918A5F9D4FFC018491882399F0D1
:1003100090E0880F991FFC01E451FE4FA591B49124
:10032000FC01EE52FE4F859194918FB7F894EC91B9
:10033000E22BEC938FBF0895CF92DF92EF92FF9262
:10034000DC01A03282E0B807D4F5A53BB10514F07A
:10035000A4EBB0E04091960328E830E0241B31097B
:1003600047FD3395220F331F220F331F6901330FCF
:10037000EE08FF084091970328E532E0241B31097D
:1003800047FD3395220F331F220F331F032E000C1E
:10039000440B550B2C193D094E095F09B7FF02C0EC
:1003A000B0E0A0E00E943D0C24EB30E040E050E0E3
:1003B0000E94130CC20ED31EE41EF51ED601E0915E
:1003C0009503E03380F52091960388E890E0821B46
:1003D000910927FD9395880F991F880F991FA817DA
:1003E000B90784F02091970388E592E0821B910978
:1003F00027FD9395880F991F880F991FA817B90794
:100400000CF4CD010297880F991F4FB7F8942E2F47
:1004100030E0F901EE0FFF1FE20FF31FEC5FFC4F1E
:10042000928381834FBFFF90EF90DF90CF9008952C
:10043000282F30E0F901E457FE4F9491F901E45B75
:10044000FD4F44912A5F3D4FF9012491222309F485
:1004500035C0992311F191509231F8F4E92FF0E071
:100460008827EA5CFD4F8F4F0C94820C67026B0269
:1004700048025F0263024D026E02740278027E023D
:10048000820286028C0290024D0294029A029E021F
:10049000809180008F7780938000E22FF0E0EE0F54
:1004A000FF1FEE52FE4FA591B4918FB7F894EC91D7
:1004B000611148C040954E234C938FBF08958091A1
:1004C00080008F7DE8CF80918000877FE4CF84B566
:1004D0008F7784BDE2CF84B58F7DFBCF8091B00054
:1004E0008F778093B000D9CF8091B0008F7DF9CF06
:1004F000809190008F7780939000CFCF8091900073
:100500008F7DF9CF80919000877FF5CF8091A000FB
:100510008F778093A000C1CF8091A0008F7DF9CF0D
:100520008091A000877FF5CF809120018F77809305
:100530002001B3CF809120018F7DF9CF80912001E0
:10054000877FF5CF4E2BB8CF3FB7F89480916302E9
:1005500090916402A0916502B091660226B5A89BB5
:1005600005C02F3F19F00196A11DB11D3FBFBA2F45
:10057000A92F982F8827BC01CD01620F711D811D05
:10058000911D42E0660F771F881F991F4A95D1F78A
:100590000895AF92BF92CF92DF92EF92FF920F93A6
:1005A0001F93CF93DF936C017B018B01040F151F09
:1005B000EB015E01AE18BF08C017D10759F0699171
:1005C000D601ED91FC910190F081E02DC6011995C5
:1005D000892B79F7C501DF91CF911F910F91FF9082
:1005E000EF90DF90CF90BF90AF900895FC014481D1
:1005F00055816081718187E692E00C94C902FC010B
:10060000538D448D252F30E0842F90E0821B930B77
:10061000541710F0CF96089501970895FC01918D1D
:10062000828D981761F0A28DAE0FBF2FB11D5D9620
:100630008C91928D9F5F9F73928F90E008958FEFC2
:100640009FEF0895FC01918D828D981731F0828D76
:10065000E80FF11D858D90E008958FEF9FEF0895CD
:10066000FC01918D228D892F90E0805C9F4F821B31
:1006700091098F739927089587E692E00E943003CD
:1006800021E0892B09F420E0822F0895FC01A48D3C
:10069000A80FB92FB11DA35ABF4F2C91848D90E0A4
:1006A00001968F739927848FA689B7892C93A08987
:1006B000B1898C91837080648C93938D848D981311
:1006C00006C00288F389E02D80818F7D80830895A4
:1006D000EF92FF920F931F93CF93DF93EC0181E092
:1006E000888F9B8D8C8D98131AC0E889F989808139
:1006F00085FF15C09FB7F894EE89FF896083E8896C
:10070000F98980818370806480839FBF81E090E05D
:10071000DF91CF911F910F91FF90EF900895F62EEA
:100720000B8D10E00F5F1F4F0F731127E02E8C8D84
:100730008E110CC00FB607FCFACFE889F9898081C9
:1007400085FFF5CFCE010E944603F1CFEB8DEC0F74
:10075000FD2FF11DE35AFF4FF0829FB7F8940B8FE6
:10076000EA89FB8980818062CFCFCF93DF93EC0150
:10077000888D8823B9F0AA89BB89E889F9898C9189
:1007800085FD03C0808186FD0DC00FB607FCF7CF45
:100790008C9185FFF2CF808185FFEDCFCE010E9445
:1007A0004603E9CFDF91CF91089580E090E0892B57
:1007B00029F00E943C0381110E94000080E090E03B
:1007C000892B49F080E090E0892B29F00E940000FD
:1007D00081110E94000080E090E0892B49F080E0C8
:1007E00090E0892B29F00E94000081110E940000F6
:1007F00080E090E0892B49F080E090E0892B29F09F
:100800000E94000081110C9400000895AF92BF92E5
:10081000CF92DF92EF92FF920F931F93CF93DF93CC
:100820006B017A01EC01C45CDD4F28813CE0389F0C
:100830008001399F100D1124A0909403B12C27FF43
:100840001FC0FB011182108288818F5F888388819D
:100850009801280F311D87FD3A95F6012A153B05B1
:100860001CF488818C30C4F180819181049680349D
:100870009C4908F473C0F60180819181049670C090
:1008800088819801280F311D87FD3A952A153B056F
:10089000DCF68881A801480F511D87FD5A95FA01A1
:1008A000EE0FFF1FE40FF51FEC5FFC4F808186FF0A
:1008B000CBCF8881F801E80FF11D87FDFA95CF01B4
:1008C000EE0FFF1FE80FF91FEC5FFC4F808160E027
:1008D0008F730E941802B8CF808191812881A8016E
:1008E000420F511D27FD5A959A01FA01EE0FFF1F85
:1008F000E20FF31FEC5FFC4F21813281820F931FC7
:10090000F7019183808388819801280F311D87FD2D
:100910003A95F901EE0FFF1FE20FF31FEC5FFC4F5A
:10092000808186FF22C08881080F111D87FD1A95DE
:10093000F801EE0FFF1FE00FF11FEC5FFC4F80810D
:1009400061E08F73DF91CF911F910F91FF90EF9036
:10095000DF90CF90BF90AF900C94180280E49CE998
:10096000F701918380838FEF8883DF91CF911F916F
:100970000F91FF90EF90DF90CF90BF90AF900895D0
:10098000FC0101900020E9F73197AF01481B590B9A
:10099000BC0187E692E00C94C90282E392E00C94D9
:1009A000C0048F929F92AF92BF92CF92DF92EF924C
:1009B000FF920F931F93CF93DF93CDB7DEB7A1972D
:1009C0000FB6F894DEBF0FBECDBF6B017C01F7FE02
:1009D00041C06DE287E692E00E9468038C01222705
:1009E0003327A9012C193D094E095F0919A2CE012F
:1009F00081967C019AE0892E912CA12CB12CCA0100
:100A0000B901A50194010E94450C605DF701629354
:100A10007F01211531054105510589F790E080E0FE
:100A2000309719F0CF010E94C004800F911FA1964A
:100A30000FB6F894DEBF0FBECDBFDF91CF911F91EF
:100A40000F91FF90EF90DF90CF90BF90AF909F906D
:100A50008F900895AC019B0119A28E010F5D1F4F6D
:100A60008AE0C82ED12CE12CF12CCA01B901A701D2
:100A700096010E94450C605DF80162938F0121157B
:100A800031054105510589F790E080E0309779F212
:100A9000CF010E94C004CBCF0F931F93CF93DF935E
:100AA000EC0188819981009759F02A813B812617B2
:100AB000370730F081E0DF91CF911F910F910895BA
:100AC0008B016F5F7F4F0E94AF0D009759F09983A4
:100AD00088831B830A832C813D81232B59F7FC01DA
:100AE0001082E8CF80E0E7CFEF92FF920F931F9341
:100AF000CF93DF936115710541F480E0DF91CF91D1
:100B00001F910F91FF90EF90089541155105B1F09D
:100B10007B01EC010C811D81040F151FB8010E949F
:100B20004C05882351F3288139818C819D81B7013F
:100B3000820F931F0E94990E1D830C8381E0DECFEC
:100B4000CF93DF93EC0188819981009711F00E9487
:100B5000260D198218821D821C821B821A82DF9147
:100B6000CF910895CF93DF93EC0141E050E066E32D
:100B700072E00E947405811103C0CE010E94A0059D
:100B8000CE01DF91CF910895CF92DF92EF92FF9245
:100B90000F931F93CF93DF93CDB7DEB762970FB656
:100BA000F894DEBF0FBECDBF8C01CB01F8011182DE
:100BB000108213821282158214824AE09E012F5FF6
:100BC0003F4F6901B9010E94DE0BF6010190002040
:100BD000E9F731977F01EC18FD08B701C8010E94C1
:100BE0004C05811112C0C8010E94A00562960FB683
:100BF000F894DEBF0FBECDBFDF91CF911F910F9153
:100C0000FF90EF90DF90CF900895F801F582E48295
:100C1000B601808191810E94990EE8CFEF92FF92F8
:100C20000F931F93CF93DF93EC018617970781F003
:100C3000FB01008111810115110539F0E480F58077
:100C4000B7010E944C0581110BC0CE010E94A00586
:100C5000CE01DF91CF911F910F91FF90EF900895FA
:100C6000FD82EC82B801888199810E94990EF0CFB3
:100C7000FC01808191810C94260D1F920F920FB67A
:100C80000F9211242F933F938F939F93AF93BF9312
:100C900080915F0290916002A0916102B091620226
:100CA00030915E0223E0230F2D3758F50196A11DE8
:100CB000B11D20935E0280935F0290936002A09327
:100CC0006102B09362028091630290916402A091EC
:100CD0006502B09166020196A11DB11D8093630269
:100CE00090936402A0936502B0936602BF91AF91A6
:100CF0009F918F913F912F910F900FBE0F901F905A
:100D0000189526E8230F0296A11DB11DD2CF1F9280
:100D10000F920FB60F9211240BB60F922F933F93A1
:100D20004F935F936F937F938F939F93AF93BF93F3
:100D3000EF93FF9387E692E00E944603FF91EF91C5
:100D4000BF91AF919F918F917F916F915F914F91E3
:100D50003F912F910F900BBE0F900FBE0F901F90E1
:100D600018951F920F920FB60F9211240BB60F9287
:100D70002F938F939F93EF93FF93E0917702F091DE
:100D800078028081E0917D02F0917E0282FD1DC09B
:100D90009081809180028F5F8F73209181028217F2
:100DA00041F0E0918002F0E0E959FD4F958F80938A
:100DB0008002FF91EF919F918F912F910F900BBE29
:100DC0000F900FBE0F901F9018958081F2CF1F9249
:100DD0000F920FB60F9211240BB60F922F933F93E1
:100DE0004F935F936F937F938F939F93AF93BF9333
:100DF000EF93FF9348E251E064E271E090E080E01D
:100E00000E940604FF91EF91BF91AF919F918F9146
:100E10007F916F915F914F913F912F910F900BBEFA
:100E20000F900FBE0F901F9018951F920F920FB644
:100E30000F9211240BB60F922F933F934F935F9312
:100E40006F937F938F939F93AF93BF93EF93FF9392
:100E500048EA50E064EA70E083E090E00E94060413
:100E6000FF91EF91BF91AF919F918F917F916F9182
:100E70005F914F913F912F910F900BBE0F900FBE3E
:100E80000F901F9018951F920F920FB60F9211247A
:100E90000BB60F922F933F934F935F936F937F9374
:100EA0008F939F93AF93BF93EF93FF9348E950E0E5
:100EB00064E970E082E090E00E940604FF91EF9107
:100EC000BF91AF919F918F917F916F915F914F9162
:100ED0003F912F910F900BBE0F900FBE0F901F9060
:100EE00018951F920F920FB60F9211240BB60F9206
:100EF0002F933F934F935F936F937F938F939F9322
:100F0000AF93BF93EF93FF9348E850E064E870E03D
:100F100081E090E00E940604FF91EF91BF91AF91B4
:100F20009F918F917F916F915F914F913F912F9101
:100F30000F900BBE0F900FBE0F901F901895109240
:100F40006A021092690288EE93E0A0E0B0E080931C
:100F50006B0290936C02A0936D02B0936E0284E2D8
:100F600092E0909368028093670285EC90E0909302
:100F700074028093730284EC90E0909376028093E5
:100F8000750280EC90E0909378028093770281EC78
:100F900090E090937A028093790282EC90E09093B3
:100FA0007C0280937B0286EC90E090937E0280939B
:100FB0007D021092800210928102109282021092A1
:100FC000830280919403803398F491E0980F90937A
:100FD00094038093950390E0FC01EE0FFF1FE80F50
:100FE000F91FEC5FFC4F88EB9BE0928381830895AF
:100FF0008FEF809395030895CF93DF93CDB7DEB73E
:1010000068970FB6F894DEBF0FBECDBF789484B555
:10101000826084BD84B5816084BD85B5826085BDF4
:1010200085B5816085BD80916E00816080936E0082
:101030001092810080918100826080938100809174
:101040008100816080938100809180008160809325
:1010500080008091B10084608093B1008091B000E5
:1010600081608093B00080919100826080939100B4
:1010700080919100816080939100809190008160C7
:10108000809390008091A10082608093A100809164
:10109000A10081608093A1008091A0008160809375
:1010A000A000809121018260809321018091210123
:1010B00081608093210180912001816080932001D3
:1010C00080917A00846080937A0080917A008260B7
:1010D00080937A0080917A00816080937A00809179
:1010E0007A00806880937A001092C10088E00E94A4
:1010F0007D0187E00E947D0186E00E947D01E091F4
:101100007702F091780282E08083E0917302F0919F
:1011100074021082E0917502F091760287E080837C
:1011200010927F02E0917B02F0917C0286E0808346
:10113000E0917902F0917A02808180618083E09170
:101140007902F0917A02808188608083E09179024F
:10115000F0917A02808180688083E0917902F09139
:101160007A0280818F7D808380919503803308F09F
:1011700051C08CE00E947D0180919503282F30E0C2
:10118000F901EE0FFF1FE20FF31FEC5FFC4F9081A0
:10119000907C9C60908310929603109297032CE0B1
:1011A000622F0E94760C829FB001112430E020E073
:1011B000AB01420F531FFA01EE0FFF1FE40FF51FA3
:1011C000EC5FFC4F908196FD17C02F5F3F4F2C3096
:1011D000310571F7813009F0C1C11092800082E0C1
:1011E000809381001092850010928400B19A8091C2
:1011F0006F00826080936F00E09195038E2F90E0E6
:10120000FC01EE0FFF1FE80FF91FEC5FFC4F808120
:10121000806480830E94A4024B015C01B2E3CB2E68
:10122000D12CE12CF12C0E94A402681979098A09B9
:101230009B09683E734081059105A8F321E0C21A1D
:10124000D108E108F10888EE880E83E0981EA11C01
:10125000B11CC114D104E104F10429F785E590E043
:101260000E949C01F4E08F2E912CA12CB12C06E958
:1012700010E0A6E95A2E10925902109258021092CC
:101280005702109256027AE0672E72E0772EE0E461
:101290002E2EE2E03E2E71016301412C90917B00E5
:1012A000977F842D887F892B80937B00842D877086
:1012B000806480937C0080917A00806480937A00BF
:1012C00080917A0086FDFCCF909178008091790022
:1012D000892798278927F701819391937F0120918E
:1012E0000202309103028217930724F490930302C1
:1012F00080930202209100023091010228173907E1
:1013000024F49093010280930002F601619171919F
:101310006F01CE0101960E94C40518861F821A86AD
:1013200019861C861B86BE016F5F7F4FCE01079614
:101330000E940E06CE0107960E94B2050E94F60298
:10134000CE0107960E943806CE0101960E9438060B
:101350004394FBE04F12A2CF0E94CD04F12CE12C6C
:10136000F101219131911F0140910202509103023C
:101370008091000290910102841B950B97FD0396CA
:101380009595879595958795840F951F8217930757
:1013900024F1F701E65FFD4F60817181CE01019676
:1013A0000E94C40518861F821A8619861C861B8611
:1013B000BE016F5F7F4FCE0107960E940E06CE01E1
:1013C00007960E94B2050E94F602CE0107960E947F
:1013D0003806CE0101960E943806F2E0EF0EF11CAD
:1013E00026E1E216F10409F0BBCF0E94CD04809102
:1013F0005802909159022091560230915702821B57
:10140000930B90935B0280935A0270E060E0CE01F0
:1014100001960E94C40570E060E0CE0107960E942C
:10142000C40570E060E0CE0143960E94C4051E86AC
:101430001D86188A1F861A8A198ABE016D5E7F4F23
:10144000CE010D960E940E064B855C856F817885D6
:10145000CE010D960E947405811104C0CE010D9637
:101460000E94A0054D815E8169817A81CE010D9631
:101470000E947405811104C0CE010D960E94A00542
:10148000CE010D960E94F602CE010D960E943806FE
:10149000CE0143960E943806CE0107960E94380678
:1014A000CE0101960E9438060E94CD0460915A0236
:1014B00070915B02072E000C880B990B0E94D104DF
:1014C00020915A0230915B0230935D0220935C02BE
:1014D000032E000C440B550B2E5F3F4F4F4F5F4FB9
:1014E000A4ECBFEF0E94400CA50194010E94130CD4
:1014F00069017A0183E7C80ED11CE11CF11CC60109
:101500000E949C0161E087E00E94180260E086E092
:101510000E94180288E00E947D01E4E9F1E08491D4
:10152000EFEFE80FE23108F03BC1F0E08827E45626
:10153000F54F8F4F0C94820CDA0A3E0B430B4D0B88
:10154000570BD00B610B690B710B7B0B850B8F0B52
:101550009E0BA80BD00BB20BBC0BC60B823061F4F8
:101560001092900080939100109295001092940038
:1015700088BB8093710040CE833069F41092A00044
:1015800082E08093A1001092A5001092A40089BB74
:101590008093720031CE81112FCE1092200182E013
:1015A0008093210110922501109224018ABB80931F
:1015B000730022CE84B5806884BD57BC0E94CD04E0
:1015C000B601DD0C880B990B0E94D10488E392E0F0
:1015D0000E94C004EAE0F2E0F12CE12CD12CC12CF5
:1015E00090E080E0219131912130310561F4863025
:1015F000910534F42FEFC21AD20A853091051CF000
:101600002FEFE21AF20A01968B30910559F70E94EA
:10161000CD04B7016C197D09072E000C880B990BBE
:101620000E94D1040E94CD04EAE0F2E0F12CE12C0A
:1016300081919191892B09F4B8C0D12CC12CF3016F
:1016400084899589892B51F4FFEFCF1ADF0A22E0B4
:10165000621A71088BE0C816D10489F70E94CD0484
:10166000B7016C197D09072E000C880B990B0E949D
:10167000D1040E94CD040E94D503FDCD84B58062C3
:1016800084BD58BC9BCF809180008068809380008F
:10169000109389000093880091CF80918000806230
:1016A0008093800010938B0000938A0087CF8091F5
:1016B000800088608093800010938D0000938C00E0
:1016C0007DCF8091B00080688093B0005092B300CD
:1016D00075CF8091B00080628093B0005092B400CA
:1016E0006DCF809190008068809390001093990056
:1016F0000093980063CF8091900080628093900067
:1017000010939B0000939A0059CF809190008860BD
:101710008093900010939D0000939C004FCF809188
:10172000A00080688093A0008091A0008F7B8093B0
:10173000A0001093A9000093A80040CF8091A000C2
:1017400080628093A0001093AB000093AA0036CF74
:101750008091A00088608093A0001093AD0000935A
:10176000AC002CCF809120018068809320011093E1
:1017700029010093280122CF80912001806280936B
:10178000200110932B0100932A0118CF8091200192
:1017900088608093200110932D0100932C010ECFBF
:1017A00061E088E00E94180209CF8FEFE81AF80A7A
:1017B0002BE0E216F10409F03BCF3FCFBB274A30C4
:1017C00031F4992322F4BDE2909581959F4F0C94BA
:1017D000EA0BBB27FB015527AA27880F991FAA1FD1
:1017E000A41710F0A41B83955051B9F7A05DAA333C
:1017F00008F0A95DA193009779F7B111B193119207
:10180000CB010C94030CDC01FC01672F7191772351
:10181000E1F7329704C07C916D9370836291AE17AB
:10182000BF07C8F30895052E97FB1EF400940E948D
:101830002A0C57FD07D00E94450C07FC03D04EF43C
:101840000C942A0C50954095309521953F4F4F4F61
:101850005F4F089590958095709561957F4F8F4F5C
:101860009F4F08950E94670CA59F900DB49F900D07
:10187000A49F800D911D11240895B7FF0C94320C84
:101880000E94320C821B930B0895A1E21A2EAA1B10
:10189000BB1BFD010DC0AA1FBB1FEE1FFF1FA21720
:1018A000B307E407F50720F0A21BB30BE40BF50B1D
:1018B000661F771F881F991F1A9469F760957095A6
:1018C000809590959B01AC01BD01CF010895A29F29
:1018D000B001B39FC001A39F700D811D1124911D04
:1018E000B29F700D811D1124911D0895991B79E0FF
:1018F00004C0991F961708F0961B881F7A95C9F7A0
:1019000080950895EE0FFF1F881F8BBF0790F691FB
:10191000E02D19940F931F93CF93DF93823091059D
:1019200010F482E090E0E0919A03F0919B0330E0A4
:1019300020E0B0E0A0E0309799F42115310509F4DA
:101940004AC0281B390B24303105D8F58A819B8188
:101950006115710589F1FB0193838283FE0111C03A
:10196000408151810281138148175907E0F04817DF
:10197000590799F4109761F012960C9312971396E9
:101980001C933296CF01DF91CF911F910F91089553
:1019900000939A0310939B03F4CF2115310551F066
:1019A0004217530738F0A901DB019A01BD01DF019D
:1019B000F801C1CFEF01F9CF90939B0380939A0375
:1019C000CDCFFE01E20FF31F819391932250310995
:1019D00039832883D7CF2091980330919903232B03
:1019E00041F420910602309107023093990320932D
:1019F000980320910402309105022115310541F42C
:101A00002DB73EB74091080250910902241B350BB7
:101A1000E0919803F0919903E217F307A0F42E1BCD
:101A20003F0B2817390778F0AC014E5F5F4F241742
:101A3000350748F04E0F5F1F50939903409398036A
:101A4000819391939FCFF0E0E0E09CCFCF93DF9321
:101A50000097E9F0FC01329713821282A0919A0359
:101A6000B0919B03ED0130E020E01097A1F42081BC
:101A70003181820F931F2091980330919903281789
:101A8000390709F061C0F0939903E0939803DF915F
:101A9000CF910895EA01CE17DF07E8F54A815B810F
:101AA0009E0141155105B1F7E901FB83EA83499194
:101AB0005991C40FD51FEC17FD0761F48081918106
:101AC0000296840F951FE90199838883828193810F
:101AD0009B838A83F0E0E0E012968D919C911397AE
:101AE0000097B9F52D913C911197CD010296820F87
:101AF000931F20919803309199032817390739F6DD
:101B0000309751F510929B0310929A03B09399036A
:101B1000A0939803BCCFD383C28340815181840FAB
:101B2000951FC817D90761F44E5F5F4F888199816F
:101B3000480F591F518340838A819B8193838283FD
:101B40002115310509F0B0CFF0939B03E0939A0380
:101B50009ECFFD01DC01C0CF13821282D7CF4F92FE
:101B60005F926F927F928F929F92AF92BF92CF922D
:101B7000DF92EF92FF920F931F93CF93DF938C012D
:101B8000009799F4CB01DF91CF911F910F91FF90B6
:101B9000EF90DF90CF90BF90AF909F908F907F900D
:101BA0006F905F904F900C948A0CFC01E60FF71F2A
:101BB0009C0122503109E217F30708F4AEC0D901A5
:101BC000CD91DC911197C617D70720F1C530D1050B
:101BD00078F0CE0104978617970750F0C61BD70BF5
:101BE0002297C193D1936D937C93CF010E94260DD0
:101BF000C801DF91CF911F910F91FF90EF90DF907F
:101C0000CF90BF90AF909F908F907F906F905F909C
:101C10004F9008955B01AC1ABD0A4C018C0E9D1EBD
:101C2000A0919A03B0919B03512C412CF12CE12CF3
:101C3000109731F580919803909199038815990533
:101C400009F05CC04616570608F058C0809104029F
:101C500090910502009741F48DB79EB7409108021C
:101C600050910902841B950BE817F90708F055C03D
:101C7000F0939903E0939803F90171836083B8CFDF
:101C80008D919C91119712966C90129713967C905F
:101C90001397A815B90559F56C0142E0C40ED11C83
:101CA000CA14DB0420F1AC014A195B09DA0112966F
:101CB000159780F06282738251834083D9016D93BE
:101CC0007C93E114F10471F0D7011396FC93EE9329
:101CD00012978ECF22968C0F9D1FF90191838083DE
:101CE000F301EFCFF0939B03E0939A0381CF481663
:101CF000590608F42C017D01D3019ACFCB010E9433
:101D00008A0C7C01009749F0AE01B8010E94900E48
:101D1000C8010E94260D87016BCF10E000E068CF5C
:101D2000FB01DC0102C001900D9241505040D8F7F8
:101D30000895FB01DC0101900D920020E1F7089568
:041D4000F894FFCF45
:101D44005802C80000009C0380000000000000004E
:101D5400000000000000000000000000000000007F
:101D6400000000006803C902FF02B50330030E033C
:0C1D74002203202020002C000D0A00009B
:00000001FF
