:100000000C9457010C9488010C9488010C9488017D
:100010000C9488010C9488010C9488010C9488013C
:100020000C9488010C9488010C9488010C9488012C
:100030000C9488010C9488010C9488010C9488011C
:100040000C9488010C9448070C9488010C94880146
:100050000C9488010C9488010C9488010C9414066B
:100060000C9488010C9488060C945E060C9488010C
:100070000C9488010C9488010C9488010C948801DC
:100080000C941A070C9488010C9488010C94880134
:100090000C9488010C9488010C9488010C948801BC
:1000A0000C9488010C9488010C94EC060C94880143
:1000B0000C9488010C9488010C9488010C94BE0661
:1000C0000C9488010C9488010C9488010C9488018C
:1000D0000C9488010C9488010C9488010C9488017C
:1000E0000C9488010C94760B0C944D020C945E02D7
:1000F0000C94A30B0C943D030C9476020C94AD0B62
:100100000C942F030C9488020C9455020C946C02EE
:100110000C94DF020C94CB0B0C94460B0C947503DF
:100120000C9483020C9449020C940C030C94360B2F
:100130000C94C2030C94C70A0C94800B0C948A0B89
:100140000C94500B0C9462020C94990B0C94580272
:100150000C94C10B0C9468020C947E020C94430224
:100160000C9470020C941B030C9476070C947A0286
:100170000C945A0B0C9451020C94B70B0C946C0B0E
:100180000C94630B0C9484020C943C0B0000200034
:100190002300260029002C002F003200000100005F
:1001A00003010601090100000A0B02090C0D0E08EB
:1001B0000703040100000000000000000000000030
:1001C000000000000000000000000000000000002F
:1001D00000001211100000000000000000000000EC
:1001E00000000000000000000000000000002200ED
:1001F000250028002B002E003100340002010000F1
:10020000050108010B0100002100240027002A003D
:100210002D003000330001010000040107010A0134
:1002200005050505070508080808020202020A0A72
:100230000808040404040101010101010101030390
:10024000030303030303040707070C0C0C0C0C0C3B
:100250000C0C0202020206060606060606060B0B38
:100260000B0B0B0B0B0B0102102020080810204079
:10027000102040800201020108040201010204086A
:1002800010204080804020100804020180040201F8
:100290008040201008040201080402010102040841
:1002A00010204080010204081020408076071124AD
:1002B0001FBECFEFD1E2DEBFCDBF00E00CBF12E02A
:1002C000A0E0B2E0EAE3FDE100E00BBF02C007906E
:1002D0000D92A232B107D9F723E0A2E2B2E001C049
:1002E0001D92AE37B207E1F711E0C7E5D1E000E0BB
:1002F00006C021970109802FFE010E947D0CC635A2
:10030000D10780E00807A9F70E94D3070C949B0E41
:100310000C94000090E0FC01EA59FD4F2491805EAE
:100320009D4FFC018491882399F090E0880F991FDC
:10033000FC01EA5FFD4FA591B491FC01E451FE4F31
:10034000859194918FB7F894EC91E22BEC938FBF49
:100350000895CF92DF92EF92FF92DC01A03282E00B
:10036000B807D4F5A53BB10514F0A4EBB0E040917B
:10037000780328E830E0241B310947FD3395220F2C
:10038000331F220F331F6901330FEE08FF0840911E
:10039000790328E532E0241B310947FD3395220F0C
:1003A000331F220F331F032E000C440B550B2C1947
:1003B0003D094E095F09B7FF02C0B0E0A0E00E940E
:1003C000380C24EB30E040E050E00E940E0CC20EEE
:1003D000D31EE41EF51ED601E0917703E03380F5CD
:1003E0002091780388E890E0821B910927FD93957E
:1003F000880F991F880F991FA817B90784F02091BB
:10040000790388E592E0821B910927FD9395880F77
:10041000991F880F991FA817B9070CF4CD010297EF
:10042000880F991F4FB7F8942E2F30E0F901EE0F87
:10043000FF1FE20FF31FEA51FD4F928381834FBFED
:10044000FF90EF90DF90CF9008958150823108F0B7
:100450005AC0E82FF0E08827EF5CFD4F8F4F0C94D7
:100460007D0C51025502430249024D02830258029B
:100470005E02620268026C02700276027A028302F5
:100480007E0284028802809180008F7780938000B2
:100490000895809180008F7DF9CF80918000877FC3
:1004A000F5CF84B58F7784BD089584B58F7DFBCF5C
:1004B0008091B0008F778093B00008958091B00054
:1004C0008F7DF9CF809190008F7780939000089571
:1004D000809190008F7DF9CF80919000877FF5CF3C
:1004E0008091A0008F778093A00008958091A00054
:1004F0008F7DF9CF8091A000877FF5CF809120017B
:100500008F77809320010895809120018F7DF9CF0E
:1005100080912001877FF5CF1F93CF93DF93282F02
:1005200030E0F901EA55FE4F8491F901EA59FD4F97
:10053000D491F901E05EFD4FC491CC23A9F0162FB0
:1005400081110E942502EC2FF0E0EE0FFF1FE45115
:10055000FE4FA591B4918FB7F894EC91111108C09A
:10056000D095DE23DC938FBFDF91CF911F9108954B
:10057000DE2BF8CF3FB7F894809145029091460268
:10058000A0914702B091480226B5A89B05C02F3F15
:1005900019F00196A11DB11D3FBFBA2FA92F982FA9
:1005A0008827BC01CD01620F711D811D911D42E0A4
:1005B000660F771F881F991F4A95D1F70895AF924C
:1005C000BF92CF92DF92EF92FF920F931F93CF9340
:1005D000DF936C017B018B01040F151FEB015E01A2
:1005E000AE18BF08C017D10759F06991D601ED9137
:1005F000FC910190F081E02DC6011995892B79F7C6
:10060000C501DF91CF911F910F91FF90EF90DF9087
:10061000CF90BF90AF900895FC01538D448D252F4E
:1006200030E0842F90E0821B930B541710F0CF968C
:10063000089501970895FC01918D828D981761F0BE
:10064000A28DAE0FBF2FB11D5D968C91928D9F5FD5
:100650009F73928F90E008958FEF9FEF0895FC01B4
:10066000918D828D981731F0828DE80FF11D858D67
:1006700090E008958FEF9FEF0895FC01918D228DFA
:10068000892F90E0805C9F4F821B91098F7399277F
:10069000089589E492E00E943D0321E0892B09F44A
:1006A00020E0822F0895FC01A48DA80FB92FB11D61
:1006B000A35ABF4F2C91848D90E001968F73992798
:1006C000848FA689B7892C93A089B1898C91837076
:1006D00080648C93938D848D981306C00288F3896F
:1006E000E02D80818F7D80830895EF92FF920F939C
:1006F0001F93CF93DF93EC0181E0888F9B8D8C8DCE
:1007000098131AC0E889F989808185FF15C09FB7C1
:10071000F894EE89FF896083E889F9898081837084
:10072000806480839FBF81E090E0DF91CF911F9133
:100730000F91FF90EF900895F62E0B8D10E00F5F54
:100740001F4F0F731127E02E8C8D8E110CC00FB62A
:1007500007FCFACFE889F989808185FFF5CFCE01C2
:100760000E945303F1CFEB8DEC0FFD2FF11DE35AE7
:10077000FF4FF0829FB7F8940B8FEA89FB89808145
:100780008062CFCFCF93DF93EC01888D8823B9F0BF
:10079000AA89BB89E889F9898C9185FD03C080818C
:1007A00086FD0DC00FB607FCF7CF8C9185FFF2CF09
:1007B000808185FFEDCFCE010E945303E9CFDF9109
:1007C000CF91089580E090E0892B29F00E944903A1
:1007D00081110E94000080E090E0892B49F080E0C8
:1007E00090E0892B29F00E94000081110E940000F6
:1007F00080E090E0892B49F080E090E0892B29F09F
:100800000E94000081110E94000080E090E0892B8E
:1008100049F080E090E0892B29F00E9400008111CE
:100820000C9400000895AF92BF92CF92DF92EF92A6
:10083000FF920F931F93CF93DF936B017A01EC012B
:10084000CE5DDD4F28813CE0389F8001399F100D3F
:100850001124A0907603B12C27FF1FC0FB01118249
:10086000108288818F5F888388819801280F311DCD
:1008700087FD3A95F6012A153B051CF488818C30DA
:10088000C4F180819181049680349C4908F473C03E
:10089000F60180819181049670C088819801280FAB
:1008A000311D87FD3A952A153B05DCF68881A801A4
:1008B000480F511D87FD5A95FA01EE0FFF1FE40FF7
:1008C000F51FEA51FD4F808186FFCBCF8881F8016B
:1008D000E80FF11D87FDFA95CF01EE0FFF1FE80F1E
:1008E000F91FEA51FD4F808160E08F730E948C02F6
:1008F000B8CF808191812881A801420F511D27FD29
:100900005A959A01FA01EE0FFF1FE20FF31FEA5109
:10091000FD4F21813281820F931FF70191838083E4
:1009200088819801280F311D87FD3A95F901EE0F56
:10093000FF1FE20FF31FEA51FD4F808186FF22C0A7
:100940008881080F111D87FD1A95F801EE0FFF1F12
:10095000E00FF11FEA51FD4F808161E08F73DF915D
:10096000CF911F910F91FF90EF90DF90CF90BF90AC
:10097000AF900C948C0280E49CE9F7019183808312
:100980008FEF8883DF91CF911F910F91FF90EF90B0
:10099000DF90CF90BF90AF900895FC0101900020B0
:1009A000E9F73197AF01481B590BBC0189E492E08C
:1009B0000C94DF028F929F92AF92BF92CF92DF9200
:1009C000EF92FF920F931F93CF93DF93CDB7DEB7D4
:1009D000A1970FB6F894DEBF0FBECDBF6B017C01AF
:1009E000F7FE41C06DE289E492E00E9475038C013C
:1009F00022273327A9012C193D094E095F0919A2A5
:100A0000CE0181967C019AE0892E912CA12CB12CEB
:100A1000CA01B901A50194010E94400C605DF70173
:100A200062937F01211531054105510589F790E059
:100A300080E0309719F0CF010E94CD04800F911F04
:100A4000A1960FB6F894DEBF0FBECDBFDF91CF9158
:100A50001F910F91FF90EF90DF90CF90BF90AF90DC
:100A60009F908F900895AC019B0119A28E010F5D9C
:100A70001F4F8AE0C82ED12CE12CF12CCA01B901FC
:100A8000A70196010E94400C605DF80162938F01FE
:100A9000211531054105510589F790E080E0309737
:100AA00079F2CF010E94CD04CBCF0F931F93CF9348
:100AB000DF93EC0188819981009759F02A813B816D
:100AC0002617370730F081E0DF91CF911F910F910A
:100AD00008958B016F5F7F4F0E94AA0D009759F018
:100AE000998388831B830A832C813D81232B59F7AB
:100AF000FC011082E8CF80E0E7CFEF92FF920F93E6
:100B00001F93CF93DF936115710541F480E0DF916E
:100B1000CF911F910F91FF90EF90089541155105CE
:100B2000B1F07B01EC010C811D81040F151FB80190
:100B30000E945505882351F3288139818C819D813C
:100B4000B701820F931F0E94940E1D830C8381E0D6
:100B5000DECFCF93DF93EC0188819981009711F06C
:100B60000E94210D198218821D821C821B821A820A
:100B7000DF91CF910895EF92FF920F931F93CF9340
:100B8000DF93EC017B018A01BA010E9455058111B6
:100B90000BC0CE010E94A905CE01DF91CF911F911C
:100BA0000F91FF90EF9008951D830C83B70188810A
:100BB00099810E94940EF0CFEF92FF920F931F93B2
:100BC000CF93DF93CDB7DEB762970FB6F894DEBF51
:100BD0000FBECDBF8C01CB01F801118210821382B0
:100BE0001282158214824AE09E012F5F3F4F7901E5
:100BF000B9010E94D90BF70101900020E9F7319764
:100C0000AF014E195F09B701C8010E94BB0562968A
:100C10000FB6F894DEBF0FBECDBFDF91CF911F910D
:100C20000F91FF90EF9008951F920F920FB60F92C1
:100C300011242F933F938F939F93AF93BF938091F2
:100C4000410290914202A0914302B091440230913E
:100C5000400223E0230F2D3758F50196A11DB11D49
:100C6000209340028093410290934202A09343025A
:100C7000B09344028091450290914602A0914702B0
:100C8000B09148020196A11DB11D80934502909339
:100C90004602A0934702B0934802BF91AF919F9143
:100CA0008F913F912F910F900FBE0F901F9018952D
:100CB00026E8230F0296A11DB11DD2CF1F920F92DD
:100CC0000FB60F9211240BB60F922F933F934F93B1
:100CD0005F936F937F938F939F93AF93BF93EF93A4
:100CE000FF9389E492E00E945303FF91EF91BF913B
:100CF000AF919F918F917F916F915F914F913F91B4
:100D00002F910F900BBE0F900FBE0F901F90189554
:100D10001F920F920FB60F9211240BB60F922F93C2
:100D20008F939F93EF93FF93E0915902F0915A02B2
:100D30008081E0915F02F091600282FD1DC0908190
:100D4000809162028F5F8F7320916302821741F05E
:100D5000E0916202F0E0E75BFD4F958F80936202C5
:100D6000FF91EF919F918F912F910F900BBE0F905C
:100D70000FBE0F901F9018958081F2CF1F920F9297
:100D80000FB60F9211240BB60F922F933F934F93F0
:100D90005F936F937F938F939F93AF93BF93EF93E3
:100DA000FF9348E251E064E271E090E080E00E944D
:100DB0001304FF91EF91BF91AF919F918F917F911C
:100DC0006F915F914F913F912F910F900BBE0F90BC
:100DD0000FBE0F901F9018951F920F920FB60F9293
:100DE00011240BB60F922F933F934F935F936F9302
:100DF0007F938F939F93AF93BF93EF93FF9348EAB3
:100E000050E064EA70E083E090E00E941304FF91F8
:100E1000EF91BF91AF919F918F917F916F915F9172
:100E20004F913F912F910F900BBE0F900FBE0F90DF
:100E30001F9018951F920F920FB60F9211240BB6A8
:100E40000F922F933F934F935F936F937F938F9363
:100E50009F93AF93BF93EF93FF9348E950E064E90A
:100E600070E082E090E00E941304FF91EF91BF9147
:100E7000AF919F918F917F916F915F914F913F9132
:100E80002F910F900BBE0F900FBE0F901F901895D3
:100E90001F920F920FB60F9211240BB60F922F9341
:100EA0003F934F935F936F937F938F939F93AF93F2
:100EB000BF93EF93FF9348E850E064E870E081E06F
:100EC00090E00E941304FF91EF91BF91AF919F9129
:100ED0008F917F916F915F914F913F912F910F90E3
:100EE0000BBE0F900FBE0F901F90189510924C02E2
:100EF00010924B0288EE93E0A0E0B0E080934D02A8
:100F000090934E02A0934F02B09350028AE092E079
:100F100090934A028093490285EC90E090935602A8
:100F20008093550284EC90E090935802809357028E
:100F300080EC90E090935A028093590281EC90E00B
:100F400090935C0280935B0282EC90E090935E024F
:100F500080935D0286EC90E09093600280935F0244
:100F60001092620210926302109264021092650263
:100F700080917603803398F491E0980F90937603F4
:100F80008093770390E0FC01EE0FFF1FE80FF91F3D
:100F9000EA51FD4F88EB9BE09283818308958FEFA8
:100FA000809377030895CF93DF93CDB7DEB768972B
:100FB0000FB6F894DEBF0FBECDBF789484B58260C3
:100FC00084BD84B5816084BD85B5826085BD85B5ED
:100FD000816085BD80916E00816080936E0010926B
:100FE00081008091810082608093810080918100E6
:100FF0008160809381008091800081608093800077
:101000008091B10084608093B1008091B0008160D4
:101010008093B000809191008260809391008091D4
:101020009100816080939100809190008160809315
:1010300090008091A10082608093A1008091A10026
:1010400081608093A1008091A00081608093A000C6
:101050008091210182608093210180912101816032
:1010600080932101809120018160809320018091F3
:101070007A00846080937A0080917A008260809305
:101080007A0080917A00816080937A0080917A0062
:10109000806880937A001092C10088E00E948A01E3
:1010A00087E00E948A0186E00E948A01E09159024D
:1010B000F0915A0282E08083E0915502F09156024D
:1010C0001082E0915702F091580287E080831092DD
:1010D0006102E0915D02F0915E0286E08083E09122
:1010E0005B02F0915C02808180618083E0915B0211
:1010F000F0915C02808188608083E0915B02F091D6
:101100005C02808180688083E0915B02F0915C02E8
:1011100080818F7D808380917703803308F051C078
:101120008CE00E948A0180917703282F30E0F9013A
:10113000EE0FFF1FE20FF31FEA51FD4F9081907CED
:101140009C60908310927803109279032CE0622FB8
:101150000E94710C829FB001112430E020E0AB01AD
:10116000420F531FFA01EE0FFF1FE40FF51FEA5164
:10117000FD4F908196FD17C02F5F3F4F2C303105FA
:1011800071F7813009F097C11092800082E080935E
:1011900081001092850010928400B19A80916F00B6
:1011A000826080936F00E09177038E2F90E0FC01C6
:1011B000EE0FFF1FE80FF91FEA51FD4F8081806499
:1011C00080830E94BA024B015C0142E3C42ED12C01
:1011D000E12CF12C0E94BA02681979098A099B094D
:1011E000683E734081059105A8F321E0C21AD10839
:1011F000E108F10888EE880E83E0981EA11CB11C5E
:10120000C114D104E104F10429F785E590E00E94BE
:10121000A90122E0222E312C34E0832E912CA12C26
:10122000B12C06E910E09AE2692E92E0792E2301B2
:10123000F12CE12CF701E253FE4F8491F701E257C4
:10124000FD4FC490F701E85BFD4FD49070E060E083
:10125000DD2099F081110E942502ED2DF0E0EE0FC6
:10126000FF1FE457FE4FA591B491EC91CE2291E07F
:1012700080E009F490E0692F782FF2016193719377
:101280002F01CE0101960E94DC0518861F821A8666
:1012900019861C861B8669817A816115710531F07A
:1012A0004D815E81CE0107960E94BB05CB84DC8414
:1012B000FFEFCF1ADF0AB601CE0107960E9455054F
:1012C000882309F424C12F8138858B859C8568E1AA
:1012D00072E0820F931F0E94940EDC86CB864B85B2
:1012E0005C856F81788589E492E00E94DF028F81BE
:1012F00098850E94210D89819A810E94210D2FEFEE
:10130000E21AF20A8BE0E816F10409F093CF8AE1C1
:1013100092E00E94CD048091300290913102609160
:10132000380270913902009709F0F6C080913402BA
:1013300090913502181619060CF01DC16115710542
:1013400009F012C11092270210922602CE010196D6
:101350000E94DC056091340270913502CE0107963F
:101360000E94DC056091300270913102CE014396FB
:101370000E94DC051E861D86188A1F861A8A198A15
:101380006B897C896115710531F04F89588DCE01CB
:101390000D960E94BB054B855C856F817885CE01DB
:1013A0000D960E947D05811104C0CE010D960E940C
:1013B000A9054D815E8169817A81CE010D960E94D9
:1013C0007D05811104C0CE010D960E94A9054989B1
:1013D0005A896D857E8589E492E00E94DF028D85C1
:1013E0009E850E94210D8B899C890E94210D8F81F1
:1013F00098850E94210D89819A810E94210D8AE1A0
:1014000092E00E94CD046091260270912702072E7F
:10141000000C880B990B0E94DA042091260230916F
:1014200027023093290220932802032E000C440B3C
:10143000550B2E5F3F4F4F4F5F4FA4ECBFEF0E9405
:101440003B0CA50194010E940E0C69017A01F3E79F
:10145000CF0ED11CE11CF11CC6010E94A90161E064
:1014600087E00E948C0260E086E00E948C0288E0A7
:101470000E948A01EEEAF1E08491EFEFE80FE23199
:1014800008F089C1F0E08827E75BF54F8F4F0C9497
:101490007D0CC70A360B3C0B460B500BCB0B5A0B83
:1014A000630B6C0B760B800B8A0B990BA30BCB0B8E
:1014B000AD0BB70BC10B823061F41092900080939A
:1014C0009100109295001092940088BB8093710057
:1014D0006ACE833069F41092A00082E08093A1006C
:1014E0001092A5001092A40089BB809372005BCE7D
:1014F000811159CE1092200182E080932101109237
:101500002501109224018ABB809373004CCECE013A
:1015100007960E94A905E3CE181619060CF016CFFF
:101520008091340290913502181619067CF4161633
:1015300017060CF407CFEFEFFFEF6115710509F007
:1015400005CFF0932702E093260200CF892B09F004
:10155000FDCE6115710509F0F9CE8EEF9FEF9093E6
:10156000270280932602F2CE161617060CF0EECE56
:10157000E1E0F0E0E6CF892B09F0E8CE1616170679
:101580000CF0E4CE3092270220922602DFCE84B502
:10159000806884BD86E987BD8AE192E00E94CD041F
:1015A000B601DD0C880B990B0E94DA048EE192E003
:1015B0000E94CD04EAE2F2E0F12CE12CD12CC12C06
:1015C00090E080E0219131912130310561F4863045
:1015D000910534F42FEFC21AD20A853091051CF020
:1015E0002FEFE21AF20A01968B30910559F78AE142
:1015F00092E00E94CD04B7016C197D09072E000C02
:10160000880B990B0E94DA048AE192E00E94CD04D3
:10161000EAE2F2E0F12CE12C81919191892B09F41D
:10162000BFC0D12CC12CF30184899589892B51F439
:10163000FFEFCF1ADF0A22E0621A71088BE0C816AA
:10164000D10489F78AE192E00E94CD04B7016C19B8
:101650007D09072E000C880B990B0E94DA048AE1A1
:1016600092E00E94CD040E94E203DDCD84B5806249
:1016700084BD86E988BD90CF80918000806880938A
:101680008000109389000093880086CF80918000AD
:1016900080628093800010938B0000938A007CCF3F
:1016A0008091800088608093800010938D0000936B
:1016B0008C0072CF8091B00080688093B00086E982
:1016C0008093B30069CF8091B00080628093B000B6
:1016D00086E98093B40060CF809190008068809309
:1016E0009000109399000093980056CF809190003D
:1016F00080628093900010939B0000939A004CCFDF
:101700008091900088608093900010939D000093DA
:101710009C0042CF8091A00080688093A0008091BF
:10172000A0008F7B8093A0001093A9000093A800D5
:1017300033CF8091A00080628093A0001093AB0013
:101740000093AA0029CF8091A00088608093A00018
:101750001093AD000093AC001FCF809120018068F2
:1017600080932001109329010093280115CF8091C7
:10177000200180628093200110932B0100932A01A5
:101780000BCF8091200188608093200110932D0160
:1017900000932C0101CF61E088E00E948C02FCCE16
:1017A0008FEFE81AF80A9BE0E916F10409F034CF4C
:1017B00038CFBB274A3031F4992322F4BDE290950B
:1017C00081959F4F0C94E50BBB27FB015527AA275A
:1017D000880F991FAA1FA41710F0A41B83955051BE
:1017E000B9F7A05DAA3308F0A95DA193009779F736
:1017F000B111B1931192CB010C94FE0BDC01FC01F1
:10180000672F71917723E1F7329704C07C916D9334
:1018100070836291AE17BF07C8F30895052E97FB3A
:101820001EF400940E94250C57FD07D00E94400C26
:1018300007FC03D04EF40C94250C50954095309540
:1018400021953F4F4F4F5F4F08959095809570952C
:1018500061957F4F8F4F9F4F08950E94620CA59F07
:10186000900DB49F900DA49F800D911D112408959B
:10187000B7FF0C942D0C0E942D0C821B930B089526
:10188000A1E21A2EAA1BBB1BFD010DC0AA1FBB1F84
:10189000EE1FFF1FA217B307E407F50720F0A21BF6
:1018A000B30BE40BF50B661F771F881F991F1A9463
:1018B00069F760957095809590959B01AC01BD018D
:1018C000CF010895A29FB001B39FC001A39F700DE7
:1018D000811D1124911DB29F700D811D1124911D38
:1018E0000895991B79E004C0991F961708F0961B7C
:1018F000881F7A95C9F780950895EE0FFF1F881FFE
:101900008BBF0790F691E02D19940F931F93CF93FF
:10191000DF938230910510F482E090E0E0917C0347
:10192000F0917D0330E020E0B0E0A0E0309799F442
:101930002115310509F44AC0281B390B2430310523
:10194000D8F58A819B816115710589F1FB0193832B
:101950008283FE0111C040815181028113814817A9
:101960005907E0F04817590799F4109761F012965B
:101970000C93129713961C933296CF01DF91CF915F
:101980001F910F91089500937C0310937D03F4CF72
:101990002115310551F04217530738F0A901DB0139
:1019A0009A01BD01DF01F801C1CFEF01F9CF90939A
:1019B0007D0380937C03CDCFFE01E20FF31F819363
:1019C00091932250310939832883D7CF20917A030C
:1019D00030917B03232B41F42091020230910302CA
:1019E00030937B0320937A0320910002309101020F
:1019F0002115310541F42DB73EB7409104025091B5
:101A00000502241B350BE0917A03F0917B03E2176A
:101A1000F307A0F42E1B3F0B2817390778F0AC0111
:101A20004E5F5F4F2417350748F04E0F5F1F5093EE
:101A30007B0340937A03819391939FCFF0E0E0E0A2
:101A40009CCFCF93DF930097E9F0FC01329713828C
:101A50001282A0917C03B0917D03ED0130E020E083
:101A60001097A1F420813181820F931F20917A0376
:101A700030917B032817390709F061C0F0937B038D
:101A8000E0937A03DF91CF910895EA01CE17DF0743
:101A9000E8F54A815B819E0141155105B1F7E901E5
:101AA000FB83EA8349915991C40FD51FEC17FD07B9
:101AB00061F4808191810296840F951FE9019983D9
:101AC0008883828193819B838A83F0E0E0E0129691
:101AD0008D919C9113970097B9F52D913C91119799
:101AE000CD010296820F931F20917A0330917B03E0
:101AF0002817390739F6309751F510927D03109267
:101B00007C03B0937B03A0937A03BCCFD383C283BF
:101B100040815181840F951FC817D90761F44E5F2A
:101B20005F4F88819981480F591F518340838A8173
:101B30009B81938382832115310509F0B0CFF09307
:101B40007D03E0937C039ECFFD01DC01C0CF1382B7
:101B50001282D7CF4F925F926F927F928F929F9215
:101B6000AF92BF92CF92DF92EF92FF920F931F93AB
:101B7000CF93DF938C01009799F4CB01DF91CF9144
:101B80001F910F91FF90EF90DF90CF90BF90AF909B
:101B90009F908F907F906F905F904F900C94850CEA
:101BA000FC01E60FF71F9C0122503109E217F307F1
:101BB00008F4AEC0D901CD91DC911197C617D707B3
:101BC00020F1C530D10578F0CE010497861797072C
:101BD00050F0C61BD70B2297C193D1936D937C9382
:101BE000CF010E94210DC801DF91CF911F910F916C
:101BF000FF90EF90DF90CF90BF90AF909F908F902D
:101C00007F906F905F904F9008955B01AC1ABD0A72
:101C10004C018C0E9D1EA0917C03B0917D03512C34
:101C2000412CF12CE12C109731F580917A039091A1
:101C30007B038815990509F05CC04616570608F025
:101C400058C08091000290910102009741F48DB735
:101C50009EB74091040250910502841B950BE81732
:101C6000F90708F055C0F0937B03E0937A03F9017C
:101C700071836083B8CF8D919C91119712966C906F
:101C8000129713967C901397A815B90559F56C0116
:101C900042E0C40ED11CCA14DB0420F1AC014A1985
:101CA0005B09DA011296159780F062827382518384
:101CB0004083D9016D937C93E114F10471F0D70155
:101CC0001396FC93EE9312978ECF22968C0F9D1F46
:101CD000F90191838083F301EFCFF0937D03E093CB
:101CE0007C0381CF4816590608F42C017D01D301ED
:101CF0009ACFCB010E94850C7C01009749F0AE0180
:101D0000B8010E948B0EC8010E94210D87016BCF84
:101D100010E000E068CFFB01DC0102C001900D92F1
:101D200041505040D8F70895FB01DC0101900D921D
:0A1D30000020E1F70895F894FFCFBA
:101D3A0000007E038000000000007503DF020C0330
:101D4A00C2033D031B032F032C00202020000D0A91
:021D5A00000087
:00000001FF
