:100000000C9457010C9488010C9488010C9488017D
:100010000C9488010C9488010C9488010C9488013C
:100020000C9488010C9488010C9488010C9488012C
:100030000C9488010C9491060C9488010C9488010E
:100040000C9488010C9444070C9488010C9488014A
:100050000C9488010C9488010C9488010C94E70599
:100060000C9488010C945B060C9431060C94880166
:100070000C9488010C9488010C9488010C948801DC
:100080000C9416070C9488010C9488010C94880138
:100090000C9488010C9488010C9488010C948801BC
:1000A0000C9488010C9488010C94E8060C94880147
:1000B0000C9488010C9488010C9488010C94BA0665
:1000C0000C9488010C9488010C9488010C9488018C
:1000D0000C9488010C9488010C9488010C9488017C
:1000E0000C9488010C9478020C94710D0C94020D00
:1000F0000C9455020C940C0D0C94300D0C94490D7D
:100100000C94260D0C9426030C943A0D0C945D0D62
:100110000C94A1020C94AB020C94670D0C94D602C3
:100120000C9481020C9485020C94F80C0C949902A6
:100130000C94E90C0C947B0D0C9493020C94A70284
:100140000C94EE0C0C9412030C947B020C9474022D
:100150000C948B020C946C030C94140D0C94E40C12
:100160000C948F020C9470020C949D020C941C0D44
:100170000C946C020C9403030C9434030C947207DB
:100180000C94B9030C945A020C94530D00000A0B02
:1001900002090C0D0E080703040100000000000016
:1001A000000000000000000000000000000000004F
:1001B000000000000000000012111000000000000C
:1001C000000000000000000000000000000000002F
:1001D000000000002100240027002A002D0030002C
:1001E000330001010000040107010A0100002000A2
:1001F0002300260029002C002F00320000010000FF
:1002000003010601090100002200250028002B003F
:100210002E003100340002010000050108010B012D
:1002200005050505070508080808020202020A0A72
:100230000808040404040101010101010101030390
:10024000030303030303040707070C0C0C0C0C0C3B
:100250000C0C0202020206060606060606060B0B38
:100260000B0B0B0B0B0B0102102020080810204079
:10027000102040800201020108040201010204086A
:1002800010204080804020100804020180040201F8
:100290008040201008040201080402010102040841
:1002A00010204080010204081020408072071124B1
:1002B0001FBECFEFD1E2DEBFCDBF00E00CBF12E02A
:1002C000A0E0B2E0E0E0F5E200E00BBF02C0079082
:1002D0000D92A03BB107D9F724E0A0EBB2E001C03A
:1002E0001D92A735B207E1F711E0C7E5D1E000E0C4
:1002F00006C021970109802FFE010E946010C635BB
:10030000D10780E00807A9F70E940A080C947E1222
:100310000C94000090E0FC01EA59FD4F2491805EAE
:100320009D4FFC018491882399F090E0880F991FDC
:10033000FC01EE52FE4FA591B491FC01EA5FFD4F26
:10034000859194918FB7F894EC91E22BEC938FBF49
:100350000895CF92DF92EF92FF92DC01A03282E00B
:10036000B807D4F5A53BB10514F0A4EBB0E040917B
:10037000510428E830E0241B310947FD3395220F52
:10038000331F220F331F6901330FEE08FF0840911E
:10039000520428E532E0241B310947FD3395220F32
:1003A000331F220F331F032E000C440B550B2C1947
:1003B0003D094E095F09B7FF02C0B0E0A0E00E940E
:1003C000030F24EB30E040E050E00E94D90EC20E53
:1003D000D31EE41EF51ED601E0915004E03380F5F3
:1003E0002091510488E890E0821B910927FD9395A4
:1003F000880F991F880F991FA817B90784F02091BB
:10040000520488E592E0821B910927FD9395880F9D
:10041000991F880F991FA817B9070CF4CD010297EF
:10042000880F991F4FB7F8942E2F30E0F901EE0F87
:10043000FF1FE20FF31FE555FC4F928381834FBFEF
:10044000FF90EF90DF90CF900895282F30E0F901D2
:10045000E457FE4F9491F901EA59FD4F4491205E13
:100460003D4FF9012491222309F435C0992311F15C
:1004700091509231F8F4E92FF0E08827ED5BFD4FC1
:100480008F4F0C9460107402780255026C02700257
:100490005A027B02810285028B028F02930299022B
:1004A0009D025A02A102A702AB02809180008F77C1
:1004B00080938000E22FF0E0EE0FFF1FEA5FFD4F18
:1004C000A591B4918FB7F894EC91611148C0409513
:1004D0004E234C938FBF0895809180008F7DE8CF8D
:1004E00080918000877FE4CF84B58F7784BDE2CF91
:1004F00084B58F7DFBCF8091B0008F778093B00063
:10050000D9CF8091B0008F7DF9CF809190008F7707
:1005100080939000CFCF809190008F7DF9CF809114
:100520009000877FF5CF8091A0008F778093A00007
:10053000C1CF8091A0008F7DF9CF8091A000877FEF
:10054000F5CF809120018F7780932001B3CF8091E8
:1005500020018F7DF9CF80912001877FF5CF4E2B31
:10056000B8CF3FB7F89480910A0390910B03A09104
:100570000C03B0910D0326B5A89B05C02F3F19F0C1
:100580000196A11DB11D3FBFBA2FA92F982F882713
:10059000BC01CD01620F711D811D911D42E0660FEE
:1005A000771F881F991F4A95D1F70895AF92BF9280
:1005B000CF92DF92EF92FF920F931F93CF93DF932F
:1005C0006C017B018B01040F151FEB015E01AE185E
:1005D000BF08C017D10759F06991D601ED91FC9180
:1005E0000190F081E02DC6011995892B79F7C5019D
:1005F000DF91CF911F910F91FF90EF90DF90CF90FF
:10060000BF90AF900895FC01538D448D252F30E0AD
:10061000842F90E0821B930B541710F0CF9608950F
:1006200001970895FC01918D828D981761F0A28D3C
:10063000AE0FBF2FB11D5D968C91928D9F5F9F7302
:10064000928F90E008958FEF9FEF0895FC01918DB8
:10065000828D981731F0828DE80FF11D858D90E025
:1006600008958FEF9FEF0895FC01918D228D892FC2
:1006700090E0805C9F4F821B91098F7399270895AA
:100680008EE093E00E94340321E0892B09F420E0FE
:10069000822F0895FC01A48DA80FB92FB11DA35A74
:1006A000BF4F2C91848D90E001968F739927848F92
:1006B000A689B7892C93A089B1898C9183708064B5
:1006C0008C93938D848D981306C00288F389E02D56
:1006D00080818F7D80830895EF92FF920F931F9307
:1006E000CF93DF93EC0181E0888F9B8D8C8D9813E5
:1006F0001AC0E889F989808185FF15C09FB7F894F1
:10070000EE89FF896083E889F9898081837080643C
:1007100080839FBF81E090E0DF91CF911F910F9187
:10072000FF90EF900895F62E0B8D10E00F5F1F4F96
:100730000F731127E02E8C8D8E110CC00FB607FCA5
:10074000FACFE889F989808185FFF5CFCE010E9433
:100750004A03F1CFEB8DEC0FFD2FF11DE35AFF4F54
:10076000F0829FB7F8940B8FEA89FB8980818062C1
:10077000CFCFCF93DF93EC01888D8823B9F0AA897E
:10078000BB89E889F9898C9185FD03C0808186FD4C
:100790000DC00FB607FCF7CF8C9185FFF2CF80819B
:1007A00085FFEDCFCE010E944A03E9CFDF91CF91C3
:1007B000089580E090E0892B29F00E944003811188
:1007C0000E94000080E090E0892B49F080E090E0FA
:1007D000892B29F00E94000081110E94000080E016
:1007E00090E0892B49F080E090E0892B29F00E946D
:1007F000000081110E94000080E090E0892B49F008
:1008000080E090E0892B29F00E94000081110C9477
:1008100000000895AF92BF92CF92DF92EF92FF92C5
:100820000F931F93CF93DF936B017A01EC01CC54AC
:10083000DD4F28813CE0389F8001399F100D112445
:10084000A0903B04B12C27FF1FC0FB011182108236
:1008500088818F5F888388819801280F311D87FDEB
:100860003A95F6012A153B051CF488818C30C4F1B9
:1008700080819181049680349C4908F473C0F6010C
:1008800080819181049670C088819801280F311D64
:1008900087FD3A952A153B05DCF68881A801480FAB
:1008A000511D87FD5A95FA01EE0FFF1FE40FF51F4A
:1008B000E555FC4F808186FFCBCF8881F801E80F9A
:1008C000F11D87FDFA95CF01EE0FFF1FE80FF91F0D
:1008D000E555FC4F808160E08F730E942502B8CF00
:1008E000808191812881A801420F511D27FD5A95D1
:1008F0009A01FA01EE0FFF1FE20FF31FE555FC4FBF
:1009000021813281820F931FF70191838083888137
:100910009801280F311D87FD3A95F901EE0FFF1F51
:10092000E20FF31FE555FC4F808186FF22C08881CE
:10093000080F111D87FD1A95F801EE0FFF1FE00F3C
:10094000F11FE555FC4F808161E08F73DF91CF91FE
:100950001F910F91FF90EF90DF90CF90BF90AF90DD
:100960000C94250280E49CE9F701918380838FEF4A
:100970008883DF91CF911F910F91FF90EF90DF90CF
:10098000CF90BF90AF900895FC0101900020E9F74F
:100990003197AF01481B590BBC018EE093E00C94DA
:1009A000D6028F929F92AF92BF920F931F93CF93D5
:1009B000DF93CDB7DEB7A1970FB6F894DEBF0FBEB9
:1009C000CDBF19A2423008F44AE08E010F5D1F4FDF
:1009D000842E912CB12CA12CA50194010E940B0F07
:1009E000E62FB901CA01EA30F4F4E05DD801EE93D4
:1009F0008D01232B242B252B79F790E080E0109795
:100A000019F0CD010E94C404A1960FB6F894DEBF80
:100A10000FBECDBFDF91CF911F910F91BF90AF90CF
:100A20009F908F900895E95CE1CFCF93DF930E9470
:100A3000C404EC0182E392E00E94C4048C0F9D1F69
:100A4000DF91CF9108950C94C404CF92DF92EF927E
:100A5000FF92CF93DF936C01990FEE08FF08F7FE2A
:100A600019C06DE28EE093E00E946C03EC016627F2
:100A70007727CB016C197D098E099F094AE00E94F6
:100A8000D1048C0F9D1FDF91CF91FF90EF90DF90ED
:100A9000CF9008954AE0C701B601DF91CF91FF9052
:100AA000EF90DF90CF900C94D104CF93DF930E940E
:100AB0002505EC0182E392E00E94C4048C0F9D1F87
:100AC000DF91CF9108950F931F93CF93DF93EC01A4
:100AD00088819981009759F02A813B812617370731
:100AE00030F081E0DF91CF911F910F9108958B013C
:100AF0006F5F7F4F0E948D11009759F09983888313
:100B00001B830A832C813D81232B59F7FC01108222
:100B1000E8CF80E0E7CFCF93DF93EC018881998124
:100B2000009711F00E940411198218821D821C8204
:100B30001B821A82DF91CF910895CF92DF92EF92BC
:100B4000FF920F931F93CF93DF93CDB7DEB76297DA
:100B50000FB6F894DEBF0FBECDBF8C01CB01F801FC
:100B60001182108213821282158214824AE09E0141
:100B70002F5F3F4F6901B9010E94800DF60101907E
:100B80000020E9F731977F01EC18FD08B701C80193
:100B90000E946305811112C0C8010E948B056296F4
:100BA0000FB6F894DEBF0FBECDBFDF91CF911F917E
:100BB0000F91FF90EF90DF90CF900895F801F582AC
:100BC000E482B601808191810E947712E8CF1F9262
:100BD0000F920FB60F9211242F933F938F939F93F1
:100BE000AF93BF938091060390910703A0910803F0
:100BF000B09109033091050323E0230F2D3758F5F9
:100C00000196A11DB11D20930503809306039093C7
:100C10000703A0930803B093090380910A039091FE
:100C20000B03A0910C03B0910D030196A11DB11D02
:100C300080930A0390930B03A0930C03B0930D03CE
:100C4000BF91AF919F918F913F912F910F900FBEC8
:100C50000F901F90189526E8230F0296A11DB11D35
:100C6000D2CF1F920F920FB60F9211240BB60F9294
:100C70002F933F934F935F936F937F938F939F93A4
:100C8000AF93BF93EF93FF938EE093E00E944A03EC
:100C9000FF91EF91BF91AF919F918F917F916F9154
:100CA0005F914F913F912F910F900BBE0F900FBE10
:100CB0000F901F9018951F920F920FB60F9211244C
:100CC0000BB60F922F938F939F93EF93FF93E09127
:100CD0001E03F0911F038081E0912403F09125030E
:100CE00082FD1DC09081809127038F5F8F732091BB
:100CF0002803821741F0E0912703F0E0E25FFC4F08
:100D0000958F80932703FF91EF919F918F912F9162
:100D10000F900BBE0F900FBE0F901F901895808103
:100D2000F2CF1F920F920FB60F9211240BB60F92B3
:100D30002F933F934F935F936F937F938F939F93E3
:100D4000AF93BF93EF93FF93F0E0E0E01995FF912D
:100D5000EF91BF91AF919F918F917F916F915F9133
:100D60004F913F912F910F900BBE0F900FBE0F90A0
:100D70001F9018951F920F920FB60F9211240BB669
:100D80000F922F933F934F935F936F937F938F9324
:100D90009F93AF93BF93EF93FF9348E251E064E2D8
:100DA00071E090E080E00E940A04FF91EF91BF9112
:100DB000AF919F918F917F916F915F914F913F91F3
:100DC0002F910F900BBE0F900FBE0F901F90189594
:100DD0001F920F920FB60F9211240BB60F922F9302
:100DE0003F934F935F936F937F938F939F93AF93B3
:100DF000BF93EF93FF9348EA50E064EA70E083E02A
:100E000090E00E940A04FF91EF91BF91AF919F91F2
:100E10008F917F916F915F914F913F912F910F90A3
:100E20000BBE0F900FBE0F901F9018951F920F9240
:100E30000FB60F9211240BB60F922F933F934F933F
:100E40005F936F937F938F939F93AF93BF93EF9332
:100E5000FF9348E950E064E970E082E090E00E948E
:100E60000A04FF91EF91BF91AF919F918F917F9174
:100E70006F915F914F913F912F910F900BBE0F900B
:100E80000FBE0F901F9018951F920F920FB60F92E2
:100E900011240BB60F922F933F934F935F936F9351
:100EA0007F938F939F93AF93BF93EF93FF9348E804
:100EB00050E064E870E081E090E00E940A04FF9155
:100EC000EF91BF91AF919F918F917F916F915F91C2
:100ED0004F913F912F910F900BBE0F900FBE0F902F
:100EE0001F901895109211031092100388EE93E052
:100EF000A0E0B0E08093120390931303A093140337
:100F0000B093150384E292E090930F0380930E0355
:100F100085EC90E090931B0380931A0384EC90E09F
:100F200090931D0380931C0380EC90E090931F032B
:100F300080931E0381EC90E0909321038093200323
:100F400082EC90E0909323038093220386EC90E060
:100F50009093250380932403109227031092280373
:100F60001092290310922A0380913B04803308F0E9
:100F70004DC091E0980F90933B048093500490E013
:100F8000FC01EE0FFF1FE80FF91FE555FC4F88EB42
:100F90009BE092838183E0E7F2E0849180934204B6
:100FA000E491E09343048AE292E0FC012491E22F71
:100FB000F0E0EE0FFF1FEA5FFD4F25913491309373
:100FC000450420934404FC012491E22FF0E0EE0F4D
:100FD000FF1FE451FE4F2591349130934704209335
:100FE0004604FC018491E82FF0E0EE0FFF1FEE5263
:100FF000FE4F85919491909349048093480481E237
:1010000099E090934B0480934A0408958FEF809366
:101010005004C1CFCF93DF93CDB7DEB72E970FB675
:10102000F894DEBF0FBECDBF789484B5826084BDD6
:1010300084B5816084BD85B5826085BD85B58160DC
:1010400085BD80916E00816080936E00109281005A
:101050008091810082608093810080918100816015
:1010600080938100809180008160809380008091D6
:10107000B10084608093B1008091B0008160809362
:10108000B0008091910082608093910080919100E6
:1010900081608093910080919000816080939000A6
:1010A0008091A10082608093A1008091A100816065
:1010B0008093A1008091A00081608093A000809126
:1010C00021018260809321018091210181608093C0
:1010D00021018091200181608093200180917A001C
:1010E000846080937A0080917A00826080937A0095
:1010F00080917A00816080937A0080917A00806884
:1011000080937A001092C10088E00E948A0187E0F3
:101110000E948A0186E00E948A01E0911E03F091FC
:101120001F0382E08083E0911A03F0911B03108279
:10113000E0911C03F0911D0380E18083109226034F
:10114000E0912203F091230386E08083E091200365
:10115000F0912103808180618083E0912003F091F0
:101160002103808188608083E0912003F091210336
:10117000808180688083E0912003F0912103808149
:101180008F7D808380915004803308F051C08CE0C3
:101190000E948A0180915004282F30E0F901EE0F5F
:1011A000FF1FE20FF31FE555FC4F9081907C9C6080
:1011B000908310925104109252042CE0622F0E94EE
:1011C0005410829FB001112430E020E0AB01420FA7
:1011D000531FFA01EE0FFF1FE40FF51FE555FC4FFB
:1011E000908196FD17C02F5F3F4F2C30310571F76E
:1011F000813009F0C7C21092800082E080938100A4
:101200001092850010928400B19A80916F008260E4
:1012100080936F00E09150048E2F90E0FC01EE0F60
:10122000FF1FE80FF91FE555FC4F80818064808324
:101230000E94B1024B015C0112E3C12ED12CE12CC2
:10124000F12C0E94B102681979098A099B09683E4C
:10125000734081059105A8F301E0C01AD108E108A7
:10126000F10818EE810E13E0911EA11CB11CC114EF
:10127000D104E104F10429F780E690E00E94A9017D
:10128000BCEE2B2EB2E03B2E8FEF93E09093030247
:10129000809302021092010210920002AAE08A2EAC
:1012A000A2E09A2E0CEE12E01E870D87680110E076
:1012B00090917B00977F812F887F892B80937B0083
:1012C000812F8770806480937C0080917A00806495
:1012D00080937A0080917A0086FDFCCF609178003F
:1012E00080917900F401219131914F01782F620FA3
:1012F000731FF601619371936F01809102029091C7
:1013000003026817790724F47093030260930202C2
:1013100080910002909101028617970724F4709340
:10132000010260930002CE0101960E949D0518867D
:101330001F821A8619861C861B86E980FA80E114B2
:10134000F10469F06D807E80B301CE0107960E94A2
:101350006305811143C2CE0107960E948B05EB8481
:10136000FC84FFEFEF1AFF0AB701CE0107960E9437
:101370006305882309F43AC22F8138858B859C85C3
:1013800065E372E0820F931F0E947712FC86EB8662
:101390004B855C856F8178858EE093E00E94D60254
:1013A0008F8198850E94041189819A810E9404117D
:1013B0001F5F1B3009F07CCF87E692E00E94230577
:1013C00088E892E00E94230580910002909101023A
:1013D0000E94250588E692E00E94230587E392E0BB
:1013E0000E94230580910202909103020E9425052C
:1013F0008AE392E00E94230560910002709101024D
:10140000072E000C880B990B0E94BC0D6B017C0110
:101410006091020270910302072E000C880B990B59
:101420000E94BC0D9B01AC01C701B6010E94A90F2F
:101430006B017C012B013C01AC019B010E944F1010
:10144000882309F4D8C184E492E00E94C40480E5B2
:1014500092E00E942305F6EDEF2EF2E0FF2E8701C9
:10146000ED85FE8561917191FE87ED8720910002E7
:10147000309101024091020250910302C901841B84
:10148000950B97FD03969595879595958795281BC0
:10149000390B621773070CF442C2CA01880F991FF7
:1014A000480F591F641775070CF439C221E030E06A
:1014B000F80131832083F801619171918F01CE0190
:1014C00001960E949D054D815E8169817A818EE041
:1014D00093E00E94D60289819A810E94041122E041
:1014E00033E08D859E852817390709F0B9CF109212
:1014F000D5021092D4021092D3021092D20210920E
:10150000D1021092D0021092CF021092CE0284E546
:1015100092E00E94230508EB12E0F701819191917E
:101520007F01F801819391938F010E9425052E146C
:101530003F0499F787E692E00E9415054091D40296
:101540005091D5022091D0023091D1026091D20207
:101550007091D3028091CE029091CF02EEECF2E036
:10156000A8EBB2E00D911D91012B09F0DCC14115F2
:10157000510511F42F5F3F4F12910291012B09F099
:10158000D5C16115710509F4019608EB12E00E173B
:101590001F0741F73093D1022093D0027093D302FA
:1015A0006093D2029093CF028093CE025093D502E3
:1015B0004093D4028901081B190B820F931F90934B
:1015C00004038093030389E692E00E94150588E5F1
:1015D00092E00E94230580910303909104030E94EE
:1015E00055058BE692E00E94230588E792E00E9471
:1015F00023058091D0029091D1020E9425058EE7AB
:1016000092E00E9423058091CE029091CF020E9429
:10161000250584E892E00E9423058091D4029091F0
:10162000D5020E9425058BE892E00E942305809157
:10163000D2029091D3020E94250582E992E00E9495
:1016400023058091D0029091CE02890F80930203EE
:10165000082E000C990B0E94550510933D04009331
:101660003C048DE992E00E94230580913C04909116
:101670003D040E94250580913C0490913D049C010D
:10168000215031092B30310508F053C186EA92E030
:101690000E941505A0903C04B0903D0465010B2C00
:1016A000000CEE08FF08A7019601255F3F4F4F4F42
:1016B0005F4FAAEBBFEF0E94060F26E130E040E04B
:1016C00050E00E94D90E29013A0183E8480E511CCE
:1016D000611C711C809003039090040396E18916AD
:1016E000910439F08091020388301CF0C2010E94FD
:1016F000A9011A141B040CF029C1A7019601255059
:10170000310941095109ACEEBFEF0E94060F26E0F6
:1017100030E040E050E00E94D90E89019A01045760
:101720001F4F2F4F3F4FE4E0AE0EB11CF9E0AF1654
:10173000B10410F40CE810E061E087E00E9425029B
:1017400060E086E00E94250226E18216910409F4F9
:1017500018C10F3F110509F00EC161E088E00E9439
:10176000250287E692E00E942305C2010E9425051A
:1017700087E692E00E942305C8010E9455050E9459
:10178000D90382CD823061F4109290008093910051
:10179000109295001092940088BB809371003ACD0E
:1017A000833069F41092A00082E08093A10010922F
:1017B000A5001092A40089BB809372002BCD8111EB
:1017C00029CD1092200182E0809321011092250101
:1017D000109224018ABB809373001CCD7C866B869B
:1017E000B7018F8198850E947712B9CDCE010796F7
:1017F0000E948B05CDCD46015701E894B7F82FEF35
:101800003FEF4FE75FE7C501B4010E944F10811120
:101810000DC02FEF3FEF4FE75FE7C501B4010E9416
:10182000B50D18161CF488E492E00FCE2FEF3FEFB1
:101830004FE75FE4C701B6010E944A1018161CF476
:101840008CE492E002CE2FEF3FEF4FE75FECC70151
:10185000B6010E94B50D87FDF3CF20E030E0A9016D
:10186000C701B6010E94B50D87FF0BC06DE28EE087
:1018700093E00E946C032601370177FA709477F8A1
:1018800070942AE037ED43EA5BE3C301B2010E94A2
:101890003D0F2B013C010E941B106B017C010E943B
:1018A000BA0D9B01AC01C301B2010E943C0F2B0198
:1018B0003C014AE0C701B6010E94D1046EE28EE00D
:1018C00093E00E946C0320E030E040E251E4C30169
:1018D000B2010E941B0E2B013C010E941B106B01E8
:1018E000F12CE12C4AE0C701B6010E94D104C701E6
:1018F000B6010E94BA0D9B01AC01C301B2010E9466
:101900003C0F20E030E040E251E40E941B0E0E94B8
:101910001B1090E080E04AE00E94D10498CDF801CD
:1019200011821082C8CD4F5F5F4F26CE6F5F7F4F11
:101930002CCE853F1FEF910718F089EA92E0A8CEE0
:10194000892B09F0A7CE8CEA92E0A2CE0CE810E039
:10195000A114B10409F4E7CEA70196012B5F3F4F14
:101960004F4F5F4FACEEBFEF0E94060F2AEF3FEFE5
:101970004FEF5FEFD0CE88E00E948A01011511057C
:1019800011F460E0EBCEE4E9F1E08491EFEFE80FD1
:10199000E23108F0B0C0F0E08827EE52F34F8F4FED
:1019A0000C946010E40CE90CEE0CF80C020D7B0DAD
:1019B0000C0D140D1C0D260D300D3A0D490D530D57
:1019C0007B0D5D0D670D710D84B5806884BD07BD0D
:1019D000C8CE84B5806284BD08BDC3CE809180002E
:1019E0008068809380001093890000938800B9CEAE
:1019F0008091800080628093800010938B00009320
:101A00008A00AFCE80918000886080938000109320
:101A10008D0000938C00A5CE8091B00080688093EB
:101A2000B0000093B3009DCE8091B000806280939F
:101A3000B0000093B40095CE8091900080688093B0
:101A4000900010939900009398008BCE80919000A5
:101A500080628093900010939B0000939A0081CE47
:101A60008091900088608093900010939D00009377
:101A70009C0077CE8091A00080688093A000809128
:101A8000A0008F7B8093A0001093A9000093A80072
:101A900068CE8091A00080628093A0001093AB007C
:101AA0000093AA005ECE8091A00088608093A00081
:101AB0001093AD000093AC0054CE8091200180685B
:101AC0008093200110932901009328014ACE809130
:101AD000200180628093200110932B0100932A0142
:101AE00040CE8091200188608093200110932D01C9
:101AF00000932C0136CE003811050CF02ECE41CFCC
:101B0000BB274A3031F4992322F4BDE290958195A8
:101B10009F4F0C948C0DBB27FB015527AA27880FDC
:101B2000991FAA1FA41710F0A41B83955051B9F751
:101B3000A05DAA3308F0A95DA193009779F7B111D0
:101B4000B1931192CB010C94A50DDC01FC01672F20
:101B500071917723E1F7329704C07C916D93708384
:101B60006291AE17BF07C8F308950E94F70D08F4FD
:101B700081E00895E89409C097FB3EF49095809524
:101B8000709561957F4F8F4F9F4F9923A9F0F92F43
:101B900096E9BB279395F695879577956795B795C1
:101BA000F111F8CFFAF4BB0F11F460FF1BC06F5FA7
:101BB0007F4F8F4F9F4F16C0882311F096E911C0B9
:101BC000772321F09EE8872F762F05C0662371F0DA
:101BD00096E8862F70E060E02AF09A95660F771FEE
:101BE000881FDAF7880F9695879597F90895990FCA
:101BF0000008550FAA0BE0E8FEEF16161706E807D7
:101C0000F907C0F012161306E407F50798F0621BF7
:101C1000730B840B950B39F40A2661F0232B242BCC
:101C2000252B21F408950A2609F4A140A6958FEFEB
:101C3000811D811D08950E942E0E0C949F0E0E94FE
:101C4000910E38F00E94980E20F0952311F00C941C
:101C5000880E0C948E0E11240C94D30E0E94B00E9C
:101C600070F3959FC1F3950F50E0551F629FF001EF
:101C7000729FBB27F00DB11D639FAA27F00DB11D08
:101C8000AA1F649F6627B00DA11D661F829F222791
:101C9000B00DA11D621F739FB00DA11D621F839F18
:101CA000A00D611D221F749F3327A00D611D231FEE
:101CB000849F600D211D822F762F6A2F11249F573C
:101CC00050409AF0F1F088234AF0EE0FFF1FBB1F3F
:101CD000661F771F881F91505040A9F79E3F5105FE
:101CE00080F00C94880E0C94D30E5F3FE4F3983E82
:101CF000D4F3869577956795B795F795E7959F5FA8
:101D0000C1F7FE2B880F911D9695879597F9089539
:101D100097F99F6780E870E060E008959FEF80EC9E
:101D2000089500240A941616170618060906089541
:101D300000240A9412161306140605060895092EA7
:101D40000394000C11F4882352F0BB0F40F4BF2B16
:101D500011F460FF04C06F5F7F4F8F4F9F4F089556
:101D600057FD9058440F551F59F05F3F71F047954C
:101D7000880F97FB991F61F09F3F79F08795089531
:101D8000121613061406551FF2CF4695F1DF08C050
:101D9000161617061806991FF1CF8695710561056D
:101DA00008940895E894BB2766277727CB0197F915
:101DB0000895052E97FB1EF400940E94F00E57FD27
:101DC00007D00E940B0F07FC03D04EF40C94F00ECA
:101DD00050954095309521953F4F4F4F5F4F089557
:101DE00090958095709561957F4F8F4F9F4F089587
:101DF0000E942D0FA59F900DB49F900DA49F800D64
:101E0000911D11240895B7FF0C94F80E0E94F80E4E
:101E1000821B930B0895A1E21A2EAA1BBB1BFD0186
:101E20000DC0AA1FBB1FEE1FFF1FA217B307E407B9
:101E3000F50720F0A21BB30BE40BF50B661F771F11
:101E4000881F991F1A9469F76095709580959095F1
:101E50009B01AC01BD01CF010895A29FB001B39FCA
:101E6000C001A39F700D811D1124911DB29F700DA3
:101E7000811D1124911D08955058BB27AA270E9447
:101E8000540F0C949F0E0E94910E38F00E94980EF1
:101E900020F039F49F3F19F426F40C948E0E0EF4C2
:101EA000E095E7FB0C94880EE92F0E94B00E58F3E2
:101EB000BA17620773078407950720F079F4A6F52F
:101EC0000C94D20E0EF4E0950B2EBA2FA02D0B0120
:101ED000B90190010C01CA01A0011124FF27591B6F
:101EE00099F0593F50F4503E68F11A16F040A22F75
:101EF000232F342F4427585FF3CF469537952795E6
:101F0000A795F0405395C9F77EF41F16BA0B620BE4
:101F1000730B840BBAF09150A1F0FF0FBB1F661F2B
:101F2000771F881FC2F70EC0BA0F621F731F841F6E
:101F300048F4879577956795B795F7959E3F08F094
:101F4000B0CF9395880F08F09927EE0F9795879556
:101F500008950E94BD0F0C949F0E0E94980E58F099
:101F60000E94910E40F029F45F3F29F00C94880EF6
:101F700051110C94D30E0C948E0E0E94B00E68F387
:101F80009923B1F3552391F3951B550BBB27AA2732
:101F900062177307840738F09F5F5F4F220F331F6C
:101FA000441FAA1FA9F335D00E2E3AF0E0E832D034
:101FB00091505040E695001CCAF72BD0FE2F29D037
:101FC000660F771F881FBB1F261737074807AB0709
:101FD000B0E809F0BB0B802DBF01FF2793585F4F7E
:101FE0003AF09E3F510578F00C94880E0C94D30E75
:101FF0005F3FE4F3983ED4F3869577956795B79560
:10200000F7959F5FC9F7880F911D9695879597F96A
:102010000895E1E0660F771F881FBB1F62177307E3
:102020008407BA0720F0621B730B840BBA0BEE1FF8
:1020300088F7E09508950E94B80E88F09F5798F0B1
:10204000B92F9927B751B0F0E1F0660F771F881FBD
:10205000991F1AF0BA95C9F714C0B13091F00E94D7
:10206000D20EB1E008950C94D20E672F782F8827F6
:10207000B85F39F0B93FCCF3869577956795B395FE
:10208000D9F73EF490958095709561957F4F8F4F6D
:102090009F4F08950E94F70D08F48FEF08950E9456
:1020A000F70D880B990B0895991B79E004C0991FCF
:1020B000961708F0961B881F7A95C9F780950895A2
:1020C000EE0FFF1F881F8BBF0790F691E02D19942C
:1020D0000F931F93CF93DF938230910510F482E02A
:1020E00090E0E0915504F091560430E020E0B0E03B
:1020F000A0E0309799F42115310509F44AC0281B56
:10210000390B24303105D8F58A819B816115710521
:1021100089F1FB0193838283FE0111C040815181CB
:102120000281138148175907E0F04817590799F4BD
:10213000109761F012960C93129713961C93329697
:10214000CF01DF91CF911F910F9108950093550416
:1021500010935604F4CF2115310551F0421753075F
:1021600038F0A901DB019A01BD01DF01F801C1CFFF
:10217000EF01F9CF9093560480935504CDCFFE0123
:10218000E20FF31F81939193225031093983288301
:10219000D7CF2091530430915404232B41F4209144
:1021A0000602309107023093540420935304209187
:1021B0000402309105022115310541F42DB73EB7D7
:1021C0004091080250910902241B350BE091530401
:1021D000F0915404E217F307A0F42E1B3F0B2817CD
:1021E000390778F0AC014E5F5F4F2417350748F090
:1021F0004E0F5F1F50935404409353048193919367
:102200009FCFF0E0E0E09CCFCF93DF930097E9F021
:10221000FC01329713821282A0915504B0915604AA
:10222000ED0130E020E01097A1F420813181820F90
:10223000931F20915304309154042817390709F053
:1022400061C0F0935404E0935304DF91CF9108955B
:10225000EA01CE17DF07E8F54A815B819E0141154F
:102260005105B1F7E901FB83EA8349915991C40F04
:10227000D51FEC17FD0761F4808191810296840FD0
:10228000951FE90199838883828193819B838A8347
:10229000F0E0E0E012968D919C9113970097B9F5CC
:1022A0002D913C911197CD010296820F931F2091A1
:1022B0005304309154042817390739F6309751F5F3
:1022C0001092560410925504B0935404A0935304F2
:1022D000BCCFD383C28340815181840F951FC8171F
:1022E000D90761F44E5F5F4F88819981480F591F6C
:1022F000518340838A819B81938382832115310599
:1023000009F0B0CFF0935604E09355049ECFFD0141
:10231000DC01C0CF13821282D7CF4F925F926F92AF
:102320007F928F929F92AF92BF92CF92DF92EF9265
:10233000FF920F931F93CF93DF938C01009799F433
:10234000CB01DF91CF911F910F91FF90EF90DF9024
:10235000CF90BF90AF909F908F907F906F905F9045
:102360004F900C946810FC01E60FF71F9C0122505F
:102370003109E217F30708F4AEC0D901CD91DC9121
:102380001197C617D70720F1C530D10578F0CE01D7
:1023900004978617970750F0C61BD70B2297C19357
:1023A000D1936D937C93CF010E940411C801DF91FA
:1023B000CF911F910F91FF90EF90DF90CF90BF9042
:1023C000AF909F908F907F906F905F904F90089507
:1023D0005B01AC1ABD0A4C018C0E9D1EA0915504E8
:1023E000B0915604512C412CF12CE12C109731F571
:1023F00080915304909154048815990509F05CC0AC
:102400004616570608F058C08091040290910502C4
:10241000009741F48DB79EB7409108025091090290
:10242000841B950BE817F90708F055C0F093540486
:10243000E0935304F90171836083B8CF8D919C912F
:10244000119712966C90129713967C901397A8157B
:10245000B90559F56C0142E0C40ED11CCA14DB0465
:1024600020F1AC014A195B09DA011296159780F048
:102470006282738251834083D9016D937C93E1140E
:10248000F10471F0D7011396FC93EE9312978ECF5F
:1024900022968C0F9D1FF90191838083F301EFCF6A
:1024A000F0935604E093550481CF4816590608F47A
:1024B0002C017D01D3019ACFCB010E9468107C01D1
:1024C000009749F0AE01B8010E946E12C8010E9447
:1024D000041187016BCF10E000E068CFFB01DC0145
:1024E00002C001900D9241505040D8F70895FB0171
:1024F000DC0101900D920020E1F70895F894FFCFE0
:10250000E80346000000570480000000FEFFE2FFE1
:10251000FFFFFEFFFEFF0000FEFFFEFFF6FFFFFFD6
:10252000000000006C03D6020303B9033403120356
:1025300026030D0A002C00772000202020636F6501
:1025400066205B006E616E00696E66006F766600E5
:102550005D2020002046200077617463685F7472FC
:1025600061636B5F76616C202020006C2C722C6C98
:10257000622C7262203D20002020206C2000202050
:10258000207220002020206C622000202020726217
:1025900020002020206C722073756D20004572721F
:1025A0006F7220202000203E00203C00207C200074
:00000001FF
