:100000000C9459010C948A010C948A010C948A0175
:100010000C948A010C948A010C948A010C948A0134
:100020000C948A010C948A010C948A010C948A0124
:100030000C948A010C94C6060C948A010C948A01D3
:100040000C948A010C9479070C948A010C948A010F
:100050000C948A010C948A010C948A010C941C065D
:100060000C948A010C9490060C9466060C948A01F8
:100070000C948A010C948A010C948A010C948A01D4
:100080000C944B070C948A010C948A010C948A01FD
:100090000C948A010C948A010C948A010C948A01B4
:1000A0000C948A010C948A010C941D070C948A010B
:1000B0000C948A010C948A010C948A010C94EF062A
:1000C0000C948A010C948A010C948A010C948A0184
:1000D0000C948A010C948A010C948A010C948A0174
:1000E0000C948A010C9483020C9472020C949B026F
:1000F0000C947A020C947D020C94010D0C948D02E8
:100100000C94A1030C940A030C949F020C94F80C19
:100110000C945A0D0C94420D0C946E020C945B03DB
:100120000C9476020C9487020C94CB0C0C94AD02C8
:100130000C9469030C94A7070C940D0D0C94950274
:100140000C94660D0C94C50C0C9457020C94A902E7
:100150000C94190D0C9491020C94360D0C94E30C34
:100160000C94EF0C0C94720D0C94EE030C944E0D49
:100170000C9447030C94250D0C9437030C94A302A4
:100180000C94AE0C0C945C020C94D70C0C943803B9
:1001900000000A0B02090C0D0E0807030401000001
:1001A000000000000000000000000000000000004F
:1001B000000000000000000000000000121110000C
:1001C000000000000000000000000000000000002F
:1001D00000000000000000002100240027002A0089
:1001E0002D003000330001010000040107010A0165
:1001F000000020002300260029002C002F003200E0
:100200000001000003010601090100002200250091
:1002100028002B002E0031003400020100000501EF
:1002200008010B0105050505070508080808020275
:1002300002020A0A08080404040401010101010180
:1002400001010303030303030303040707070C0C63
:100250000C0C0C0C0C0C020202020606060606062A
:1002600006060B0B0B0B0B0B0B0B010210202008CF
:100270000810204010204080020102010804020101
:100280000102040810204080804020100804020170
:1002900080040201804020100804020108040201C9
:1002A0000102040810204080010204081020408050
:1002B000A70711241FBECFEFD1E2DEBFCDBF00E004
:1002C0000CBF12E0A0E0B2E0EAEAF6E200E00BBF09
:1002D00002C007900D92AE3BB107D9F724E0AEEB18
:1002E000B2E001C01D92A536B207E1F711E0C9E501
:1002F000D1E000E006C021970109802FFE010E9495
:100300003511C835D10780E00807A9F70E943F08DA
:100310000C9453130C94000090E0FC01E659FD4F3F
:1003200024918C5D9D4FFC018491882399F090E08D
:10033000880F991FFC01EA52FE4FA591B491FC0170
:10034000E65FFD4F859194918FB7F894EC91E22B85
:10035000EC938FBF0895CF92DF92EF92FF92DC0172
:10036000A03282E0B807D4F5A53BB10514F0A4EBA8
:10037000B0E040915F0428E830E0241B310947FDDC
:100380003395220F331F220F331F6901330FEE08FD
:10039000FF084091600428E532E0241B310947FD45
:1003A0003395220F331F220F331F032E000C440BF3
:1003B000550B2C193D094E095F09B7FF02C0B0E08B
:1003C000A0E00E94C40F24EB30E040E050E00E9427
:1003D0009A0FC20ED31EE41EF51ED601E0915E04F4
:1003E000E03380F520915F0488E890E0821B91095A
:1003F00027FD9395880F991F880F991FA817B90794
:1004000084F02091600488E592E0821B910927FD29
:100410009395880F991F880F991FA817B9070CF497
:10042000CD010297880F991F4FB7F8942E2F30E017
:10043000F901EE0FFF1FE20FF31FE754FC4F928309
:1004400081834FBFFF90EF90DF90CF900895282FCA
:1004500030E0F901E057FE4F9491F901E659FD4F64
:1004600044912C5D3D4FF9012491222309F435C0BC
:10047000992311F191509231F8F4E92FF0E0882797
:10048000EB5BFD4F8F4F0C94351176027A025702C9
:100490006E0272025C027D02830287028D0291026B
:1004A00095029B029F025C02A302A902AD02809109
:1004B00080008F7780938000E22FF0E0EE0FFF1F27
:1004C000E65FFD4FA591B4918FB7F894EC9161115F
:1004D00048C040954E234C938FBF08958091800073
:1004E0008F7DE8CF80918000877FE4CF84B58F77C0
:1004F00084BDE2CF84B58F7DFBCF8091B0008F7734
:100500008093B000D9CF8091B0008F7DF9CF8091DA
:1005100090008F7780939000CFCF809190008F7D57
:10052000F9CF80919000877FF5CF8091A0008F77E1
:100530008093A000C1CF8091A0008F7DF9CF8091E2
:10054000A000877FF5CF809120018F7780932001D5
:10055000B3CF809120018F7DF9CF80912001877FDB
:10056000F5CF4E2BB8CF3FB7F894809118039091F8
:100570001903A0911A03B0911B0326B5A89B05C0CF
:100580002F3F19F00196A11DB11D3FBFBA2FA92F12
:10059000982F8827BC01CD01620F711D811D911D0F
:1005A00042E0660F771F881F991F4A95D1F708957B
:1005B0008F929F92AF92BF92CF92DF92EF92FF9273
:1005C0004B015C010E94B3026B017C010E94B302EB
:1005D0006C197D098E099F09683E7340810591055C
:1005E000A8F321E0821A9108A108B10888EEC80E8C
:1005F00083E0D81EE11CF11C81149104A104B10414
:1006000029F7FF90EF90DF90CF90BF90AF909F9031
:100610008F900895AF92BF92CF92DF92EF92FF92A8
:100620000F931F93CF93DF936C017B018B01040F1A
:10063000151FEB015E01AE18BF08C017D10759F0B6
:100640006991D601ED91FC910190F081E02DC601F8
:100650001995892B79F7C501DF91CF911F910F91E2
:10066000FF90EF90DF90CF90BF90AF9008950895E6
:10067000FC01538D448D252F30E0842F90E0821BA8
:10068000930B541710F0CF96089501970895FC012D
:10069000918D828D981761F0A28DAE0FBF2FB11D85
:1006A0005D968C91928D9F5F9F73928F90E00895DD
:1006B0008FEF9FEF0895FC01918D828D981731F097
:1006C000828DE80FF11D858D90E008958FEF9FEFEB
:1006D0000895FC01918D228D892F90E0805C9F4FC1
:1006E000821B91098F73992708958CE193E00E94F2
:1006F000690321E0892B09F420E0822F0895FC0191
:10070000A48DA80FB92FB11DA35ABF4F2C91848D72
:1007100090E001968F739927848FA689B7892C93CF
:10072000A089B1898C91837080648C93938D848D22
:10073000981306C00288F389E02D80818F7D808325
:100740000895EF92FF920F931F93CF93DF93EC01E5
:1007500081E0888F9B8D8C8D98131AC0E889F98968
:10076000808185FF15C09FB7F894EE89FF8960836B
:10077000E889F98980818370806480839FBF81E0EC
:1007800090E0DF91CF911F910F91FF90EF9008952E
:10079000F62E0B8D10E00F5F1F4F0F731127E02E09
:1007A0008C8D8E110CC00FB607FCFACFE889F98941
:1007B000808185FFF5CFCE010E947F03F1CFEB8DC5
:1007C000EC0FFD2FF11DE35AFF4FF0829FB7F89415
:1007D0000B8FEA89FB8980818062CFCFCF93DF9333
:1007E000EC01888D8823B9F0AA89BB89E889F98949
:1007F0008C9185FD03C0808186FD0DC00FB607FC7E
:10080000F7CF8C9185FFF2CF808185FFEDCFCE01B0
:100810000E947F03E9CFDF91CF91089580E090E0BF
:10082000892B29F00E94750381110E94000080E04D
:1008300090E0892B49F080E090E0892B29F00E941C
:10084000000081110E94000080E090E0892B49F0B7
:1008500080E090E0892B29F00E94000081110E9425
:10086000000080E090E0892B49F080E090E0892B47
:1008700029F00E94000081110C9400000895AF92AD
:10088000BF92CF92DF92EF92FF920F931F93CF937D
:10089000DF936B017A01EC01CE53DD4F28813CE000
:1008A000389F8001399F100D1124A0904904B12C6C
:1008B00027FF1FC0FB011182108288818F5F888310
:1008C00088819801280F311D87FD3A95F6012A1578
:1008D0003B051CF488818C30C4F1808191810496A1
:1008E00080349C4908F473C0F6018081918104969C
:1008F00070C088819801280F311D87FD3A952A150F
:100900003B05DCF68881A801480F511D87FD5A95EB
:10091000FA01EE0FFF1FE40FF51FE754FC4F808133
:1009200086FFCBCF8881F801E80FF11D87FDFA958E
:10093000CF01EE0FFF1FE80FF91FE754FC4F808136
:1009400060E08F730E942702B8CF80819181288157
:10095000A801420F511D27FD5A959A01FA01EE0F89
:10096000FF1FE20FF31FE754FC4F21813281820FFA
:10097000931FF7019183808388819801280F311D8F
:1009800087FD3A95F901EE0FFF1FE20FF31FE754C1
:10099000FC4F808186FF22C08881080F111D87FDD2
:1009A0001A95F801EE0FFF1FE00FF11FE754FC4FFF
:1009B000808161E08F73DF91CF911F910F91FF9044
:1009C000EF90DF90CF90BF90AF900C94270280E41F
:1009D0009CE9F701918380838FEF8883DF91CF912A
:1009E0001F910F91FF90EF90DF90CF90BF90AF904D
:1009F0000895FC0101900020E9F73197AF01481BF1
:100A0000590BBC018CE193E00C940A038F929F92E6
:100A1000AF92BF920F931F93CF93DF93CDB7DEB703
:100A2000A1970FB6F894DEBF0FBECDBF19A242301A
:100A300008F44AE08E010F5D1F4F842E912CB12CDB
:100A4000A12CA50194010E94CC0FE62FB901CA0187
:100A5000EA30F4F4E05DD801EE938D01232B242BD2
:100A6000252B79F790E080E0109719F0CD010E94D6
:100A7000F904A1960FB6F894DEBF0FBECDBFDF918B
:100A8000CF911F910F91BF90AF909F908F9008953D
:100A9000E95CE1CFCF93DF930E94F904EC0182E39C
:100AA00092E00E94F9048C0F9D1FDF91CF91089571
:100AB0000C94F904CF92DF92EF92FF92CF93DF93E1
:100AC0006C01990FEE08FF08F7FE19C06DE28CE18A
:100AD00093E00E94A103EC0166277727CB016C19F4
:100AE0007D098E099F094AE00E9406058C0F9D1F13
:100AF000DF91CF91FF90EF90DF90CF9008954AE083
:100B0000C701B601DF91CF91FF90EF90DF90CF90BA
:100B10000C940605CF93DF930E945A05EC0182E303
:100B200092E00E94F9048C0F9D1FDF91CF910895F0
:100B30000F931F93CF93DF93EC01888199810097E6
:100B400059F02A813B812617370730F081E0DF9189
:100B5000CF911F910F9108958B016F5F7F4F0E947E
:100B60006212009759F0998388831B830A832C8132
:100B70003D81232B59F7FC011082E8CF80E0E7CFBD
:100B8000CF93DF93EC0188819981009711F00E9447
:100B9000D911198218821D821C821B821A82DF9150
:100BA000CF910895CF92DF92EF92FF920F931F9310
:100BB000CF93DF93CDB7DEB762970FB6F894DEBF61
:100BC0000FBECDBF8C01CB01F801118210821382C0
:100BD0001282158214824AE09E012F5F3F4F690105
:100BE000B9010E94410EF60101900020E9F731970A
:100BF0007F01EC18FD08B701C8010E94980581111A
:100C000012C0C8010E94C00562960FB6F894DEBFFC
:100C10000FBECDBFDF91CF911F910F91FF90EF904D
:100C2000DF90CF900895F801F582E482B6018081CB
:100C300091810E944C13E8CF1F920F920FB60F9232
:100C400011242F933F938F939F93AF93BF938091E2
:100C5000140390911503A0911603B09117033091DE
:100C6000130323E0230F2D3758F50196A11DB11D65
:100C7000209313038093140390931503A0931603FA
:100C8000B09317038091180390911903A0911A0350
:100C9000B0911B030196A11DB11D80931803909381
:100CA0001903A0931A03B0931B03BF91AF919F91B7
:100CB0008F913F912F910F900FBE0F901F9018951D
:100CC00026E8230F0296A11DB11DD2CF1F920F92CD
:100CD0000FB60F9211240BB60F922F933F934F93A1
:100CE0005F936F937F938F939F93AF93BF93EF9394
:100CF000FF938CE193E00E947F03FF91EF91BF91FE
:100D0000AF919F918F917F916F915F914F913F91A3
:100D10002F910F900BBE0F900FBE0F901F90189544
:100D20001F920F920FB60F9211240BB60F922F93B2
:100D30008F939F93EF93FF93E0912C03F0912D03FA
:100D40008081E0913203F091330382FD1DC09081D8
:100D5000809135038F5F8F7320913603821741F0A6
:100D6000E0913503F0E0E45EFC4F958F809335030E
:100D7000FF91EF919F918F912F910F900BBE0F904C
:100D80000FBE0F901F9018958081F2CF1F920F9287
:100D90000FB60F9211240BB60F922F933F934F93E0
:100DA0005F936F937F938F939F93AF93BF93EF93D3
:100DB000FF93F0E0E0E01995FF91EF91BF91AF91C3
:100DC0009F918F917F916F915F914F913F912F9163
:100DD0000F900BBE0F900FBE0F901F9018951F9293
:100DE0000F920FB60F9211240BB60F922F933F93D1
:100DF0004F935F936F937F938F939F93AF93BF9323
:100E0000EF93FF9348E251E064E271E090E080E00C
:100E10000E943F04FF91EF91BF91AF919F918F91FD
:100E20007F916F915F914F913F912F910F900BBEEA
:100E30000F900FBE0F901F9018951F920F920FB634
:100E40000F9211240BB60F922F933F934F935F9302
:100E50006F937F938F939F93AF93BF93EF93FF9382
:100E600048EA50E064EA70E083E090E00E943F04CA
:100E7000FF91EF91BF91AF919F918F917F916F9172
:100E80005F914F913F912F910F900BBE0F900FBE2E
:100E90000F901F9018951F920F920FB60F9211246A
:100EA0000BB60F922F933F934F935F936F937F9364
:100EB0008F939F93AF93BF93EF93FF9348E950E0D5
:100EC00064E970E082E090E00E943F04FF91EF91BE
:100ED000BF91AF919F918F917F916F915F914F9152
:100EE0003F912F910F900BBE0F900FBE0F901F9050
:100EF00018951F920F920FB60F9211240BB60F92F6
:100F00002F933F934F935F936F937F938F939F9311
:100F1000AF93BF93EF93FF9348E850E064E870E02D
:100F200081E090E00E943F04FF91EF91BF91AF916B
:100F30009F918F917F916F915F914F913F912F91F1
:100F40000F900BBE0F900FBE0F901F901895109230
:100F50001F0310921E0388EE93E0A0E0B0E08093A0
:100F6000200390932103A0932203B093230384E2F0
:100F700092E090931D0380931C0385EC90E0909386
:100F800029038093280384EC90E090932B038093B3
:100F90002A0380EC90E090932D0380932C0381EC46
:100FA00090E090932F0380932E0382EC90E0909337
:100FB00031038093300386EC90E090933303809369
:100FC00032031092350310923603109237031092B9
:100FD000380380914904803308F04DC091E0980FA8
:100FE0009093490480935E0490E0FC01EE0FFF1F94
:100FF000E80FF91FE754FC4F88EB9BE09283818355
:10100000E4E7F2E0849180935004E491E09351048A
:101010008EE292E0FC012491E22FF0E0EE0FFF1F40
:10102000E65FFD4F25913491309353042093520491
:10103000FC012491E22FF0E0EE0FFF1FE051FE4F84
:10104000259134913093550420935404FC018491EC
:10105000E82FF0E0EE0FFF1FEA52FE4F85919491CA
:10106000909357048093560481E299E09093590439
:101070008093580408958FEF80935E04C1CFCF937F
:10108000DF93CDB7DEB72C970FB6F894DEBF0FBE57
:10109000CDBF789484B5826084BD84B5816084BD01
:1010A00085B5826085BD85B5816085BD80916E0006
:1010B000816080936E001092810080918100826037
:1010C0008093810080918100816080938100809174
:1010D00080008160809380008091B1008460809363
:1010E000B1008091B00081608093B0008091910048
:1010F0008260809391008091910081608093910043
:10110000809190008160809390008091A100826026
:101110008093A1008091A10081608093A1008091C3
:10112000A00081608093A000809121018260809363
:101130002101809121018160809321018091200112
:1011400081608093200180917A00846080937A008E
:1011500080917A00826080937A0080917A00816029
:1011600080937A0080917A00806880937A00109250
:10117000C10088E00E948C0187E00E948C0186E01B
:101180000E948C01E0912C03F0912D0382E080837A
:10119000E0912803F09129031082E0912A03F09155
:1011A0002B0380E1808310923403E0913003F091AF
:1011B000310386E08083E0912E03F0912F0380813C
:1011C00080618083E0912E03F0912F0380818860FD
:1011D0008083E0912E03F0912F03808180688083CB
:1011E000E0912E03F0912F0380818F7D8083809189
:1011F0005E04803308F051C08CE00E948C01809125
:101200005E04282F30E0F901EE0FFF1FE20FF31FFD
:10121000E754FC4F9081907C9C60908310925F0417
:10122000109260042CE0622F0E941511829FB00181
:10123000112430E020E0AB01420F531FFA01EE0F02
:10124000FF1FE40FF51FE754FC4F908196FD17C078
:101250002F5F3F4F2C30310571F7813009F085C287
:101260001092800082E0809381001092850010929D
:101270008400B19A80916F00826080936F00E0914A
:101280005E048E2F90E0FC01EE0FFF1FE80FF91FA8
:10129000E754FC4F80818064808362E370E080E0EB
:1012A00090E00E94D80288E590E00E94AB010FEF29
:1012B00013E01093030200930202109201021092B5
:1012C0000002AAE0CA2EA2E0DA2EBAEF2B2EB2E07C
:1012D0003B2E8101912C90917B00977F892D887FF7
:1012E000892B80937B00892D8770806480937C009C
:1012F00080917A00806480937A0080917A0086FDE4
:10130000FCCF6091780080917900F60121913191B4
:101310006F01782F620F731FF801619371938F0132
:1013200080910202909103026817790724F4709368
:1013300003026093020280910002909101028617DD
:10134000970724F47093010260930002CE01019686
:101350000E94D20518861F821A8619861C861B8653
:10136000E980FA80E114F10469F0AD80BE80B50136
:10137000CE0107960E949805811123C2CE010796DF
:101380000E94C005EB84FC84FFEFEF1AFF0AB7014F
:10139000CE0107960E949805882309F41AC22F816E
:1013A00038858B859C8565E372E0820F931F0E94D0
:1013B0004C13FC86EB864B855C856F8178858CE1D0
:1013C00093E00E940A038F8198850E94D911898138
:1013D0009A810E94D91193942BE092127CCF87E6D8
:1013E00092E00E94580588E892E00E94580580919A
:1013F0000002909101020E945A0588E692E00E9444
:10140000580587E392E00E9458058091020290916E
:1014100003020E945A058AE392E00E9458056091F7
:10142000000270910102072E000C880B990B0E949C
:101430007D0E6B017C016091020270910302072E08
:10144000000C880B990B0E947D0E9B01AC01C7011B
:10145000B6010E946A106B017C014B015C01AC017A
:101460009B010E941011882309F4B8C184E492E022
:101470000E94F90480E592E00E945805F4EEEF2EF8
:10148000F2E0FF2E8701F101619171911F014091FE
:101490000002509101022091020230910302CA0120
:1014A000821B930B97FD0396959587959595879548
:1014B000481B590B641775070CF424C2220F331F05
:1014C000621773070CF41EC281E090E0F80191836B
:1014D0008083F801619171918F01CE0101960E9484
:1014E000D2054D815E8169817A818CE193E00E9411
:1014F0000A0389819A810E94D911F0E12F16F3E045
:101500003F0609F0C0CF1092E3021092E20210925F
:10151000E1021092E0021092DF021092DE021092BD
:10152000DD021092DC0284E592E00E94580506EC90
:1015300012E0F701819191917F01F80181939193DC
:101540008F010E945A058AEF92E08E159F0589F758
:1015500087E692E00E944A054091E2025091E30240
:101560008091DE029091DF026091E0027091E102D1
:101570002091DC023091DD02ECEDF2E0A6ECB2E06D
:101580000D911D91012B09F0C1C14115510509F4BF
:10159000019612910291012B09F0BBC161157105F1
:1015A00011F42F5F3F4F06EC12E00E171F0741F7B3
:1015B0007093E1026093E0025093E3024093E202F1
:1015C0009093DF028093DE023093DD022093DC02F1
:1015D0008C01021B130B820F931F909312038093B5
:1015E000110389E692E00E944A0588E592E00E9494
:1015F000580580911103909112030E948A058BE691
:1016000092E00E94580588E792E00E945805809178
:10161000DE029091DF020E945A058EE792E00E945E
:1016200058058091DC029091DD020E945A0584E801
:1016300092E00E9458058091E2029091E3020E949C
:101640005A058BE892E00E9458058091E002909143
:10165000E1020E945A0582E992E00E9458058091B9
:10166000DE029091DC02890F80931003082E000C9B
:10167000990B0E948A0510934B0400934A048DE94C
:1016800092E00E94580580914A0490914B040E9478
:101690005A0580914A0490914B049C0121503109D4
:1016A0002B30310508F038C186EA92E00E944A05E5
:1016B00020914A0430914B04032E000C440B550B2F
:1016C000009111031091120387E393E097FF31C15A
:1016D0002B50310941095109A4ECBFEF0E94C70FFB
:1016E0002AEE3FEF4FEF5FEF0E949A0FDA01C90138
:1016F0008A589F4FAF4FBF4F7C010631110531F023
:1017000020911003273014F00E94AB0161E087E0C4
:101710000E94270260E086E00E9427020631110540
:1017200009F4E5C188E00E948C01E8E9F1E0E49168
:10173000E150E23108F0D6C1F0E08827ED55F44FD2
:101740008F4F0C943511AE0CC50CCB0CD70CE30CA1
:10175000720DEF0CF80C010D0D0D190D250D360D48
:10176000420D720D4E0D5A0D660D823061F41092CD
:10177000900080939100109295001092940088BB85
:10178000809371007CCD833069F41092A00082E0D8
:101790008093A1001092A5001092A40089BB8093B1
:1017A00072006DCD81116BCD1092200182E080938B
:1017B000210110922501109224018ABB80937300AD
:1017C0005ECDBC86AB86B7018F8198850E944C1395
:1017D000D9CDCE0107960E94C005EDCD2601370177
:1017E000E89477F82FEF3FEF4FE75FE7C301B201CF
:1017F0000E94101181110DC02FEF3FEF4FE75FE7FF
:10180000C301B2010E94760E18161CF488E492E01F
:101810002FCE2FEF3FEF4FE75FE4C701B6010E94E5
:101820000B1118161CF48CE492E022CE2FEF3FEF40
:101830004FE75FECC701B6010E94760E87FDF3CF3C
:1018400020E030E0A901C701B6010E94760E87FFB3
:101850000BC06DE28CE193E00E94A10346015701A9
:10186000B7FAB094B7F8B0942AE037ED43EA5BE3F7
:10187000C501B4010E94FE0F4B015C010E94DC1007
:101880006B017C010E947B0E9B01AC01C501B40180
:101890000E94FD0F4B015C014AE0C701B6010E94A6
:1018A00006056EE28CE193E00E94A10320E030E0A7
:1018B00040E251E4C501B4010E94DC0E4B015C0121
:1018C0000E94DC106B01F12CE12C4AE0C701B6014B
:1018D0000E940605C701B6010E947B0E9B01AC0168
:1018E000C501B4010E94FD0F20E030E040E251E468
:1018F0000E94DC0E0E94DC1090E080E04AE00E9432
:101900000605B8CDF80111821082E3CD4F5F5F4F1D
:1019100040CE6F5F7F4F47CE853F1FEF910718F096
:1019200089EA92E0C3CE892B09F0C2CE8CEA92E01C
:10193000BDCE2A50310941095109AAEBBFEF0E94DF
:10194000C70F2CEE3FEF4FEF5FEF0E949A0FDA01C7
:10195000C90185589F4FAF4FBF4FCECE84B5806829
:1019600084BD80EA87BD87E692E00E945805C701E2
:101970000E945A0587E692E00E94580580EA90E0AE
:101980000E948A050E940E0492CC84B5806284BDB8
:1019900080EA88BDE8CF80918000806880938000D5
:1019A00080EA90E09093890080938800DCCF80915A
:1019B000800080628093800080EA90E090938B00AA
:1019C00080938A00D0CF80918000886080938000CF
:1019D00080EA90E090938D0080938C00C4CF80913A
:1019E000B00080688093B00080EA8093B300BBCFE2
:1019F0008091B00080628093B00080EA8093B40050
:101A0000B2CF8091900080688093900080EA90E04F
:101A10009093990080939800A6CF80919000806267
:101A20008093900080EA90E090939B0080939A00CE
:101A30009ACF8091900088608093900080EA90E037
:101A400090939D0080939C008ECF8091A000806831
:101A50008093A0008091A0008F7B8093A00080EAFB
:101A600090E09093A9008093A8007DCF8091A00082
:101A700080628093A00080EA90E09093AB00809316
:101A8000AA0071CF8091A00088608093A00080EAB6
:101A900090E09093AD008093AC0065CF80912001E1
:101AA00080688093200180EA90E0909329018093E0
:101AB000280159CF8091200180628093200180EA23
:101AC00090E090932B0180932A014DCF80912001CB
:101AD00088608093200180EA90E090932D018093AC
:101AE0002C0141CF61E088E00E9427023CCF6EE1EB
:101AF00070E080E090E00E94D802E0915604F091FE
:101B00005704808190915004892B8083E091520486
:101B1000F0915304908180915004809589238083B3
:101B20008BE090E00197F1F7E0915204F0915304BB
:101B3000808190915004892B808383E290E001970B
:101B4000F1F7E0915204F091530490818091500498
:101B5000809589238083E0915604F0915704908109
:101B600080915004809589238083E0915404F09102
:101B700055048081909151048923A1F010E000E088
:101B800080EB92E00E945805C80169E370E00E9472
:101B90002111CB010E945A058BEB92E00E944A056D
:101BA00060E0A1CF0E94B302AB01BC018091580458
:101BB00090915904B0E0A0E08855994EAF4FBF4FC7
:101BC000840F951FA61FB71F80935A0490935B0440
:101BD000A0935C04B0935D04E0915404F09155042B
:101BE000808190915104892381F40E94B302009175
:101BF0005A0410915B0420915C0430915D04061737
:101C000017072807390740F7B9CF0E94B302209180
:101C1000580430915904620F731F811D911D609308
:101C20005A0470935B0480935C0490935D04E0918C
:101C30005404F0915504808190915104892381F0DE
:101C40000E94B30200915A0410915B0420915C043D
:101C500030915D04061717072807390740F78ECF24
:101C60000E94B302009158041091590405501109C3
:101C700020915A0430915B04021B130B060F171FAF
:101C80007FCFBB274A3031F4992322F4BDE29095EF
:101C900081959F4F0C944D0EBB27FB015527AA271A
:101CA000880F991FAA1FA41710F0A41B83955051E9
:101CB000B9F7A05DAA3308F0A95DA193009779F761
:101CC000B111B1931192CB010C94660EDC01FC01B1
:101CD000672F71917723E1F7329704C07C916D9360
:101CE00070836291AE17BF07C8F308950E94B80EC3
:101CF00008F481E00895E89409C097FB3EF49095BC
:101D00008095709561957F4F8F4F9F4F9923A9F0D4
:101D1000F92F96E9BB279395F69587957795679563
:101D2000B795F111F8CFFAF4BB0F11F460FF1BC0A7
:101D30006F5F7F4F8F4F9F4F16C0882311F096E93A
:101D400011C0772321F09EE8872F762F05C06623E8
:101D500071F096E8862F70E060E02AF09A95660FA1
:101D6000771F881FDAF7880F9695879597F908955A
:101D7000990F0008550FAA0BE0E8FEEF161617069C
:101D8000E807F907C0F012161306E407F50798F004
:101D9000621B730B840B950B39F40A2661F0232B1D
:101DA000242B252B21F408950A2609F4A140A69599
:101DB0008FEF811D811D08950E94EF0E0C94600F1E
:101DC0000E94520F38F00E94590F20F0952311F015
:101DD0000C94490F0C944F0F11240C94940F0E94F3
:101DE000710F70F3959FC1F3950F50E0551F629FDF
:101DF000F001729FBB27F00DB11D639FAA27F00D64
:101E0000B11DAA1F649F6627B00DA11D661F829F8A
:101E10002227B00DA11D621F739FB00DA11D621F6F
:101E2000839FA00D611D221F749F3327A00D611D8C
:101E3000231F849F600D211D822F762F6A2F11246E
:101E40009F5750409AF0F1F088234AF0EE0FFF1FA1
:101E5000BB1F661F771F881F91505040A9F79E3FF8
:101E6000510580F00C94490F0C94940F5F3FE4F3FC
:101E7000983ED4F3869577956795B795F795E7954E
:101E80009F5FC1F7FE2B880F911D9695879597F957
:101E9000089597F99F6780E870E060E008959FEFEC
:101EA00080EC089500240A941616170618060906F1
:101EB000089500240A9412161306140605060895C0
:101EC000092E0394000C11F4882352F0BB0F40F448
:101ED000BF2B11F460FF04C06F5F7F4F8F4F9F4F88
:101EE000089557FD9058440F551F59F05F3F71F00A
:101EF0004795880F97FB991F61F09F3F79F0879571
:101F00000895121613061406551FF2CF4695F1DFF9
:101F100008C0161617061806991FF1CF8695710589
:101F2000610508940895E894BB2766277727CB01BD
:101F300097F90895052E97FB1EF400940E94B10FA7
:101F400057FD07D00E94CC0F07FC03D04EF40C9431
:101F5000B10F50954095309521953F4F4F4F5F4FB2
:101F6000089590958095709561957F4F8F4F9F4F05
:101F700008950E94EE0FA59F900DB49F900DA49F11
:101F8000800D911D11240895B7FF0C94B90F0E9484
:101F9000B90F821B930B0895A1E21A2EAA1BBB1B3B
:101FA000FD010DC0AA1FBB1FEE1FFF1FA217B30725
:101FB000E407F50720F0A21BB30BE40BF50B661F3B
:101FC000771F881F991F1A9469F7609570958095FF
:101FD00090959B01AC01BD01CF010895A29FB00176
:101FE000B39FC001A39F700D811D1124911DB29F4D
:101FF000700D811D1124911D08955058BB27AA27EB
:102000000E9415100C94600F0E94520F38F00E942D
:10201000590F20F039F49F3F19F426F40C944F0F18
:102020000EF4E095E7FB0C94490FE92F0E94710F25
:1020300058F3BA17620773078407950720F079F4FD
:10204000A6F50C94930F0EF4E0950B2EBA2FA02D4D
:102050000B01B90190010C01CA01A0011124FF2755
:10206000591B99F0593F50F4503E68F11A16F04050
:10207000A22F232F342F4427585FF3CF469537954F
:102080002795A795F0405395C9F77EF41F16BA0B14
:10209000620B730B840BBAF09150A1F0FF0FBB1FC2
:1020A000661F771F881FC2F70EC0BA0F621F731F0B
:1020B000841F48F4879577956795B795F7959E3F68
:1020C00008F0B0CF9395880F08F09927EE0F9795F9
:1020D000879508950E947E100C94600F0E94590FFE
:1020E00058F00E94520F40F029F45F3F29F00C9401
:1020F000490F51110C94940F0C944F0F0E94710FC3
:1021000068F39923B1F3552391F3951B550BBB2726
:10211000AA2762177307840738F09F5F5F4F220F6B
:10212000331F441FAA1FA9F335D00E2E3AF0E0E862
:1021300032D091505040E695001CCAF72BD0FE2FAC
:1021400029D0660F771F881FBB1F26173707480740
:10215000AB07B0E809F0BB0B802DBF01FF279358F8
:102160005F4F3AF09E3F510578F00C94490F0C9464
:10217000940F5F3FE4F3983ED4F386957795679587
:10218000B795F7959F5FC9F7880F911D969587952D
:1021900097F90895E1E0660F771F881FBB1F62174C
:1021A00073078407BA0720F0621B730B840BBA0B0A
:1021B000EE1F88F7E09508950E94790F88F09F57E9
:1021C00098F0B92F9927B751B0F0E1F0660F771F5B
:1021D000881F991F1AF0BA95C9F714C0B13091F051
:1021E0000E94930FB1E008950C94930F672F782FFE
:1021F0008827B85F39F0B93FCCF386957795679516
:10220000B395D9F73EF490958095709561957F4F81
:102210008F4F9F4F08950E94B80E08F48FEF0895D6
:102220000E94B80E880B990B0895991B79E004C0A1
:10223000991F961708F0961B881F7A95C9F7809505
:102240000895AA1BBB1B51E107C0AA1FBB1FA617FD
:10225000B70710F0A61BB70B881F991F5A95A9F74F
:1022600080959095BC01CD010895EE0FFF1F881F4A
:102270008BBF0790F691E02D19940F931F93CF9386
:10228000DF938230910510F482E090E0E0916304E6
:10229000F091640430E020E0B0E0A0E0309799F4E1
:1022A0002115310509F44AC0281B390B24303105AA
:1022B000D8F58A819B816115710589F1FB019383B2
:1022C0008283FE0111C04081518102811381481730
:1022D0005907E0F04817590799F4109761F01296E2
:1022E0000C93129713961C933296CF01DF91CF91E6
:1022F0001F910F9108950093630410936404F4CF29
:102300002115310551F04217530738F0A901DB01BF
:102310009A01BD01DF01F801C1CFEF01F9CF909320
:10232000640480936304CDCFFE01E20FF31F819319
:1023300091932250310939832883D7CF20916104AA
:1023400030916204232B41F4209106023091070260
:1023500030936204209361042091040230910502BD
:102360002115310541F42DB73EB740910802509137
:102370000902241B350BE0916104F0916204E2171D
:10238000F307A0F42E1B3F0B2817390778F0AC0198
:102390004E5F5F4F2417350748F04E0F5F1F509375
:1023A000620440936104819391939FCFF0E0E0E059
:1023B0009CCFCF93DF930097E9F0FC013297138213
:1023C0001282A0916304B0916404ED0130E020E03A
:1023D0001097A1F420813181820F931F2091610415
:1023E000309162042817390709F061C0F093620444
:1023F000E0936104DF91CF910895EA01CE17DF07E2
:10240000E8F54A815B819E0141155105B1F7E9016B
:10241000FB83EA8349915991C40FD51FEC17FD073F
:1024200061F4808191810296840F951FE90199835F
:102430008883828193819B838A83F0E0E0E0129617
:102440008D919C9113970097B9F52D913C9111971F
:10245000CD010296820F931F209161043091620496
:102460002817390739F6309751F510926404109205
:102470006304B0936204A0936104BCCFD383C2838E
:1024800040815181840F951FC817D90761F44E5FB1
:102490005F4F88819981480F591F518340838A81FA
:1024A0009B81938382832115310509F0B0CFF0938E
:1024B0006404E09363049ECFFD01DC01C0CF13826E
:1024C0001282D7CF4F925F926F927F928F929F929C
:1024D000AF92BF92CF92DF92EF92FF920F931F9332
:1024E000CF93DF938C01009799F4CB01DF91CF91CB
:1024F0001F910F91FF90EF90DF90CF90BF90AF9022
:102500009F908F907F906F905F904F900C943D11B3
:10251000FC01E60FF71F9C0122503109E217F30777
:1025200008F4AEC0D901CD91DC911197C617D70739
:1025300020F1C530D10578F0CE01049786179707B2
:1025400050F0C61BD70B2297C193D1936D937C9308
:10255000CF010E94D911C801DF91CF911F910F9136
:10256000FF90EF90DF90CF90BF90AF909F908F90B3
:102570007F906F905F904F9008955B01AC1ABD0AF9
:102580004C018C0E9D1EA0916304B0916404512CEB
:10259000412CF12CE12C109731F580916104909140
:1025A00062048815990509F05CC04616570608F0C4
:1025B00058C08091040290910502009741F48DB7B4
:1025C0009EB74091080250910902841B950BE817B1
:1025D000F90708F055C0F0936204E0936104F90133
:1025E00071836083B8CF8D919C91119712966C90F6
:1025F000129713967C901397A815B90559F56C019D
:1026000042E0C40ED11CCA14DB0420F1AC014A190B
:102610005B09DA011296159780F06282738251830A
:102620004083D9016D937C93E114F10471F0D701DB
:102630001396FC93EE9312978ECF22968C0F9D1FCC
:10264000F90191838083F301EFCFF0936404E09369
:10265000630481CF4816590608F42C017D01D3018B
:102660009ACFCB010E943D117C01009749F0AE0149
:10267000B8010E944313C8010E94D91187016BCF92
:1026800010E000E068CFFB01DC0102C001900D9278
:1026900041505040D8F70895FB01DC0101900D92A4
:0A26A0000020E1F70895F894FFCF41
:1026AA00E803460000006504800000000000000006
:1026BA000000000000000000000000000000000010
:1026CA0000000000A1030A033803EE03690347036D
:1026DA005B030D0A002C00772000202020636F6521
:1026EA0066205B006E616E00696E66006F7666003A
:1026FA005D2020002046200077617463685F747251
:10270A0061636B5F76616C202020006C2C722C6CEC
:10271A00622C7262203D20002020206C20002020A4
:10272A00207220002020206C62200020202072626B
:10273A0020002020206C722073756D200045727273
:10274A006F7220202000203E00203C00207C2000C8
:0E275A0044697374616E63653A2000636D001C
:00000001FF
