:100000000C9457010C9488010C9488010C9488017D
:100010000C9488010C9488010C9488010C9488013C
:100020000C9488010C9488010C9488010C9488012C
:100030000C9488010C948B080C9488010C94880112
:100040000C9488010C943E090C9488010C9488014E
:100050000C9488010C9488010C9488010C948107FD
:100060000C9488010C9455080C942B080C9488016E
:100070000C9488010C9488010C9488010C948801DC
:100080000C9410090C9488010C9488010C9488013C
:100090000C94F5070C94CB070C9488010C94880100
:1000A0000C9488010C9488010C94E2080C9488014B
:1000B0000C9488010C9488010C9488010C94B40869
:1000C0000C9488010C9488010C9488010C9488018C
:1000D0000C9488010C9488010C9488010C9488017C
:1000E0000C9488010C9470020C94AC060C94A7023A
:1000F0000C9435060C948F020C94C4060C9456068E
:100100000C946C090C9481020C9458030C946603B3
:100110000C9485020C94A1020C9483060C94740236
:100120000C9435030C94AB020C9408030C94290630
:100130000C9444030C94B8060C9455020C948B0256
:100140000C94D0060C9493020C9423060C945A023F
:100150000C9441060C944D060C946B060C94770697
:100160000C949D020C94F5030C945F060C94A80368
:100170000C947B020C94A0060C9419060C94990222
:100180000C9494060C9478020C946C0200000A0BF8
:1001900002090C0D0E080703040100000000000016
:1001A000000000000000000000000000000000004F
:1001B000000000000000000012111000000000000C
:1001C000000000000000000000000000000000002F
:1001D000000000002100240027002A002D0030002C
:1001E000330001010000040107010A0100002000A2
:1001F0002300260029002C002F00320000010000FF
:1002000003010601090100002200250028002B003F
:100210002E003100340002010000050108010B012D
:1002200005050505070508080808020202020A0A72
:100230000808040404040101010101010101030390
:10024000030303030303040707070C0C0C0C0C0C3B
:100250000C0C0202020206060606060606060B0B38
:100260000B0B0B0B0B0B0102102020080810204079
:10027000102040800201020108040201010204086A
:1002800010204080804020100804020180040201F8
:100290008040201008040201080402010102040841
:1002A0001020408001020408102040806C091124B5
:1002B0001FBECFEFD1E2DEBFCDBF00E00CBF12E02A
:1002C000A0E0B2E0EAEEF8E100E00BBF02C0079068
:1002D0000D92AC32B107D9F724E0ACE2B2E001C034
:1002E0001D92AE36B207E1F711E0C7E5D1E000E0BC
:1002F00006C021970109802FFE010E946B0CC635B4
:10030000D10780E00807A9F70E94400A0C94730CFB
:100310000C94000090E0FC01EA59FD4F2491805EAE
:100320009D4FFC018491882399F090E0880F991FDC
:10033000FC01EE52FE4FA591B491FC01EA5FFD4F26
:10034000859194918FB7F894EC91E22BEC938FBF49
:100350000895CF92DF92EF92FF92DC01A03282E00B
:10036000B807D4F5A53BB10514F0A4EBB0E040917B
:100370006C0428E830E0241B310947FD3395220F37
:10038000331F220F331F6901330FEE08FF0840911E
:100390006D0428E532E0241B310947FD3395220F17
:1003A000331F220F331F032E000C440B550B2C1947
:1003B0003D094E095F09B7FF02C0B0E0A0E00E940E
:1003C000260C24EB30E040E050E00E94FC0BC20E13
:1003D000D31EE41EF51ED601E0916B04E03380F5D8
:1003E00020916C0488E890E0821B910927FD939589
:1003F000880F991F880F991FA817B90784F02091BB
:100400006D0488E592E0821B910927FD9395880F82
:10041000991F880F991FA817B9070CF4CD010297EF
:10042000880F991F4FB7F8942E2F30E0F901EE0F87
:10043000FF1FE20FF31FE853FC4F928381834FBFEE
:10044000FF90EF90DF90CF900895282F30E0F901D2
:10045000E457FE4F9491F901EA59FD4F4491205E13
:100460003D4FF9012491222309F435C0992311F15C
:1004700091509231F8F4E92FF0E08827ED5BFD4FC1
:100480008F4F0C946B0C7402780255026C02700250
:100490005A027B02810285028B028F02930299022B
:1004A0009D025A02A102A702AB02809180008F77C1
:1004B00080938000E22FF0E0EE0FFF1FEA5FFD4F18
:1004C000A591B4918FB7F894EC91611148C0409513
:1004D0004E234C938FBF0895809180008F7DE8CF8D
:1004E00080918000877FE4CF84B58F7784BDE2CF91
:1004F00084B58F7DFBCF8091B0008F778093B00063
:10050000D9CF8091B0008F7DF9CF809190008F7707
:1005100080939000CFCF809190008F7DF9CF809114
:100520009000877FF5CF8091A0008F778093A00007
:10053000C1CF8091A0008F7DF9CF8091A000877FEF
:10054000F5CF809120018F7780932001B3CF8091E8
:1005500020018F7DF9CF80912001877FF5CF4E2B31
:10056000B8CF3FB7F89480918A0290918B02A09106
:100570008C02B0918D0226B5A89B05C02F3F19F0C3
:100580000196A11DB11D3FBFBA2FA92F982F882713
:10059000BC01CD01620F711D811D911D42E0660FEE
:1005A000771F881F991F4A95D1F708958F929F92C0
:1005B000AF92BF92CF92DF92EF92FF924B015C011C
:1005C0000E94B1026B017C010E94B1026C197D098D
:1005D0008E099F09683E734081059105A8F321E0CB
:1005E000821A9108A108B10888EEC80E83E0D81ECF
:1005F000E11CF11C81149104A104B10429F7FF90BE
:10060000EF90DF90CF90BF90AF909F908F90089524
:10061000AF92BF92CF92DF92EF92FF920F931F9310
:10062000CF93DF936C017B018B01040F151FEB014E
:100630005E01AE18BF08C017D10759F06991D60105
:10064000ED91FC910190F081E02DC6011995892B67
:1006500079F7C501DF91CF911F910F91FF90EF9036
:10066000DF90CF90BF90AF900895FC01538D448DE3
:10067000252F30E0842F90E0821B930B541710F04D
:10068000CF96089501970895FC01918D828D98175A
:1006900061F0A28DAE0FBF2FB11D5D968C91928D32
:1006A0009F5F9F73928F90E008958FEF9FEF089563
:1006B000FC01918D828D981731F0828DE80FF11D2C
:1006C000858D90E008958FEF9FEF0895FC01918D47
:1006D000228D892F90E0805C9F4F821B91098F7340
:1006E000992708958EE892E00E94660321E0892B05
:1006F00009F420E0822F08958BE293E00E946603C4
:1007000021E0892B09F420E0822F0895FC01A48DBB
:10071000A80FB92FB11DA35ABF4F2C91848D90E023
:1007200001968F739927848FA689B7892C93A08906
:10073000B1898C91837080648C93938D848D981390
:1007400006C00288F389E02D80818F7D8083089523
:10075000EF92FF920F931F93CF93DF93EC0181E011
:10076000888F9B8D8C8D98131AC0E889F9898081B8
:1007700085FF15C09FB7F894EE89FF896083E889EB
:10078000F98980818370806480839FBF81E090E0DD
:10079000DF91CF911F910F91FF90EF900895F62E6A
:1007A0000B8D10E00F5F1F4F0F731127E02E8C8D04
:1007B0008E110CC00FB607FCFACFE889F989808149
:1007C00085FFF5CFCE010E948603F1CFEB8DEC0FB4
:1007D000FD2FF11DE35AFF4FF0829FB7F8940B8F66
:1007E000EA89FB8980818062CFCFCF93DF93EC01D0
:1007F000888D8823B9F0AA89BB89E889F9898C9109
:1008000085FD03C0808186FD0DC00FB607FCF7CFC4
:100810008C9185FFF2CF808185FFEDCFCE010E94C4
:100820008603E9CFDF91CF91089580E090E0892B96
:1008300029F00E947C0381110E94000080E090E07A
:10084000892B29F00E94720381110E94000080E030
:1008500090E0892B49F080E090E0892B29F00E94FC
:10086000000081110E94000080E090E0892B49F097
:1008700080E090E0892B29F00E94000081110C9407
:1008800000000895AF92BF92CF92DF92EF92FF9255
:100890000F931F93CF93DF936B017A01EC01C15843
:1008A000DD4F28813CE0389F8001399F100D1124D5
:1008B000A0905804B12C27FF1FC0FB0111821082A9
:1008C00088818F5F888388819801280F311D87FD7B
:1008D0003A95F6012A153B051CF488818C30C4F149
:1008E00080819181049680349C4908F473C0F6019C
:1008F00080819181049670C088819801280F311DF4
:1009000087FD3A952A153B05DCF68881A801480F3A
:10091000511D87FD5A95FA01EE0FFF1FE40FF51FD9
:10092000E853FC4F808186FFCBCF8881F801E80F28
:10093000F11D87FDFA95CF01EE0FFF1FE80FF91F9C
:10094000E853FC4F808160E08F730E942502B8CF8E
:10095000808191812881A801420F511D27FD5A9560
:100960009A01FA01EE0FFF1FE20FF31FE853FC4F4D
:1009700021813281820F931FF701918380838881C7
:100980009801280F311D87FD3A95F901EE0FFF1FE1
:10099000E20FF31FE853FC4F808186FF22C088815D
:1009A000080F111D87FD1A95F801EE0FFF1FE00FCC
:1009B000F11FE853FC4F808161E08F73DF91CF918D
:1009C0001F910F91FF90EF90DF90CF90BF90AF906D
:1009D0000C94250280E49CE9F701918380838FEFDA
:1009E0008883DF91CF911F910F91FF90EF90DF905F
:1009F000CF90BF90AF9008950F931F93CF93DF9345
:100A00008FEF93E090930302809302021092010211
:100A100010920002E4E0F2E0A4E6B2E0ED0120E092
:100A200090917B00977F822F887F892B80937B001A
:100A3000822F8770806480937C0080917A0080642C
:100A400080937A0080917A0086FDFCCF80917800B7
:100A50009091790041915191840F951F89939993B9
:100A600040910202509103028417950724F4909359
:100A70000302809302024091000250910102481744
:100A8000590724F490930102809300022F5F2B30CA
:100A900039F62091000230910102409102025091FA
:100AA0000302C901841B950B97FD039695958795C5
:100AB00095958795281B390B440F551FCEE4D2E03E
:100AC000FE0161E070E08D919D91821793070CF417
:100AD000A7C0841795070CF4A3C071836083329676
:100AE00082E0AA37B80779F700E312E084E692E0E3
:100AF000F80129913991219331938C179D07C9F7FA
:100B0000E6E4F2E0A0E3B2E090E080E030E020E054
:100B100050E040E070E060E0CD91DD91CD2B09F038
:100B200082C02115310509F40196D291C291CD2BD5
:100B300009F07CC06115710511F44F5F5F4F0E170E
:100B40001F0751F770934B0260934A02509347027C
:100B50004093460230934D0220934C0290934902F9
:100B6000809348029C01241B350BEA01C80FD91F52
:100B7000D0937C02C0937B02840F80937A023093DF
:100B80007E0220937D02C631D105E1F08730D4F09A
:100B9000032E000C440B550B2B5031094109510910
:100BA000ACEBBFEF0E94290C2AEE3FEF4FEF5FEF57
:100BB0000E94FC0BDA01C90181589F4FAF4FBF4F14
:100BC0000E94A90161E087E00E94250260E086E0C2
:100BD0000E942502669709F4EBC088E00E948A0112
:100BE000E4E9F1E0E491E150E23108F0D9C0F0E04D
:100BF0008827E250FA4F8F4F0C946B0C190623068E
:100C0000290635064106D0064D0656065F066B06D8
:100C1000770683069406A006D006AC06B806C4067E
:100C2000118210825CCF2F5F3F4F7FCF6F5F7F4F6E
:100C300086CF84B5806884BD85EA87BDDF91CF917A
:100C40001F910F91089584B5806284BD85EA88BDA7
:100C5000F5CF8091800080688093800085EA90E0E5
:100C60009093890080938800E9CF80918000806212
:100C70008093800085EA90E090938B0080938A00B7
:100C8000DDCF8091800088608093800085EA90E0CD
:100C900090938D0080938C00D1CF8091B0008068BC
:100CA0008093B00085EA8093B300C8CF8091B000F4
:100CB00080628093B00085EA8093B400BFCF8091BA
:100CC000900080688093900085EA90E0909399006E
:100CD00080939800B3CF80919000806280939000C1
:100CE00085EA90E090939B0080939A00A7CF809133
:100CF000900088608093900085EA90E090939D003A
:100D000080939C009BCF8091A00080688093A0007E
:100D10008091A0008F7B8093A00085EA90E0909363
:100D2000A9008093A8008ACF8091A0008062809360
:100D3000A00085EA90E09093AB008093AA007ECF5C
:100D40008091A00088608093A00085EA90E0909355
:100D5000AD008093AC0072CF8091200180688093B9
:100D6000200185EA90E0909329018093280166CFC5
:100D70008091200180628093200185EA90E0909329
:100D80002B0180932A015ACF8091200188608093A3
:100D9000200185EA90E090932D0180932C014ECFA5
:100DA00061E088E0DF91CF911F910F910C942502B3
:100DB0006EE170E080E090E00E94D602E091630472
:100DC000F0916404808190915D04892B8083E0918F
:100DD0005F04F0916004908180915D048095892387
:100DE00080838BE090E00197F1F7E0915F04F09150
:100DF0006004808190915D04892B808383E290E080
:100E00000197F1F7E0915F04F09160049081809187
:100E10005D04809589238083E0916304F0916404EC
:100E2000908180915D04809589238083E0916104A5
:100E3000F0916204808190915E04892391F50E9473
:100E4000B102AB01BC018091650490916604B0E0F1
:100E5000A0E08855994EAF4FBF4F840F951FA61F36
:100E6000B71F8093670490936804A0936904B093BC
:100E70006A04E0916104F0916204808190915E04C3
:100E8000892389F40E94B1020091670410916804DB
:100E90002091690430916A0406171707280739075B
:100EA00040F760E07ECF0E94B1022091650430914E
:100EB0006604620F731F811D911D60936704709318
:100EC00068048093690490936A04E0916104F0914E
:100ED0006204808190915E04892381F00E94B102B6
:100EE00000916704109168042091690430916A04AC
:100EF000061717072807390740F7D3CF0E94B1021A
:100F0000D0CF1F920F920FB60F9211242F933F93C1
:100F10008F939F93AF93BF938091860290918702A6
:100F2000A0918802B09189023091850223E0230FBD
:100F30002D3758F50196A11DB11D20938502809390
:100F4000860290938702A0938802B09389028091D1
:100F50008A0290918B02A0918C02B0918D02019631
:100F6000A11DB11D80938A0290938B02A0938C02E5
:100F7000B0938D02BF91AF919F918F913F912F912F
:100F80000F900FBE0F901F90189526E8230F029622
:100F9000A11DB11DD2CF1F920F920FB60F92112437
:100FA0000BB60F922F933F934F935F936F937F9363
:100FB0008F939F93AF93BF93EF93FF938EE892E04D
:100FC0000E948603FF91EF91BF91AF919F918F9106
:100FD0007F916F915F914F913F912F910F900BBE39
:100FE0000F900FBE0F901F9018951F920F920FB683
:100FF0000F9211240BB60F922F938F939F93EF9321
:10100000FF93E0919E02F0919F028081E091A40203
:10101000F091A50282FD1DC090818091A7028F5F93
:101020008F732091A802821741F0E091A702F0E0AF
:10103000E257FD4F958F8093A702FF91EF919F910B
:101040008F912F910F900BBE0F900FBE0F901F909E
:1010500018958081F2CF1F920F920FB60F92112434
:101060000BB60F922F933F934F935F936F937F93A2
:101070008F939F93AF93BF93EF93FF938BE293E094
:101080000E948603FF91EF91BF91AF919F918F9145
:101090007F916F915F914F913F912F910F900BBE78
:1010A0000F900FBE0F901F9018951F920F920FB6C2
:1010B0000F9211240BB60F922F938F939F93EF9360
:1010C000FF93E0913B03F0913C038081E091410369
:1010D000F091420382FD1DC09081809144038F5F97
:1010E0008F7320914503821741F0E0914403F0E0B3
:1010F000E55DFC4F958F80934403FF91EF919F91A5
:101100008F912F910F900BBE0F900FBE0F901F90DD
:1011100018958081F2CF1F920F920FB60F92112473
:101120000BB60F922F933F934F935F936F937F93E1
:101130008F939F93AF93BF93EF93FF93F0E0E0E023
:101140001995FF91EF91BF91AF919F918F917F91F1
:101150006F915F914F913F912F910F900BBE0F9028
:101160000FBE0F901F9018951F920F920FB60F92FF
:1011700011240BB60F922F933F934F935F936F936E
:101180007F938F939F93AF93BF93EF93FF9348E227
:1011900051E064E271E090E080E00E944204FF913F
:1011A000EF91BF91AF919F918F917F916F915F91DF
:1011B0004F913F912F910F900BBE0F900FBE0F904C
:1011C0001F9018951F920F920FB60F9211240BB615
:1011D0000F922F933F934F935F936F937F938F93D0
:1011E0009F93AF93BF93EF93FF9348EA50E064EA75
:1011F00070E083E090E00E944204FF91EF91BF9184
:10120000AF919F918F917F916F915F914F913F919E
:101210002F910F900BBE0F900FBE0F901F9018953F
:101220001F920F920FB60F9211240BB60F922F93AD
:101230003F934F935F936F937F938F939F93AF935E
:10124000BF93EF93FF9348E950E064E970E082E0D8
:1012500090E00E944204FF91EF91BF91AF919F9166
:101260008F917F916F915F914F913F912F910F904F
:101270000BBE0F900FBE0F901F9018951F920F92EC
:101280000FB60F9211240BB60F922F933F934F93EB
:101290005F936F937F938F939F93AF93BF93EF93DE
:1012A000FF9348E850E064E870E081E090E00E943D
:1012B0004204FF91EF91BF91AF919F918F917F91E8
:1012C0006F915F914F913F912F910F900BBE0F90B7
:1012D0000FBE0F901F9018951092910210929002DD
:1012E00048EE53E060E070E0409392025093930226
:1012F00060939402709395028EE192E090938F0236
:1013000080938E022DEC30E030939B0220939A0262
:101310002CEC30E030939D0220939C0228EC30E0CE
:1013200030939F0220939E0229EC30E03093A1027B
:101330002093A0022AEC30E03093A3022093A20273
:101340002EEC30E03093A5022093A4021092A70265
:101350001092A8021092A9021092AA0210922E03D3
:1013600010922D0340932F03509330036093310369
:101370007093320390932C0380932B0385EC90E0C1
:10138000909338038093370384EC90E090933A0372
:101390008093390380EC90E090933C0380933B036F
:1013A00081EC90E090933E0380933D0382EC90E0CB
:1013B0009093400380933F0386EC90E09093420328
:1013C0008093410310924403109245031092460308
:1013D0001092470380915804803308F04DC091E08B
:1013E000980F9093580480936B0490E0FC01EE0FEB
:1013F000FF1FE80FF91FE853FC4F88EB9BE0928337
:101400008183E0E7F2E0849180935D04E491E093CE
:101410005E048AE292E0FC012491E22FF0E0EE0FFC
:10142000FF1FEA5FFD4F25913491309360042093B4
:101430005F04FC012491E22FF0E0EE0FFF1FE45166
:10144000FE4F259134913093620420936104FC0196
:101450008491E82FF0E0EE0FFF1FEE52FE4F8591D2
:101460009491909364048093630481E299E0909353
:1014700066048093650408958FEF80936B04C1CF59
:10148000789484B5826084BD84B5816084BD85B55F
:10149000826085BD85B5816085BD80916E0081606B
:1014A00080936E0010928100809181008260809311
:1014B0008100809181008160809381008091800013
:1014C0008160809380008091B10084608093B1003E
:1014D0008091B00081608093B00080919100826023
:1014E0008093910080919100816080939100809120
:1014F00090008160809390008091A1008260809331
:10150000A1008091A10081608093A1008091A00042
:1015100081608093A00080912101826080932101ED
:10152000809121018160809321018091200181605F
:101530008093200180917A00846080937A0080916A
:101540007A00826080937A0080917A008160809333
:101550007A0080917A00806880937A001092C100AE
:1015600088E00E948A0187E00E948A0186E00E944A
:101570008A01E0913B03F0913C0322E02083E0915B
:101580003703F09138031082E0913903F0913A0368
:101590008FEC808310924303E0913F03F09140036E
:1015A00096E09083E0913D03F0913E03808180615D
:1015B0008083E0913D03F0913E03808188608083C9
:1015C000E0913D03F0913E03808180688083E0914B
:1015D0003D03F0913E0380818F7D8083E0919E02E8
:1015E000F0919F022083E0919A02F0919B02108279
:1015F000E0919C02F0919D0280E180831092A6020E
:10160000E091A202F091A3029083E091A002F091F8
:10161000A102808180618083E091A002F091A1020B
:10162000808188608083E091A002F091A102808196
:1016300080688083E091A002F091A10280818F7D7B
:10164000808380916B04803308F051C08CE00E944D
:101650008A0180916B04282F30E0F901EE0FFF1F03
:10166000E20FF31FE853FC4F9081907C9C609083C5
:1016700010926C0410926D042CE0622F0E945F0C9B
:10168000829FB001112430E020E0AB01420F531FD4
:10169000FA01EE0FFF1FE40FF51FE853FC4F908196
:1016A00096FD17C02F5F3F4F2C30310571F7813009
:1016B00009F04FC01092800082E080938100109268
:1016C000850010928400B19A80916F0082608093AF
:1016D0006F00E0916B048E2F90E0FC01EE0FFF1F76
:1016E000E80FF91FE853FC4F80818064808362E338
:1016F00070E080E090E00E94D6028DE590E00E94CC
:10170000A9018EE892E00E946603892B41F08EE8E1
:1017100092E00E944403909384028093830280911C
:101720008302909184028230910508F03EC060E00F
:1017300087E00E94250260E086E00E94250288E0A2
:101740000E948A0160E088E00E9425020E94150440
:10175000D8CF823061F41092900080939100109263
:1017600095001092940088BB80937100B2CF8330B3
:1017700069F41092A00082E08093A1001092A5006D
:101780001092A40089BB80937200A3CF8111A1CFD6
:101790001092200182E08093210110922501109285
:1017A00024018ABB8093730094CF9C01225031099D
:1017B0002230310518F40E94FC04C8CF8430910512
:1017C00009F4B5CF0597029708F0C0CF60E087E035
:1017D0000E94250260E086E00E94250288E00E94C7
:1017E0008A0160E088E00E94250264EF71E080E0F9
:1017F00090E00E94D602AACF052E97FB1EF400941B
:101800000E94130C57FD07D00E942E0C07FC03D03A
:101810004EF40C94130C50954095309521953F4F04
:101820004F4F5F4F089590958095709561957F4FCC
:101830008F4F9F4F08950E94500CA59F900DB49F0D
:10184000900DA49F800D911D11240895B7FF0C9455
:101850001B0C0E941B0C821B930B0895A1E21A2EF5
:10186000AA1BBB1BFD010DC0AA1FBB1FEE1FFF1F44
:10187000A217B307E407F50720F0A21BB30BE40B94
:10188000F50B661F771F881F991F1A9469F76095DB
:101890007095809590959B01AC01BD01CF01089595
:1018A000A29FB001B39FC001A39F700D811D1124A1
:1018B000911DB29F700D811D1124911D0895991BDA
:1018C00079E004C0991F961708F0961B881F7A9537
:1018D000C9F780950895EE0FFF1F881F8BBF0790F3
:0A18E000F691E02D1994F894FFCF63
:1018EA00E8034600FDFFFEFFC8FFFFFFFEFFFEFF05
:1018FA000000FEFFFEFFD5FFFFFF00000000A80367
:0C190A0008033503F5036603440358038B
:00000001FF
