:100000000C9447010C9478010C9478010C947801BD
:100010000C9478010C9478010C9478010C9478017C
:100020000C9478010C9478010C9478010C9478016C
:100030000C9478010C9478010C9478010C9478015C
:100040000C9478010C9407060C9478010C947801B8
:100050000C9478010C9478010C9478010C94D304DE
:100060000C9478010C9447050C941D050C947801B0
:100070000C9478010C9478010C9478010C9478011C
:100080000C94D9050C9478010C9478010C947801A7
:100090000C9478010C9478010C9478010C947801FC
:1000A0000C9478010C9478010C94AB050C947801B5
:1000B0000C9478010C9478010C9478010C947D05D3
:1000C0000C9478010C9478010C9478010C947801CC
:1000D0000C9478010C9478010C9478010C947801BC
:1000E0000C94780138023B022A022E02340272027A
:1000F0003F02430249024D02510257025B025F0276
:100100007202650269026D020C9457020C942E0271
:100110000C943F020C9408030C942A020C94720273
:100120000C943B020C94AF030C944D020C943506D6
:100130000C9451020C945B020C9449020C946D02D5
:100140000C9469020C94CB020C9462030C9443024D
:100150000C9465020C9434020C9438020C945F02E7
:100160000C94F9020C941C030C942A030000200048
:100170002300260029002C002F003200000100007F
:1001800003010601090100000A0B02090C0D0E080B
:100190000703040100000000000000000000000050
:1001A000000000000000000000000000000000004F
:1001B000000012111000000000000000000000000C
:1001C000000000000000000000000000000022000D
:1001D000250028002B002E00310034000201000011
:1001E000050108010B0100002100240027002A005E
:1001F0002D003000330001010000040107010A0155
:1002000005050505070508080808020202020A0A92
:1002100008080404040401010101010101010303B0
:10022000030303030303040707070C0C0C0C0C0C5B
:100230000C0C0202020206060606060606060B0B58
:100240000B0B0B0B0B0B0102102020080810204099
:10025000102040800201020108040201010204088A
:100260001020408080402010080402018004020118
:100270008040201008040201080402010102040861
:10028000102040800102040810204080350611240F
:100290001FBECFEFD1E2DEBFCDBF00E00CBF12E04A
:1002A000A0E0B2E0E8ECF8E100E00BBF02C007908C
:1002B0000D92A231B107D9F723E0A2E1B2E001C06B
:1002C0001D92AA37B207E1F711E0C7E4D1E000E0E0
:1002D00006C021970109802FFE010E94550CC634EB
:1002E000D10780E00807A9F70E9493060C94620CDE
:1002F0000C94000090E0FC01EA5BFD4F2491FC01AE
:10030000E050FE4F8491882399F090E0880F991F68
:10031000FC01EA51FE4FA591B491FC01E453FE4F5C
:10032000859194918FB7F894EC91E22BEC938FBF69
:100330000895CF92DF92EF92FF92DC01A03282E02B
:10034000B8070CF03EC0B7FD06C0A53BB1052CF0C8
:10035000A4EBB0E002C0A0E0B0E08091780328E810
:1003600030E06901C81AD10887FDD394CC0CDD1C9C
:10037000CC0CDD1C0D2C000CEE08FF0880917903DD
:1003800028E532E0281B310987FD3395220F331F02
:10039000220F331FA901330F660B770B9A01AB01B4
:1003A0002C193D094E095F090E94860A24EB30E0B2
:1003B00040E050E00E945C0AC20ED31EE41EF51E0F
:1003C000D60190917703903398F58091780348E8AF
:1003D00050E0481B510987FD5395440F551F440FAA
:1003E000551FA417B5078CF08091790328E532E0FA
:1003F000281B310987FD3395220F331F220F331F2E
:10040000AD012A173B070CF4A90142505109440FD2
:10041000551F2FB7F894892F90E0FC01EE0FFF1FB6
:100420008E0F9F1FFC01EA51FD4F528341832FBF66
:10043000FF90EF90DF90CF90089590E0FC0131970E
:10044000E231F10508F04EC08827EE58FF4F8F4F7C
:100450000C94550C809180008F7703C080918000B0
:100460008F7D80938000089580918000877FF9CFF1
:1004700084B58F7702C084B58F7D84BD0895809147
:10048000B0008F7703C08091B0008F7D8093B00063
:100490000895809190008F7707C0809190008F7DA4
:1004A00003C080919000877F809390000895809191
:1004B000A0008F7707C08091A0008F7D03C080913E
:1004C000A000877F8093A0000895809120018F77FE
:1004D00007C0809120018F7D03C080912001877F1C
:1004E000809320010895CF93DF93282F30E0F90106
:1004F000EA57FE4F8491F901EA5BFD4FD491F9016F
:10050000E050FE4FC491CC2391F081110E941D0256
:10051000EC2FF0E0EE0FFF1FE459FE4FA591B491D0
:10052000EC91ED2381E090E021F480E002C080E0D6
:1005300090E0DF91CF9108951F93CF93DF93282F01
:1005400030E0F901EA57FE4F8491F901EA5BFD4F73
:10055000D491F901E050FE4FC491CC23C1F0162F85
:1005600081110E941D02EC2FF0E0EE0FFF1FE453FB
:10057000FE4FA591B4919FB7F894111104C08C91CE
:10058000D095D82302C0EC91DE2BDC939FBFDF9186
:10059000CF911F910895CF92DF92EF92FF920F9328
:1005A0001F93CF93DF936C017A018B01C0E0D0E001
:1005B000CE15DF0581F0D8016D918D01D601ED9149
:1005C000FC910190F081E02DC6011995892B11F065
:1005D0002196EECF7E01C701DF91CF911F910F9140
:1005E000FF90EF90DF90CF900895089580E090E025
:1005F0000895FC01538D448D252F30E0842F90E029
:10060000821B930B541710F0CF960895019708950D
:10061000FC01918D828D981761F0828DDF01A80F0A
:10062000B11D5D968C91928D9F5F9F73928F90E02C
:1006300008958FEF9FEF0895FC01918D828D98179B
:1006400031F0828DE80FF11D858D90E008958FEFD8
:100650009FEF0895FC01918D228D892F90E0805CA1
:100660009F4F821B91098F739927089589E492E027
:100670000E942A0321E0892B09F420E0822F0895AB
:10068000FC01848DDF01A80FB11DA35ABF4F2C912F
:10069000848D90E001968F739927848FA689B789FE
:1006A0002C93A089B1898C91837080648C93938DF5
:1006B000848D981306C00288F389E02D80818F7D98
:1006C00080830895EF92FF920F931F93CF93DF9350
:1006D000EC0181E0888F9B8D8C8D981305C0E88993
:1006E000F989808185FD26C0F62E0B8D10E00F5F05
:1006F0001F4F0F731127E02E8C8DE8120CC00FB620
:1007000007FCFACFE889F989808185FFF5CFCE0112
:100710000E944003F1CF8B8DFE01E80FF11DE35ADB
:10072000FF4FF0829FB7F8940B8FEA89FB89808195
:1007300080620AC09FB7F894EE89FF896083E889D8
:10074000F98980818370806480839FBF81E090E01D
:10075000DF91CF911F910F91FF90EF900895CF936C
:10076000DF93EC01888D8823C9F0EA89FB898081B9
:1007700085FD05C0A889B9898C9186FD0FC00FB68B
:1007800007FCF5CF808185FFF2CFA889B9898C91CC
:1007900085FFEDCFCE010E944003E7CFDF91CF91DF
:1007A000089580E090E0892B21F00E9436038111AA
:1007B00025C080E090E0892B41F080E090E0892B1B
:1007C00021F00E94000081111CC080E090E0892B84
:1007D00041F080E090E0892B21F00E94000081111F
:1007E00013C080E090E0892BA1F080E090E0892B9D
:1007F00081F00E94000081110AC008950E9400004B
:10080000D8CF0E940000E1CF0E940000EACF0C94F4
:1008100000000895CF92DF92EF92FF920F931F9303
:10082000CF93DF936C018B017A01EC01CE5EDD4F3B
:10083000888187FF04C0FB011182108224C02CE054
:100840002C9DC0012D9D900D11242881AC01420FDB
:10085000511D27FD5A952091760330E0421753072A
:1008600094F42881AC01420F511D27FD5A959A013D
:10087000FA01EE0FFF1F2E0F3F1FF901EA51FD4F46
:10088000208126FD19C088818F5F88832CE02C9DF4
:10089000C0012D9D900D11242881AC01420F511DE6
:1008A00027FD5A952091760330E042175307BCF498
:1008B00028812C3044F113C02881820F911D27FD1F
:1008C0009A95FC01EE0FFF1F8E0F9F1FFC01EA514E
:1008D000FD4F808160E08F730E949C02D4CFF801AD
:1008E00080819181049680349C4918F480E49CE9CD
:1008F00004C0F801808191810496F701918380837F
:100900008FEF888345C0F801408151812881BC0167
:10091000620F711D27FD7A959B01FB01EE0FFF1FF2
:100920002E0F3F1FF901EA51FD4F21813281240F23
:10093000351FF701318320832881AC01420F511DFF
:1009400027FD5A959A01FA01EE0FFF1F2E0F3F1F48
:10095000F901EA51FD4F208126FF1AC02881820F3C
:10096000911D27FD9A95FC01EE0FFF1F8E0F9F1F13
:10097000FC01EA51FD4F808161E08F73DF91CF91DF
:100980001F910F91FF90EF90DF90CF900C949C02FD
:10099000DF91CF911F910F91FF90EF90DF90CF905B
:1009A00008950E945D0C1F920F920FB60F921124B2
:1009B0002F933F938F939F93AF93BF938091450263
:1009C00090914602A0914702B091480230914402B2
:1009D00023E0230F2D3720F40196A11DB11D05C082
:1009E00026E8230F0296A11DB11D20934402809397
:1009F000450290934602A0934702B093480280912B
:100A0000400290914102A0914202B09143020196AE
:100A1000A11DB11D8093400290934102A093420218
:100A2000B0934302BF91AF919F918F913F912F91CE
:100A30000F900FBE0F901F9018951F920F920FB638
:100A40000F9211240BB60F922F933F934F935F9306
:100A50006F937F938F939F93AF93BF93EF93FF9386
:100A600089E492E00E944003FF91EF91BF91AF9122
:100A70009F918F917F916F915F914F913F912F91B6
:100A80000F900BBE0F900FBE0F901F9018951F92E6
:100A90000F920FB60F9211240BB60F922F938F93D4
:100AA0009F93EF93FF93E0915902F0915A02808156
:100AB000E0915F02F091600282FD12C0908180910E
:100AC00062028F5F8F7320916302821751F0E09171
:100AD0006202F0E0E75BFD4F958F8093620201C0F8
:100AE0008081FF91EF919F918F912F910F900BBE7D
:100AF0000F900FBE0F901F9018951F920F920FB678
:100B00000F9211240BB60F922F933F934F935F9345
:100B10006F937F938F939F93AF93BF93EF93FF93C5
:100B200048E251E064E271E080E090E00E940A0453
:100B3000FF91EF91BF91AF919F918F917F916F91B5
:100B40005F914F913F912F910F900BBE0F900FBE71
:100B50000F901F9018951F920F920FB60F921124AD
:100B60000BB60F922F933F934F935F936F937F93A7
:100B70008F939F93AF93BF93EF93FF9348EA50E017
:100B800064EA70E083E090E00E940A04FF91EF9134
:100B9000BF91AF919F918F917F916F915F914F9195
:100BA0003F912F910F900BBE0F900FBE0F901F9093
:100BB00018951F920F920FB60F9211240BB60F9239
:100BC0002F933F934F935F936F937F938F939F9355
:100BD000AF93BF93EF93FF9348E950E064E970E06F
:100BE00082E090E00E940A04FF91EF91BF91AF91E3
:100BF0009F918F917F916F915F914F913F912F9135
:100C00000F900BBE0F900FBE0F901F9018951F9264
:100C10000F920FB60F9211240BB60F922F933F93A2
:100C20004F935F936F937F938F939F93AF93BF93F4
:100C3000EF93FF9348E850E064E870E081E090E0D3
:100C40000E940A04FF91EF91BF91AF919F918F9104
:100C50007F916F915F914F913F912F910F900BBEBC
:100C60000F900FBE0F901F90189510924C0210928B
:100C70004B0288EE93E0A0E0B0E080934D029093A9
:100C80004E02A0934F02B093500284E092E0909302
:100C90004A028093490285EC90E09093560280933B
:100CA000550284EC90E0909358028093570280ECB8
:100CB00090E090935A028093590281EC90E09093D7
:100CC0005C0280935B0282EC90E090935E028093E2
:100CD0005D0286EC90E09093600280935F02109238
:100CE0006202109263021092640210926502809177
:100CF00076038033A0F491E0980F9093760380936D
:100D0000770390E0FC01EE0FFF1F8E0F9F1FFC0189
:100D1000EA51FD4F88EB9BE09283818308958FEF2A
:100D2000809377030895CF93DF9300D01F92CDB7C0
:100D3000DEB7789484B5826084BD84B5816084BD5B
:100D400085B5826085BD85B5816085BD80916E0069
:100D5000816080936E00109281008091810082609A
:100D600080938100809181008160809381008091D7
:100D700080008160809380008091B10084608093C6
:100D8000B1008091B00081608093B00080919100AB
:100D900082608093910080919100816080939100A6
:100DA000809190008160809390008091A10082608A
:100DB0008093A1008091A10081608093A100809127
:100DC000A00081608093A0008091210182608093C7
:100DD0002101809121018160809321018091200176
:100DE00081608093200180917A00846080937A00F2
:100DF00080917A00826080937A0080917A0081608D
:100E000080937A0080917A00806880937A001092B3
:100E1000C10080917703803308F051C08CE00E94BC
:100E20007A0180917703E82FF0E09F01220F331FB2
:100E3000E20FF31FEA51FD4F9081907C9C609083FC
:100E400010927803109279036CE00E94490C2CE018
:100E5000829FB001112440E050E09B01240F351F18
:100E6000F901EE0FFF1F2E0F3F1FF901EA51FD4F51
:100E7000908196FD17C04F5F5F4F4C30510569F769
:100E8000813009F0EDC21092800082E080938100F1
:100E90001092850010928400B19A80916F00826058
:100EA00080936F00E0917703F0E0CF01880F991FE6
:100EB000E80FF91FEA51FD4F80818064808386E945
:100EC00090E00E94990188E00E947A0187E00E94E8
:100ED0007A0186E00E947A01E0915902F0915A026B
:100EE00082E08083E0915502F09156021082E091F9
:100EF0005702F09158028FEC808310926102E091CA
:100F00005D02F0915E0286E08083E0915B02F091E9
:100F10005C02808180618083E0915B02F0915C02E1
:100F2000808188608083E0915B02F0915C02808127
:100F300080688083E0915B02F0915C0280818F7D0C
:100F4000808386E30E9473022C01909319028093A0
:100F5000180287E30E9473023C0190931B02809366
:100F60001A0288E30E9473024C0190931D02809341
:100F70001C0289E30E9473025C0190931F0280931C
:100F80001E028AE30E9473026C01909321028093F7
:100F900020028BE30E9473027C01909323028093D2
:100FA00022028CE30E9473029A8389839093250224
:100FB000809324028DE30E9473028C019093270298
:100FC000809326028EE30E9473021C0190932902F3
:100FD000809328028FE30E94730290932B028093E8
:100FE0002A0280E40E94730290932D0280932C02C7
:100FF0004114510409F093C06114710409F0F8C060
:101000008114910409F0D3C0A114B10409F0B2C055
:10101000C114D10409F04DC0E114F10491F5A98186
:10102000BA81AB2BD9F4012B09F083C1211431040F
:1010300049F48130910509F059C180E090E0A0E0C9
:10104000B1EC6FC12A94232809F073C1892B09F0F0
:1010500070C180E090E0A0EAB0EC63C1A981BA81E0
:10106000119709F066C1012B09F063C1232809F02B
:1010700060C1892B09F05DC180E090E0A0E0B0EC98
:1010800050C1EA94EF2809F054C129813A812130F6
:10109000310509F04EC1012B09F04BC1232809F09D
:1010A00048C1892B09F045C180E090E0A0E8BFEB82
:1010B00038C1CA94CD2809F03CC1B1E0EB16F10467
:1010C000C1F429813A812130310509F032C1012B67
:1010D00009F02FC1232809F02CC1892B09F029C15F
:1010E000109238021092390210923A0210923B028A
:1010F00020C1EF2809F01DC1A981BA81AB2B09F0ED
:1011000018C1012B09F015C1232809F012C1892B40
:1011100009F00FC180E090E0A0E8BFE302C14A946B
:10112000452809F006C16114710409F0A5C0B1E0B9
:101130008B16910409F0C3C0AA94AB2809F0F9C03A
:10114000CA94CD2809F0F5C0EF2809F0F2C0A981B2
:10115000BA81AB2B09F0EDC0012B09F0EAC02328BE
:1011600009F0E7C0892B09F0E4C080E090E0A0E03E
:10117000B0E4D7C0AA94AB2809F0DBC0CD2809F0B1
:10118000D8C0EF2809F0D5C029813A81232B09F076
:10119000D0C0012B09F0CDC0232809F0CAC0892B8B
:1011A00009F0C7C080E090E0A0E4B0E4BAC08A943F
:1011B000892809F0BEC0AA94AB2809F0BAC0CD288E
:1011C00009F0B7C0EF2809F0B4C029813A81232B78
:1011D00009F0AFC0012B09F0ACC0232809F0A9C069
:1011E000892B09F0A6C080E090E0A0E8B0E499C0A7
:1011F0006A94672809F09DC0B1E08B169104E9F468
:10120000AA94AB2809F095C0CD2809F092C0EF2828
:1012100009F08FC0A981BA81AB2B09F08AC0012BDC
:1012200009F087C0232809F084C0892B09F081C008
:1012300080E090E0A0EAB0E474C0892809F079C0A9
:10124000AB2809F076C0CD2809F073C0EF2809F06B
:1012500070C0A981BA81AB2B09F06BC0012B09F0DA
:1012600068C0232809F065C0892B09F062C080E0BE
:1012700090E0A0ECB0E455C06A94672809F059C02A
:10128000892809F056C0AB2809F053C0CD2809F0D1
:1012900050C0EF2809F04DC029813A81232B09F075
:1012A00048C0012B09F045C0232809F042C0892B12
:1012B00009F03FC080E090E0A0EEB0E432C08928A1
:1012C000C1F5AB28B1F5CD28A1F5EF2891F5A9819D
:1012D000BA81AB2B71F5012B61F5232851F5892BD0
:1012E00041F580E090E0A0E0B1E41BC0892B09F556
:1012F00020E030E040E051EC60913802709139021A
:1013000080913A0290913B020E942C0B811105C002
:1013100080E090E0A0E1B1EC04C080E090E0A0E1CA
:10132000B1E48093380290933902A0933A02B093CB
:101330003B02409038025090390260903A0270901F
:101340003B022091300230913102409132025091A3
:10135000330260913402709135028091360290918F
:1013600037020E94C00A6B017C01609334027093C3
:101370003502809336029093370220912C023091EF
:101380002D0240912E0250912F02C301B2010E9402
:10139000BF0A20E030E0A9010E94DC0B4B015C0198
:1013A00020E030E040E850E4C301B2010E94DC0BD1
:1013B00069837A838B839C8320E030E0A901C70195
:1013C000B6010E94DC0B9B01AC0169817A818B81A3
:1013D0009C810E94C00A9B01AC01C501B4010E941E
:1013E000C00A4B015C0160933C0270933D02809304
:1013F0003E0290933F02C0923002D0923102E092BE
:101400003202F092330240922C0250922D026092EE
:101410002E0270922F0260E087E00E949C0261E041
:1014200086E00E949C02A501940160E070E086E1E4
:1014300093E40E94BF0A0E94310BCB010E949901E4
:1014400020E030E046E153E4C501B4010E94C00A47
:101450000E94310BCB010E9499010E94D10371CDF2
:10146000823061F410929000809391001092950068
:101470001092940088BB8093710014CD833069F47E
:101480001092A00082E08093A1001092A50010921B
:10149000A40089BB8093720005CD811103CD109209
:1014A000200182E0809321011092250110922401F5
:1014B0008ABB80937300F6CC052E97FB1EF4009434
:1014C0000E94730A57FD07D00E948E0A07FC03D0C2
:1014D0004EF40C94730A50954095309521953F4FEA
:1014E0004F4F5F4F089590958095709561957F4F10
:1014F0008F4F9F4F08950E94B00AA59F900DB49FF3
:10150000900DA49F800D911D11240895B7FF0C9498
:101510007B0A0E947B0A821B930B0895A1E21A2E7C
:10152000AA1BBB1BFD010DC0AA1FBB1FEE1FFF1F87
:10153000A217B307E407F50720F0A21BB30BE40BD7
:10154000F50B661F771F881F991F1A9469F760951E
:101550007095809590959B01AC01BD01CF010895D8
:10156000A29FB001B39FC001A39F700D811D1124E4
:10157000911DB29F700D811D1124911D0895505829
:10158000BB27AA270E94D70A0C94A20B0E94940B97
:1015900038F00E949B0B20F039F49F3F19F426F499
:1015A0000C94910B0EF4E095E7FB0C948B0BE92F58
:1015B0000E94B30B58F3BA176207730784079507A5
:1015C00020F079F4A6F50C94D50B0EF4E0950B2ED3
:1015D000BA2FA02D0B01B90190010C01CA01A00185
:1015E0001124FF27591B99F0593F50F4503E68F1E0
:1015F0001A16F040A22F232F342F4427585FF3CF21
:10160000469537952795A795F0405395C9F77EF4F1
:101610001F16BA0B620B730B840BBAF09150A1F03A
:10162000FF0FBB1F661F771F881FC2F70EC0BA0FC0
:10163000621F731F841F48F4879577956795B79548
:10164000F7959E3F08F0B0CF9395880F08F0992743
:10165000EE0F9795879508950E94670B08F481E037
:1016600008950E94380B6894B1110C94D60B08951C
:101670000E94BB0B88F09F5798F0B92F9927B7515C
:10168000B0F0E1F0660F771F881F991F1AF0BA9526
:10169000C9F714C0B13091F00E94D50BB1E00895A4
:1016A0000C94D50B672F782F8827B85F39F0B93F96
:1016B000CCF3869577956795B395D9F73EF49095D9
:1016C0008095709561957F4F8F4F9F4F0895990F2B
:1016D0000008550FAA0BE0E8FEEF16161706E807FC
:1016E000F907C0F012161306E407F50798F0621B1D
:1016F000730B840B950B39F40A2661F0232B242BF2
:10170000252B21F408950A2609F4A140A6958FEF10
:10171000811D811D089597F99F6780E870E060E062
:1017200008959FEF80EC089500240A94161617067A
:1017300018060906089500240A94121613061406C2
:1017400005060895092E0394000C11F4882352F025
:10175000BB0F40F4BF2B11F460FF04C06F5F7F4FDD
:101760008F4F9F4F089557FD9058440F551F59F0C4
:101770005F3F71F04795880F97FB991F61F09F3F7E
:1017800079F087950895121613061406551FF2CFA7
:101790004695F1DF08C0161617061806991FF1CFF7
:1017A00086957105610508940895E894BB2766271E
:1017B0007727CB0197F908950E94EF0B0C94A20BA9
:1017C0000E94940B38F00E949B0B20F0952311F09F
:1017D0000C948B0B0C94910B11240C94D60B0E943F
:1017E000B30B70F3959FC1F3950F50E0551F629FA7
:1017F000F001729FBB27F00DB11D639FAA27F00D6A
:10180000B11DAA1F649F6627B00DA11D661F829F90
:101810002227B00DA11D621F739FB00DA11D621F75
:10182000839FA00D611D221F749F3327A00D611D92
:10183000231F849F600D211D822F762F6A2F112474
:101840009F5750409AF0F1F088234AF0EE0FFF1FA7
:10185000BB1F661F771F881F91505040A9F79E3FFE
:10186000510580F00C948B0B0C94D60B5F3FE4F386
:10187000983ED4F3869577956795B795F795E79554
:101880009F5FC1F7FE2B880F911D9695879597F95D
:101890000895991B79E004C0991F961708F0961BCC
:1018A000881F7A95C9F780950895EE0FFF1F881F4E
:1018B0008BBF0790F691E02D199481E090E0F894A9
:0818C0000C94620CF894FFCFB8
:1018C800000000006203CB02F902AF032A030803F9
:0218D8001C03EF
:00000001FF
