:100000000C9457010C9488010C9488010C9488017D
:100010000C9488010C9488010C9488010C9488013C
:100020000C9488010C9488010C9488010C9488012C
:100030000C9488010C94F2060C9488010C948801AD
:100040000C9488010C94A5070C9488010C948801E9
:100050000C9488010C9488010C9488010C94E80598
:100060000C9488010C94BC060C9492060C948801A4
:100070000C9488010C9488010C9488010C948801DC
:100080000C9477070C9488010C9488010C948801D7
:100090000C945C060C9432060C9488010C94880134
:1000A0000C9488010C9488010C9449070C948801E5
:1000B0000C9488010C9488010C9488010C941B0703
:1000C0000C9488010C9488010C9488010C9488018C
:1000D0000C9488010C9488010C9488010C9488017C
:1000E0000C9488010C946C020C945A020C94910D9F
:1000F0000C94190E0C94960D0C9455020C947802E5
:100100000C94E20D0C94AA0D0C9426030C94C303DA
:100110000C94A00D0C94D3070C94A1020C94D80D50
:100120000C94A7020C94AB020C948F020C948502E1
:100130000C94CE0D0C94230E0C9403030C948B02A0
:100140000C9481020C948C0D0C949D020C94050E61
:100150000C94F10D0C9474020C94FB0D0C94B40DE2
:100160000C9412030C9470020C9499020C940F0ED0
:100170000C94D6020C94BC0D0C947B020C9493024C
:100180000C9476030C94C40D0C94340300000A0BF9
:1001900002090C0D0E080703040100000000000016
:1001A000000000000000000000000000000000004F
:1001B000000000000000000012111000000000000C
:1001C000000000000000000000000000000000002F
:1001D000000000002100240027002A002D0030002C
:1001E000330001010000040107010A0100002000A2
:1001F0002300260029002C002F00320000010000FF
:1002000003010601090100002200250028002B003F
:100210002E003100340002010000050108010B012D
:1002200005050505070508080808020202020A0A72
:100230000808040404040101010101010101030390
:10024000030303030303040707070C0C0C0C0C0C3B
:100250000C0C0202020206060606060606060B0B38
:100260000B0B0B0B0B0B0102102020080810204079
:10027000102040800201020108040201010204086A
:1002800010204080804020100804020180040201F8
:100290008040201008040201080402010102040841
:1002A000102040800102040810204080D307112450
:1002B0001FBECFEFD1E2DEBFCDBF00E00CBF12E02A
:1002C000A0E0B2E0E0E5F6E200E00BBF02C007907C
:1002D0000D92A03BB107D9F724E0A0EBB2E001C03A
:1002E0001D92A43FB207E1F711E0C7E5D1E000E0BD
:1002F00006C021970109802FFE010E940811C63512
:10030000D10780E00807A9F70E94A7080C942613DC
:100310000C94000090E0FC01EA59FD4F2491805EAE
:100320009D4FFC018491882399F090E0880F991FDC
:10033000FC01EE52FE4FA591B491FC01EA5FFD4F26
:10034000859194918FB7F894EC91E22BEC938FBF49
:100350000895CF92DF92EF92FF92DC01A03282E00B
:10036000B807D4F5A53BB10514F0A4EBB0E040917B
:10037000EE0428E830E0241B310947FD3395220FB5
:10038000331F220F331F6901330FEE08FF0840911E
:10039000EF0428E532E0241B310947FD3395220F95
:1003A000331F220F331F032E000C440B550B2C1947
:1003B0003D094E095F09B7FF02C0B0E0A0E00E940E
:1003C000AB0F24EB30E040E050E00E94810FC20E02
:1003D000D31EE41EF51ED601E091ED04E03380F556
:1003E0002091EE0488E890E0821B910927FD939507
:1003F000880F991F880F991FA817B90784F02091BB
:10040000EF0488E592E0821B910927FD9395880F00
:10041000991F880F991FA817B9070CF4CD010297EF
:10042000880F991F4FB7F8942E2F30E0F901EE0F87
:10043000FF1FE20FF31FE65BFB4F928381834FBFE9
:10044000FF90EF90DF90CF900895282F30E0F901D2
:10045000E457FE4F9491F901EA59FD4F4491205E13
:100460003D4FF9012491222309F435C0992311F15C
:1004700091509231F8F4E92FF0E08827ED5BFD4FC1
:100480008F4F0C9408117402780255026C027002AE
:100490005A027B02810285028B028F02930299022B
:1004A0009D025A02A102A702AB02809180008F77C1
:1004B00080938000E22FF0E0EE0FFF1FEA5FFD4F18
:1004C000A591B4918FB7F894EC91611148C0409513
:1004D0004E234C938FBF0895809180008F7DE8CF8D
:1004E00080918000877FE4CF84B58F7784BDE2CF91
:1004F00084B58F7DFBCF8091B0008F778093B00063
:10050000D9CF8091B0008F7DF9CF809190008F7707
:1005100080939000CFCF809190008F7DF9CF809114
:100520009000877FF5CF8091A0008F778093A00007
:10053000C1CF8091A0008F7DF9CF8091A000877FEF
:10054000F5CF809120018F7780932001B3CF8091E8
:1005500020018F7DF9CF80912001877FF5CF4E2B31
:10056000B8CF3FB7F89480910C0390910D03A09100
:100570000E03B0910F0326B5A89B05C02F3F19F0BD
:100580000196A11DB11D3FBFBA2FA92F982F882713
:10059000BC01CD01620F711D811D911D42E0660FEE
:1005A000771F881F991F4A95D1F70895AF92BF9280
:1005B000CF92DF92EF92FF920F931F93CF93DF932F
:1005C0006C017B018B01040F151FEB015E01AE185E
:1005D000BF08C017D10759F06991D601ED91FC9180
:1005E0000190F081E02DC6011995892B79F7C5019D
:1005F000DF91CF911F910F91FF90EF90DF90CF90FF
:10060000BF90AF900895FC01538D448D252F30E0AD
:10061000842F90E0821B930B541710F0CF9608950F
:1006200001970895FC01918D828D981761F0A28D3C
:10063000AE0FBF2FB11D5D968C91928D9F5F9F7302
:10064000928F90E008958FEF9FEF0895FC01918DB8
:10065000828D981731F0828DE80FF11D858D90E025
:1006600008958FEF9FEF0895FC01918D228D892FC2
:1006700090E0805C9F4F821B91098F7399270895AA
:1006800080E193E00E94340321E0892B09F420E00B
:10069000822F08958DEA93E00E94340321E0892B94
:1006A00009F420E0822F0895FC01A48DA80FB92F32
:1006B000B11DA35ABF4F2C91848D90E001968F738A
:1006C0009927848FA689B7892C93A089B1898C91A9
:1006D000837080648C93938D848D981306C00288F8
:1006E000F389E02D80818F7D80830895EF92FF92C2
:1006F0000F931F93CF93DF93EC0181E0888F9B8D45
:100700008C8D98131AC0E889F989808185FF15C0FE
:100710009FB7F894EE89FF896083E889F989808121
:100720008370806480839FBF81E090E0DF91CF91F0
:100730001F910F91FF90EF900895F62E0B8D10E012
:100740000F5F1F4F0F731127E02E8C8D8E110CC081
:100750000FB607FCFACFE889F989808185FFF5CFCC
:10076000CE010E945403F1CFEB8DEC0FFD2FF11D54
:10077000E35AFF4FF0829FB7F8940B8FEA89FB8909
:1007800080818062CFCFCF93DF93EC01888D882367
:10079000B9F0AA89BB89E889F9898C9185FD03C0E4
:1007A000808186FD0DC00FB607FCF7CF8C9185FFC9
:1007B000F2CF808185FFEDCFCE010E945403E9CFB7
:1007C000DF91CF91089580E090E0892B29F00E947D
:1007D0004A0381110E94000080E090E0892B29F0FB
:1007E0000E94400381110E94000080E090E0892B6C
:1007F00049F080E090E0892B29F00E9400008111EF
:100800000E94000080E090E0892B49F080E090E0B9
:10081000892B29F00E94000081110C94000008959A
:10082000AF92BF92CF92DF92EF92FF920F931F93FE
:10083000CF93DF936B017A01EC01CC54DD4F28811B
:100840003CE0389F8001399F100D1124A090DA04FC
:10085000B12C27FF1FC0FB011182108288818F5F9E
:10086000888388819801280F311D87FD3A95F6010C
:100870002A153B051CF488818C30C4F1808191815C
:10088000049680349C4908F473C0F60180819181FC
:10089000049670C088819801280F311D87FD3A9514
:1008A0002A153B05DCF68881A801480F511D87FDFC
:1008B0005A95FA01EE0FFF1FE40FF51FE65BFB4FA1
:1008C000808186FFCBCF8881F801E80FF11D87FD7D
:1008D000FA95CF01EE0FFF1FE80FF91FE65BFB4F04
:1008E000808160E08F730E942502B8CF8081918162
:1008F0002881A801420F511D27FD5A959A01FA013E
:10090000EE0FFF1FE20FF31FE65BFB4F21813281E9
:10091000820F931FF7019183808388819801280FAC
:10092000311D87FD3A95F901EE0FFF1FE20FF31F0E
:10093000E65BFB4F808186FF22C08881080F111D76
:1009400087FD1A95F801EE0FFF1FE00FF11FE65B20
:10095000FB4F808161E08F73DF91CF911F910F91E9
:10096000FF90EF90DF90CF90BF90AF900C94250256
:1009700080E49CE9F701918380838FEF8883DF9186
:10098000CF911F910F91FF90EF90DF90CF90BF908C
:10099000AF900895FC0101900020E9F73197AF0175
:1009A000481B590BBC018DEA93E00C94D6028F9240
:1009B0009F92AF92BF920F931F93CF93DF93CDB7C8
:1009C000DEB7A1970FB6F894DEBF0FBECDBF19A258
:1009D000423008F44AE08E010F5D1F4F842E912CA7
:1009E000B12CA12CA50194010E94B30FE62FB901EF
:1009F000CA01EA30F4F4E05DD801EE938D01232BB7
:100A0000242B252B79F790E080E0109719F0CD0189
:100A10000E94CA04A1960FB6F894DEBF0FBECDBFE8
:100A2000DF91CF911F910F91BF90AF909F908F90CA
:100A30000895E95CE1CFCF92DF92EF92FF92CF93DE
:100A4000DF936B017C016DE28DEA93E00E947603F7
:100A5000EC0166277727CB016C197D098E099F0968
:100A60004AE00E94D7048C0F9D1FDF91CF91FF9029
:100A7000EF90DF90CF9008950C94CA04CF93DF934A
:100A80000E94CA04EC0182E392E00E94CA048C0F27
:100A90009D1FDF91CF910895BC01990F880B990B91
:100AA00097FD0C941B054AE00C94D704CF93DF9379
:100AB0000E944C05EC0182E392E00E94CA048C0F74
:100AC0009D1FDF91CF9108950F931F93CF93DF93D5
:100AD000EC0188819981009759F02A813B81261782
:100AE000370730F081E0DF91CF911F910F9108958A
:100AF0008B016F5F7F4F0E943512009759F09983E9
:100B000088831B830A832C813D81232B59F7FC01A9
:100B10001082E8CF80E0E7CFCF93DF93EC018881AC
:100B20009981009711F00E94AC11198218821D82E0
:100B30001C821B821A82DF91CF910895CF92DF929F
:100B4000EF92FF920F931F93CF93DF93CDB7DEB752
:100B500062970FB6F894DEBF0FBECDBF8C01CB01FC
:100B6000F8011182108213821282158214824AE0E7
:100B70009E012F5F3F4F6901B9010E94280EF601C7
:100B800001900020E9F731977F01EC18FD08B701CB
:100B9000C8010E946405811112C0C8010E948C0521
:100BA00062960FB6F894DEBF0FBECDBFDF91CF9136
:100BB0001F910F91FF90EF90DF90CF900895F80173
:100BC000F582E482B601808191810E941F13E8CFF3
:100BD0001F920F920FB60F9211242F933F938F9372
:100BE0009F93AF93BF938091080390910903A091C5
:100BF0000A03B0910B033091070323E0230F2D3735
:100C000058F50196A11DB11D209307038093080399
:100C100090930903A0930A03B0930B0380910C03F4
:100C200090910D03A0910E03B0910F030196A11DA9
:100C3000B11D80930C0390930D03A0930E03B0930A
:100C40000F03BF91AF919F918F913F912F910F9083
:100C50000FBE0F901F90189526E8230F0296A11D36
:100C6000B11DD2CF1F920F920FB60F9211240BB667
:100C70000F922F933F934F935F936F937F938F9335
:100C80009F93AF93BF93EF93FF9380E193E00E9414
:100C90005403FF91EF91BF91AF919F918F917F91FD
:100CA0006F915F914F913F912F910F900BBE0F90DD
:100CB0000FBE0F901F9018951F920F920FB60F92B4
:100CC00011240BB60F922F938F939F93EF93FF9363
:100CD000E0912003F09121038081E0912603F091BF
:100CE000270382FD1DC09081809129038F5F8F7340
:100CF00020912A03821741F0E0912903F0E0E05FA0
:100D0000FC4F958F80932903FF91EF919F918F91D5
:100D10002F910F900BBE0F900FBE0F901F90189544
:100D20008081F2CF1F920F920FB60F9211240BB653
:100D30000F922F933F934F935F936F937F938F9374
:100D40009F93AF93BF93EF93FF938DEA93E00E943D
:100D50005403FF91EF91BF91AF919F918F917F913C
:100D60006F915F914F913F912F910F900BBE0F901C
:100D70000FBE0F901F9018951F920F920FB60F92F3
:100D800011240BB60F922F938F939F93EF93FF93A2
:100D9000E091BD03F091BE038081E091C303F09127
:100DA000C40382FD1DC090818091C6038F5F8F7345
:100DB0002091C703821741F0E091C603F0E0E355AC
:100DC000FC4F958F8093C603FF91EF919F918F9178
:100DD0002F910F900BBE0F900FBE0F901F90189584
:100DE0008081F2CF1F920F920FB60F9211240BB693
:100DF0000F922F933F934F935F936F937F938F93B4
:100E00009F93AF93BF93EF93FF93F0E0E0E01995CA
:100E1000FF91EF91BF91AF919F918F917F916F91D2
:100E20005F914F913F912F910F900BBE0F900FBE8E
:100E30000F901F9018951F920F920FB60F921124CA
:100E40000BB60F922F933F934F935F936F937F93C4
:100E50008F939F93AF93BF93EF93FF9348E251E03B
:100E600064E271E090E080E00E941004FF91EF9155
:100E7000BF91AF919F918F917F916F915F914F91B2
:100E80003F912F910F900BBE0F900FBE0F901F90B0
:100E900018951F920F920FB60F9211240BB60F9256
:100EA0002F933F934F935F936F937F938F939F9372
:100EB000AF93BF93EF93FF9348EA50E064EA70E08A
:100EC00083E090E00E941004FF91EF91BF91AF91F9
:100ED0009F918F917F916F915F914F913F912F9152
:100EE0000F900BBE0F900FBE0F901F9018951F9282
:100EF0000F920FB60F9211240BB60F922F933F93C0
:100F00004F935F936F937F938F939F93AF93BF9311
:100F1000EF93FF9348E950E064E970E082E090E0ED
:100F20000E941004FF91EF91BF91AF919F918F911B
:100F30007F916F915F914F913F912F910F900BBED9
:100F40000F900FBE0F901F9018951F920F920FB623
:100F50000F9211240BB60F922F933F934F935F93F1
:100F60006F937F938F939F93AF93BF93EF93FF9371
:100F700048E850E064E870E081E090E00E941004EE
:100F8000FF91EF91BF91AF919F918F917F916F9161
:100F90005F914F913F912F910F900BBE0F900FBE1D
:100FA0000F901F901895109213031092120348EEA1
:100FB00053E060E070E04093140350931503609396
:100FC00016037093170384E292E0909311038093C9
:100FD00010032DEC30E030931D0320931C032CEC08
:100FE00030E030931F0320931E0328EC30E0309351
:100FF00021032093200329EC30E030932303209336
:1010000022032AEC30E030932503209324032EECB6
:1010100030E0309327032093260310922903109287
:101020002A0310922B0310922C031092B0031092FB
:10103000AF034093B1035093B2036093B303709333
:10104000B4039093AE038093AD0385EC90E090934E
:10105000BA038093B90384EC90E09093BC0380932F
:10106000BB0380EC90E09093BE038093BD0381ECC2
:1010700090E09093C0038093BF0382EC90E0909344
:10108000C2038093C10386EC90E09093C4038093E5
:10109000C3031092C6031092C7031092C8031092A4
:1010A000C9038091DA04803308F04DC091E0980FB5
:1010B0009093DA048093ED0490E0FC01EE0FFF1FA3
:1010C000E80FF91FE65BFB4F88EB9BE0928381837F
:1010D000E0E7F2E084918093DF04E491E093E004A0
:1010E0008AE292E0FC012491E22FF0E0EE0FFF1F74
:1010F000EA5FFD4F259134913093E2042093E1049F
:10110000FC012491E22FF0E0EE0FFF1FE451FE4FAF
:10111000259134913093E4042093E304FC018491FD
:10112000E82FF0E0EE0FFF1FEE52FE4F85919491F5
:101130009093E6048093E50481E299E09093E804BB
:101140008093E70408958FEF8093ED04C1CFCF9390
:10115000DF93CDB7DEB72E970FB6F894DEBF0FBE84
:10116000CDBF789484B5826084BD84B5816084BD30
:1011700085B5826085BD85B5816085BD80916E0035
:10118000816080936E001092810080918100826066
:1011900080938100809181008160809381008091A3
:1011A00080008160809380008091B1008460809392
:1011B000B1008091B00081608093B0008091910077
:1011C0008260809391008091910081608093910072
:1011D000809190008160809390008091A100826056
:1011E0008093A1008091A10081608093A1008091F3
:1011F000A00081608093A000809121018260809393
:101200002101809121018160809321018091200141
:1012100081608093200180917A00846080937A00BD
:1012200080917A00826080937A0080917A00816058
:1012300080937A0080917A00806880937A0010927F
:10124000C10088E00E948A0187E00E948A0186E04E
:101250000E948A01E091BD03F091BE0382E0808389
:10126000E091B903F091BA031082E091BB03F091D1
:10127000BC0380E180831092C503E091C103F0912B
:10128000C20386E08083E091BF03F091C0038081B8
:1012900080618083E091BF03F091C003808188600A
:1012A0008083E091BF03F091C003808180688083D8
:1012B000E091BF03F091C00380818F7D8083809196
:1012C000ED04803308F051C08CE00E948A018091C7
:1012D000ED04282F30E0F901EE0FFF1FE20FF31F9E
:1012E000E65BFB4F9081907C9C6090831092EE04B3
:1012F0001092EF042CE0622F0E94FC10829FB0013C
:10130000112430E020E0AB01420F531FFA01EE0F31
:10131000FF1FE40FF51FE65BFB4F908196FD17C0A2
:101320002F5F3F4F2C30310571F7813009F0D4C267
:101330001092800082E080938100109285001092CC
:101340008400B19A80916F00826080936F00E09179
:10135000ED048E2F90E0FC01EE0FFF1FE80FF91F48
:10136000E65BFB4F8081806480830E94B1024B0169
:101370005C0112E3C12ED12CE12CF12C0E94B102B0
:10138000681979098A099B09683E734081059105AE
:10139000A8F301E0C01AD108E108F10818EE810EA7
:1013A00013E0911EA11CB11CC114D104E104F1048D
:1013B00029F787E590E00E94A901BCEE2B2EB2E050
:1013C0003B2E8FEF93E090930302809302021092E2
:1013D000010210920002AAE08A2EA2E09A2E0CEEE0
:1013E00012E01E870D87680110E090917B00977FC7
:1013F000812F887F892B80937B00812F8770806469
:1014000080937C0080917A00806480937A00809140
:101410007A0086FDFCCF6091780080917900F4011C
:10142000219131914F01782F620F731FF601619363
:1014300071936F01809102029091030268177907FE
:1014400024F4709303026093020280910002909151
:1014500001028617970724F470930102609300023B
:10146000CE0101960E949E0518861F821A86198653
:101470001C861B86E980FA80E114F10469F06D8016
:101480007E80B301CE0107960E946405811150C28F
:10149000CE0107960E948C05EB84FC84FFEFEF1AC7
:1014A000FF0AB701CE0107960E946405882309F45C
:1014B00047C22F8138858B859C8565E372E0820F5A
:1014C000931F0E941F13FC86EB864B855C856F8102
:1014D00078858DEA93E00E94D6028F8198850E94DC
:1014E000AC1189819A810E94AC111F5F1B3009F0F9
:1014F0007CCF87E692E00E943C0588E892E00E945B
:101500003C0580910002909101020E944C0588E602
:1015100092E00E943C0587E392E00E943C058091A6
:101520000202909103020E944C058AE392E00E941D
:101530003C056091000270910102072E000C880B9F
:10154000990B0E94640E6B017C0160910202709104
:101550000302072E000C880B990B0E94640E9B015E
:10156000AC01C701B6010E9451106B017C012B0137
:101570003C01AC019B010E94F710882309F4E5C1EE
:1015800084E492E00E94CA0480E592E00E943C0557
:10159000F6EDEF2EF2E0FF2E8701ED85FE856191DD
:1015A0007191FE87ED8720910002309101024091F8
:1015B000020250910302C901841B950B97FD03960B
:1015C0009595879595958795281B390B6217730715
:1015D0000CF44FC2CA01880F991F480F591F641796
:1015E00075070CF446C221E030E0F8013183208316
:1015F000F801619171918F01CE0101960E949E05C3
:101600004D815E8169817A818DEA93E00E94D602E4
:1016100089819A810E94AC1122E033E08D859E85FC
:101620002817390709F0B9CF1092D5021092D402C9
:101630001092D3021092D2021092D1021092D002D4
:101640001092CF021092CE0284E592E00E943C05F7
:1016500008EB12E0F701819191917F01F8018193EC
:1016600091938F010E944C052E143F0499F76091CD
:10167000D4027091D5022091D0023091D1024091D4
:10168000D2025091D3028091CE029091CF02EEEC23
:10169000F2E0A8EBB2E00D911D91012B09F0EDC134
:1016A0006115710511F42F5F3F4F12910291012BCB
:1016B00009F0E6C14115510509F4019608EB12E065
:1016C0000E171F0741F77093D5026093D402509311
:1016D000D3024093D2029093CF028093CE023093F4
:1016E000D1022093D0028901081B190B6801012E39
:1016F000000CEE08FF08820F931F90930403809361
:10170000030389E692E00E943E0588E592E00E948C
:101710003C0580910303909104030E94560587E6DF
:1017200092E00E943C05F7FEAEC1C701B6010E94DF
:101730001B0587E692E00E943C058BE692E00E9442
:101740003C0588E792E00E943C058091D002909190
:10175000D1020E944C058EE792E00E943C058091E8
:10176000CE029091CF020E944C0584E892E00E9444
:101770003C058091D4029091D5020E944C058BE8E3
:1017800092E00E943C058091D2029091D3020E9487
:101790004C0582E992E00E943C058091D002909134
:1017A000CE02890F80930203082E000C990B0E9431
:1017B000560510930603009305038DE992E00E94FD
:1017C0003C0580910503909106030E944C05809191
:1017D0000503909106039C01215031092B303105FE
:1017E00008F057C186EA92E00E943E05A0900503EA
:1017F000B090060365010B2C000CEE08FF08A70152
:1018000096012B50310941095109A0ECBFEF0E940C
:10181000AE0F2AEE3FEF4FEF5FEF0E94810F2901DD
:101820003A0187E7480E511C611C711C809003032C
:101830009090040396E18916910439F08091020397
:1018400087301CF0C2010E94A901A7019601B7FCD4
:101850002DC12550310941095109A6EFBFEF0E9462
:10186000AE0F26E030E040E050E00E94810F890199
:101870009A010F561F4F2F4F3F4FE4E0AE0EB11CA1
:10188000F9E0AF16B10410F401E910E061E087E07F
:101890000E94250260E086E00E94250226E1821671
:1018A000910409F416C10F3F110509F00CC161E064
:1018B00088E00E94250287E692E00E943C05C20172
:1018C0000E944C0587E692E00E943C05C8010E94F8
:1018D00056050E94E30375CD823061F410929000AA
:1018E00080939100109295001092940088BB809391
:1018F00071002DCD833069F41092A00082E08093B6
:10190000A1001092A5001092A40089BB80937200E0
:101910001ECD81111CCD1092200182E08093210107
:1019200010922501109224018ABB809373000FCD81
:101930007C866B86B7018F8198850E941F13ACCD82
:10194000CE0107960E948C05C0CD46015701E89450
:10195000B7F82FEF3FEF4FE75FE7C501B4010E94F3
:10196000F71081110DC02FEF3FEF4FE75FE7C50183
:10197000B4010E945D0E18161CF488E492E002CEB9
:101980002FEF3FEF4FE75FE4C701B6010E94F2106F
:1019900018161CF48CE492E0F5CD2FEF3FEF4FE7E3
:1019A0005FECC701B6010E945D0E87FDF3CF20E01A
:1019B00030E0A901C701B6010E945D0E87FF0BC090
:1019C0006DE28DEA93E00E9476032601370177FAF3
:1019D000709477F870942AE037ED43EA5BE3C30133
:1019E000B2010E94E50F2B013C010E94C3106B0164
:1019F0007C010E94620E9B01AC01C301B2010E94F6
:101A0000E40F2B013C014AE0C701B6010E94D70454
:101A10006EE28DEA93E00E94760320E030E040E23F
:101A200051E4C301B2010E94C30E2B013C010E948C
:101A3000C3106B01F12CE12C4AE0C701B6010E94F2
:101A4000D704C701B6010E94620E9B01AC01C3011D
:101A5000B2010E94E40F20E030E040E251E40E9435
:101A6000C30E0E94C31090E080E04AE00E94D704B9
:101A70008BCDF80111821082BBCD6F5F7F4F15CEE9
:101A80004F5F5F4F1BCE4AE0C701B6010E94D704EB
:101A900050CE853F1FEF910718F089EA92E0A4CE5F
:101AA000892B09F0A3CE8CEA92E09ECE2B5F3F4FAC
:101AB0004F4F5F4FA6EFBFEF0E94AE0F2AEF3FEFF1
:101AC0004FEF5FEFD2CE88E00E948A010115110529
:101AD00011F460E0EDCEE4E9F1E08491EFEFE80F7E
:101AE000E23108F0B0C0F0E08827E658F24F8F4F9F
:101AF0000C9408118C0D910D960DA00DAA0D230EBE
:101B0000B40DBC0DC40DCE0DD80DE20DF10DFB0DC5
:101B1000230E050E0F0E190E84B5806884BD07BD17
:101B2000CACE84B5806284BD08BDC5CE80918000D8
:101B30008068809380001093890000938800BBCE5A
:101B40008091800080628093800010938B000093CE
:101B50008A00B1CE809180008860809380001093CD
:101B60008D0000938C00A7CE8091B0008068809398
:101B7000B0000093B3009FCE8091B000806280934C
:101B8000B0000093B40097CE80919000806880935D
:101B9000900010939900009398008DCE8091900052
:101BA00080628093900010939B0000939A0083CEF4
:101BB0008091900088608093900010939D00009326
:101BC0009C0079CE8091A00080688093A0008091D5
:101BD000A0008F7B8093A0001093A9000093A80021
:101BE0006ACE8091A00080628093A0001093AB0029
:101BF0000093AA0060CE8091A00088608093A0002E
:101C00001093AD000093AC0056CE80912001806807
:101C10008093200110932901009328014CCE8091DC
:101C2000200180628093200110932B0100932A01F0
:101C300042CE8091200188608093200110932D0175
:101C400000932C0138CE003811050CF030CE41CF76
:101C5000BB274A3031F4992322F4BDE29095819557
:101C60009F4F0C94340EBB27FB015527AA27880FE2
:101C7000991FAA1FA41710F0A41B83955051B9F700
:101C8000A05DAA3308F0A95DA193009779F7B1117F
:101C9000B1931192CB010C944D0EDC01FC01672F26
:101CA00071917723E1F7329704C07C916D93708333
:101CB0006291AE17BF07C8F308950E949F0E08F403
:101CC00081E00895E89409C097FB3EF490958095D3
:101CD000709561957F4F8F4F9F4F9923A9F0F92FF2
:101CE00096E9BB279395F695879577956795B79570
:101CF000F111F8CFFAF4BB0F11F460FF1BC06F5F56
:101D00007F4F8F4F9F4F16C0882311F096E911C067
:101D1000772321F09EE8872F762F05C0662371F088
:101D200096E8862F70E060E02AF09A95660F771F9C
:101D3000881FDAF7880F9695879597F90895990F78
:101D40000008550FAA0BE0E8FEEF16161706E80785
:101D5000F907C0F012161306E407F50798F0621BA6
:101D6000730B840B950B39F40A2661F0232B242B7B
:101D7000252B21F408950A2609F4A140A6958FEF9A
:101D8000811D811D08950E94D60E0C94470F0E945C
:101D9000390F38F00E94400F20F0952311F00C9479
:101DA000300F0C94360F11240C947B0F0E94580FA7
:101DB00070F3959FC1F3950F50E0551F629FF0019E
:101DC000729FBB27F00DB11D639FAA27F00DB11DB7
:101DD000AA1F649F6627B00DA11D661F829F222740
:101DE000B00DA11D621F739FB00DA11D621F839FC7
:101DF000A00D611D221F749F3327A00D611D231F9D
:101E0000849F600D211D822F762F6A2F11249F57EA
:101E100050409AF0F1F088234AF0EE0FFF1FBB1FED
:101E2000661F771F881F91505040A9F79E3F5105AC
:101E300080F00C94300F0C947B0F5F3FE4F3983EDE
:101E4000D4F3869577956795B795F795E7959F5F56
:101E5000C1F7FE2B880F911D9695879597F90895E8
:101E600097F99F6780E870E060E008959FEF80EC4D
:101E7000089500240A9416161706180609060895F0
:101E800000240A9412161306140605060895092E56
:101E90000394000C11F4882352F0BB0F40F4BF2BC5
:101EA00011F460FF04C06F5F7F4F8F4F9F4F089505
:101EB00057FD9058440F551F59F05F3F71F04795FB
:101EC000880F97FB991F61F09F3F79F087950895E0
:101ED000121613061406551FF2CF4695F1DF08C0FF
:101EE000161617061806991FF1CF8695710561051C
:101EF00008940895E894BB2766277727CB0197F9C4
:101F00000895052E97FB1EF400940E94980F57FD2C
:101F100007D00E94B30F07FC03D04EF40C94980F27
:101F200050954095309521953F4F4F4F5F4F089505
:101F300090958095709561957F4F8F4F9F4F089535
:101F40000E94D50FA59F900DB49F900DA49F800D6A
:101F5000911D11240895B7FF0C94A00F0E94A00FAB
:101F6000821B930B0895A1E21A2EAA1BBB1BFD0135
:101F70000DC0AA1FBB1FEE1FFF1FA217B307E40768
:101F8000F50720F0A21BB30BE40BF50B661F771FC0
:101F9000881F991F1A9469F76095709580959095A0
:101FA0009B01AC01BD01CF010895A29FB001B39F79
:101FB000C001A39F700D811D1124911DB29F700D52
:101FC000811D1124911D08955058BB27AA270E94F6
:101FD000FC0F0C94470F0E94390F38F00E94400FFD
:101FE00020F039F49F3F19F426F40C94360F0EF4C8
:101FF000E095E7FB0C94300FE92F0E94580F58F33F
:10200000BA17620773078407950720F079F4A6F5DD
:102010000C947A0F0EF4E0950B2EBA2FA02D0B0125
:10202000B90190010C01CA01A0011124FF27591B1D
:1020300099F0593F50F4503E68F11A16F040A22F23
:10204000232F342F4427585FF3CF46953795279594
:10205000A795F0405395C9F77EF41F16BA0B620B93
:10206000730B840BBAF09150A1F0FF0FBB1F661FDA
:10207000771F881FC2F70EC0BA0F621F731F841F1D
:1020800048F4879577956795B795F7959E3F08F043
:10209000B0CF9395880F08F09927EE0F9795879505
:1020A00008950E9465100C94470F0E94400F58F04D
:1020B0000E94390F40F029F45F3F29F00C94300F53
:1020C00051110C947B0F0C94360F0E94580F68F33B
:1020D0009923B1F3552391F3951B550BBB27AA27E1
:1020E00062177307840738F09F5F5F4F220F331F1B
:1020F000441FAA1FA9F335D00E2E3AF0E0E832D0E3
:1021000091505040E695001CCAF72BD0FE2F29D0E5
:10211000660F771F881FBB1F261737074807AB07B7
:10212000B0E809F0BB0B802DBF01FF2793585F4F2C
:102130003AF09E3F510578F00C94300F0C947B0FD1
:102140005F3FE4F3983ED4F3869577956795B7950E
:10215000F7959F5FC9F7880F911D9695879597F919
:102160000895E1E0660F771F881FBB1F6217730792
:102170008407BA0720F0621B730B840BBA0BEE1FA7
:1021800088F7E09508950E94600F88F09F5798F0B7
:10219000B92F9927B751B0F0E1F0660F771F881F6C
:1021A000991F1AF0BA95C9F714C0B13091F00E9486
:1021B0007A0FB1E008950C947A0F672F782F882753
:1021C000B85F39F0B93FCCF3869577956795B395AD
:1021D000D9F73EF490958095709561957F4F8F4F1C
:1021E0009F4F08950E949F0E08F48FEF08950E945C
:1021F0009F0E880B990B0895991B79E004C0991FD5
:10220000961708F0961B881F7A95C9F78095089550
:10221000EE0FFF1F881F8BBF0790F691E02D1994DA
:102220000F931F93CF93DF938230910510F482E0D8
:1022300090E0E091F204F091F30430E020E0B0E0AF
:10224000A0E0309799F42115310509F44AC0281B04
:10225000390B24303105D8F58A819B8161157105D0
:1022600089F1FB0193838283FE0111C0408151817A
:102270000281138148175907E0F04817590799F46C
:10228000109761F012960C93129713961C93329646
:10229000CF01DF91CF911F910F9108950093F20428
:1022A0001093F304F4CF2115310551F04217530771
:1022B00038F0A901DB019A01BD01DF01F801C1CFAE
:1022C000EF01F9CF9093F3048093F204CDCFFE0198
:1022D000E20FF31F819391932250310939832883B0
:1022E000D7CF2091F0043091F104232B41F42091B9
:1022F0000602309107023093F1042093F0042091FC
:102300000402309105022115310541F42DB73EB785
:102310004091080250910902241B350BE091F00412
:10232000F091F104E217F307A0F42E1B3F0B2817DE
:10233000390778F0AC014E5F5F4F2417350748F03E
:102340004E0F5F1F5093F1044093F00481939193DB
:102350009FCFF0E0E0E09CCFCF93DF930097E9F0D0
:10236000FC01329713821282A091F204B091F3041F
:10237000ED0130E020E01097A1F420813181820F3F
:10238000931F2091F0043091F1042817390709F0C8
:1023900061C0F093F104E093F004DF91CF910895D0
:1023A000EA01CE17DF07E8F54A815B819E014115FE
:1023B0005105B1F7E901FB83EA8349915991C40FB3
:1023C000D51FEC17FD0761F4808191810296840F7F
:1023D000951FE90199838883828193819B838A83F6
:1023E000F0E0E0E012968D919C9113970097B9F57B
:1023F0002D913C911197CD010296820F931F209150
:10240000F0043091F1042817390739F6309751F567
:102410001092F3041092F204B093F104A093F0042C
:10242000BCCFD383C28340815181840F951FC817CD
:10243000D90761F44E5F5F4F88819981480F591F1A
:10244000518340838A819B81938382832115310547
:1024500009F0B0CFF093F304E093F2049ECFFD01B6
:10246000DC01C0CF13821282D7CF4F925F926F925E
:102470007F928F929F92AF92BF92CF92DF92EF9214
:10248000FF920F931F93CF93DF938C01009799F4E2
:10249000CB01DF91CF911F910F91FF90EF90DF90D3
:1024A000CF90BF90AF909F908F907F906F905F90F4
:1024B0004F900C941011FC01E60FF71F9C01225065
:1024C0003109E217F30708F4AEC0D901CD91DC91D0
:1024D0001197C617D70720F1C530D10578F0CE0186
:1024E00004978617970750F0C61BD70B2297C19306
:1024F000D1936D937C93CF010E94AC11C801DF9101
:10250000CF911F910F91FF90EF90DF90CF90BF90F0
:10251000AF909F908F907F906F905F904F900895B5
:102520005B01AC1ABD0A4C018C0E9D1EA091F204F9
:10253000B091F304512C412CF12CE12C109731F582
:102540008091F0049091F1048815990509F05CC020
:102550004616570608F058C0809104029091050273
:10256000009741F48DB79EB740910802509109023F
:10257000841B950BE817F90708F055C0F093F10498
:10258000E093F004F90171836083B8CF8D919C9141
:10259000119712966C90129713967C901397A8152A
:1025A000B90559F56C0142E0C40ED11CCA14DB0414
:1025B00020F1AC014A195B09DA011296159780F0F7
:1025C0006282738251834083D9016D937C93E114BD
:1025D000F10471F0D7011396FC93EE9312978ECF0E
:1025E00022968C0F9D1FF90191838083F301EFCF19
:1025F000F093F304E093F20481CF4816590608F4EF
:102600002C017D01D3019ACFCB010E9410117C01D6
:10261000009749F0AE01B8010E941613C8010E944C
:10262000AC1187016BCF10E000E068CFFB01DC014B
:1026300002C001900D9241505040D8F70895FB011F
:10264000DC0101900D920020E1F70895F894FFCF8E
:10265000E80346000000F4048000F9FF0000D1FF09
:102660000000F0FFF3FF0000FFFFFFFFEFFF00009F
:10267000000000007603D6020303C30334031203F1
:1026800026030D0A002C00772000202020636F65B0
:1026900066205B006E616E00696E66006F76660094
:1026A0005D2020002046200077617463685F7472AB
:1026B00061636B5F76616C202020006C2C722C6C47
:1026C000622C7262203D20002020206C20002020FF
:1026D000207220002020206C6220002020207262C6
:1026E00020002020206C722073756D2000457272CE
:1026F0006F7220202000203E00203C00207C200023
:00000001FF
