:100000000C9459010C948A010C948A010C948A0175
:100010000C948A010C948A010C948A010C948A0134
:100020000C948A010C948A010C948A010C948A0124
:100030000C948A010C9434070C948A010C948A0164
:100040000C948A010C94E7070C948A010C948A01A1
:100050000C948A010C948A010C948A010C942A064F
:100060000C948A010C94FE060C94D4060C948A011C
:100070000C948A010C948A010C948A010C948A01D4
:100080000C94B9070C948A010C948A010C948A018F
:100090000C949E060C9474060C948A010C948A01AC
:1000A0000C948A010C948A010C948B070C948A019D
:1000B0000C948A010C948A010C948A010C945D07BB
:1000C0000C948A010C948A010C948A010C948A0184
:1000D0000C948A010C948A010C948A010C948A0174
:1000E0000C948A010C94A0030C94D0020C94D402BA
:1000F0000C942C030C94020E0C94B4020C94CA0DB4
:100100000C949D020C942F0E0C94430E0C94F00D45
:100110000C9483020C94ED030C94E80D0C94CA0229
:100120000C94B00D0C947E020C940C0E0C94FF02F7
:100130000C94D40D0C94A4020C94AE020C94250ED5
:100140000C9495020C945E030C94390E0C943C03B1
:100150000C94BC020C94B8020C9450030C94F80D4F
:100160000C94160E0C94C2020C94C6020C94A102BC
:100170000C94DE0D0C94C50D0C942D030C944D0EB7
:100180000C9415080C946E0C0C9499020C94AA0211
:1001900000000A0B02090C0D0E0807030401000001
:1001A000000000000000000000000000000000004F
:1001B000000000000000000000000000121110000C
:1001C000000000000000000000000000000000002F
:1001D00000000000000000002100240027002A0089
:1001E0002D003000330001010000040107010A0165
:1001F000000020002300260029002C002F003200E0
:100200000001000003010601090100002200250091
:1002100028002B002E0031003400020100000501EF
:1002200008010B0105050505070508080808020275
:1002300002020A0A08080404040401010101010180
:1002400001010303030303030303040707070C0C63
:100250000C0C0C0C0C0C020202020606060606062A
:1002600006060B0B0B0B0B0B0B0B010210202008CF
:100270000810204010204080020102010804020101
:100280000102040810204080804020100804020170
:1002900080040201804020100804020108040201C9
:1002A0000102040810204080010204081020408050
:1002B000150811241FBECFEFD1E2DEBFCDBF00E095
:1002C0000CBF12E0A0E0B2E0ECECF6E200E00BBF05
:1002D00002C007900D92AC3BB107D9F725E0ACEB1B
:1002E000B2E001C01D92A230B207E1F711E0C9E50A
:1002F000D1E000E006C021970109802FFE010E9495
:100300003711C835D10780E00807A9F70E94E9082E
:100310000C9464130C940000FC01A089B18982E064
:100320008C93A485B5851C92A685B78580E18C93B6
:10033000108EA489B58986E08C93A289B3898C91AB
:1003400080618C93A289B3898C9188608C93A289F7
:10035000B3898C9180688C930288F389E02D808129
:100360008F7D8083089590E0FC01E659FD4F249134
:100370008C5D9D4FFC018491882399F090E0880F5B
:10038000991FFC01EA52FE4FA591B491FC01E65F72
:10039000FD4F859194918FB7F894EC91E22BEC93FB
:1003A0008FBF0895CF92DF92EF92FF92DC01A032CF
:1003B00082E0B807D4F5A53BB10514F0A4EBB0E09A
:1003C0004091FC0428E830E0241B310947FD3395B7
:1003D000220F331F220F331F6901330FEE08FF086E
:1003E0004091FD0428E532E0241B310947FD339597
:1003F000220F331F220F331F032E000C440B550B0B
:100400002C193D094E095F09B7FF02C0B0E0A0E01A
:100410000E94DA0F24EB30E040E050E00E94B00F81
:10042000C20ED31EE41EF51ED601E091FB04E0339C
:1004300080F52091FC0488E890E0821B910927FD5B
:100440009395880F991F880F991FA817B90784F0F3
:100450002091FD0488E592E0821B910927FD939588
:10046000880F991F880F991FA817B9070CF4CD01A1
:100470000297880F991F4FB7F8942E2F30E0F9019B
:10048000EE0FFF1FE20FF31FEA5AFB4F92838183A7
:100490004FBFFF90EF90DF90CF900895282F30E06E
:1004A000F901E057FE4F9491F901E659FD4F44914F
:1004B0002C5D3D4FF9012491222309F435C0992385
:1004C00011F191509231F8F4E92FF0E08827E459C6
:1004D000FD4F8F4F0C9437119D02A1027E029502B1
:1004E00099028302A402AA02AE02B402B802BC02BC
:1004F000C202C6028302CA02D002D40280918000E6
:100500008F7780938000E22FF0E0EE0FFF1FE65F11
:10051000FD4FA591B4918FB7F894EC91611148C04B
:1005200040954E234C938FBF0895809180008F7D1E
:10053000E8CF80918000877FE4CF84B58F7784BD3A
:10054000E2CF84B58F7DFBCF8091B0008F77809311
:10055000B000D9CF8091B0008F7DF9CF809190000D
:100560008F7780939000CFCF809190008F7DF9CFCF
:1005700080919000877FF5CF8091A0008F77809346
:10058000A000C1CF8091A0008F7DF9CF8091A00005
:10059000877FF5CF809120018F7780932001B3CFA3
:1005A000809120018F7DF9CF80912001877FF5CF49
:1005B0004E2BB8CF3FB7F894809118039091190350
:1005C000A0911A03B0911B0326B5A89B05C02F3F2D
:1005D00019F00196A11DB11D3FBFBA2FA92F982F69
:1005E0008827BC01CD01620F711D811D911D42E064
:1005F000660F771F881F991F4A95D1F70895AF920C
:10060000BF92CF92DF92EF92FF920F931F93CF93FF
:10061000DF936C017B018B01040F151FEB015E0161
:10062000AE18BF08C017D10759F06991D601ED91F6
:10063000FC910190F081E02DC6011995892B79F785
:10064000C501DF91CF911F910F91FF90EF90DF9047
:10065000CF90BF90AF9008950895FC01538D448DC5
:10066000252F30E0842F90E0821B930B541710F05D
:10067000CF96089501970895FC01918D828D98176A
:1006800061F0A28DAE0FBF2FB11D5D968C91928D42
:100690009F5F9F73928F90E008958FEF9FEF089573
:1006A000FC01918D828D981731F0828DE80FF11D3C
:1006B000858D90E008958FEF9FEF0895FC01918D57
:1006C000228D892F90E0805C9F4F821B91098F7350
:1006D000992708958CE193E00E945E0321E0892B25
:1006E00009F420E0822F089589EB93E00E945E03D5
:1006F00021E0892B09F420E0822F0895FC01A48DCC
:10070000A80FB92FB11DA35ABF4F2C91848D90E033
:1007100001968F739927848FA689B7892C93A08916
:10072000B1898C91837080648C93938D848D9813A0
:1007300006C00288F389E02D80818F7D8083089533
:10074000EF92FF920F931F93CF93DF93EC0181E021
:10075000888F9B8D8C8D98131AC0E889F9898081C8
:1007600085FF15C09FB7F894EE89FF896083E889FB
:10077000F98980818370806480839FBF81E090E0ED
:10078000DF91CF911F910F91FF90EF900895F62E7A
:100790000B8D10E00F5F1F4F0F731127E02E8C8D14
:1007A0008E110CC00FB607FCFACFE889F989808159
:1007B00085FFF5CFCE010E947E03F1CFEB8DEC0FCC
:1007C000FD2FF11DE35AFF4FF0829FB7F8940B8F76
:1007D000EA89FB8980818062CFCFCF93DF93EC01E0
:1007E000888D8823B9F0AA89BB89E889F9898C9119
:1007F00085FD03C0808186FD0DC00FB607FCF7CFD5
:100800008C9185FFF2CF808185FFEDCFCE010E94D4
:100810007E03E9CFDF91CF91089580E090E0892BAE
:1008200029F00E94740381110E94000080E090E092
:10083000892B29F00E946A0381110E94000080E048
:1008400090E0892B49F080E090E0892B29F00E940C
:10085000000081110E94000080E090E0892B49F0A7
:1008600080E090E0892B29F00E94000081110C9417
:1008700000000895AF92BF92CF92DF92EF92FF9265
:100880000F931F93CF93DF936B017A01EC01CE534B
:10089000DD4F28813CE0389F8001399F100D1124E5
:1008A000A090E604B12C27FF1FC0FB01118210822B
:1008B00088818F5F888388819801280F311D87FD8B
:1008C0003A95F6012A153B051CF488818C30C4F159
:1008D00080819181049680349C4908F473C0F601AC
:1008E00080819181049670C088819801280F311D04
:1008F00087FD3A952A153B05DCF68881A801480F4B
:10090000511D87FD5A95FA01EE0FFF1FE40FF51FE9
:10091000EA5AFB4F808186FFCBCF8881F801E80F30
:10092000F11D87FDFA95CF01EE0FFF1FE80FF91FAC
:10093000EA5AFB4F808160E08F730E944E02B8CF6D
:10094000808191812881A801420F511D27FD5A9570
:100950009A01FA01EE0FFF1FE20FF31FEA5AFB4F55
:1009600021813281820F931FF701918380838881D7
:100970009801280F311D87FD3A95F901EE0FFF1FF1
:10098000E20FF31FEA5AFB4F808186FF22C0888165
:10099000080F111D87FD1A95F801EE0FFF1FE00FDC
:1009A000F11FEA5AFB4F808161E08F73DF91CF9195
:1009B0001F910F91FF90EF90DF90CF90BF90AF907D
:1009C0000C944E0280E49CE9F701918380838FEFC1
:1009D0008883DF91CF911F910F91FF90EF90DF906F
:1009E000CF90BF90AF900895FC0101900020E9F7EF
:1009F0003197AF01481B590BBC0189EB93E00C9474
:100A0000FF028F929F92AF92BF920F931F93CF934B
:100A1000DF93CDB7DEB7A1970FB6F894DEBF0FBE58
:100A2000CDBF19A2423008F44AE08E010F5D1F4F7E
:100A3000842E912CB12CA12CA50194010E94E20FCF
:100A4000E62FB901CA01EA30F4F4E05DD801EE9373
:100A50008D01232B242B252B79F790E080E0109734
:100A600019F0CD010E94F404A1960FB6F894DEBFF0
:100A70000FBECDBFDF91CF911F910F91BF90AF906F
:100A80009F908F900895E95CE1CFCF92DF92EF9233
:100A9000FF92CF93DF936B017C016DE289EB93E0D2
:100AA0000E94A003EC0166277727CB016C197D0912
:100AB0008E099F094AE00E9401058C0F9D1FDF915E
:100AC000CF91FF90EF90DF90CF9008950C94F404B5
:100AD000CF93DF930E94F404EC0182E392E00E9442
:100AE000F4048C0F9D1FDF91CF910895BC01990FE5
:100AF000880B990B97FD0C9445054AE00C94010571
:100B0000CF93DF930E947605EC0182E392E00E948E
:100B1000F4048C0F9D1FDF91CF9108958CE193E039
:100B20000E945E03892B41F08CE193E00E943C031C
:100B30009093C1028093C00285E392E00E94660513
:100B40008091C0029091C1020C9480050F931F9375
:100B5000CF93DF93EC0188819981009759F02A8126
:100B60003B812617370730F081E0DF91CF911F914D
:100B70000F9108958B016F5F7F4F0E947312009752
:100B800059F0998388831B830A832C813D81232B11
:100B900059F7FC011082E8CF80E0E7CFCF93DF93D5
:100BA000EC0188819981009711F00E94EA11198265
:100BB00018821D821C821B821A82DF91CF910895B8
:100BC000CF92DF92EF92FF920F931F93CF93DF9319
:100BD000CDB7DEB762970FB6F894DEBF0FBECDBFBC
:100BE0008C01CB01F80111821082138212821582CE
:100BF00014824AE09E012F5F3F4F6901B9010E94B4
:100C0000570EF60101900020E9F731977F01EC18AB
:100C1000FD08B701C8010E94A605811112C0C801D4
:100C20000E94CE0562960FB6F894DEBF0FBECDBF10
:100C3000DF91CF911F910F91FF90EF90DF90CF90B8
:100C40000895F801F582E482B601808191810E94C5
:100C50005D13E8CF1F920F920FB60F9211242F93BE
:100C60003F938F939F93AF93BF9380911403909181
:100C70001503A0911603B09117033091130323E0DD
:100C8000230F2D3758F50196A11DB11D2093130395
:100C90008093140390931503A0931603B093170346
:100CA0008091180390911903A0911A03B0911B032E
:100CB0000196A11DB11D8093180390931903A09371
:100CC0001A03B0931B03BF91AF919F918F913F91F6
:100CD0002F910F900FBE0F901F90189526E8230FAD
:100CE0000296A11DB11DD2CF1F920F920FB60F9287
:100CF00011240BB60F922F933F934F935F936F93F3
:100D00007F938F939F93AF93BF93EF93FF938CE168
:100D100093E00E947E03FF91EF91BF91AF919F916D
:100D20008F917F916F915F914F913F912F910F9094
:100D30000BBE0F900FBE0F901F9018951F920F9231
:100D40000FB60F9211240BB60F922F938F939F9390
:100D5000EF93FF93E0912C03F0912D038081E091BC
:100D60003203F091330382FD1DC0908180913503E1
:100D70008F5F8F7320913603821741F0E091350326
:100D8000F0E0E45EFC4F958F80933503FF91EF9187
:100D90009F918F912F910F900BBE0F900FBE0F90D0
:100DA0001F9018958081F2CF1F920F920FB60F926D
:100DB00011240BB60F922F933F934F935F936F9332
:100DC0007F938F939F93AF93BF93EF93FF9389EBA1
:100DD00093E00E947E03FF91EF91BF91AF919F91AD
:100DE0008F917F916F915F914F913F912F910F90D4
:100DF0000BBE0F900FBE0F901F9018951F920F9271
:100E00000FB60F9211240BB60F922F938F939F93CF
:100E1000EF93FF93E091C903F091CA038081E091C1
:100E2000CF03F091D00382FD1DC090818091D20349
:100E30008F5F8F732091D303821741F0E091D2032B
:100E4000F0E0E754FC4F958F8093D203FF91EF9130
:100E50009F918F912F910F900BBE0F900FBE0F900F
:100E60001F9018958081F2CF1F920F920FB60F92AC
:100E700011240BB60F922F933F934F935F936F9371
:100E80007F938F939F93AF93BF93EF93FF93F0E084
:100E9000E0E01995FF91EF91BF91AF919F918F91F4
:100EA0007F916F915F914F913F912F910F900BBE6A
:100EB0000F900FBE0F901F9018951F920F920FB6B4
:100EC0000F9211240BB60F922F933F934F935F9382
:100ED0006F937F938F939F93AF93BF93EF93FF9302
:100EE00048E251E064E271E090E080E00E943A0460
:100EF000FF91EF91BF91AF919F918F917F916F91F2
:100F00005F914F913F912F910F900BBE0F900FBEAD
:100F10000F901F9018951F920F920FB60F921124E9
:100F20000BB60F922F933F934F935F936F937F93E3
:100F30008F939F93AF93BF93EF93FF9348EA50E053
:100F400064EA70E083E090E00E943A04FF91EF9140
:100F5000BF91AF919F918F917F916F915F914F91D1
:100F60003F912F910F900BBE0F900FBE0F901F90CF
:100F700018951F920F920FB60F9211240BB60F9275
:100F80002F933F934F935F936F937F938F939F9391
:100F9000AF93BF93EF93FF9348E950E064E970E0AB
:100FA00082E090E00E943A04FF91EF91BF91AF91EF
:100FB0009F918F917F916F915F914F913F912F9171
:100FC0000F900BBE0F900FBE0F901F9018951F92A1
:100FD0000F920FB60F9211240BB60F922F933F93DF
:100FE0004F935F936F937F938F939F93AF93BF9331
:100FF000EF93FF9348E850E064E870E081E090E010
:101000000E943A04FF91EF91BF91AF919F918F9110
:101010007F916F915F914F913F912F910F900BBEF8
:101020000F900FBE0F901F90189510921F031092F3
:101030001E0348EE53E060E070E0409320035093BD
:101040002103609322037093230384E292E0909340
:101050001D0380931C032DEC30E030932903209373
:1010600028032CEC30E030932B0320932A0328EC48
:1010700030E030932D0320932C0329EC30E03093A3
:101080002F0320932E032AEC30E03093310320937A
:1010900030032EEC30E03093330320933203109270
:1010A00035031092360310923703109238031092D2
:1010B000BC031092BB034093BD035093BE036093E7
:1010C000BF037093C0039093BA038093B90385EC78
:1010D00090E09093C6038093C50384EC90E09093D6
:1010E000C8038093C70380EC90E09093CA03809379
:1010F000C90381EC90E09093CC038093CB0382EC06
:1011000090E09093CE038093CD0386EC90E0909393
:10111000D0038093CF031092D2031092D303109286
:10112000D4031092D5038091E604803308F04DC0BB
:1011300091E0980F9093E6048093FB0490E0FC010B
:10114000EE0FFF1FE80FF91FEA5AFB4F88EB9BE0F9
:1011500092838183E4E7F2E084918093ED04E4914B
:10116000E093EE048EE292E0FC012491E22FF0E0A5
:10117000EE0FFF1FE65FFD4F259134913093F00491
:101180002093EF04FC012491E22FF0E0EE0FFF1F0B
:10119000E051FE4F259134913093F2042093F104F5
:1011A000FC018491E82FF0E0EE0FFF1FEA52FE4FA2
:1011B000859194919093F4048093F30481E299E0F3
:1011C0009093F6048093F50408958FEF8093FB04C9
:1011D000C1CFCF93DF93CDB7DEB72C970FB6F8947E
:1011E000DEBF0FBECDBF789484B5826084BD84B568
:1011F000816084BD85B5826085BD85B5816085BD12
:1012000080916E00816080936E00109281008091C9
:101210008100826080938100809181008160809351
:101220008100809180008160809380008091B10076
:1012300084608093B1008091B00081608093B000A1
:1012400080919100826080939100809191008160F3
:1012500080939100809190008160809390008091B4
:10126000A10082608093A1008091A10081608093A1
:10127000A1008091A00081608093A0008091210155
:1012800082608093210180912101816080932101FE
:101290008091200181608093200180917A00846098
:1012A00080937A0080917A00826080937A008091A6
:1012B0007A00816080937A0080917A0080688093C0
:1012C0007A001092C10088E00E94B30187E00E947A
:1012D000B30186E00E94B3010E948E0589EB93E082
:1012E0000E948C018CE193E00E948C018091FB04B0
:1012F000803308F051C08CE00E94B3018091FB0460
:10130000282F30E0F901EE0FFF1FE20FF31FEA5A1A
:10131000FB4F9081907C9C6090831092FC04109213
:10132000FD042CE0622F0E942B11829FB00111243A
:1013300030E020E0AB01420F531FFA01EE0FFF1F18
:10134000E40FF51FEA5AFB4F908196FD17C02F5FFF
:101350003F4F2C30310571F7813009F0C4C2109233
:10136000800082E0809381001092850010928400BA
:10137000B19A80916F00826080936F00E091FB04CE
:101380008E2F90E0FC01EE0FFF1FE80FF91FEA5AC5
:10139000FB4F8081806480830E94DA024B015C01F4
:1013A00012E3C12ED12CE12CF12C0E94DA02681933
:1013B00079098A099B09683E734081059105A8F364
:1013C00001E0C01AD108E108F10818EE810E13E01F
:1013D000911EA11CB11CC114D104E104F10429F730
:1013E0008BE590E00E94D2018FEF93E0909303028F
:1013F000809302021092010210920002AAE0CA2E0B
:10140000A2E0DA2EBAEF2B2EB2E03B2E8101912C16
:1014100090917B00977F892D887F892B80937B001B
:10142000892D8770806480937C0080917A0080642D
:1014300080937A0080917A0086FDFCCF60917800DD
:1014400080917900F601219131916F01782F620F1F
:10145000731FF801619371938F0180910202909143
:1014600003026817790724F4709303026093020261
:1014700080910002909101028617970724F47093DF
:10148000010260930002CE0101960E94E0051886D9
:101490001F821A8619861C861B86E980FA80E11451
:1014A000F10469F0AD80BE80B501CE0107960E94BF
:1014B000A605811144C2CE0107960E94CE05EB8499
:1014C000FC84FFEFEF1AFF0AB701CE0107960E94D6
:1014D000A605882309F43BC22F8138858B859C851E
:1014E00060E472E0820F931F0E945D13FC86EB861E
:1014F0004B855C856F81788589EB93E00E94FF02C4
:101500008F8198850E94EA1189819A810E94EA114F
:1015100093942BE092127CCF8CE392E00E946605BC
:1015200083E992E00E946605809100029091010299
:101530000E9476058DE392E00E94660582E492E0C7
:101540000E94660580910202909103020E94760536
:1015500085E492E00E9466056091000270910102AC
:10156000072E000C880B990B0E94930E6B017C01D7
:101570006091020270910302072E000C880B990BF8
:101580000E94930E9B01AC01C701B6010E9480101E
:101590006B017C014B015C01AC019B010E94261197
:1015A000882309F4D9C18FE492E00E94F4048BE50A
:1015B00092E00E946605F4EEEF2EF2E0FF2E870126
:1015C000F101619171911F0140910002509101025E
:1015D0002091020230910302CA01821B930B97FDF6
:1015E00003969595879595958795481B590B641794
:1015F00075070CF445C2220F331F220F331F6217E9
:1016000073070CF43DC281E090E0F8019183808380
:10161000F801619171918F01CE0101960E94E00560
:101620004D815E8169817A8189EB93E00E94FF029E
:1016300089819A810E94EA1180E193E082159305E5
:1016400009F0BECF1092E3021092E2021092E10282
:101650001092E0021092DF021092DE021092DD0280
:101660001092DC028FE592E00E94660506EC12E023
:10167000F701819191917F01F801819391938F01FD
:101680000E947605FAEFEF16F2E0FF0689F7409127
:10169000E2025091E3028091DE029091DF026091BC
:1016A000E0027091E1022091DC023091DD02ECED6C
:1016B000F2E0A6ECB2E00D911D91012B09F0E4C11E
:1016C0004115510509F4019612910291012B09F07F
:1016D000DEC16115710511F42F5F3F4F06EC12E07A
:1016E0000E171F0741F77093E1026093E0023093F9
:1016F000DD022093DC025093E3024093E2029093D8
:10170000DF028093DE028C01021B130B6801012EA5
:10171000000CEE08FF08820F931F90931203809332
:1017200011038EE392E00E94680583E692E00E9436
:10173000660580911103909112030E9480058CE34D
:1017400092E00E946605F7FEA5C1C701B6010E949E
:1017500045058CE392E00E94660586E792E00E94D0
:10176000660583E892E00E9466058091DE02909112
:10177000DF020E94760589E892E00E94660580916A
:10178000DC029091DD020E9476058FE892E00E94D3
:1017900066058091E2029091E3020E94760586E957
:1017A00092E00E9466058091E0029091E1020E9421
:1017B00076058DE992E00E9466058091DE029091A7
:1017C000DC02890F80931003082E000C990B0E94F5
:1017D00080051093E8040093E70488EA92E00E94F1
:1017E00066058091E7049091E8040E947605809157
:1017F000E7049091E8049C01215031092B30310518
:1018000008F04EC181EB92E00E9468050E948E05AF
:10181000E090E704F090E8040091110310911203A6
:101820008CE293E08F3F9F4F0CF047C197010F2C44
:10183000000C440B550B2B50310941095109A0EE06
:10184000BFEF0E94DD0F2AEE3FEF4FEF5FEF0E94E8
:10185000B00FDA01C90185599F4FAF4FBF4F6C01DF
:101860000631110531F020911003283014F00E9448
:10187000D2019701ABEFBFEF0E943F112BE030E0A8
:1018800040E050E0F7FE04C025EF3FEF4FEF5FEF81
:101890000E94B00F89019A0103581F4F2F4F3F4FED
:1018A00026E0E20EF11C8DE0E816F10410F40DE7DD
:1018B00010E061E087E00E944E0260E086E00E9456
:1018C0004E028091110390911203469739F088E0FF
:1018D0000E94B3010115110509F022C160E088E002
:1018E0000E944E0241C1823061F4109290008093B8
:1018F0009100109295001092940088BB8093710023
:101900003DCD833069F41092A00082E08093A10065
:101910001092A5001092A40089BB809372002ECD76
:1019200081112CCD1092200182E080932101109230
:101930002501109224018ABB809373001FCDBC86C1
:10194000AB86B7018F8198850E945D13B8CDCE011B
:1019500007960E94CE05CCCD26013701E89477F892
:101960002FEF3FEF4FE75FE7C301B2010E9426115F
:1019700081110DC02FEF3FEF4FE75FE7C301B201C9
:101980000E948C0E18161CF483E592E00ECE2FEF09
:101990003FEF4FE75FE4C701B6010E94211118161F
:1019A0001CF487E592E001CE2FEF3FEF4FE75FECAD
:1019B000C701B6010E948C0E87FDF3CF20E030E016
:1019C000A901C701B6010E948C0E87FF0BC06DE212
:1019D00089EB93E00E94A00346015701B7FAB09447
:1019E000B7F8B0942AE037ED43EA5BE3C501B401F0
:1019F0000E9414104B015C010E94F2106B017C01EB
:101A00000E94910E9B01AC01C501B4010E9413100C
:101A10004B015C014AE0C701B6010E9401056EE27C
:101A200089EB93E00E94A00320E030E040E251E423
:101A3000C501B4010E94F20E4B015C010E94F2103C
:101A40006B01F12CE12C4AE0C701B6010E940105AF
:101A5000C701B6010E94910E9B01AC01C501B40102
:101A60000E94131020E030E040E251E40E94F20EA8
:101A70000E94F21090E080E04AE00E94010597CDBC
:101A8000F80111821082C4CD4F5F5F4F1DCE6F5F92
:101A90007F4F24CE4AE0C701B6010E94010559CE0E
:101AA000853F1FEF910718F084EB92E0ADCE892BB4
:101AB00009F0ACCE87EB92E0A7CE8CE293E00297E0
:101AC0004CF19E2D8F2DEBE0EE16F10414F09AE010
:101AD00080E0292F382F263FFFEF3F0714F426EF31
:101AE0003FEF032E000C440B550B2A5031094109DE
:101AF0005109A2ECBFEF0E94DD0F2CEE3FEF4FEF3C
:101B00005FEF0E94B00FDA01C90186589F4FAF4FB7
:101B1000BF4FA5CE97010F2C000C440B550BE5CF02
:101B2000E8E9F1E0E491E150E23108F0D7CEF0E0ED
:101B30008827E256F24F8F4F0C943711B00DC50D28
:101B4000CA0DD40DDE0D6E0CE80DF00DF80D020E71
:101B50000C0E160E250E2F0E6E0C390E430E4D0E6A
:101B600084B5806884BD07BD8CE392E00E94660561
:101B7000C6010E9476058CE392E00E946605C801CA
:101B80000E9480050E940D042FCC84B5806284BD24
:101B900008BDEACF80918000806880938000109318
:101BA000890000938800E0CF80918000806280935C
:101BB000800010938B0000938A00D6CF8091800024
:101BC00088608093800010938D0000938C00CCCFB0
:101BD0008091B00080688093B0000093B300C4CFC0
:101BE0008091B00080628093B0000093B400BCCFBD
:101BF00080919000806880939000109399000093EA
:101C00009800B2CF809190008062809390001093F2
:101C10009B0000939A00A8CF8091900088608093E9
:101C2000900010939D0000939C009ECF8091A00097
:101C300080688093A0008091A0008F7B8093A0009B
:101C40001093A9000093A8008FCF8091A00080621C
:101C50008093A0001093AB000093AA0085CF8091E1
:101C6000A00088608093A0001093AD000093AC00AA
:101C70007BCF8091200180688093200110932901FF
:101C80000093280171CF8091200180628093200110
:101C900010932B0100932A0167CF80912001886067
:101CA0008093200110932D0100932C015DCFBB2761
:101CB0004A3031F4992322F4BDE2909581959F4FEB
:101CC0000C94630EBB27FB015527AA27880F991F89
:101CD000AA1FA41710F0A41B83955051B9F7A05D5B
:101CE000AA3308F0A95DA193009779F7B111B193D8
:101CF0001192CB010C947C0EDC01FC01672F7191D9
:101D00007723E1F7329704C07C916D9370836291E1
:101D1000AE17BF07C8F308950E94CE0E08F481E005
:101D20000895E89409C097FB3EF4909580957095CE
:101D300061957F4F8F4F9F4F9923A9F0F92F96E917
:101D4000BB279395F695879577956795B795F1118C
:101D5000F8CFFAF4BB0F11F460FF1BC06F5F7F4F29
:101D60008F4F9F4F16C0882311F096E911C077233B
:101D700021F09EE8872F762F05C0662371F096E844
:101D8000862F70E060E02AF09A95660F771F881F13
:101D9000DAF7880F9695879597F90895990F0008B7
:101DA000550FAA0BE0E8FEEF16161706E807F9072D
:101DB000C0F012161306E407F50798F0621B730BC8
:101DC000840B950B39F40A2661F0232B242B252B49
:101DD00021F408950A2609F4A140A6958FEF811DEC
:101DE000811D08950E94050F0C94760F0E94680FC4
:101DF00038F00E946F0F20F0952311F00C945F0FC4
:101E00000C94650F11240C94AA0F0E94870F70F395
:101E1000959FC1F3950F50E0551F629FF001729F8F
:101E2000BB27F00DB11D639FAA27F00DB11DAA1F9E
:101E3000649F6627B00DA11D661F829F2227B00DEB
:101E4000A11D621F739FB00DA11D621F839FA00D76
:101E5000611D221F749F3327A00D611D231F849FC6
:101E6000600D211D822F762F6A2F11249F5750401D
:101E70009AF0F1F088234AF0EE0FFF1FBB1F661F98
:101E8000771F881F91505040A9F79E3F510580F061
:101E90000C945F0F0C94AA0F5F3FE4F3983ED4F3C9
:101EA000869577956795B795F795E7959F5FC1F705
:101EB000FE2B880F911D9695879597F9089597F9B0
:101EC0009F6780E870E060E008959FEF80EC0895E0
:101ED00000240A9416161706180609060895002409
:101EE0000A9412161306140605060895092E039483
:101EF000000C11F4882352F0BB0F40F4BF2B11F4F7
:101F000060FF04C06F5F7F4F8F4F9F4F089557FD55
:101F10009058440F551F59F05F3F71F04795880F57
:101F200097FB991F61F09F3F79F0879508951216EE
:101F300013061406551FF2CF4695F1DF08C016169A
:101F400017061806991FF1CF86957105610508944B
:101F50000895E894BB2766277727CB0197F9089562
:101F6000052E97FB1EF400940E94C70F57FD07D063
:101F70000E94E20F07FC03D04EF40C94C70F50955B
:101F80004095309521953F4F4F4F5F4F0895909565
:101F90008095709561957F4F8F4F9F4F08950E9458
:101FA0000410A59F900DB49F900DA49F800D911DCE
:101FB00011240895B7FF0C94CF0F0E94CF0F821BFE
:101FC000930B0895A1E21A2EAA1BBB1BFD010DC0A5
:101FD000AA1FBB1FEE1FFF1FA217B307E407F507D9
:101FE00020F0A21BB30BE40BF50B661F771F881FB5
:101FF000991F1A9469F760957095809590959B014B
:10200000AC01BD01CF010895A29FB001B39FC001F3
:10201000A39F700D811D1124911DB29F700D811D14
:102020001124911D08955058BB27AA270E942B10F8
:102030000C94760F0E94680F38F00E946F0F20F00A
:1020400039F49F3F19F426F40C94650F0EF4E095D3
:10205000E7FB0C945F0FE92F0E94870F58F3BA1724
:10206000620773078407950720F079F4A6F50C94AE
:10207000A90F0EF4E0950B2EBA2FA02D0B01B9017C
:1020800090010C01CA01A0011124FF27591B99F0EE
:10209000593F50F4503E68F11A16F040A22F232FFA
:1020A000342F4427585FF3CF469537952795A7954A
:1020B000F0405395C9F77EF41F16BA0B620B730BF1
:1020C000840BBAF09150A1F0FF0FBB1F661F771F62
:1020D000881FC2F70EC0BA0F621F731F841F48F417
:1020E000879577956795B795F7959E3F08F0B0CFA0
:1020F0009395880F08F09927EE0F97958795089587
:102100000E9494100C94760F0E946F0F58F00E945A
:10211000680F40F029F45F3F29F00C945F0F5111D4
:102120000C94AA0F0C94650F0E94870F68F39923F3
:10213000B1F3552391F3951B550BBB27AA276217C3
:102140007307840738F09F5F5F4F220F331F441FD0
:10215000AA1FA9F335D00E2E3AF0E0E832D0915004
:102160005040E695001CCAF72BD0FE2F29D0660FF1
:10217000771F881FBB1F261737074807AB07B0E834
:1021800009F0BB0B802DBF01FF2793585F4F3AF03A
:102190009E3F510578F00C945F0F0C94AA0F5F3F9F
:1021A000E4F3983ED4F3869577956795B795F795C0
:1021B0009F5FC9F7880F911D9695879597F90895A8
:1021C000E1E0660F771F881FBB1F62177307840744
:1021D000BA0720F0621B730B840BBA0BEE1F88F753
:1021E000E09508950E948F0F88F09F5798F0B92FBF
:1021F0009927B751B0F0E1F0660F771F881F991F3C
:102200001AF0BA95C9F714C0B13091F00E94A90F25
:10221000B1E008950C94A90F672F782F8827B85F35
:1022200039F0B93FCCF3869577956795B395D9F793
:102230003EF490958095709561957F4F8F4F9F4F9D
:1022400008950E94CE0E08F48FEF08950E94CE0EDE
:10225000880B990B0895991B79E004C0991F961774
:1022600008F0961B881F7A95C9F780950895EE0FA0
:10227000FF1F881F8BBF0790F691E02D19940E94D5
:102280000410332312F48A1B9B0B0C9449110E94F7
:102290000410B7FF0895821B930B08950F931F93AB
:1022A000CF93DF938230910510F482E090E0E091CB
:1022B0000005F091010530E020E0B0E0A0E03097AB
:1022C00099F42115310509F44AC0281B390B243033
:1022D0003105D8F58A819B816115710589F1FB0172
:1022E00093838283FE0111C0408151810281138159
:1022F00048175907E0F04817590799F4109761F00B
:1023000012960C93129713961C933296CF01DF917D
:10231000CF911F910F91089500930005109301052F
:10232000F4CF2115310551F04217530738F0A901B8
:10233000DB019A01BD01DF01F801C1CFEF01F9CF47
:102340009093010580930005CDCFFE01E20FF31FAE
:10235000819391932250310939832883D7CF2091DB
:10236000FE043091FF04232B41F4209106023091AA
:1023700007023093FF042093FE0420910402309161
:1023800005022115310541F42DB73EB740910802F1
:1023900050910902241B350BE091FE04F091FF04DB
:1023A000E217F307A0F42E1B3F0B2817390778F02C
:1023B000AC014E5F5F4F2417350748F04E0F5F1F8B
:1023C0005093FF044093FE04819391939FCFF0E0DC
:1023D000E0E09CCFCF93DF930097E9F0FC013297C8
:1023E00013821282A0910005B0910105ED0130E049
:1023F00020E01097A1F420813181820F931F20915A
:10240000FE043091FF042817390709F061C0F093EA
:10241000FF04E093FE04DF91CF910895EA01CE1707
:10242000DF07E8F54A815B819E0141155105B1F74F
:10243000E901FB83EA8349915991C40FD51FEC1739
:10244000FD0761F4808191810296840F951FE90157
:1024500099838883828193819B838A83F0E0E0E083
:1024600012968D919C9113970097B9F52D913C91FF
:102470001197CD010296820F931F2091FE04309197
:10248000FF042817390739F6309751F510920105E6
:1024900010920005B093FF04A093FE04BCCFD38339
:1024A000C28340815181840F951FC817D90761F4F9
:1024B0004E5F5F4F88819981480F591F5183408338
:1024C0008A819B81938382832115310509F0B0CFE6
:1024D000F0930105E09300059ECFFD01DC01C0CF24
:1024E00013821282D7CF4F925F926F927F928F9218
:1024F0009F92AF92BF92CF92DF92EF92FF920F9393
:102500001F93CF93DF938C01009799F4CB01DF9158
:10251000CF911F910F91FF90EF90DF90CF90BF90E0
:10252000AF909F908F907F906F905F904F900C94A2
:102530004E11FC01E60FF71F9C0122503109E217F2
:10254000F30708F4AEC0D901CD91DC911197C617FD
:10255000D70720F1C530D10578F0CE010497861752
:10256000970750F0C61BD70B2297C193D1936D9359
:102570007C93CF010E94EA11C801DF91CF911F9196
:102580000F91FF90EF90DF90CF90BF90AF909F9012
:102590008F907F906F905F904F9008955B01AC1A81
:1025A000BD0A4C018C0E9D1EA0910005B091010545
:1025B000512C412CF12CE12C109731F58091FE0427
:1025C0009091FF048815990509F05CC046165706DE
:1025D00008F058C08091040290910502009741F4E0
:1025E0008DB79EB74091080250910902841B950B4C
:1025F000E817F90708F055C0F093FF04E093FE04D4
:10260000F90171836083B8CF8D919C9111971296D7
:102610006C90129713967C901397A815B90559F5ED
:102620006C0142E0C40ED11CCA14DB0420F1AC01E1
:102630004A195B09DA011296159780F0628273825B
:1026400051834083D9016D937C93E114F10471F0BF
:10265000D7011396FC93EE9312978ECF22968C0F90
:102660009D1FF90191838083F301EFCFF093010562
:10267000E093000581CF4816590608F42C017D012E
:10268000D3019ACFCB010E944E117C01009749F0F3
:10269000AE01B8010E945413C8010E94EA118701DB
:1026A0006BCF10E000E068CFFB01DC0102C00190BD
:1026B0000D9241505040D8F70895FB01DC01019084
:0C26C0000D920020E1F70895F894FFCF80
:1026CC00E8034600000002058000FEFFFAFFFBFF56
:1026DC00FCFF0000FAFF0000FEFFFBFFFDFFFFFF09
:1026EC0000000000A003FF022D03ED035E033C037A
:1026FC0050030D0A00545241464649432020200005
:10270C002C00772000202020636F6566205B006E14
:10271C00616E00696E66006F7666005D2020002099
:10272C0046200077617463685F747261636B5F76D7
:10273C00616C202020006C2C722C6C622C7262203C
:10274C003D20002020206C20002020207220002022
:10275C0020206C622000202020726220002020208B
:10276C006C722073756D20004572726F7220202080
:0C277C0000203E00203C00207C200000DB
:00000001FF
