:100000000C9462000C948A000C948A000C948A0070
:100010000C948A000C948A000C948A000C94D703E8
:100020000C948A000C948A000C948A000C948A0028
:100030000C948A000C948A000C948A000C948A0018
:100040000C9435030C948A000C94A5030C947F0344
:100050000C948A000C948A000C948A000C948A00F8
:100060000C948A000C948A000000000024002700F1
:100070002A0000000000250028002B0000000000DE
:1000800023002600290004040404040404040202DA
:100090000202020203030303030301020408102007
:1000A0004080010204081020010204081020000012
:1000B0000008000201000003040700000000000027
:1000C0000000930411241FBECFEFD8E0DEBFCDBFE8
:1000D00011E0A0E0B1E0E4ECFEE102C005900D9279
:1000E000A631B107D9F722E0A6E1B1E001C01D9227
:1000F000AE39B207E1F710E0C2E6D0E004C02197C4
:10010000FE010E944B0FC136D107C9F70E94C504FA
:100110000C94600F0C940000833081F028F481303F
:1001200099F08230A9F008958730A9F08830C9F09D
:100130008430B1F4809180008F7D03C08091800075
:100140008F7780938000089584B58F7784BD08955C
:1001500084B58F7DFBCF8091B0008F778093B00006
:1001600008958091B0008F7DF9CFCF93DF93282F32
:1001700030E0F901E255FF4F8491F901E656FF4F57
:10018000D491F901EA57FF4FC491CC23A1F081111A
:100190000E948C00EC2FF0E0EE0FFF1FE458FF4FA1
:1001A000A591B491EC91ED2381E090E009F480E019
:1001B000DF91CF91089580E090E0FACF1F93CF9325
:1001C000DF93282F30E0F901E255FF4F8491F901C8
:1001D000E656FF4FD491F901EA57FF4FC491CC2363
:1001E000A9F0162F81110E948C00EC2FF0E0EE0F89
:1001F000FF1FEE58FF4FA591B4918FB7F894EC9183
:10020000111108C0D095DE23DC938FBFDF91CF9111
:100210001F910895DE2BF8CFAF92BF92CF92DF925D
:10022000EF92FF920F931F93CF93DF936C017B01AB
:100230008B01040F151FEB015E01AE18BF08C0173C
:10024000D10759F06991D601ED91FC910190F081AF
:10025000E02DC6010995892B79F7C501DF91CF9172
:100260001F910F91FF90EF90DF90CF90BF90AF90D4
:100270000895FC01538D448D252F30E0842F90E0AC
:10028000821B930B541710F0CF9608950197089591
:10029000FC01918D828D981761F0A28DAE0FBF2F5A
:1002A000B11D5D968C91928D9F5F9F73928F90E0B0
:1002B00008958FEF9FEF0895FC01918D828D98171F
:1002C00031F0828DE80FF11D858D90E008958FEF5C
:1002D0009FEF0895FC01918D228D892F90E0805C25
:1002E0009F4F821B91098F73992708958FE291E0A8
:1002F0000E946A0121E0892B09F420E0822F0895F1
:1003000080E090E0892B29F00E94760181110C9405
:1003100000000895FC01A48DA80FB92FB11DA35AA8
:10032000BF4F2C91848D90E001968F739927848F15
:10033000A689B7892C93A089B1898C918370806438
:100340008C93938D848D981306C00288F389E02DD9
:1003500080818F7D80830895EF92FF920F931F938A
:10036000CF93DF93EC0181E0888F9B8D8C8D981368
:100370001AC0E889F989808185FF15C09FB7F89474
:10038000EE89FF896083E889F989808183708064C0
:1003900080839FBF81E090E0DF91CF911F910F910B
:1003A000FF90EF900895F62E0B8D10E00F5F1F4F1A
:1003B0000F731127E02E8C8D8E110CC00FB607FC29
:1003C000FACFE889F989808185FFF5CFCE010E94B7
:1003D0008A01F1CFEB8DEC0FFD2FF11DE35AFF4F9A
:1003E000F0829FB7F8940B8FEA89FB898081806245
:1003F000CFCFCF93DF93EC01888D8823B9F0AA8902
:10040000BB89E889F9898C9185FD03C0808186FDCF
:100410000DC00FB607FCF7CF8C9185FFF2CF80811E
:1004200085FFEDCFCE010E948A01E9CFDF91CF9108
:100430000895CF92DF92EF92FF92CF93DF93EC017A
:10044000072E000C880B990B0E94BB0D6B017C01E1
:1004500020E030E040E45FE30E946B0E20E030E0FB
:1004600048E452E40E94110D0E94830DC617D7077D
:10047000D4F020E030E040EA5FE3C701B6010E941B
:100480006B0E20E030E048E452E40E94110D20E0C1
:1004900030E040E85FE30E94A00C0E94830D21E061
:1004A0006C177D070CF420E0822F90E0DF91CF9154
:1004B000FF90EF90DF90CF9008958F929F92AF9230
:1004C000BF92CF92DF92EF92FF920F931F93CF9341
:1004D000DF93FC0120813181E0912B01F0912C010F
:1004E00001E010E02E173F070CF045C0D901AA0F1C
:1004F000BB1FE0912901F0912A01EA0FFB1FA080A8
:10050000B1808901009510950170112720FD27C049
:100510002CE93FEFEA016B017C014901840E951E35
:10052000B401C5010E94190221E030E0892BD1F409
:100530008C0E9D1EB401C5010E94190222E030E01C
:10054000892B81F4BE01680D791DC5010E94190235
:1005500023E030E0892B31F40FEF1FEF0CC024E6CD
:1005600030E0D8CFF6018081918101968217930700
:1005700084F491838083C801DF91CF911F910F9103
:10058000FF90EF90DF90CF90BF90AF909F908F90B3
:10059000089511821082F701808191810196E9CF3F
:1005A0008F929F92AF92BF920F931F93CF93DF933F
:1005B000CDB7DEB7A1970FB6F894DEBF0FBECDBFA3
:1005C00019A2423008F44AE08E010F5D1F4F842EBD
:1005D000912CB12CA12CA50194010E94E80EE62FCC
:1005E000B901CA01EA3044F5E05DD801EE938D010E
:1005F000232B242B252B79F790E080E0109769F0CE
:10060000FD0101900020E9F73197AF014A1B5B0B18
:10061000BD018FE291E00E940C01A1960FB6F89403
:10062000DEBF0FBECDBFDF91CF911F910F91BF9065
:10063000AF909F908F900895E95CD7CFCF93DF93D1
:10064000BC01990F880B990B4AE00E94D002EC0183
:1006500042E050E062E171E08FE291E00E940C0123
:100660008C0F9D1FDF91CF9108951F920F920FB6AF
:100670000F9211242F933F938F939F93AF93BF9328
:1006800080911B0190911C01A0911D01B0911E0150
:1006900030911A0123E0230F2D3758F50196A11D43
:1006A000B11D20931A0180931B0190931C01A0930C
:1006B0001D01B0931E018091160190911701A09128
:1006C0001801B09119010196A11DB11D8093160169
:1006D00090931701A0931801B0931901BF91AF91A6
:1006E0009F918F913F912F910F900FBE0F901F9070
:1006F000189526E8230F0296A11DB11DD2CF1F9297
:100700000F920FB60F9211242F933F934F935F9345
:100710006F937F938F939F93AF93BF93EF93FF93C9
:100720008FE291E00E948A01FF91EF91BF91AF911A
:100730009F918F917F916F915F914F913F912F91F9
:100740000F900FBE0F901F9018951F920F920FB62B
:100750000F9211242F938F939F93EF93FF93E09128
:100760003F01F09140018081E0914501F091460107
:1007700082FD1BC09081809148018F5F8F73209113
:100780004901821741F0E0914801F0E0E15DFE4F40
:10079000958F80934801FF91EF919F918F912F91B9
:1007A0000F900FBE0F901F9018958081F4CF1F926D
:1007B0000F920FB60F9211242F933F934F935F9395
:1007C0006F937F938F939F93AF93BF93EF93FF9319
:1007D0008091CD010E94B5002091D1013091D201CC
:1007E0002F5F3F4F3093D2012093D1019091D001E0
:1007F000953618F096E09093CC019091CC0194300E
:1008000009F466C0B8F49230F1F0933009F444C0B2
:100810009091CF01992309F46BC081117AC0809126
:10082000CE01882309F463C08091CE0161E00E946B
:10083000DE005EC0953009F457C0963049F791E06C
:1008400090939D024FC08111E3CF2091D10130914F
:10085000D2012436310528F41092D2011092D10130
:10086000D7CF10929D021092D001E091D00191E07B
:100870009E0F9093D001F0E02091D1013091D201F0
:10088000EE0FFF1FE453FE4F308727831092D201F3
:100890001092D10193E019C0813009F0B9CFE091F5
:1008A000D00191E09E0F9093D001F0E02091D10112
:1008B0003091D201EE0FFF1FE453FE4F30872783A4
:1008C0001092D2011092D10194E09093CC01A0CF6C
:1008D000882359F22091D1013091D201253631057A
:1008E00008F496CF95E0F1CF811192CFB5CF2D9A34
:1008F000FF91EF91BF91AF919F918F917F916F91F8
:100900005F914F913F912F910F900FBE0F901F90CD
:1009100018958091CE01882321F08091CE0160E06E
:1009200086CF2D98E5CFEFE2F1E01382128288EEB8
:1009300093E0A0E0B0E084839583A683B78384E04E
:1009400091E09183808385EC90E09587848784ECA7
:1009500090E09787868780EC90E0918B808B81EC8C
:1009600090E0938B828B82EC90E0958B848B86EC6D
:1009700090E0978B868B118E128E138E148EECEC7A
:10098000F1E083E0818313820895CF93DF93CDB7A5
:10099000DEB72C970FB6F894DEBF0FBECDBF7894AC
:1009A00084B5826084BD84B5816084BD85B5826074
:1009B00085BD85B5816085BD80916E008160809325
:1009C0006E0010928100809181008260809381008E
:1009D000809181008160809381008091800081609E
:1009E000809380008091B10084608093B1008091F9
:1009F000B00081608093B00080917A008460809321
:100A00007A0080917A00826080937A0080917A00E7
:100A1000816080937A0080917A00806880937A0068
:100A20001092C100EEE9F0E02491EAE8F0E0849150
:100A3000882399F090E0880F991FFC01E859FF4F37
:100A4000A591B491FC01EE58FF4F859194918FB719
:100A5000F894EC91E22BEC938FBF60E08DE00E9464
:100A6000DE00E0913F01F091400182E08083E0915F
:100A70003B01F0913C011082E0913D01F0913E017B
:100A80009FEC908310924701E0914301F091440163
:100A900096E09083E0914101F09142019081906154
:100AA0009083E0914101F0914201908198609083A0
:100AB000E0914101F0914201908190689083E09132
:100AC0004101F091420190819F7D9083F894809341
:100AD000B0008093B10094E69093B3001092B200FE
:100AE0008093700078948093CC011092D001809113
:100AF000CD0190E0FC01E656FF4F24918A579F4FAD
:100B0000FC0184918823C9F090E0880F991FFC01B3
:100B1000E859FF4F45915491FC01EE58FF4FA591C4
:100B2000B4919FB7F894FA01808120958223808345
:100B30008C91E22FE823EC939FBF44244A94542CD9
:100B40003201A0E22A2E312C83ED91E090932A010C
:100B5000809329018091D00190E090932C018093A3
:100B60002B0180919D0290E090932E0180932D01A6
:100B70008091CC01853009F08BC38091D501909193
:100B8000D601885891098D35910508F051C08091A2
:100B9000D001843009F58091D7019091D8018097D8
:100BA0004797D0F48091D9019091DA01099709977C
:100BB00098F410922801109227014092230150923C
:100BC0002401609225017092260183E090E09093C9
:100BD000200180931F0135C38091D001843440F1FE
:100BE0008091D7019091D801825491098E9700F598
:100BF00090E080E040E050E0BA01FC01E752FE4F97
:100C000020813181295031092930310588F4FC01D6
:100C1000E552FE4F208131812751310922313105C2
:100C200010F120813181265031092730310588F1BA
:100C30008091D0018A3108F461C08091D3019091F4
:100C4000D401843F914050F5109228011092270161
:100C50004092230150922401609225017092260156
:100C60008BE090E0B4CF440F551F661F771F4160A3
:100C700004968038910509F63092280120922701C8
:100C80004093230150932401609325017093260122
:100C90009CCF440F551F661F771FEACF8091D50167
:100CA0009091D60185974B9748F5ECECF1E082E006
:100CB00090E0C12CD12C76019C012F5F3F4F4091D9
:100CC000D0014217130609F00CF4F6C04385548591
:100CD000475051094730510508F0EDC0258536854C
:100CE000235131092F30310508F4D7C025853685C9
:100CF0002A5031092930310508F4D8C08091D0013B
:100D00008A3108F43FC08091D3019091D4018032A0
:100D1000934008F499CF8091D5019091D601C69760
:100D2000869780F58091D7019091D801C6978697D4
:100D300048F5ECECF1E083E090E0C12CD12C760199
:100D40009C012F5F3F4F4091D0014217130609F0DD
:100D50000CF4DAC0458556854C5051094B3051058D
:100D600008F0D1C027853089255231092B31310552
:100D700008F4BBC0278530892C5031092A30310551
:100D800008F4BCC08091D001823238F18091D50145
:100D90009091D6010697079700F5ECECF1E082E020
:100DA00090E040E050E0BA01DC0111962091D001C2
:100DB0002A171B0609F00CF4D3C0238534852E5165
:100DC00031092731310508F4B6C0238534852C500C
:100DD00031092B30310508F4BDC01C821B8281E033
:100DE00090E09A8389838091D0018D3008F4E9C026
:100DF00049E753E0BE016D5F7F4FCE0101960E942F
:100E00005D02892B09F0DDC049E753E0BE016D5F4B
:100E10007F4FCE0101960E945D02019709F0D1C07B
:100E200049E753E0BE016D5F7F4FCE0101960E94FE
:100E30005D028C01892B09F0C4C0812C912C5401D6
:100E40002091D00189819A812817190609F00CF4A4
:100E5000A9C049E753E0BE016D5F7F4FCE01019607
:100E60000E945D027C0149E753E0BE016D5F7F4F48
:100E7000CE0101960E945D02E1E0EE16F10409F058
:100E800088C0892B09F09DC0880C991CAA1CBB1C2A
:100E9000689480F80F5F1F4FD3CFCC0CDD1CEE1C85
:100EA000FF1C6894C0F80296349606CFCC0CDD1C6B
:100EB000EE1CFF1CF8CFC90101979595879590937B
:100EC0002801809327010C972CF41092280110928E
:100ED000270114CFC0922301D0922401E092250172
:100EE000F092260184E090E072CECC0CDD1CEE1C6A
:100EF000FF1C6894C0F80296349622CFCC0CDD1CFF
:100F0000EE1CFF1CF8CFC90101979595879590932A
:100F10002801809327010C972CF41092280110923D
:100F2000270130CFC0922301D0922401E092250105
:100F3000F092260195CE440F551F661F771F416022
:100F4000258536853496235031092530310538F40E
:100F500002962ACF440F551F661F771FF1CFCD0190
:100F60000197959587959093280180932701409745
:100F70002CF410922801109227012FCF40932301C7
:100F80005093240160932501709326018CE090E03A
:100F90001ECEEF28B1F40197A1F4880C991CAA1C6D
:100FA000BB1C78CF10932801009327018092230166
:100FB00090922401A0922501B092260181E090E058
:100FC00006CE1C821B8281E090E09A838983809107
:100FD0002B0190912C01181619060CF07EC0E0919F
:100FE0002901F0912A0182E090E09A83898382812D
:100FF000938189974E9708F070C083E090E09A83C0
:101000008983848195810B970A9708F066C04CEB21
:1010100051E0BE016D5F7F4FCE0101960E945D02DF
:101020008C01892B09F059C04CEB51E0BE016D5F7A
:101030007F4FCE0101960E945D02019709F04DC0DD
:10104000812C912C540120912B0130912C0189810C
:101050009A81821793070CF0E2C04CEB51E0BE017D
:101060006D5F7F4FCE0101960E945D027C010330CF
:10107000110539F14CEB51E0BE016D5F7F4FCE01A0
:1010800001960E945D026C010330110561F44CEB86
:1010900051E0BE016D5F7F4FCE0101960E945D025F
:1010A000C816D906D1F4E114F10409F4ABC0EA94EE
:1010B000EF2899F4CD2889F4880C991CAA1CBB1C34
:1010C000ABC04CEB51E0BE016D5F7F4FCE0101968E
:1010D0000E945D02E816F90669F2E0912901F0919B
:1010E0002A0182819381C697869778F584819581BC
:1010F0004B97459750F5DF0116967F0126ECE20EDF
:10110000F11C20E030E040E050E060E070E080E082
:1011100090E00D911C9111970950110908301105AB
:10112000A0F412960D911C911397015111090D30E5
:10113000110508F4BAC012960D911C911397045032
:1011400011090530110508F4D5C08091D00189330B
:1011500080F182819381895791098335910548F502
:1011600084819581CA97899720F59F012A5F3F4F17
:10117000C12CD12C760143E050E0D9016D917C91D6
:1011800011976A5071096930710598F412966D9142
:101190007C911397665171096131710508F4AEC0F5
:1011A00012966D917C91665071096730710508F453
:1011B000D4C08091D001823209F0D4C08281938161
:1011C0000A97099708F0CEC0A091D001B0E0A150D5
:1011D000B048AA0FBB1FAE0FBF1F8D919C910A97FD
:1011E000099708F0BFC01092280110922701409281
:1011F000230150922401609225017092260186E01D
:1012000090E0E5CCCA94CD2809F067CF880C991CF2
:10121000AA1CBB1C689480F80F5F1F4F14CF10935B
:101220002801009327018092230190922401A0922B
:101230002501B0922601E2E0F0E0F0932001E09376
:101240001F018091230190912401A0912501B0916B
:1012500026018736E8E99E07EFEFAE07B10509F4EE
:101260004BC308F021C38D3D22E292072FEFA20766
:10127000B10509F458C308F006C38D3F9240AF4F43
:10128000B10509F453C382E08093CC011092D001E0
:1012900080E090E0892B09F457CC0E9476018823E6
:1012A00009F44FCC0E9400004CCC01E00E94150FC5
:1012B00021601496AE15BF0509F02BCF20932301B2
:1012C00030932401409325015093260100E20E94AF
:1012D000300F209321013093220185E090E090931C
:1012E000200180931F0180E390E090932801809378
:1012F0002701A7CF01E00E94150FDBCFD701C60160
:10130000880F991FAA1FBB1F6C017D016894C0F84C
:101310004E5F5F4F2C5F3F4F4B33510509F02DCF90
:101320009F012A583F4FD9012D913C912A503109F4
:101330002930310508F03DCF2CE130E03093280111
:1013400020932701C0922301D0922401E09225012D
:10135000F09226018AE090E03ACCCC0CDD1CEE1C29
:10136000FF1CD6CF828193818957910983359105DE
:1013700060F58091D001813240F184819581CA97D6
:10138000899718F59F012A5F3F4FC12CD12C760118
:1013900043E050E0D9016D917C9111976A50710939
:1013A0006930710590F412966D917C911397665196
:1013B00071096131710580F112966D917C916650D1
:1013C00071096730710508F454C0828193818C548F
:1013D0009109C59708F081C08091D001843009F04F
:1013E0004DC0848195818097479708F047C08681DA
:1013F00097810997099708F041C01092280110922F
:10140000270140922301509224016092250170929D
:10141000260187E090E0DBCBD701C601880F991F3A
:10142000AA1FBB1F6C017D016894C0F84E5F5F4F1F
:101430002C5F3F4F4332510509F0ACCF9F012A5B2F
:101440003F4FD9012D913C912A5031092930310566
:1014500008F0BBCF20E130E0309328012093270132
:10146000C0922301D0922401E0922501F09226013E
:10147000C6CECC0CDD1CEE1CFF1CD8CF8091D00159
:10148000843458F18481958189549109C39728F552
:101490009F012A5F3F4FBF016A577F4FC12CD12C5C
:1014A0007601D9014D915C9111974950510949300C
:1014B000510598F412964D915C911397465151093C
:1014C0004131510508F4A2C012964D915C914650ED
:1014D00051094730510508F4B6C08091D0018634D7
:1014E000C0F1828193810C970B9798F58481958147
:1014F0000997099770F5868197818C974F9748F5E2
:101500008085918589974D9720F59F01265F3F4FF4
:10151000C12CD12C760145E050E0D9016D917C9130
:1015200011976C5071096B30710598F412966D919A
:101530007C9113976E5171096731710508F488C069
:1015400012966D917C91695071096930710508F4AA
:10155000ACC08091D001883508F4B6C082819381F7
:10156000855891098B35910508F0AEC0848195812D
:10157000825491098E9708F0A7C08F01045C1F4F19
:101580008DE190E030E020E04091D0014450550BD7
:101590008417950714F5A80142505109DA014D91BD
:1015A0005C91495051094830510508F08DC0BC018B
:1015B0006F5F7F4FD8014D915C9111974750510952
:1015C0004730510508F476C04D915C91485151095E
:1015D0004231510508F475C0CB0101979595879567
:1015E00090932801809327018A970CF46DC0C9015C
:1015F000330FAA0BBB0B8093230190932401A0937C
:101600002501B093260189E090E0E1CAD701C60127
:10161000880F991FAA1FBB1F6C017D016894C0F839
:101620002C5F3F4F6217730709F03BCF30922801C0
:1016300020922701C0922301D0922401E09225013B
:10164000F0922601E6CECC0CDD1CEE1CFF1CE8CF90
:10165000D701C601880F991FAA1FBB1F6C017D010E
:101660006894C0F84E5F5F4F2C5F3F4F4534510583
:1016700009F053CF9F0126573F4FD9012D913C913F
:101680002C5031092B30310508F063CF30922801FE
:1016900020922701C0922301D0922401E0922501DB
:1016A000F092260188E090E092CACC0CDD1CEE1C82
:1016B000FF1CD8CF220F331F216002960C5F1F4FF3
:1016C00063CF220F331FF9CF8091D001803279F59B
:1016D000828193810697069750F5848195810997B9
:1016E000099728F59F012A5F3F4FBF01625C7F4F3A
:1016F000C12CD12C7601D9014D915C9111974650A6
:1017000051094630510598F412964D915C9113970A
:10171000495151094331510508F48FC012964D913A
:101720005C91495051094930510508F4A7C0A09176
:101730002B01B0912C01B887AF8316970CF4A3CD81
:10174000CF0102969E838D8385ECC82E8DE9D82E1D
:101750008CE1E82E81E8F82E03E010E0AD81BE8137
:1017600014966D917C911597AD90BC9090E080E0BF
:101770000E94B90D69877A878B879C87B50190E0B5
:1017800080E00E94B90D4B015C012DEC3CEC4CE477
:101790005FE30E946B0E9B01AC0169857A858B85A6
:1017A0009C850E940C0DF0E0E0E087FD16C02DEC5A
:1017B0003CEC4CE45FE369857A858B859C850E94CF
:1017C0006B0E9B01AC01C501B4010E940C0DE2E05F
:1017D000F0E087FD02C0E1E0F0E0A701960163E9D7
:1017E00071E080E091E00E94D80E6F01FF0FEE08DB
:1017F000FF08C626D726E826F9260F5F1F4FED8182
:10180000FE813296FE83ED838F8198858017910744
:1018100009F0A4CFC0922301D0922401E0922501C7
:10182000F09226013092280120922701AFEFBFEFFE
:10183000B0932001A0931F0104CDD701C601880FEA
:10184000991FAA1FBB1F6C017D016894C0F82C5F13
:101850003F4F6217730709F04ECFEEE0F0E0F093D0
:101860002801E0932701C0922301D0922401E09245
:101870002501F09226018FE090E0A9C9CC0CDD1C77
:10188000EE1CFF1CE4CF8D3922E692072FEFA20752
:10189000B10509F445C08F369049AF4FB10509F045
:1018A000F2CC89E090E02AC08D33F2EC9F07FFEF85
:1018B000AF07B105F1F180F48D35E2EA9E07EFEF55
:1018C000AE07B105F1F08735984AAF4FB10509F081
:1018D000DACC88E090E012C08F3120EE92072FEF33
:1018E000A207B10549F18D31924EAF4FB10509F014
:1018F000CACC83E090E002C090E080E00E941E032A
:10190000C2CC81E090E00E941E0384E00E94B500FA
:1019100061E0892B09F060E084E00E94DE00B3CC36
:1019200082E090E0EBCF84E090E0E8CF85E090E0CB
:10193000E5CF86E090E0E2CF87E090E0DFCF50583F
:10194000BB27AA270E94B70C0C94310E0E94230ECD
:1019500038F00E942A0E20F039F49F3F19F426F443
:101960000C94200E0EF4E095E7FB0C941A0EE92F70
:101970000E94420E58F3BA1762077307840795074F
:1019800020F079F4A6F50C94640E0EF4E0950B2E7D
:10199000BA2FA02D0B01B90190010C01CA01A001C1
:1019A0001124FF27591B99F0593F50F4503E68F11C
:1019B0001A16F040A22F232F342F4427585FF3CF5D
:1019C000469537952795A795F0405395C9F77EF42E
:1019D0001F16BA0B620B730B840BBAF09150A1F077
:1019E000FF0FBB1F661F771F881FC2F70EC0BA0FFD
:1019F000621F731F841F48F4879577956795B79585
:101A0000F7959E3F08F0B0CF9395880F08F099277F
:101A1000EE0F9795879508950E94F60D08F481E0E2
:101A200008950E94250D0C94310E0E942A0E58F044
:101A30000E94230E40F029F45F3F29F00C941A0E07
:101A400051110C94650E0C94200E0E94420E68F306
:101A50009923B1F3552391F3951B550BBB27AA2767
:101A600062177307840738F09F5F5F4F220F331FA1
:101A7000441FAA1FA9F335D00E2E3AF0E0E832D069
:101A800091505040E695001CCAF72BD0FE2F29D06C
:101A9000660F771F881FBB1F261737074807AB073E
:101AA000B0E809F0BB0B802DBF01FF2793585F4FB3
:101AB0003AF09E3F510578F00C941A0E0C94650E86
:101AC0005F3FE4F3983ED4F3869577956795B79595
:101AD000F7959F5FC9F7880F911D9695879597F9A0
:101AE0000895E1E0660F771F881FBB1F6217730719
:101AF0008407BA0720F0621B730B840BBA0BEE1F2E
:101B000088F7E09508950E948A0D6894B1110C94AD
:101B1000650E08950E944A0E88F09F5798F0B92FDD
:101B20009927B751B0F0E1F0660F771F881F991F12
:101B30001AF0BA95C9F714C0B13091F00E94640E42
:101B4000B1E008950C94640E672F782F8827B85F52
:101B500039F0B93FCCF3869577956795B395D9F76A
:101B60003EF490958095709561957F4F8F4F9F4F74
:101B70000895E89409C097FB3EF490958095709580
:101B800061957F4F8F4F9F4F9923A9F0F92F96E9C9
:101B9000BB279395F695879577956795B795F1113E
:101BA000F8CFFAF4BB0F11F460FF1BC06F5F7F4FDB
:101BB0008F4F9F4F16C0882311F096E911C07723ED
:101BC00021F09EE8872F762F05C0662371F096E8F6
:101BD000862F70E060E02AF09A95660F771F881FC5
:101BE000DAF7880F9695879597F90895990F000869
:101BF000550FAA0BE0E8FEEF16161706E807F907DF
:101C0000C0F012161306E407F50798F0621B730B79
:101C1000840B950B39F40A2661F0232B242B252BFA
:101C200021F408950A2609F4A140A6958FEF811D9D
:101C3000811D089597F99F6780E870E060E008953E
:101C40009FEF80EC089500240A94161617061806D4
:101C50000906089500240A941216130614060506B0
:101C60000895092E0394000C11F4882352F0BB0F41
:101C700040F4BF2B11F460FF04C06F5F7F4F8F4FA4
:101C80009F4F089557FD9058440F551F59F05F3FDF
:101C900071F04795880F97FB991F61F09F3F79F08E
:101CA00087950895121613061406551FF2CF469510
:101CB000F1DF08C0161617061806991FF1CF869592
:101CC0007105610508940895E894BB276627772776
:101CD000CB0197F908950E947E0E0C94310E0E945C
:101CE000230E38F00E942A0E20F0952311F00C9458
:101CF0001A0E0C94200E11240C94650E0E94420EB4
:101D000070F3959FC1F3950F50E0551F629FF0014E
:101D1000729FBB27F00DB11D639FAA27F00DB11D67
:101D2000AA1F649F6627B00DA11D661F829F2227F0
:101D3000B00DA11D621F739FB00DA11D621F839F77
:101D4000A00D611D221F749F3327A00D611D231F4D
:101D5000849F600D211D822F762F6A2F11249F579B
:101D600050409AF0F1F088234AF0EE0FFF1FBB1F9E
:101D7000661F771F881F91505040A9F79E3F51055D
:101D800080F00C941A0E0C94650E5F3FE4F3983EBD
:101D9000D4F3869577956795B795F795E7959F5F07
:101DA000C1F7FE2B880F911D9695879597F9089599
:101DB000DB018F939F930E940A0FBF91AF91A29F67
:101DC000800D911DA39F900DB29F900D1124089539
:101DD000A1E21A2EAA1BBB1BFD010DC0AA1FBB1F2F
:101DE000EE1FFF1FA217B307E407F50720F0A21BA1
:101DF000B30BE40BF50B661F771F881F991F1A940E
:101E000069F760957095809590959B01AC01BD0137
:101E1000CF0108950E94510FA59F900DB49F900D82
:101E2000A49F800D911D11240895002E083090F07C
:101E3000982F872F762F652F542F432F322F22274D
:101E40000850F4CF220F331F441F551F661F771F02
:101E5000881F991F0A95B2F7002D089597FD1094D9
:101E6000002E083098F00850232F342F452F562F7E
:101E7000672F782F892F912DF4CF159497958795FB
:101E80007795679557954795379527950A95AAF7BA
:101E90001124002D0895EE0FFF1F0590F491E02D01
:101EA0000994A29FB001B39FC001A39F700D811D33
:101EB0001124911DB29F700D811D1124911D089553
:041EC000F894FFCFC4
:101EC40000000000AC010C013901F9016A0148016C
:061ED4005C010D0A000094
:00000001FF
