:100000000C94BD000C94DA000C94DA000C944805B2
:100010000C94EE050C94CA050C94DA000C94DA00EA
:100020000C94DA000C94DA000C94DA000C94DA00E8
:100030000C94DA000C94DA000C94DA000C94DA00D8
:100040000C94FE040C94DA000C94DA000C94DA00A0
:100050000C94DA000C94DA000C94DA000C94DA00B8
:100060000C94DA000C94DA0000C2010001001100C7
:1000700011000C0000E100000A002500250021000D
:10008000009600001900390039003600127A00008D
:100090001F004600460044008070000022004D0012
:1000A0004D004A00004B00003600750075007200DC
:1000B000403800004A009C009C0099008025000008
:1000C0007200EC00EC00E900C0120000E900DA0167
:1000D000DA01D70160090000D701B603B603B30304
:1000E000B0040000B3036E076E076B0758020000F0
:1000F0006E07DC0EDC0ED80E2C010000DC0EC11DDC
:10010000C11DBE1D000000002300260029000300C1
:1001100017000105050F290B2B2B01020006051BFB
:100120000B054F4E004F46460000000000240027FC
:10013000002A0000000000250028002B0004040411
:100140000404040404020202020202030303030380
:10015000030102040810204080010204081020015D
:10016000020408102000000008000201000003043F
:100170000700000000000000000011241FBECFEFA8
:10018000D8E0DEBFCDBF11E0A0E0B1E0EEE2F7E1E4
:1001900002C005900D92A233B107D9F721E0A2E386
:1001A000B1E001C01D92A938B207E1F70E94120622
:1001B0000C94950B0C94000090E0FC01EB59FE4F61
:1001C0002491FC01EF5AFE4F3491FC01E35CFE4F99
:1001D000E491EE23C9F0222339F0233001F1A8F491
:1001E000213019F1223029F1F0E0EE0FFF1FED5C14
:1001F000FE4FA591B4918FB7F894EC91611126C090
:1002000030953E233C938FBF08952730A9F02830C6
:10021000C9F0243049F7809180008F7D03C0809120
:1002200080008F7780938000DFCF84B58F7784BD87
:10023000DBCF84B58F7DFBCF8091B0008F7780932B
:10024000B000D2CF8091B0008F7DF9CF3E2BDACFB6
:10025000CF93DF9390E0FC01EF5AFE4F2491835C33
:100260009E4FFC0184918823D1F090E0880F991F64
:10027000FC01E75DFE4FA591B491FC01ED5CFE4FE2
:10028000C591D49161110EC09FB7F8948C91E22F63
:10029000E0958E238C932881E223E8839FBFDF9132
:1002A000CF9108958FB7F894EC91E22BEC938FBF28
:1002B000F6CF1F93CF93DF93182FEB0161E00E94DD
:1002C0002801209739F460E0812FDF91CF911F91B1
:1002D0000C94DC00CF3FD10511F461E0F5CFE12FA4
:1002E000F0E0EB59FE4FE491E33031F140F4E130BE
:1002F000B1F0E230E1F0C038D1057CF7E4CFE7306F
:1003000029F1E83059F1E430B1F780918000806242
:1003100080938000D0938B00C0938A0004C084B582
:10032000806884BDC7BDDF91CF911F91089584B5CA
:10033000806284BDC8BDF7CF8091800080688093C3
:100340008000D0938900C0938800EDCF8091B000E9
:1003500080688093B000C093B300E5CF8091B00077
:1003600080628093B000C093B400DDCFAF92BF92A3
:10037000CF92DF92EF92FF920F931F93CF93DF9371
:100380006C017B018B01040F151FEB015E01AE18A0
:10039000BF08C017D10759F06991D601ED91FC91C2
:1003A0000190F081E02DC6010995892B79F7C501EF
:1003B000DF91CF911F910F91FF90EF90DF90CF9041
:1003C000BF90AF900895DC015196ED91FC9152974A
:1003D000908150968C9180958923808308952091F7
:1003E0007401309175012817390781F490917201D9
:1003F00080917301981751F0E0917201F0E0EE5C8A
:10040000FE4F8081082E000C990B08958FEF9FEF0F
:10041000089520917401309175012817390739F436
:100420008FB7F89410927301109272018FBF0895E4
:1004300020917401309175012817390771F480916A
:1004400073012091720190E0805C9F4F821B9109A3
:1004500060E470E00E94480A089590E080E008950A
:10046000209174013091750128173907B9F49091E2
:10047000720180917301981789F0E0917201F0E0A8
:10048000EE5CFE4F80812091720130E02F5F3F4F84
:100490002F7333272093720190E008958FEF9FEF21
:1004A000089520E001972FEF8F3F9207D9F7089525
:1004B00090E080E00895FC018081918186279183FE
:1004C000808328E040815181CA019695879540FF3D
:1004D00004C031E0832730EA932791838083215041
:1004E00089F708950F931F93CF93DF93EC018B014E
:1004F0008881653671051CF56C399FEF7907A4F189
:1005000016161706FCF461E00E94DC0060E08981A9
:100510000E94DC00B801110F880B990B0E944F0953
:1005200023E333E343E250E40E94B3090E94170936
:100530008A81DF91CF911F910F910C94590104E6AC
:1005400010E0E1CF672B99F060E00E94DC0061E0F1
:1005500089810E94DC0066277727601B710B072EBC
:10056000000C880B990BDACF0CE91FEFEDCF60E0A0
:100570000E94DC0060E089810E94DC0070E060E0A5
:10058000D7CFDC015E968D919C91DC01ED91FC91C1
:100590000084F185E02D09950895DC015E968D912A
:1005A0009C91DC01ED91FC910284F385E02D09958D
:1005B0000895DC015E968D919C91DC01ED91FC919A
:1005C0000190F081E02D09948F929F92AF92BF929B
:1005D000CF92DF92EF92FF920F931F93CF93DF930F
:1005E000EC01AD88BE88C988DA888FEF9FEF988FBD
:1005F0008F8BD601A60FB71F7D016A157B0540F5CD
:10060000AD014F5F5F4F9B012F5F3F4F8C91853551
:10061000E1F4C501861B970B9E8B8D8B8B010A1B0A
:100620001B0B6796C701800F911F8A159B0590F4DD
:10063000F70161914F01CE010E945B02F7018081B9
:10064000F60181936F017401EDCFDA01B901D4CFC6
:100650001E8A1D8ADF91CF911F910F91FF90EF901D
:10066000DF90CF90BF90AF909F908F9008950F93A1
:100670001F93CF93C62F8A01DC01ED91FC9100847A
:10068000F185E02D09956C2FC801CF911F910F9135
:100690000C945B028F929F92AF92BF92CF92DF92A7
:1006A000EF92FF920F931F93CF93DF9300D0CDB7BC
:1006B000DEB77C01862E942E152F59018FEF9FEF08
:1006C0009A838983690186E0C80ED11CD701ED9118
:1006D000FC910680F781E02DB601C7010995AE01B6
:1006E0004F5F5F4F65E5C7010E943703AE014F5F63
:1006F0005F4F6C2DC7010E943703AE014F5F5F4F04
:100700006D2DC7010E943703AE014F5F5F4F682D0B
:10071000C7010E943703C92CD12EAC0CBD1CAC14F0
:10072000BD0489F0002361F0F6016491AE014F5FD2
:100730005F4FC7010E943703BFEFCB1ADB0AEFCF31
:10074000D6016C91F3CFD701ED91FC910084F18536
:10075000E02D6981C70109956A81D701ED91FC916E
:100760000084F185E02DC70109950F900F90DF916E
:10077000CF911F910F91FF90EF90DF90CF90BF909E
:10078000AF909F908F900895EF92FF920F931F93D9
:10079000CF93DF9300D000D0CDB7DEB77C01DC0172
:1007A0005196ED91FC915297818190E0AC014650B9
:1007B00051092381203409F47FC020F42223B9F0A9
:1007C00080E06FC0203809F483C0203CC9F7199637
:1007D0002D913C911A9715964D915C9116971B9609
:1007E0008D919C91480F591F00E060EC2BC017962B
:1007F0002D913C91D9018C91452B41F5882381F1B4
:10080000F70103811481828163E070E0853010F488
:1008100062E070E09B012F5F3F4FDE01119690E098
:1008200080E0AD01F801E80FF91FE491ED93019626
:1008300086179707B9F7840F951F60EFDC016C935B
:1008400000E060E0C7010E944A031AC0349681E0CC
:100850009D912191291380E09111FACF882381F293
:10086000F701258536854381548101E060E0C701A9
:100870000E944A03D7011F96ED91FC9181E080838D
:100880002FB7F8948091810190918201A09183010A
:10089000B09184012FBFF701818F928FA38FB48F06
:1008A00081E00F900F900F900F90DF91CF911F91EB
:1008B0000F91FF90EF900895F7012385348581858E
:1008C0009285280F391F4581568100E060E4BACF38
:1008D0001B962D913C911C972417350781F4AF018D
:1008E0004C5F5F4F15960D90BC91A02D0197853000
:1008F000910529F0FA012191AF012D93F7CF00E086
:1009000030E020E050E040E060E89CCF089508959A
:1009100081E00895DF92EF92FF920F931F93CF93A0
:10092000DF93EC01898D9A8D892B71F481E090E041
:100930009B838A8390E080E0DF91CF911F910F919C
:10094000FF90EF90DF900895162FDFB6F8948B8D0F
:1009500081FD29C0CE010E94E301898D9A8D059603
:100960000E9451028B8D98E0E92EF12C01E081FF6D
:1009700028C0812F8023F1F0CE010E94E301898DF0
:100980009A8D0E945102000F81E0E81AF10889F760
:10099000CE010E94E301DFBE898D9A8D0E94510233
:1009A00081E090E0C9CFE989FA8980819889892B13
:1009B0008083D3CFE989FA8980819889892B8083C4
:1009C000DECF812F8023B1F0E989FA89808198896F
:1009D000892B8083898D9A8D0E945102000F81E0BE
:1009E000E81AF10871F7E989FA8980819889892BD9
:1009F0008083D1CFCE010E94E301ECCF1F920F92F2
:100A00000FB60F9211242F933F938F939F93AF9321
:100A1000BF938091810190918201A0918301B09157
:100A200084013091800123E0230F2D3758F5019682
:100A3000A11DB11D209380018093810190938201BB
:100A4000A0938301B093840180917C0190917D01FA
:100A5000A0917E01B0917F010196A11DB11D8093EF
:100A60007C0190937D01A0937E01B0937F01BF91A3
:100A7000AF919F918F913F912F910F900FBE0F904B
:100A80001F90189526E8230F0296A11DB11DD2CF05
:100A90001F920F920FB60F921124EF92FF920F93B5
:100AA0001F932F933F934F935F936F937F938F93F6
:100AB0009F93AF93BF93CF93DF93EF93FF93C09137
:100AC0007401D0917501209749F0EE85FF859D85D1
:100AD0008B8D81FF1AC080818923D1F4FF91EF9122
:100AE000DF91CF91BF91AF919F918F917F916F9146
:100AF0005F914F913F912F911F910F91FF90EF9038
:100B00000F900FBE0F901F9018958081892331F7A9
:100B10008B899C890E94510288E0E82EF12C10E01C
:100B200001E08D899E890E945102EE85FF858081BA
:100B30009D85892339F1102B000F81E0E81AF10817
:100B400081F78F89988D0E9451028B8D81FD1095C0
:100B5000809173012091720190E001968F73992723
:100B60002817190699F0E0917301F0E0EE5CFE4F52
:100B700010838091730190E001968F739927809381
:100B80007301ACCF802F80951823D6CF8B8D8160D9
:100B90008B8FA4CF1F920F920FB60F9211242F9319
:100BA0003F934F935F936F937F938F939F93AF93F5
:100BB000BF93EF93FF930E944805FF91EF91BF9180
:100BC000AF919F918F917F916F915F914F913F91E5
:100BD0002F910F900FBE0F901F9018951F920F929C
:100BE0000FB60F9211242F933F934F935F936F9300
:100BF0007F938F939F93AF93BF93EF93FF930E9445
:100C00004805FF91EF91BF91AF919F918F917F9197
:100C10006F915F914F913F912F910F900FBE0F9069
:100C20001F901895CF93DF9300D0CDB7DEB778949F
:100C300084B5826084BD84B5816084BD85B58260E1
:100C400085BD85B5816085BD80916E008160809392
:100C50006E001092810080918100826080938100FB
:100C6000809181008160809381008091800081600B
:100C7000809380008091B10084608093B100809166
:100C8000B00081608093B00080917A00846080938E
:100C90007A0080917A00826080937A0080917A0055
:100CA000816080937A0080917A00806880937A00D6
:100CB0001092C10061E087E00E94280161E086E0B7
:100CC0000E94280161E085E00E94280161E084E043
:100CD0000E94280161E08DE00E94280180E290E0FE
:100CE0000E94700A7C0182E291E0D7018D939C936F
:100CF0008CE190E00E94700A8C01FC011382128248
:100D000088EE93E0A0E0B0E084839583A683B78368
:100D100080E191E091838083148A138A168A158A70
:100D2000108E178A128E118E838D8E7F8D7F838F0A
:100D300061E083E00E94280161E083E00E94DC0022
:100D4000E4E5F1E0E491D8015096EC93E0E4F1E0C1
:100D5000E491F0E0EE0FFF1FED5CFE4F8591949162
:100D6000F801928B818B60E082E00E942801D8011B
:100D70005B968C9181FD04C061E082E00E94DC0002
:100D800082E0F8018487E3E5F1E0E491D8011D9663
:100D9000EC93EFE3F1E0E491F0E0EE0FFF1FEC5F86
:100DA000FE4F85919491F80197878687D7015F96CA
:100DB0001C930E935E97128E118E108E178A168AD0
:100DC000158A148A138A90E080E0FC01E859FF4FED
:100DD0004591559165917491403855426105710571
:100DE00009F0CCC0FC01E459FF4F25913491F80182
:100DF000348B238BFC01E259FF4F25913491D801AC
:100E000056963C932E935597FC01E059FF4F259140
:100E10003491F801308F278BFC01EE58FF4F8591FC
:100E200094915A969C938E935997F8018789908D47
:100E3000892B39F1809168008460809368009485E3
:100E4000EDE6F0E0983050F0EBE6F0E09E3030F068
:100E5000ECE6F0E0963110F0F0E0E0E04081292F80
:100E600030E0983008F090C081E001C0880F9A957A
:100E7000EAF7842B8083D80159968D919C910E942A
:100E8000510280917401909175010817190779F04A
:100E9000F801838D8E7F838F8FB7F8941092730142
:100EA0001092720110937501009374018FBFEEE0F0
:100EB000F1E08491EFE0F1E08F3F09F072C084919E
:100EC000E0E1F1E0E491FE2FE82FD7011C96FC93BE
:100ED000EE931B97E1E1F1E08491E2E1F1E0E4912E
:100EE000FE2FE82F1A96FC93EE931997E3E1F1E0B9
:100EF0002491CF0102963196E491FE2FE22FD70183
:100F00001E96FC93EE931D9714969C938E931397C5
:100F1000FC01849112968C93129786E791E01696C5
:100F20009C938E9315971B968D919C911C97199667
:100F30000D911C911A97080F191FF801EA58FE4FDE
:100F40006F015096FC93EE931F97108220E331E0DF
:100F500018963C932E931797069654969C938E93CF
:100F600053970E94700AD70152969C938E93519783
:100F7000E6E7F1E0015020F11192FCCF0C968C399C
:100F8000910509F022CF51CF9E3040F4285031090D
:100F900081E001C0880F2A95EAF76BCF2E50310906
:100FA000F7CF90E0D7011C969C938E931B97E4910A
:100FB000F0E01A96FC93EE931997E0E1F1E098CFF8
:100FC000F701168A158A8FEF9FEF908F878BD601D6
:100FD0001C922FB7F8948091810190918201A09189
:100FE0008301B09184012FBF818F928FA38FB48F23
:100FF0000190F081E02D0190F081E02DC70109956D
:10100000D7015D968C93F0927B01E0927A01AA243D
:10101000AA94BA2C90E0292E90E0392E44244A94C8
:10102000542C00917A0110917B01F801858D882361
:1010300009F4CFC00190F081E02D0280F381E02D12
:10104000C80109953801F7E16F0E711CD801ED91C7
:10105000FC910484F585E02DC8010995882309F4E5
:1010600082C0D801ED91FC910284F385E02DC80186
:101070000995F801258936892115310511F4853541
:1010800029F7D8015196ED91FC915297A9014F5F34
:101090005F4F56965C934E935597E20FF31F8083F4
:1010A000682FC3010E945B02F80125893689838974
:1010B00094898217930728F461E070E0C8010E94C8
:1010C000E402D80155968D919C91569786309105F2
:1010D00008F4BCCF5196ED91FC915297C180D2801B
:1010E00053962D913C912C153D0530F3B6E0CB166F
:1010F000D10410F38C159D05A1F4F8018789908D1A
:10110000892BD1F6C8010E94C4038823A9F2D80113
:1011100056961C921E9255975896BC92AE9257972F
:1011200095CFC816D90608F091CF5A8249827F011F
:101130004F018C0C9D1CE814F90441F0F7016191FA
:101140007F01CE0101960E945B02F5CF89819A81D1
:10115000892B09F0B1CFC8010E94C403B6018823CE
:1011600009F4AACFABCF2FB7F89480918101909169
:101170008201A0918301B09184012FBFF801418DBC
:10118000528D638D748D841B950BA60BB70B89381C
:101190009341A105B105E8F0D80156961C921E9224
:1011A00055975896BC92AE9257971F96ED91FC9129
:1011B00010822FB7F8948091810190918201A091C3
:1011C0008301B09184012FBFF801818F928FA38F8B
:1011D000B48F61E080917801811101C060E08DE001
:1011E0000E94DC008091770160917601062E000C50
:1011F000770B680F711D87FD7A9583E091E00E945F
:10120000720260917701062E000C770B80917601B7
:10121000681B710987FD739580E091E00E9472025E
:101220002114310409F4FDCE0E940000FACE0E9480
:101230001E096894B1110C94AD0908950E94920999
:1012400088F09F5798F0B92F9927B751B0F0E1F087
:10125000660F771F881F991F1AF0BA95C9F714C037
:10126000B13091F00E94AC09B1E008950C94AC0942
:10127000672F782F8827B85F39F0B93FCCF3869570
:1012800077956795B395D9F73EF4909580957095CD
:1012900061957F4F8F4F9F4F0895E89409C097FB4A
:1012A0003EF490958095709561957F4F8F4F9F4F3D
:1012B0009923A9F0F92F96E9BB279395F695879581
:1012C00077956795B795F111F8CFFAF4BB0F11F444
:1012D00060FF1BC06F5F7F4F8F4F9F4F16C08823EB
:1012E00011F096E911C0772321F09EE8872F762F21
:1012F00005C0662371F096E8862F70E060E02AF062
:101300009A95660F771F881FDAF7880F969587954D
:1013100097F9089557FD9058440F551F59F05F3FB6
:1013200071F04795880F97FB991F61F09F3F79F007
:1013300087950895121613061406551FF2CF469589
:10134000F1DF08C0161617061806991FF1CF86950B
:101350007105610508940895E894BB2766277727EF
:10136000CB0197F908950E94C6090C94370A0E9490
:10137000290A38F00E94300A20F0952311F00C94CD
:10138000200A0C94260A11240C94AD090E948A09A3
:1013900070F3959FC1F3950F50E0551F629FF001C8
:1013A000729FBB27F00DB11D639FAA27F00DB11DE1
:1013B000AA1F649F6627B00DA11D661F829F22276A
:1013C000B00DA11D621F739FB00DA11D621F839FF1
:1013D000A00D611D221F749F3327A00D611D231FC7
:1013E000849F600D211D822F762F6A2F11249F5715
:1013F00050409AF0F1F088234AF0EE0FFF1FBB1F18
:10140000661F771F881F91505040A9F79E3F5105D6
:1014100080F00C94200A0C94AD095F3FE4F3983EF1
:10142000D4F3869577956795B795F795E7959F5F80
:10143000C1F7FE2B880F911D9695879597F9089512
:1014400097F99F6780E870E060E008959FEF80EC77
:10145000089500240A94161617061806090608951A
:1014600000240A9412161306140605060895092E80
:101470000394000C11F4882352F0BB0F40F4BF2BEF
:1014800011F460FF04C06F5F7F4F8F4F9F4F08952F
:1014900097FB072E16F4009407D077FD09D00E9421
:1014A0005C0A07FC05D03EF4909581959F4F089506
:1014B000709561957F4F0895AA1BBB1B51E107C032
:1014C000AA1FBB1FA617B70710F0A61BB70B881FD4
:1014D000991F5A95A9F780959095BC01CD01089563
:1014E0000F931F93CF93DF938230910510F482E026
:1014F00090E0E0918701F091880130E020E0B0E0D9
:10150000A0E0309799F42115310509F44AC0281B51
:10151000390B24303105D8F58A819B81611571051D
:1015200089F1FB0193838283FE0111C040815181C7
:101530000281138148175907E0F04817590799F4B9
:10154000109761F012960C93129713961C93329693
:10155000CF01DF91CF911F910F91089500938701E3
:1015600010938801F4CF2115310551F0421753072C
:1015700038F0A901DB019A01BD01DF01F801C1CFFB
:10158000EF01F9CF9093880180938701CDCFFE01C1
:10159000E20FF31F819391932250310939832883FD
:1015A000D7CF2091850130918601232B41F42091E2
:1015B0000801309109013093860120938501209123
:1015C0000601309107012115310541F42DB73EB7D1
:1015D00040910A0150910B01241B350BE0918501CC
:1015E000F0918601E217F307A0F42E1B3F0B28179A
:1015F000390778F0AC014E5F5F4F2417350748F08C
:101600004E0F5F1F50938601409385018193919304
:101610009FCFF0E0E0E09CCFCF93DF930097E9F01D
:10162000FC01329713821282A0918701B091880148
:10163000ED0130E020E01097A1F420813181820F8C
:10164000931F20918501309186012817390709F0F1
:1016500061C0F0938601E0938501DF91CF910895F9
:10166000EA01CE17DF07E8F54A815B819E0141154B
:101670005105B1F7E901FB83EA8349915991C40F00
:10168000D51FEC17FD0761F4808191810296840FCC
:10169000951FE90199838883828193819B838A8343
:1016A000F0E0E0E012968D919C9113970097B9F5C8
:1016B0002D913C911197CD010296820F931F20919D
:1016C0008501309186012817390739F6309751F591
:1016D0001092880110928701B0938601A093850132
:1016E000BCCFD383C28340815181840F951FC8171B
:1016F000D90761F44E5F5F4F88819981480F591F68
:10170000518340838A819B81938382832115310594
:1017100009F0B0CFF0938801E09387019ECFFD01DF
:0E172000DC01C0CF13821282D7CFF894FFCF26
:10172E0005040907060A0000890180000000000078
:10173E008A04B6015802090218023002EF010000B5
:10174E0000008804870487048604D902CD02C102F2
:02175E00000089
:00000001FF
