:100000000C9424010C9438010C9438010C943801A0
:100010000C9438010C9438010C9438010C9438017C
:100020000C9438010C9438010C9438010C9438016C
:100030000C9438010C9438010C9438010C9438015C
:100040000C9438010C9438010C9438010C9438014C
:100050000C9438010C9438010C9438010C94F6017E
:100060000C9438010C9438010C9438010C9438012C
:100070000C9438010C9438010C9438010C9438011C
:100080000C9438010C9438010C9438010C9438010C
:100090000C9438010C9438010C9438010C943801FC
:1000A0000C9438010C9438010C9438010C943801EC
:1000B0000C9438010C9438010C9438010C943801DC
:1000C0000C9438010C9438010C9438010C943801CC
:1000D0000C9438010C9438010C9438010C943801BC
:1000E0000C9438010C94A6010C94B0010C94BA0144
:1000F0000C94BE010C9483010C946F010C94940138
:100100000C9487010C946A010C949E010C94B40128
:100110000C94AC010C948E010C948B010C949801FE
:100120000C947F010C94A2010000220025002800FD
:100130002B002E00310034000201000005010801EF
:100140000B0100002100240027002A002D003000B0
:10015000330001010000040107010A010000200032
:100160002300260029002C002F003200000100008F
:10017000030106010901050505050705080808082A
:10018000020202020A0A080804040404010101012F
:10019000010101010303030303030303040707072A
:1001A0000C0C0C0C0C0C0C0C0202020206060606CF
:1001B000060606060B0B0B0B0B0B0B0B010210209C
:1001C000200808102040102040800201020108048D
:1001D0000201010204081020408080402010080421
:1001E000020180040201804020100804020108047A
:1001F00002010102040810204080010204081020BE
:10020000408000000A0B02090C0D0E0807030401D0
:1002100000000000000000000000000000000000DE
:1002200000000000000000000000000000001211AB
:1002300010000000000000000000000000000000AE
:10024000000000000000000011241FBECFEFD1E22B
:10025000DEBFCDBF00E00CBF22E0A0E0B2E001C0F5
:100260001D92A930B207E1F70E9440020C94E5020A
:100270000C940000282F30E0F901EE5FFD4F9491BF
:10028000F901E454FE4F44912A583E4FF90124915C
:10029000222309F477C0992311F191509231F8F497
:1002A000E92FF0E08827E85AFE4F8F4F0C94DD02CB
:1002B00087018B016A017F0183016F018E01940127
:1002C00098019E01A201A601AC01B0016F01B40129
:1002D000BA01BE01809180008F7780938000E22F69
:1002E000F0E0EE0FFF1FE45AFE4FA591B491EC91A0
:1002F000E42381E090E009F047C080E00895809118
:1003000080008F7DEACF80918000877FE6CF84B523
:100310008F7784BDE4CF84B58F7DFBCF8091B00013
:100320008F778093B000DBCF8091B0008F7DF9CFC5
:10033000809190008F7780939000D1CF8091900032
:100340008F7DF9CF80919000877FF5CF8091A000BD
:100350008F778093A000C3CF8091A0008F7DF9CFCD
:100360008091A000877FF5CF809120018F778093C7
:100370002001B5CF809120018F7DF9CF80912001A0
:10038000877FF5CF80E090E00895CF93DF9390E0F2
:10039000FC01E454FE4F24918A589E4FFC01849145
:1003A0008823D1F090E0880F991FFC01EE5BFE4F8F
:1003B000A591B491FC01E85DFE4FC591D491611106
:1003C0000EC09FB7F8948C91E22FE0958E238C930A
:1003D0002881E223E8839FBFDF91CF9108958FB7F3
:1003E000F894EC91E22BEC938FBFF6CF1F920F9213
:1003F0000FB60F9211242F933F938F939F93AF9338
:10040000BF938091050290910602A0910702B091DE
:1004100008023091040223E0230F2D3758F501968E
:10042000A11DB11D20930402809305029093060242
:10043000A0930702B09308028091000290910102FC
:10044000A0910202B09103020196A11DB11D8093FB
:10045000000290930102A0930202B0930302BF91A5
:10046000AF919F918F913F912F910F900FBE0F9061
:100470001F90189526E8230F0296A11DB11DD2CF1B
:10048000789484B5826084BD84B5816084BD85B56F
:10049000826085BD85B5816085BD80916E0081607B
:1004A00080936E0010928100809181008260809321
:1004B0008100809181008160809381008091800023
:1004C0008160809380008091B10084608093B1004E
:1004D0008091B00081608093B00080919100826033
:1004E0008093910080919100816080939100809130
:1004F00090008160809390008091A1008260809341
:10050000A1008091A10081608093A1008091A00052
:1005100081608093A00080912101826080932101FD
:10052000809121018160809321018091200181606F
:100530008093200180917A00846080937A0080917A
:100540007A00826080937A0080917A008160809343
:100550007A0080917A00806880937A001092C100BE
:1005600060E082E00E94C50160E083E00E94C50176
:1005700061E084E00E94C50161E085E00E94C50160
:1005800061E086E00E94C50161E088E00E94C5014B
:1005900061E089E00E94C50161E08AE00E94C50136
:1005A000C0E0D0E082E00E943A0183E00E943A017C
:1005B0002097C1F30E940000F5CFEE0FFF1F881FA8
:0E05C0008BBF0790F691E02D1994F894FFCFB1
:00000001FF
