:100000000C9462000C948A000C948A000C948A0070
:100010000C948A000C948A000C948A000C949D0421
:100020000C948A000C948A000C948A000C94C204EC
:100030000C948A000C948A000C948A000C948A0018
:100040000C94FB030C948A000C946B040C944504F0
:100050000C948A000C948A000C948A000C948A00F8
:100060000C948A000C948A00000000080002010031
:100070000003040700000000000000000000000072
:10008000240027002A000000000023002600290089
:1000900000000000250028002B00040404040404D0
:1000A0000404020202020202030303030303010227
:1000B00004081020408001020408102001020408F6
:1000C00010207E0511241FBECFEFD8E0DEBFCDBFCC
:1000D00011E0A0E0B1E0EEE3F1E202C005900D9284
:1000E000AE3BB107D9F722E0AEEBB1E001C01D9203
:1000F000A63FB207E1F710E0C2E6D0E004C02197C6
:10010000FE010E94A50EC136D107C9F70E9416064E
:100110000C949D100C94000090E0FC01E255FF4F00
:10012000249186569F4FFC018491882399F090E09A
:10013000880F991FFC01E458FF4FA591B491FC0171
:10014000E057FF4F859194918FB7F894EC91E22B93
:10015000EC938FBF0895CF92DF92EF92FF92DC0174
:10016000A03282E0B807D4F5A53BB10514F0A4EBAA
:10017000B0E04091F00228E830E0241B310947FD4F
:100180003395220F331F220F331F6901330FEE08FF
:10019000FF084091F10228E532E0241B310947FDB8
:1001A0003395220F331F220F331F032E000C440BF5
:1001B000550B2C193D094E095F09B7FF02C0B0E08D
:1001C000A0E00E94FD0C24EB30E040E050E00E94F3
:1001D000D30CC20ED31EE41EF51ED601E091EF0231
:1001E000EC3080F52091F00288E890E0821B9109C4
:1001F00027FD9395880F991F880F991FA817B90796
:1002000084F02091F10288E592E0821B910927FD9C
:100210009395880F991F880F991FA817B9070CF499
:10022000CD010297880F991F4FB7F8942E2F30E019
:10023000F901EE0FFF1FE20FF31FEA54FD4F928307
:1002400081834FBFFF90EF90DF90CF90089590E0B3
:10025000FC01E859FF4F2491FC01E255FF4F349116
:10026000FC01E656FF4FE491EE23C9F0222339F05A
:10027000233001F1A8F4213019F1223029F1F0E006
:10028000EE0FFF1FE057FF4FA591B4918FB7F89481
:10029000EC91611126C030953E233C938FBF0895A9
:1002A0002730A9F02830C9F0243049F78091800028
:1002B0008F7D03C0809180008F7780938000DFCF97
:1002C00084B58F7784BDDBCF84B58F7DFBCF8091E4
:1002D000B0008F778093B000D2CF8091B0008F7D37
:1002E000F9CF3E2BDACF3FB7F89480911502909169
:1002F0001602A0911702B091180226B5A89B05C05E
:100300002F3F19F00196A11DB11D3FBFBA2FA92F94
:10031000982F8827BC01CD01620F711D811D911D91
:1003200042E0660F771F881F991F4A95D1F70895FD
:100330008F929F92AF92BF92CF92DF92EF92FF92F5
:100340004B015C010E9473016B017C010E947301EF
:100350006C197D098E099F09683E734081059105DE
:10036000A8F321E0821A9108A108B10888EEC80E0E
:1003700083E0D81EE11CF11C81149104A104B10496
:1003800029F7FF90EF90DF90CF90BF90AF909F90B4
:100390008F900895AF92BF92CF92DF92EF92FF922B
:1003A0000F931F93CF93DF936C017B018B01040F9D
:1003B000151FEB015E01AE18BF08C017D10759F039
:1003C0006991D601ED91FC910190F081E02DC6017B
:1003D0000995892B79F7C501DF91CF911F910F9175
:1003E000FF90EF90DF90CF90BF90AF900895089569
:1003F000FC01538D448D252F30E0842F90E0821B2B
:10040000930B541710F0CF96089501970895FC01AF
:10041000918D828D981761F0A28DAE0FBF2FB11D07
:100420005D968C91928D9F5F9F73928F90E008955F
:100430008FEF9FEF0895FC01918D828D981731F019
:10044000828DE80FF11D858D90E008958FEF9FEF6D
:100450000895FC01918D228D892F90E0805C9F4F43
:10046000821B91098F739927089589E192E00E9478
:10047000290221E0892B09F420E0822F089580E0F1
:1004800090E0892B29F00E94350281110C94000024
:100490000895FC01A48DA80FB92FB11DA35ABF4F19
:1004A0002C91848D90E001968F739927848FA68973
:1004B000B7892C93A089B1898C91837080648C93C7
:1004C000938D848D981306C00288F389E02D808176
:1004D0008F7D80830895EF92FF920F931F93CF93A8
:1004E000DF93EC0181E0888F9B8D8C8D98131AC06F
:1004F000E889F989808185FF15C09FB7F894EE8956
:10050000FF896083E889F9898081837080648083B2
:100510009FBF81E090E0DF91CF911F910F91FF90FD
:10052000EF900895F62E0B8D10E00F5F1F4F0F73A5
:100530001127E02E8C8D8E110CC00FB607FCFACF60
:10054000E889F989808185FFF5CFCE010E944902B3
:10055000F1CFEB8DEC0FFD2FF11DE35AFF4FF08231
:100560009FB7F8940B8FEA89FB8980818062CFCF97
:10057000CF93DF93EC01888D8823B9F0AA89BB89DA
:10058000E889F9898C9185FD03C0808186FD0DC0C5
:100590000FB607FCF7CF8C9185FFF2CF808185FFE6
:1005A000EDCFCE010E944902E9CFDF91CF910895AE
:1005B000FC0101900020E9F73197AF01481B590B6E
:1005C000BC0189E192E00C94CA018F929F92AF9294
:1005D000BF920F931F93CF93DF93CDB7DEB7A19751
:1005E0000FB6F894DEBF0FBECDBF19A2423008F49B
:1005F0004AE08E010F5D1F4F842E912CB12CA12C4F
:10060000A50194010E943C0DE62FB901CA01EA3010
:10061000F4F4E05DD801EE938D01232B242B252BE0
:1006200079F790E080E0109719F0CD010E94D80290
:10063000A1960FB6F894DEBF0FBECDBFDF91CF916C
:100640001F910F91BF90AF909F908F900895E95C9C
:10065000E1CFCF93DF930E94D802EC0182E391E0D7
:100660000E94D8028C0F9D1FDF91CF9108950C94AA
:10067000D802CF92DF92EF92FF92CF93DF936C017B
:10068000990FEE08FF08F7FE19C06DE289E192E0CC
:100690000E946B02EC0166277727CB016C197D095C
:1006A0008E099F094AE00E94E5028C0F9D1FDF9191
:1006B000CF91FF90EF90DF90CF9008954AE0C7016F
:1006C000B601DF91CF91FF90EF90DF90CF900C9427
:1006D000E502CF93DF930E943903EC0182E391E0BE
:1006E0000E94D8028C0F9D1FDF91CF9108950F9328
:1006F0001F93CF93DF93EC0188819981009759F084
:100700002A813B812617370730F081E0DF91CF91B6
:100710001F910F9108958B016F5F7F4F0E94D00F43
:10072000009759F0998388831B830A832C813D812C
:10073000232B59F7FC011082E8CF80E0E7CFCF935D
:10074000DF93EC0188819981009711F00E94470F97
:10075000198218821D821C821B821A82DF91CF911E
:100760000895CF92DF92EF92FF920F931F93CF9352
:10077000DF93CDB7DEB762970FB6F894DEBF0FBE3A
:10078000CDBF8C01CB01F80111821082138212823D
:10079000158214824AE09E012F5F3F4F6901B90123
:1007A0000E947A0BF60101900020E9F731977F0152
:1007B000EC18FD08B701C8010E947703811112C02F
:1007C000C8010E949F0362960FB6F894DEBF0FBE69
:1007D000CDBFDF91CF911F910F91FF90EF90DF90F0
:1007E000CF900895F801F582E482B601808191816D
:1007F0000E949610E8CF1F920F920FB60F9211240D
:100800002F933F938F939F93AF93BF938091110248
:1008100090911202A0911302B09114023091100233
:1008200023E0230F2D3758F50196A11DB11D20930C
:1008300010028093110290931202A0931302B093BE
:1008400014028091150290911602A0911702B091A6
:1008500018020196A11DB11D8093150290931602F6
:10086000A0931702B0931802BF91AF919F918F91FF
:100870003F912F910F900FBE0F901F90189526E873
:10088000230F0296A11DB11DD2CF1F920F920FB65A
:100890000F9211242F933F934F935F936F937F9306
:1008A0008F939F93AF93BF93EF93FF9389E192E070
:1008B0000E944902FF91EF91BF91AF919F918F915B
:1008C0007F916F915F914F913F912F910F900FBE4C
:1008D0000F901F9018951F920F920FB60F92112430
:1008E0002F938F939F93EF93FF93E0912902F091C1
:1008F0002A028081E0912F02F091300282FD1BC01C
:100900009081809132028F5F8F7320913302821722
:1009100041F0E0913202F0E0E75EFD4F958F809369
:100920003202FF91EF919F918F912F910F900FBE07
:100930000F901F9018958081F4CF1F920F920FB6E1
:100940000F9211242F933F934F935F936F937F9355
:100950008F939F93AF93BF93EF93FF93F0E0E0E00B
:100960000995FF91EF91BF91AF919F918F917F91E9
:100970006F915F914F913F912F910F900FBE0F900C
:100980001F9018951F920F920FB60F9211242F935C
:100990003F934F935F936F937F938F939F93AF9307
:1009A000BF93CF93DF93EF93FF938091C201C091E8
:1009B000DA02D0E087FF24C01092850010928400F4
:1009C0008091C2018F5F8093C2018091C201082E85
:1009D000000C990B8C179D0724F48091C2018C3078
:1009E000C4F18091840090918500049680349C49E4
:1009F00008F47AC08091840090918500049676C0B6
:100A00008091C201082E000C990B8C179D07C4F62B
:100A1000E091C2018E2FEE0F990BFC01EE0FFF1F2C
:100A2000E80FF91FEA54FD4F808186FFC9CFE0919E
:100A3000C2018E2FEE0F990BFC01EE0FFF1FE80F86
:100A4000F91FEA54FD4F808160E08F730E942701F7
:100A5000B7CF2091840030918500E091C2018E2FA4
:100A6000EE0F990BFC01EE0FFF1FE80FF91FEA5480
:100A7000FD4F81819281820F931F90938900809313
:100A80008800E091C2018E2FEE0F990BFC01EE0F52
:100A9000FF1FE80FF91FEA54FD4F808186FF11C048
:100AA000E091C2018E2FEE0F990BFC01EE0FFF1F9C
:100AB000E80FF91FEA54FD4F808161E08F730E94B7
:100AC0002701FF91EF91DF91CF91BF91AF919F915E
:100AD0008F917F916F915F914F913F912F910F90E7
:100AE0000FBE0F901F90189580E49CE990938900A9
:100AF000809388008FEF8093C201E3CF10921C0295
:100B000010921B0288EE93E0A0E0B0E080931D02FB
:100B100090931E02A0931F02B093200284E291E002
:100B200090931A028093190285EC90E0909326022C
:100B30008093250284EC90E0909328028093270212
:100B400080EC90E090932A028093290281EC90E05F
:100B500090932C0280932B0282EC90E090932E02D3
:100B600080932D0286EC90E09093300280932F02C8
:100B70001092320210923302109234021092350217
:100B80008091DA028C3008F04DC091E0980F90937C
:100B9000DA028093EF0290E0FC01EE0FFF1FE80FF6
:100BA000F91FEA54FD4F88EB9BE092838183E8EBC9
:100BB000F0E084918093E102E491E093E20284EA20
:100BC00090E0FC012491E22FF0E0EE0FFF1FE057D0
:100BD000FF4F259134913093E4022093E302FC010E
:100BE0002491E22FF0E0EE0FFF1FEA57FF4F25910F
:100BF00034913093E6022093E502FC018491E82FC2
:100C0000F0E0EE0FFF1FE458FF4F85919491909311
:100C1000E8028093E70281E299E09093EA028093F0
:100C2000E90208958FEF8093EF02C1CFCF93DF9356
:100C3000CDB7DEB72E970FB6F894DEBF0FBECDBF8F
:100C4000789484B5826084BD84B5816084BD85B5A7
:100C5000826085BD85B5816085BD80916E008160B3
:100C600080936E0010928100809181008260809359
:100C7000810080918100816080938100809180005B
:100C80008160809380008091B10084608093B10086
:100C90008091B00081608093B00080917A00846080
:100CA00080937A0080917A00826080937A008091AC
:100CB0007A00816080937A0080917A0080688093C6
:100CC0007A001092C10088E00E948C0087E00E94A8
:100CD0008C0086E00E948C00E0912902F0912A02AB
:100CE00082E08083E0912502F09126021082E0915B
:100CF0002702F091280280E1808310923102E09176
:100D00002D02F0912E0286E08083E0912B02F0917B
:100D10002C02808180618083E0912B02F0912C0273
:100D2000808188608083E0912B02F0912C02808189
:100D300080688083E0912B02F0912C0280818F7D6E
:100D400080838091EF028C3008F050C08CE00E94CC
:100D50008C008091EF02282F30E0F901EE0FFF1F89
:100D6000E20FF31FEA54FD4F9081907C9C609083CA
:100D70001092F0021092F1022CE0622F0E94850E78
:100D8000829FB001112430E020E0AB01420F531FDD
:100D9000FA01EE0FFF1FE40FF51FEA54FD4F90819B
:100DA00096FD16C02F5F3F4F2C30310571F7811132
:100DB0000FC01092800082E0809381001092850025
:100DC00010928400B19A80916F00826080936F00CE
:100DD000E091EF028E2F90E0FC01EE0FFF1FE80F75
:100DE000F91FEA54FD4F80818064808362E370E0E4
:100DF00080E090E00E9498018DE590E00E94AB00B9
:100E0000B3EC2B2EB1E03B2E2FEF33E030930301F8
:100E1000209302011092010110920001AAE06A2EB3
:100E2000A1E07A2E87EF91E09E878D876C0118E212
:100E3000812F8770806480937C0080917A00806429
:100E400080937A0080917A0086FDFCCF60917800D3
:100E500080917900F301219131913F01782F620F48
:100E6000731FF601619371936F018091020190915C
:100E700003016817790724F470930301609302015A
:100E800080910001909101018617970724F47093D7
:100E9000010160930001CE0101960E94B103188602
:100EA0001F821A8619861C861B86E980FA80E11447
:100EB000F10469F04D805E80B201CE0107960E9478
:100EC00077038111D1C1CE0107960E949F03EB8465
:100ED000FC84FFEFEF1AFF0AB701CE0107960E94CC
:100EE0007703882309F4C8C12F8138858B859C85B9
:100EF00065E371E0820F931F0E949610FC86EB86DB
:100F00004B855C856F81788589E192E00E94CA01FA
:100F10008F8198850E94470F89819A810E94470F8F
:100F20001F5F133309F084CF87E691E00E943703F7
:100F300088E891E00E9437038091000190910101BF
:100F40000E94390388E691E00E94370387E391E02D
:100F50000E94370380910201909103010E9439039E
:100F60008AE391E00E9437036091000170910101D2
:100F7000072E000C880B990B0E94B60B6B017C01AD
:100F80006091020170910301072E000C880B990BF0
:100F90000E94B60B9B01AC01C701B6010E94DA0D9D
:100FA0006B017C012B013C01AC019B010E94800E76
:100FB000882309F466C184E491E00E94D80280E5A8
:100FC00091E00E943703F1EEEF2EF1E0FF2E870152
:100FD000ED85FE8561917191FE87ED87409100015D
:100FE000509101012091020130910301CA01821B3D
:100FF000930B97FD03969595879595958795481B37
:10100000590B641775070CF4D0C1220F331F6217F8
:1010100073070CF4CAC121E030E0F801318320836A
:10102000F801619171918F01CE0101960E94B10387
:101030004D815E8169817A8189E192E00E94CA01D5
:1010400089819A810E94470F2DE032E08D859E852F
:101050002817390709F0BCCF1092E0011092DF0188
:101060001092DE011092DD011092DC011092DB0182
:101070001092DA011092D90184E591E00E943703C1
:1010800003EC11E0F701819191917F01F8018193C7
:1010900091938F010E943903F7EFEF16F1E0FF06FD
:1010A00089F787E691E00E9429034091DF01509182
:1010B000E0012091DB013091DC016091DD01709154
:1010C000DE018091D9019091DA01E9EDF1E0A3EC24
:1010D000B1E00D911D91012B09F06BC14115510536
:1010E00011F42F5F3F4F12910291012B09F064C15F
:1010F0006115710509F401962E163F0651F770939C
:10110000DE016093DD019093DA018093D901509361
:10111000E0014093DF013093DC012093DB01890182
:10112000081B190B820F931F90930F0280930E02DE
:1011300089E691E00E94290388E591E00E94370347
:1011400080910E0290910F020E9469038BE691E05C
:101150000E94370388E791E00E9437038091DB010A
:101160009091DC010E9439038EE791E00E943703E1
:101170008091D9019091DA010E94390384E891E0CD
:101180000E9437038091DF019091E0010E943903B2
:101190008BE891E00E9437038091DD019091DE01A0
:1011A0000E94390382E991E00E9437038091DB01BC
:1011B0009091D901890F80930D02082E000C990B94
:1011C0000E9469031093DC020093DB028DE991E039
:1011D0000E9437038091DB029091DC020E94390368
:1011E0008091DB029091DC029C01215031092B306F
:1011F000310508F0E4C086EA91E00E942903E090FE
:10120000DB02F090DC0227010F2C000C6608770847
:10121000C0900E02D0900F0287EF91E097FFDCC0E4
:10122000A4ECBFEFA3019201255F3F4F4F4F5F4FEB
:101230000E94000D26E130E040E050E00E94D30C17
:10124000DA01C90185589F4FAF4FBF4F5C01E6E1FE
:10125000CE16D10409F4DCC020910D0227300CF425
:10126000D7C00E94AB00D4C05C864B86B7018F818B
:1012700098850E9496102BCECE0107960E949F0360
:101280003FCE46015701E894B7F82FEF3FEF4FE705
:101290005FE7C501B4010E94800E81110DC02FEFE0
:1012A0003FEF4FE75FE7C501B4010E94AF0B18168F
:1012B0001CF488E491E081CE2FEF3FEF4FE75FE42D
:1012C000C701B6010E947B0E18161CF48CE491E055
:1012D00074CE2FEF3FEF4FE75FECC701B6010E94DE
:1012E000AF0B87FDF3CF20E030E0A901C701B601C5
:1012F0000E94AF0B87FF0BC06DE289E192E00E9474
:101300006B022601370177FA709477F870942AE01F
:1013100037ED43EA5BE3C301B2010E946E0D2B017E
:101320003C010E944C0E6B017C010E94B40B9B019E
:10133000AC01C301B2010E946D0D2B013C014AE0DA
:10134000C701B6010E94E5026EE289E192E00E94C7
:101350006B0220E030E040E251E4C301B2010E94A0
:10136000150C2B013C010E944C0E6B01F12CE12C61
:101370004AE0C701B6010E94E502C701B6010E941A
:10138000B40B9B01AC01C301B2010E946D0D20E0C2
:1013900030E040E251E40E94150C0E944C0E90E0B7
:1013A00080E04AE00E94E5020ACEF8011182108234
:1013B00037CE4F5F5F4F97CE6F5F7F4F9DCE853F9C
:1013C0002FEF920718F089EA91E017CF892B09F0E7
:1013D00016CF8CEA91E011CFAAEBBFEFA3019201E7
:1013E000265F3F4F4F4F5F4F0E94000D24E130E0DA
:1013F00040E050E00E94D30CDA01C90180589F4FB1
:10140000AF4FBF4F5C01F6E1CF16D10409F024CFF6
:10141000A3019201F7FC32C025503109410951095D
:10142000ACEEBFEF0E94000D26E030E040E050E05F
:101430000E94D30C89019A0108581F4F2F4F3F4F2C
:1014400024E0E20EF11C39E0E316F10410F408E7A1
:1014500010E061E087E00E94270160E086E00E94E2
:10146000270186E1C816D10409F47AC00F3F11059F
:1014700091F461E088E00E94270138C02B5F3F4F64
:101480004F4F5F4FACEEBFEF0E94000D2AEF3FEFD2
:101490004FEF5FEFCDCF88E00E948C000115110562
:1014A00011F460E0E7CFE0E7F0E0E491E330F1F140
:1014B00040F4E130B9F0E230A1F100381105CCF68A
:1014C000F0CFE730E9F1E83009F442C0E430A9F7A1
:1014D0008091800080628093800010938B00009345
:1014E0008A0004C084B5806884BD07BD87E691E0AA
:1014F0000E943703C5010E94390387E691E00E94EC
:101500003703C8010E94690380E090E0892B09F449
:101510007BCC0E943502882309F472CC0E94000023
:101520006FCC84B5806284BD08BDE0CF809180001F
:101530008068809380001093890000938800D6CF44
:101540008091B00080688093B0000093B300CECF4C
:101550008091B00080628093B0000093B400C6CF49
:101560006EE170E080E090E00E949801E091E70277
:10157000F091E80280819091E102892B8083E091D3
:10158000E302F091E40290818091E1028095892349
:1015900080838BE090E00197F1F7E091E302F09116
:1015A000E40280819091E102892B808383E290E0C4
:1015B0000197F1F7E091E302F091E40290818091CC
:1015C000E102809589238083E091E702F091E802AF
:1015D00090818091E102809589238083E091E502EA
:1015E000F091E60280819091E202892399F0F12C3A
:1015F000E12C80EB91E00E943703C70169E370E0C2
:101600000E94910ECB010E9439038BEB91E00E9466
:10161000290347CF0E947301AB01BC018091E9020D
:101620009091EA02B0E0A0E08855994EAF4FBF4FCD
:10163000840F951FA61FB71F8093EB029093EC02B7
:10164000A093ED02B093EE02E091E502F091E60284
:1016500080819091E202892381F40E947301C090FD
:10166000EB02D090EC02E090ED02F090EE02C61694
:10167000D706E806F90640F7BACF0E947301209119
:10168000E9023091EA02620F731F811D911D609380
:10169000EB027093EC028093ED029093EE02E091E6
:1016A000E502F091E60280819091E202892381F0C7
:1016B0000E947301C090EB02D090EC02E090ED022A
:1016C000F090EE02C616D706E806F90640F78FCF6F
:1016D0000E947301E090E902F090EA02E5E0EE1A60
:1016E000F1082091EB023091EC02E21AF30AE60EC7
:1016F000F71E7FCFBB274A3031F4992322F4BDE295
:10170000909581959F4F0C94860BBB27FB01552725
:10171000AA27880F991FAA1FA41710F0A41B83954E
:101720005051B9F7A05DAA3308F0A95DA1930097C5
:1017300079F7B111B1931192CB010C949F0BDC019D
:10174000FC01672F71917723E1F7329704C07C91F8
:101750006D9370836291AE17BF07C8F308950E941E
:10176000F10B08F481E00895E89409C097FB3EF47A
:1017700090958095709561957F4F8F4F9F4F9923DE
:10178000A9F0F92F96E9BB279395F695879577955C
:101790006795B795F111F8CFFAF4BB0F11F460FF1C
:1017A0001BC06F5F7F4F8F4F9F4F16C0882311F074
:1017B00096E911C0772321F09EE8872F762F05C088
:1017C000662371F096E8862F70E060E02AF09A9523
:1017D000660F771F881FDAF7880F9695879597F918
:1017E0000895990F0008550FAA0BE0E8FEEF1616B2
:1017F0001706E807F907C0F012161306E407F50705
:1018000098F0621B730B840B950B39F40A2661F078
:10181000232B242B252B21F408950A2609F4A1401B
:10182000A6958FEF811D811D08950E94280C0C94B0
:10183000990C0E948B0C38F00E94920C20F095239A
:1018400011F00C94820C0C94880C11240C94CD0C87
:101850000E94AA0C70F3959FC1F3950F50E0551F9D
:10186000629FF001729FBB27F00DB11D639FAA27F5
:10187000F00DB11DAA1F649F6627B00DA11D661F44
:10188000829F2227B00DA11D621F739FB00DA11D65
:10189000621F839FA00D611D221F749F3327A00D1F
:1018A000611D231F849F600D211D822F762F6A2FBB
:1018B00011249F5750409AF0F1F088234AF0EE0F20
:1018C000FF1FBB1F661F771F881F91505040A9F74D
:1018D0009E3F510580F00C94820C0C94CD0C5F3F20
:1018E000E4F3983ED4F3869577956795B795F79589
:1018F000E7959F5FC1F7FE2B880F911D9695879501
:1019000097F9089597F99F6780E870E060E008957F
:101910009FEF80EC089500240A9416161706180607
:101920000906089500240A941216130614060506E3
:101930000895092E0394000C11F4882352F0BB0F74
:1019400040F4BF2B11F460FF04C06F5F7F4F8F4FD7
:101950009F4F089557FD9058440F551F59F05F3F12
:1019600071F04795880F97FB991F61F09F3F79F0C1
:1019700087950895121613061406551FF2CF469543
:10198000F1DF08C0161617061806991FF1CF8695C5
:101990007105610508940895E894BB2766277727A9
:1019A000CB0197F90895052E97FB1EF400940E9431
:1019B000EA0C57FD07D00E943C0D07FC03D04EF403
:1019C0000C94EA0C50954095309521953F4F4F4F20
:1019D0005F4F089590958095709561957F4F8F4FDB
:1019E0009F4F08950E945E0DA59F900DB49F900D8E
:1019F000A49F800D911D11240895B7FF0C94F20C43
:101A00000E94F20C821B930B08952F923F924F92EB
:101A10005F926F927F928F929F92AF92BF92CF927E
:101A2000DF92EF92FF920F931F93CF93DF93CDB787
:101A3000DEB7CA1BDB0B0FB6F894DEBF0FBECDBFFF
:101A400009942A88398848885F846E847D848C84D0
:101A50009B84AA84B984C884DF80EE80FD800C81D9
:101A60001B81AA81B981CE0FD11D0FB6F894DEBFBC
:101A70000FBECDBFED010895A1E21A2EAA1BBB1B1C
:101A8000FD010DC0AA1FBB1FEE1FFF1FA217B3074A
:101A9000E407F50720F0A21BB30BE40BF50B661F60
:101AA000771F881F991F1A9469F760957095809524
:101AB00090959B01AC01BD01CF010895A29FB0019B
:101AC000B39FC001A39F700D811D1124911DB29F72
:101AD000700D811D1124911D08955058BB27AA2710
:101AE0000E94850D0C94990C0E948B0C38F00E947A
:101AF000920C20F039F49F3F19F426F40C94880CD2
:101B00000EF4E095E7FB0C94820CE92F0E94AA0CDE
:101B100058F3BA17620773078407950720F079F422
:101B2000A6F50C94CC0C0EF4E0950B2EBA2FA02D3C
:101B30000B01B90190010C01CA01A0011124FF277A
:101B4000591B99F0593F50F4503E68F11A16F04075
:101B5000A22F232F342F4427585FF3CF4695379574
:101B60002795A795F0405395C9F77EF41F16BA0B39
:101B7000620B730B840BBAF09150A1F0FF0FBB1FE7
:101B8000661F771F881FC2F70EC0BA0F621F731F30
:101B9000841F48F4879577956795B795F7959E3F8D
:101BA00008F0B0CF9395880F08F09927EE0F97951E
:101BB000879508950E94EE0D0C94990C0E94920C4A
:101BC00058F00E948B0C40F029F45F3F29F00C94F0
:101BD000820C51110C94CD0C0C94880C0E94AA0C10
:101BE00068F39923B1F3552391F3951B550BBB274C
:101BF000AA2762177307840738F09F5F5F4F220F91
:101C0000331F441FAA1FA9F335D00E2E3AF0E0E887
:101C100032D091505040E695001CCAF72BD0FE2FD1
:101C200029D0660F771F881FBB1F26173707480765
:101C3000AB07B0E809F0BB0B802DBF01FF2793581D
:101C40005F4F3AF09E3F510578F00C94820C0C9453
:101C5000CD0C5F3FE4F3983ED4F386957795679576
:101C6000B795F7959F5FC9F7880F911D9695879552
:101C700097F90895E1E0660F771F881FBB1F621771
:101C800073078407BA0720F0621B730B840BBA0B2F
:101C9000EE1F88F7E09508950E94B20C88F09F57D8
:101CA00098F0B92F9927B751B0F0E1F0660F771F80
:101CB000881F991F1AF0BA95C9F714C0B13091F076
:101CC0000E94CC0CB1E008950C94CC0C672F782FB7
:101CD0008827B85F39F0B93FCCF38695779567953B
:101CE000B395D9F73EF490958095709561957F4FA7
:101CF0008F4F9F4F08950E94F10B08F48FEF0895C6
:101D00000E94F10B880B990B0895991B79E004C090
:101D1000991F961708F0961B881F7A95C9F780952A
:101D20000895AA1BBB1B51E107C0AA1FBB1FA61722
:101D3000B70710F0A61BB70B881F991F5A95A9F774
:101D400080959095BC01CD010895EE0FFF1F059081
:101D5000F491E02D09940F931F93CF93DF9382307A
:101D6000910510F482E090E0E091F402F091F50228
:101D700030E020E0B0E0A0E0309799F42115310583
:101D800009F44AC0281B390B24303105D8F58A8163
:101D90009B816115710589F1FB0193838283FE01AB
:101DA00011C0408151810281138148175907E0F029
:101DB0004817590799F4109761F012960C931297EF
:101DC00013961C933296CF01DF91CF911F910F9103
:101DD00008950093F4021093F502F4CF2115310514
:101DE00051F04217530738F0A901DB019A01BD01F8
:101DF000DF01F801C1CFEF01F9CF9093F502809395
:101E0000F402CDCFFE01E20FF31F81939193225094
:101E1000310939832883D7CF2091F2023091F30220
:101E2000232B41F420910601309107013093F302F6
:101E30002093F20220910401309105012115310512
:101E400041F42DB73EB74091080150910901241B80
:101E5000350BE091F202F091F302E217F307A0F4E0
:101E60002E1B3F0B2817390778F0AC014E5F5F4FF0
:101E70002417350748F04E0F5F1F5093F30240932D
:101E8000F202819391939FCFF0E0E0E09CCFCF935B
:101E9000DF930097E9F0FC01329713821282A09140
:101EA000F402B091F502ED0130E020E01097A1F4CA
:101EB00020813181820F931F2091F2023091F30231
:101EC0002817390709F061C0F093F302E093F2029A
:101ED000DF91CF910895EA01CE17DF07E8F54A8137
:101EE0005B819E0141155105B1F7E901FB83EA834E
:101EF00049915991C40FD51FEC17FD0761F48081FA
:101F000091810296840F951FE901998388838281CC
:101F100093819B838A83F0E0E0E012968D919C91FF
:101F200013970097B9F52D913C911197CD01029629
:101F3000820F931F2091F2023091F3022817390784
:101F400039F6309751F51092F5021092F402B093E1
:101F5000F302A093F202BCCFD383C28340815181AC
:101F6000840F951FC817D90761F44E5F5F4F8881B2
:101F70009981480F591F518340838A819B819383A4
:101F800082832115310509F0B0CFF093F502E0937B
:101F9000F4029ECFFD01DC01C0CF13821282D7CFA5
:101FA000B0E0A0E0E6EDFFE00C94070D8C01009797
:101FB00051F4CB010E94AB0E8C01C801CDB7DEB746
:101FC000E0E10C94230DFC01E60FF71F9C01225069
:101FD0003109E217F30708F49DC0D901CD91DC91D6
:101FE0001197C617D70798F0C530D10530F3CE0149
:101FF00004978617970708F3C61BD70B2297C19340
:10200000D1936D937C93CF010E94470FD6CF5B0194
:10201000AC1ABD0A4C018C0E9D1EA091F402B09129
:10202000F502512C412CF12CE12C109731F58091C7
:10203000F2029091F3028815990509F05CC04616EA
:10204000570608F058C0809104019091050100974F
:1020500041F48DB79EB74091080150910901841B4E
:10206000950BE817F90708F055C0F093F302E093D9
:10207000F202F90171836083A0CF8D919C91119739
:1020800012966C90129713967C901397A815B90529
:1020900059F56C0142E0C40ED11CCA14DB0420F1D6
:1020A000AC014A195B09DA011296159780F0628239
:1020B000738251834083D9016D937C93E114F104C1
:1020C00071F0D7011396FC93EE93129776CF229678
:1020D0008C0F9D1FF90191838083F301EFCFF09363
:1020E000F502E093F40269CF4816590608F42C0172
:1020F0007D01D3019ACFCB010E94AB0E7C010097EA
:1021000049F0AE01B8010E948D10C8010E94470F2E
:10211000870153CF10E000E050CFFB01DC0102C08B
:1021200001900D9241505040D8F70895FB01DC0119
:0E21300001900D920020E1F70895F894FFCF82
:10213E00E80346000000F6028000FDFFFEFF0000EF
:10214E00FFFFFEFFFEFF0000FEFFFEFFECFFFFFFA6
:10215E00000000006B02CA01F801B8022902070252
:10216E001B020D0A002C00772000202020636F65D3
:10217E0066205B006E616E00696E66006F766600AB
:10218E005D2020002046200077617463685F7472C2
:10219E0061636B5F76616C202020006C2C722C6C5E
:1021AE00622C7262203D20002020206C2000202016
:1021BE00207220002020206C6220002020207262DD
:1021CE0020002020206C722073756D2000457272E5
:1021DE006F7220202000203E00203C00207C20003A
:0E21EE0044697374616E63653A2000636D008E
:00000001FF
