:100000000C94C3010C94E4010C94E4010C94E401FD
:100010000C94E4010C94E4010C94E4010C94E401CC
:100020000C94E4010C94BE060C946C070C944407E9
:100030000C94E4010C94E4010C94E4010C94E401AC
:100040000C94E4010C94E4010C94E4010C94E4019C
:100050000C94E4010C94E4010C94E4010C947406F7
:100060000C94E4010C94E4010C94E4010C94E4017C
:100070000C94E4010C94E4010C94E4010C94E4016C
:100080000C94E4010C94E4010C94E4010C94E4015C
:100090000C94E4010C94E4010C94E4010C94E4014C
:1000A0000C94E4010C94E4010C94E4010C94E4013C
:1000B0000C94E4010C94E4010C94E4010C94E4012C
:1000C0000C94E4010C94E4010C94E4010C94E4011C
:1000D0000C94E4010C94E4010C94E4010C94E4010C
:1000E0000C94E4010C9420030C945E020C941C0408
:1000F0000C944C020C944E040C947A030C946802F9
:100100000C94F4030C94CD030C9416030C94460247
:100110000C9431020C94FE050C94B3030C946B0305
:100120000C9442040C9416020C9434030C941B029D
:100130000C9406030C94E3020C940E030C94F2024C
:100140000C94FC050C9457030C942A030C944D0357
:100150000C943C020C9400060C9462020C94540221
:100160000C946C020C9443030C942D020C944202E8
:100170000C9475030C9450020C9439020C94610396
:100180000C9435020C94DB020C94DC030C94E80212
:100190000C9436040C94FD050C945A020C94FC0249
:1001A00000C201000100110011000C0000E100007C
:1001B0000A002500250021000096000019003900E2
:1001C00039003600127A00001F0046004600440045
:1001D0008070000022004D004D004A00004B0000DE
:1001E0003600750075007200403800004A009C001F
:1001F0009C009900802500007200EC00EC00E900F2
:10020000C0120000E900DA01DA01D701600900003C
:10021000D701B603B603B303B0040000B3036E07FF
:100220006E076B07580200006E07DC0EDC0ED80E5E
:100230002C010000DC0EC11DC11DBE1D00002000F0
:100240002300260029002C002F00320000010000AE
:10025000030106010901FF030000002300080D004F
:1002600001013D0812121B18E296B20001013D2364
:1002700012121B18E296BC00038304021F0B181A0B
:1002800000002100240027002A002D003000330048
:1002900001010000040107010A01000022002500FD
:1002A00028002B002E00310034000201000005015F
:1002B00008010B01050505050705080808080202E5
:1002C00002020A0A080804040404010101010101F0
:1002D00001010303030303030303040707070C0CD3
:1002E0000C0C0C0C0C0C020202020606060606069A
:1002F00006060B0B0B0B0B0B0B0B0102102020083F
:100300000810204010204080020102010804020170
:1003100001020408102040808040201008040201DF
:100320008004020180402010080402010804020138
:1003300001020408102040800102040810204080BF
:1003400000000A0B02090C0D0E080703040100004F
:10035000000000000000000000000000000000009D
:10036000000000000000000000000000121110005A
:10037000000000000000000000000000000000007D
:1003800000000000000011241FBECFEFD1E2DEBF4D
:10039000CDBF00E00CBF12E0A0E0B2E0E4E3F8E182
:1003A00000E00BBF02C007900D92AC32B107D9F745
:1003B00022E0ACE2B2E001C01D92A338B207E1F73F
:1003C0000E9494070C94180C0C940000282F30E025
:1003D000F901E05CFC4F9491F901E650FD4F449126
:1003E0002C543D4FF9012491222309F435C099235F
:1003F00011F191509231F8F4E92FF0E08827EC5F89
:10040000FD4F8F4F0C94D70A3502390216022D0288
:1004100031021B023C02420246024C0250025402CC
:100420005A025E021B02620268026C028091800026
:100430008F7780938000E22FF0E0EE0FFF1FE656EB
:10044000FD4FA591B4918FB7F894EC91611148C01C
:1004500040954E234C938FBF0895809180008F7DEF
:10046000E8CF80918000877FE4CF84B58F7784BD0B
:10047000E2CF84B58F7DFBCF8091B0008F778093E2
:10048000B000D9CF8091B0008F7DF9CF80919000DE
:100490008F7780939000CFCF809190008F7DF9CFA0
:1004A00080919000877FF5CF8091A0008F77809317
:1004B000A000C1CF8091A0008F7DF9CF8091A000D6
:1004C000877FF5CF809120018F7780932001B3CF74
:1004D000809120018F7DF9CF80912001877FF5CF1A
:1004E0004E2BB8CFCF93DF9390E0FC01E650FD4F49
:1004F00024918C549D4FFC0184918823D1F090E08D
:10050000880F991FFC01E058FD4FA591B491FC01A3
:10051000E656FD4FC591D49161110EC09FB7F89476
:100520008C91E22FE0958E238C932881E223E8833F
:100530009FBFDF91CF9108958FB7F894EC91E22B94
:10054000EC938FBFF6CF1F93CF93DF93182FEB0160
:1005500061E00E947202209739F460E0812FDF9100
:10056000CF911F910C94E601CF3FD10511F461E0CA
:10057000F5CFE12FF0E0E05CFC4FE491E150E23197
:1005800008F0B3C0F0E08827E753FD4F8F4F0C947D
:10059000D70ADB02E302E802F202FC02750306035B
:1005A0000E03160320032A03340343034D0375038C
:1005B000570361036B0384B5806884BDC7BDDF91B9
:1005C000CF911F91089584B5806284BDC8BDF7CFD7
:1005D00080918000806880938000D0938900C093D0
:1005E0008800EDCF80918000806280938000D0935E
:1005F0008B00C0938A00E3CF809180008860809355
:100600008000D0938D00C0938C00D9CF8091B00032
:1006100080688093B000C093B300D1CF8091B000C8
:1006200080628093B000C093B400C9CF80919000E5
:10063000806880939000D0939900C0939800BFCFBA
:1006400080919000806280939000D0939B00C09333
:100650009A00B5CF80919000886080939000D093ED
:100660009D00C0939C00ABCF8091A00080688093D8
:10067000A0008091A0008F7B8093A000D093A90060
:10068000C093A8009CCF8091A00080628093A000BE
:10069000D093AB00C093AA0092CF8091A000886055
:1006A0008093A000D093AD00C093AC0088CF809120
:1006B0002001806880932001D0932901C0932801F4
:1006C0007ECF80912001806280932001D0932B0106
:1006D000C0932A0174CF809120018860809320010B
:1006E000D0932D01C0932C016ACFC038D1050CF0F6
:1006F0003ECF33CFAF92BF92CF92DF92EF92FF9275
:100700000F931F93CF93DF936C017B018B01040F39
:10071000151FEB015E01AE18BF08C017D10759F0D5
:100720006991D601ED91FC910190F081E02DC60117
:100730001995892B79F7C501DF91CF911F910F9101
:10074000FF90EF90DF90CF90BF90AF900895DC01C5
:100750005196ED91FC915297908150968C91809595
:1007600089238083089520916E0230916F022817AB
:10077000390781F490916C0280916D02981751F0C5
:10078000E0916C02F0E0E45DFD4F8081082E000CEA
:10079000990B08958FEF9FEF089520916E0230918D
:1007A0006F022817390739F48FB7F89410926D0249
:1007B00010926C028FBF089520916E0230916F02EB
:1007C0002817390771F480916D0220916C0290E036
:1007D000805C9F4F821B910960E470E00E94C30A15
:1007E000089590E080E0089520916E0230916F02AC
:1007F00028173907B9F490916C0280916D0298170F
:1008000089F0E0916C02F0E0E45DFD4F8081209181
:100810006C0230E02F5F3F4F2F73332720936C0221
:1008200090E008958FEF9FEF089520E001972FEF5C
:100830008F3F9207D9F7089590E080E00895FC017A
:100840008081918186279183808328E04081518136
:10085000CA019695879540FF04C031E0832730EAAE
:10086000932791838083215089F70895DC015E9658
:100870008D919C91DC01ED91FC910084F185E02D3E
:1008800019950895DC015E968D919C91DC01ED91A6
:10089000FC910284F385E02D19950895DC015E96A4
:1008A0008D919C91DC01ED91FC910190F081E02D06
:1008B00019948F929F92AF92BF92CF92DF92EF9254
:1008C000FF920F931F93CF93DF93EC01AD88BE8807
:1008D000C988DA888FEF9FEF988F8F8BD601A60F8C
:1008E000B71F7D016A157B0540F5AD014F5F5F4F76
:1008F0009B012F5F3F4F8C918535E1F4C501861B2D
:10090000970B9E8B8D8B8B010A1B1B0B6796C70168
:10091000800F911F8A159B0590F4F70161914F019B
:10092000CE010E941F04F7018081F60181936F01BF
:100930007401EDCFDA01B901D4CF1E8A1D8ADF918F
:10094000CF911F910F91FF90EF90DF90CF90BF90CC
:10095000AF909F908F9008950F931F93CF93C62FC2
:100960008A01DC01ED91FC910084F185E02D19955F
:100970006C2FC801CF911F910F910C941F048F927F
:100980009F92AF92BF92CF92DF92EF92FF920F931E
:100990001F93CF93DF931F921F92CDB7DEB77C01D9
:1009A000862E942E152F59018FEF9FEF9A838983FE
:1009B000690186E0C80ED11CD701ED91FC9106803B
:1009C000F781E02DB601C7011995AE014F5F5F4F6A
:1009D00065E5C7010E94AC04AE014F5F5F4F6C2D0F
:1009E000C7010E94AC04AE014F5F5F4F6D2DC70180
:1009F0000E94AC04AE014F5F5F4F682DC7010E949B
:100A0000AC04C92CD12EAC0CBD1CAC14BD0489F0B7
:100A1000002361F0F6016491AE014F5F5F4FC701A3
:100A20000E94AC04BFEFCB1ADB0AEFCFD6016C916A
:100A3000F3CFD701ED91FC910084F185E02D698120
:100A4000C70119956A81D701ED91FC910084F18568
:100A5000E02DC70119950F900F90DF91CF911F9155
:100A60000F91FF90EF90DF90CF90BF90AF909F904D
:100A70008F900895EF92FF920F931F93CF93DF9380
:100A800000D01F92CDB7DEB77C01DC015196ED910D
:100A9000FC915297818190E0AC014650510923812D
:100AA000203409F47FC020F42223B9F080E06FC025
:100AB000203809F483C0203CC9F719962D913C9148
:100AC0001A9715964D915C9116971B968D919C9156
:100AD000480F591F00E060EC2BC017962D913C91F8
:100AE000D9018C91452B41F5882381F1F7010381D0
:100AF0001481828163E070E0853010F462E070E080
:100B00009B012F5F3F4FDE01119690E080E0AD0129
:100B1000F801E80FF91FE491ED9301968617970706
:100B2000B9F7840F951F60EFDC016C9300E060E083
:100B3000C7010E94BF041AC0349681E09D912191A3
:100B4000291380E09111FACF882381F2F7012585DE
:100B500036854381548101E060E0C7010E94BF04F3
:100B6000D7011F96ED91FC9181E080832FB7F89417
:100B700080917B0290917C02A0917D02B0917E02D7
:100B80002FBFF701818F928FA38FB48F81E00F90D9
:100B90000F900F900F90DF91CF911F910F91FF90C9
:100BA000EF900895F7012385348581859285280F7C
:100BB000391F4581568100E060E4BACF1B962D9124
:100BC0003C911C972417350781F4AF014C5F5F4FB0
:100BD00015960D90BC91A02D01978530910529F0B7
:100BE000FA012191AF012D93F7CF00E030E020E032
:100BF00050E040E060E89CCF0895089581E00895BA
:100C0000DF92EF92FF920F931F93CF93DF93EC014C
:100C1000898D9A8D892B71F481E090E09B838A8382
:100C200090E080E0DF91CF911F910F91FF90EF90C6
:100C3000DF900895162FDFB6F8948B8D81FD29C0C3
:100C4000CE010E94A703898D9A8D05960E941504F6
:100C50008B8D98E0E92EF12C01E081FF28C0812FD7
:100C60008023F1F0CE010E94A703898D9A8D0E9406
:100C70001504000F81E0E81AF10889F7CE010E94FF
:100C8000A703DFBE898D9A8D0E94150481E090E054
:100C9000C9CFE989FA8980819889892B8083D3CF4C
:100CA000E989FA8980819889892B8083DECF812F19
:100CB0008023B1F0E989FA8980819889892B808322
:100CC000898D9A8D0E941504000F81E0E81AF108C1
:100CD00071F7E989FA8980819889892B8083D1CF3E
:100CE000CE010E94A703ECCF1F920F920FB60F9276
:100CF00011242F933F938F939F93AF93BF93809132
:100D00007B0290917C02A0917D02B0917E02309195
:100D10007A0223E0230F2D3758F50196A11DB11D4E
:100D200020937A0280937B0290937C02A0937D02B1
:100D3000B0937E028091760290917702A091780222
:100D4000B09179020196A11DB11D80937602909316
:100D50007702A0937802B0937902BF91AF919F91EF
:100D60008F913F912F910F900FBE0F901F9018956C
:100D700026E8230F0296A11DB11DD2CF1F920F921C
:100D80000FB60F9211240BB60F92EF92FF920F93B2
:100D90001F932F933F934F935F936F937F938F9303
:100DA0009F93AF93BF93CF93DF93EF93FF93C09144
:100DB0006E02D0916F02209749F0EE85FF859D85E8
:100DC0008B8D81FF1CC080818923E1F4FF91EF911D
:100DD000DF91CF91BF91AF919F918F917F916F9153
:100DE0005F914F913F912F911F910F91FF90EF9045
:100DF0000F900BBE0F900FBE0F901F901895808123
:100E0000892321F78B899C890E94150488E0E82EAC
:100E1000F12C10E001E08D899E890E941504EE8579
:100E2000FF8580819D85892339F1102B000F81E09A
:100E3000E81AF10881F78F89988D0E9415048B8D2F
:100E400081FD109580916D0220916C0290E00196D9
:100E50008F7399272817190699F0E0916D02F0E039
:100E6000E45DFD4F108380916D0290E001968F73D9
:100E7000992780936D02AACF802F80951823D6CF13
:100E80008B8D81608B8FA2CF1F920F920FB60F9226
:100E900011240BB60F922F933F934F935F936F9351
:100EA0007F938F939F93AF93BF93EF93FF930E9492
:100EB000BE06FF91EF91BF91AF919F918F917F916E
:100EC0006F915F914F913F912F910F900BBE0F90BB
:100ED0000FBE0F901F9018951F920F920FB60F9292
:100EE00011240BB60F922F933F934F935F936F9301
:100EF0007F938F939F93AF93BF93EF93FF930E9442
:100F0000BE06FF91EF91BF91AF919F918F917F911D
:100F10006F915F914F913F912F910F900BBE0F906A
:100F20000FBE0F901F901895CF93DF931F921F92C3
:100F3000CDB7DEB7789484B5826084BD84B5816016
:100F400084BD85B5826085BD85B5816085BD809194
:100F50006E00816080936E0010928100809181000C
:100F60008260809381008091810081608093810004
:100F7000809180008160809380008091B1008460C6
:100F80008093B1008091B00081608093B000809127
:100F900091008260809391008091910081608093A4
:100FA0009100809190008160809390008091A100D9
:100FB00082608093A1008091A10081608093A10054
:100FC0008091A00081608093A000809121018260C7
:100FD0008093210180912101816080932101809182
:100FE000200181608093200180917A008460809349
:100FF0007A0080917A00826080937A0080917A00F2
:10100000816080937A0080917A00806880937A0072
:101010001092C10080E290E00E94F30A7C018CE112
:1010200092E0D7018D939C938CE190E00E94F30AAB
:101030008C01FC011382128288EE93E0A0E0B0E004
:1010400084839583A683B7838AE092E0918380832B
:10105000148A138A168A158A108E178A128E118E98
:10106000838D8E7F8D7F838F61E083E00E9472028B
:1010700061E083E00E94E601EDEFF2E0E491D80147
:101080005096EC93E7EBF2E0E491F0E0EE0FFF1FF7
:10109000E656FD4F85919491F801928B818B60E02B
:1010A00082E00E947202D8015B968C9181FD04C09F
:1010B00061E082E00E94E60182E0F8018487ECEFC3
:1010C000F2E0E491D8011D96EC93E6EBF2E0E491B6
:1010D000F0E0EE0FFF1FE45CFD4F85919491F80165
:1010E00097878687D7015F961C930E935E97128E23
:1010F000118E108E178A168A158A148A138A90E028
:1011000080E0FC01E056FE4F459155916591749148
:10111000403855426105710509F0ACC0FC01EC5541
:10112000FE4F25913491F801348B238BFC01EA5555
:10113000FE4F25913491D80156963C932E935597A6
:10114000FC01E855FE4F25913491F801308F278B33
:10115000FC01E655FE4F859194915A969C938E938F
:101160005997F8018789908D892B21F0818D928D77
:101170000E94150480916E0290916F020817190762
:1011800091F0D8015B968C915B978E7F5B968C93E8
:101190008FB7F89410926D0210926C0210936F0248
:1011A00000936E028FBFE6E5F2E08491E7E5F2E09E
:1011B0008F3F09F065C08491E8E5F2E0E491FE2FED
:1011C000E82FD7011C96FC93EE931B97E9E5F2E01C
:1011D0008491EAE5F2E0E491FE2FE82F1A96FC9361
:1011E000EE931997EBE5F2E02491CF010296319648
:1011F000E491FE2FE22FD7011E96FC93EE931D97EC
:1012000014969C938E931397FC01849112968C9361
:10121000129780E792E016969C938E9315971B96F3
:101220008D919C911C9719960D911C911A97080FFE
:10123000191FF801E059FD4F6F015096FC93EE9392
:101240001F9710822AE232E018963C932E9317974C
:10125000069654969C938E9353970E94F30AD70157
:1012600052969C938E935197E0E7F2E00150B8F0CC
:101270001192FCCF0C968C39910509F042CF71CFB9
:1012800090E0D7011C969C938E931B97E491F0E01D
:101290001A96FC93EE931997E8E5F2E0A5CFF701D3
:1012A000168A158A8FEF9FEF908F878BD6011C923D
:1012B0002FB7F89480917B0290917C02A0917D02DF
:1012C000B0917E022FBF818F928FA38FB48F019038
:1012D000F081E02D0190F081E02DC7011995D70133
:1012E0005D968C93F0927502E092740261E08DE05D
:1012F0000E94720261E08CE00E94720261E084E070
:101300000E94720261E085E00E94720261E086E064
:101310000E94720261E088E00E94720261E089E04E
:101320000E94720261E08AE00E947202AA24AA94DA
:10133000BA2C90E0292E90E0392E44244A94542C63
:101340000091740210917502F801858D882309F4CB
:10135000CFC00190F081E02D0280F381E02DC80123
:1013600019953801F7E16F0E711CD801ED91FC91D0
:101370000484F585E02DC8011995882309F482C0FD
:10138000D801ED91FC910284F385E02DC8011995F7
:10139000F801258936892115310511F4853529F79C
:1013A000D8015196ED91FC915297A9014F5F5F4F83
:1013B00056965C934E935597E20FF31F8083682FE8
:1013C000C3010E941F04F801258936898389948905
:1013D0008217930728F461E070E0C8010E94590465
:1013E000D80155968D919C9156978630910508F4B9
:1013F000BCCF5196ED91FC915297C180D28053960B
:101400002D913C912C153D0530F3B6E0CB16D1045F
:1014100010F3C816D906A1F4F8018789908D892B9D
:10142000D1F6C8010E943A058823A9F2D801569640
:101430001C921E9255975896BC92AE92579795CF94
:10144000C816D90608F091CF5A8249827F014F0110
:101450008C0C9D1CE814F90441F0F70161917F01A7
:10146000CE0101960E941F04F5CF89819A81892BB4
:1014700009F0B1CFC8010E943A05B601882309F4EA
:10148000AACFABCF2FB7F89480917B0290917C02CA
:10149000A0917D02B0917E022FBFF801418D528D47
:1014A000638D748D841B950BA60BB70B8938934104
:1014B000A105B105E8F0D80156961C921E925597E9
:1014C0005896BC92AE9257971F96ED91FC91108260
:1014D0002FB7F89480917B0290917C02A0917D02BD
:1014E000B0917E022FBFF801818F928FA38FB48FAE
:1014F00080917002813099F460E084E00E94E601FE
:1015000061E085E00E94E60170E060E086E00E9414
:10151000A30261E088E00E94E60160E016C08091CD
:101520007102813009F561E084E00E94E60160E02B
:1015300085E00E94E60170E060E086E00E94A30280
:1015400060E088E00E94E60161E089E00E94E60137
:1015500070E060E08AE00E94A3022114310409F4E3
:10156000EFCE0E940000ECCE60E084E00E94E60135
:1015700060E085E00E94E60170E060E086E00E94A5
:10158000A30260E0C7CF97FB072E16F4009407D0A4
:1015900077FD09D00E94DF0A07FC05D03EF4909544
:1015A00081959F4F0895709561957F4F0895EE0F37
:1015B000FF1F881F8BBF0790F691E02D1994AA1B7F
:1015C000BB1B51E107C0AA1FBB1FA617B70710F02E
:1015D000A61BB70B881F991F5A95A9F78095909560
:1015E000BC01CD0108950F931F93CF93DF938230F9
:1015F000910510F482E090E0E0918102F091820286
:1016000030E020E0B0E0A0E0309799F421153105FA
:1016100009F44AC0281B390B24303105D8F58A81DA
:101620009B816115710589F1FB0193838283FE0122
:1016300011C0408151810281138148175907E0F0A0
:101640004817590799F4109761F012960C93129766
:1016500013961C933296CF01DF91CF911F910F917A
:1016600008950093810210938202F4CF2115310571
:1016700051F04217530738F0A901DB019A01BD016F
:10168000DF01F801C1CFEF01F9CF9093820280937F
:101690008102CDCFFE01E20FF31F8193919322507F
:1016A000310939832883D7CF20917F02309180027E
:1016B000232B41F4209102023091030230938002E7
:1016C00020937F0220910002309101022115310503
:1016D00041F42DB73EB74091040250910502241BFE
:1016E000350BE0917F02F0918002E217F307A0F43E
:1016F0002E1B3F0B2817390778F0AC014E5F5F4F68
:101700002417350748F04E0F5F1F50938002409317
:101710007F02819391939FCFF0E0E0E09CCFCF9345
:10172000DF930097E9F0FC01329713821282A091B7
:101730008102B0918202ED0130E020E01097A1F427
:1017400020813181820F931F20917F02309180028E
:101750002817390709F061C0F0938002E0937F02F7
:10176000DF91CF910895EA01CE17DF07E8F54A81AE
:101770005B819E0141155105B1F7E901FB83EA83C5
:1017800049915991C40FD51FEC17FD0761F4808171
:1017900091810296840F951FE90199838883828144
:1017A00093819B838A83F0E0E0E012968D919C9177
:1017B00013970097B9F52D913C911197CD010296A1
:1017C000820F931F20917F023091800228173907E2
:1017D00039F6309751F51092820210928102B0933F
:1017E0008002A0937F02BCCFD383C283408151810A
:1017F000840F951FC817D90761F44E5F5F4F88812A
:101800009981480F591F518340838A819B8193831B
:1018100082832115310509F0B0CFF0938202E09365
:1018200081029ECFFD01DC01C0CF13821282D7CF8F
:04183000F894FFCF5A
:101834000000830280000000000000067A031C04FC
:10184400CD03DC03F403B30300000000FE05FD0533
:0C185400FD05FC054E04420436040000B3
:00000001FF
